{
  "_format": "hh-sol-artifact-1",
  "contractName": "SavingsContract",
  "sourceName": "contracts/SavingsContract.sol",
  "abi": [
    {
      "inputs": [
        {
          "internalType": "address",
          "name": "_stableCoinAddress",
          "type": "address"
        },
        {
          "internalType": "address",
          "name": "_contractTokenAddress",
          "type": "address"
        },
        {
          "internalType": "address",
          "name": "_regulatoryComplianceAddress",
          "type": "address"
        },
        {
          "internalType": "address",
          "name": "_nftContractAddress",
          "type": "address"
        }
      ],
      "stateMutability": "nonpayable",
      "type": "constructor"
    },
    {
      "inputs": [
        {
          "internalType": "address",
          "name": "target",
          "type": "address"
        }
      ],
      "name": "AddressEmptyCode",
      "type": "error"
    },
    {
      "inputs": [
        {
          "internalType": "address",
          "name": "account",
          "type": "address"
        }
      ],
      "name": "AddressInsufficientBalance",
      "type": "error"
    },
    {
      "inputs": [],
      "name": "FailedInnerCall",
      "type": "error"
    },
    {
      "inputs": [
        {
          "internalType": "address",
          "name": "owner",
          "type": "address"
        }
      ],
      "name": "OwnableInvalidOwner",
      "type": "error"
    },
    {
      "inputs": [
        {
          "internalType": "address",
          "name": "account",
          "type": "address"
        }
      ],
      "name": "OwnableUnauthorizedAccount",
      "type": "error"
    },
    {
      "inputs": [
        {
          "internalType": "address",
          "name": "token",
          "type": "address"
        }
      ],
      "name": "SafeERC20FailedOperation",
      "type": "error"
    },
    {
      "anonymous": false,
      "inputs": [
        {
          "indexed": true,
          "internalType": "address",
          "name": "user",
          "type": "address"
        }
      ],
      "name": "AgreementSent",
      "type": "event"
    },
    {
      "anonymous": false,
      "inputs": [
        {
          "indexed": true,
          "internalType": "address",
          "name": "recipient",
          "type": "address"
        },
        {
          "indexed": false,
          "internalType": "uint256",
          "name": "amount",
          "type": "uint256"
        }
      ],
      "name": "AirdropDistributed",
      "type": "event"
    },
    {
      "anonymous": false,
      "inputs": [
        {
          "indexed": true,
          "internalType": "address",
          "name": "user",
          "type": "address"
        },
        {
          "indexed": false,
          "internalType": "uint256",
          "name": "amount",
          "type": "uint256"
        }
      ],
      "name": "ContractTokenDeposited",
      "type": "event"
    },
    {
      "anonymous": false,
      "inputs": [
        {
          "indexed": true,
          "internalType": "address",
          "name": "user",
          "type": "address"
        },
        {
          "indexed": false,
          "internalType": "uint256",
          "name": "amount",
          "type": "uint256"
        }
      ],
      "name": "ContractTokenWithdrawn",
      "type": "event"
    },
    {
      "anonymous": false,
      "inputs": [
        {
          "indexed": true,
          "internalType": "address",
          "name": "user",
          "type": "address"
        },
        {
          "indexed": false,
          "internalType": "uint256",
          "name": "proposalId",
          "type": "uint256"
        },
        {
          "indexed": false,
          "internalType": "uint256",
          "name": "amount",
          "type": "uint256"
        }
      ],
      "name": "OwnerRefund",
      "type": "event"
    },
    {
      "anonymous": false,
      "inputs": [
        {
          "indexed": true,
          "internalType": "address",
          "name": "user",
          "type": "address"
        },
        {
          "indexed": false,
          "internalType": "uint256",
          "name": "proposalId",
          "type": "uint256"
        },
        {
          "indexed": false,
          "internalType": "uint256",
          "name": "amount",
          "type": "uint256"
        }
      ],
      "name": "OwnerWithdraw",
      "type": "event"
    },
    {
      "anonymous": false,
      "inputs": [
        {
          "indexed": true,
          "internalType": "address",
          "name": "previousOwner",
          "type": "address"
        },
        {
          "indexed": true,
          "internalType": "address",
          "name": "newOwner",
          "type": "address"
        }
      ],
      "name": "OwnershipTransferred",
      "type": "event"
    },
    {
      "anonymous": false,
      "inputs": [
        {
          "indexed": true,
          "internalType": "address",
          "name": "user",
          "type": "address"
        },
        {
          "indexed": false,
          "internalType": "uint256",
          "name": "amount",
          "type": "uint256"
        }
      ],
      "name": "StableCoinDeposited",
      "type": "event"
    },
    {
      "anonymous": false,
      "inputs": [
        {
          "indexed": true,
          "internalType": "address",
          "name": "user",
          "type": "address"
        },
        {
          "indexed": false,
          "internalType": "uint256",
          "name": "amount",
          "type": "uint256"
        }
      ],
      "name": "StableCoinWithdrawn",
      "type": "event"
    },
    {
      "inputs": [
        {
          "internalType": "address",
          "name": "user",
          "type": "address"
        }
      ],
      "name": "acceptIntoDAO",
      "outputs": [],
      "stateMutability": "nonpayable",
      "type": "function"
    },
    {
      "inputs": [
        {
          "internalType": "address",
          "name": "_daoGovernanceAddress",
          "type": "address"
        },
        {
          "internalType": "address",
          "name": "_prizeDistributionAddress",
          "type": "address"
        }
      ],
      "name": "bindAddress",
      "outputs": [],
      "stateMutability": "nonpayable",
      "type": "function"
    },
    {
      "inputs": [],
      "name": "contractToken",
      "outputs": [
        {
          "internalType": "contract IERC20",
          "name": "",
          "type": "address"
        }
      ],
      "stateMutability": "view",
      "type": "function"
    },
    {
      "inputs": [
        {
          "internalType": "uint256",
          "name": "amount",
          "type": "uint256"
        }
      ],
      "name": "deposit",
      "outputs": [],
      "stateMutability": "nonpayable",
      "type": "function"
    },
    {
      "inputs": [
        {
          "internalType": "uint256",
          "name": "amount",
          "type": "uint256"
        }
      ],
      "name": "depositContractToken",
      "outputs": [],
      "stateMutability": "nonpayable",
      "type": "function"
    },
    {
      "inputs": [
        {
          "internalType": "uint256",
          "name": "amount",
          "type": "uint256"
        }
      ],
      "name": "distributeAirdrop",
      "outputs": [],
      "stateMutability": "nonpayable",
      "type": "function"
    },
    {
      "inputs": [],
      "name": "fetchAddressesBySlots",
      "outputs": [
        {
          "internalType": "address[]",
          "name": "sortedAddresses",
          "type": "address[]"
        }
      ],
      "stateMutability": "view",
      "type": "function"
    },
    {
      "inputs": [],
      "name": "fetchUserAddresses",
      "outputs": [
        {
          "internalType": "address[]",
          "name": "",
          "type": "address[]"
        }
      ],
      "stateMutability": "view",
      "type": "function"
    },
    {
      "inputs": [
        {
          "internalType": "uint256",
          "name": "tokenId",
          "type": "uint256"
        }
      ],
      "name": "forfeitDAO",
      "outputs": [],
      "stateMutability": "nonpayable",
      "type": "function"
    },
    {
      "inputs": [],
      "name": "getContractBalance",
      "outputs": [
        {
          "internalType": "uint256",
          "name": "stableCoinBalance",
          "type": "uint256"
        },
        {
          "internalType": "uint256",
          "name": "contractTokenBalance",
          "type": "uint256"
        }
      ],
      "stateMutability": "view",
      "type": "function"
    },
    {
      "inputs": [],
      "name": "getTotalSlots",
      "outputs": [
        {
          "internalType": "uint256",
          "name": "",
          "type": "uint256"
        }
      ],
      "stateMutability": "view",
      "type": "function"
    },
    {
      "inputs": [
        {
          "internalType": "address",
          "name": "user",
          "type": "address"
        }
      ],
      "name": "getUserBalance",
      "outputs": [
        {
          "internalType": "uint256",
          "name": "stableCoinBalance",
          "type": "uint256"
        },
        {
          "internalType": "uint256",
          "name": "contractTokenBalance",
          "type": "uint256"
        }
      ],
      "stateMutability": "view",
      "type": "function"
    },
    {
      "inputs": [
        {
          "internalType": "address",
          "name": "user",
          "type": "address"
        }
      ],
      "name": "isAgreementSent",
      "outputs": [
        {
          "internalType": "bool",
          "name": "",
          "type": "bool"
        }
      ],
      "stateMutability": "view",
      "type": "function"
    },
    {
      "inputs": [
        {
          "internalType": "address",
          "name": "user",
          "type": "address"
        }
      ],
      "name": "isDAO",
      "outputs": [
        {
          "internalType": "bool",
          "name": "",
          "type": "bool"
        }
      ],
      "stateMutability": "view",
      "type": "function"
    },
    {
      "inputs": [],
      "name": "owner",
      "outputs": [
        {
          "internalType": "address",
          "name": "",
          "type": "address"
        }
      ],
      "stateMutability": "view",
      "type": "function"
    },
    {
      "inputs": [
        {
          "internalType": "uint256",
          "name": "proposalId",
          "type": "uint256"
        },
        {
          "internalType": "uint256",
          "name": "amount",
          "type": "uint256"
        }
      ],
      "name": "refundWithdrawnAmount",
      "outputs": [],
      "stateMutability": "nonpayable",
      "type": "function"
    },
    {
      "inputs": [],
      "name": "renounceOwnership",
      "outputs": [],
      "stateMutability": "nonpayable",
      "type": "function"
    },
    {
      "inputs": [],
      "name": "stableCoin",
      "outputs": [
        {
          "internalType": "contract IERC20",
          "name": "",
          "type": "address"
        }
      ],
      "stateMutability": "view",
      "type": "function"
    },
    {
      "inputs": [],
      "name": "totalDAOSlots",
      "outputs": [
        {
          "internalType": "uint256",
          "name": "",
          "type": "uint256"
        }
      ],
      "stateMutability": "view",
      "type": "function"
    },
    {
      "inputs": [
        {
          "internalType": "address",
          "name": "to",
          "type": "address"
        },
        {
          "internalType": "uint256",
          "name": "amount",
          "type": "uint256"
        }
      ],
      "name": "transferFund",
      "outputs": [],
      "stateMutability": "nonpayable",
      "type": "function"
    },
    {
      "inputs": [
        {
          "internalType": "address",
          "name": "newOwner",
          "type": "address"
        }
      ],
      "name": "transferOwnership",
      "outputs": [],
      "stateMutability": "nonpayable",
      "type": "function"
    },
    {
      "inputs": [
        {
          "internalType": "address",
          "name": "",
          "type": "address"
        }
      ],
      "name": "users",
      "outputs": [
        {
          "internalType": "uint256",
          "name": "stableCoinBalance",
          "type": "uint256"
        },
        {
          "internalType": "uint256",
          "name": "contractTokenBalance",
          "type": "uint256"
        },
        {
          "internalType": "uint256",
          "name": "slots",
          "type": "uint256"
        },
        {
          "internalType": "bool",
          "name": "isDAO",
          "type": "bool"
        },
        {
          "internalType": "uint256",
          "name": "daoLockExpiry",
          "type": "uint256"
        }
      ],
      "stateMutability": "view",
      "type": "function"
    },
    {
      "inputs": [
        {
          "internalType": "uint256",
          "name": "amount",
          "type": "uint256"
        }
      ],
      "name": "withdraw",
      "outputs": [],
      "stateMutability": "nonpayable",
      "type": "function"
    },
    {
      "inputs": [
        {
          "internalType": "uint256",
          "name": "proposalId",
          "type": "uint256"
        },
        {
          "internalType": "uint256",
          "name": "amount",
          "type": "uint256"
        }
      ],
      "name": "withdrawAmount",
      "outputs": [],
      "stateMutability": "nonpayable",
      "type": "function"
    },
    {
      "inputs": [
        {
          "internalType": "uint256",
          "name": "amount",
          "type": "uint256"
        }
      ],
      "name": "withdrawContractToken",
      "outputs": [],
      "stateMutability": "nonpayable",
      "type": "function"
    }
  ],
  "bytecode": "0x60806040523480156200001157600080fd5b5060405162003c9938038062003c998339818101604052810190620000379190620002fb565b33600073ffffffffffffffffffffffffffffffffffffffff168173ffffffffffffffffffffffffffffffffffffffff1603620000ad5760006040517f1e4fbdf7000000000000000000000000000000000000000000000000000000008152600401620000a491906200037e565b60405180910390fd5b620000be81620001cd60201b60201c565b5083600160006101000a81548173ffffffffffffffffffffffffffffffffffffffff021916908373ffffffffffffffffffffffffffffffffffffffff16021790555082600260006101000a81548173ffffffffffffffffffffffffffffffffffffffff021916908373ffffffffffffffffffffffffffffffffffffffff16021790555081600360006101000a81548173ffffffffffffffffffffffffffffffffffffffff021916908373ffffffffffffffffffffffffffffffffffffffff16021790555080600460006101000a81548173ffffffffffffffffffffffffffffffffffffffff021916908373ffffffffffffffffffffffffffffffffffffffff160217905550505050506200039b565b60008060009054906101000a900473ffffffffffffffffffffffffffffffffffffffff169050816000806101000a81548173ffffffffffffffffffffffffffffffffffffffff021916908373ffffffffffffffffffffffffffffffffffffffff1602179055508173ffffffffffffffffffffffffffffffffffffffff168173ffffffffffffffffffffffffffffffffffffffff167f8be0079c531659141344cd1fd0a4f28419497f9722a3daafe3b4186f6b6457e060405160405180910390a35050565b600080fd5b600073ffffffffffffffffffffffffffffffffffffffff82169050919050565b6000620002c38262000296565b9050919050565b620002d581620002b6565b8114620002e157600080fd5b50565b600081519050620002f581620002ca565b92915050565b6000806000806080858703121562000318576200031762000291565b5b60006200032887828801620002e4565b94505060206200033b87828801620002e4565b93505060406200034e87828801620002e4565b92505060606200036187828801620002e4565b91505092959194509250565b6200037881620002b6565b82525050565b60006020820190506200039560008301846200036d565b92915050565b6138ee80620003ab6000396000f3fe608060405234801561001057600080fd5b50600436106101735760003560e01c806399dfe8ca116100de578063c8c59ac411610097578063e4208b2811610071578063e4208b2814610416578063eaa8517c14610432578063f2fde38b1461044e578063f7c4cd6d1461046a57610173565b8063c8c59ac4146103c0578063d874639a146103de578063e2dc35e0146103fa57610173565b806399dfe8ca146102fc5780639ef7e72314610318578063a04bfbfd14610334578063a87430ba14610352578063b6b55f2514610386578063c428c06a146103a257610173565b80636c269b49116101305780636c269b491461024b5780636f9fb98a1461027b578063715018a61461029a5780638da5cb5b146102a457806394922348146102c2578063992642e5146102de57610173565b806305b39f8a146101785780632ad0c902146101965780632e1a7d4d146101b2578063436bb199146101ce57806347734892146101ea57806350435fa41461021b575b600080fd5b610180610488565b60405161018d91906129a8565b60405180910390f35b6101b060048036038101906101ab9190612a15565b6104ae565b005b6101cc60048036038101906101c79190612a8b565b61057d565b005b6101e860048036038101906101e39190612ab8565b61094a565b005b61020460048036038101906101ff9190612af8565b610c2c565b604051610212929190612b34565b60405180910390f35b61023560048036038101906102309190612af8565b610cbe565b6040516102429190612b78565b60405180910390f35b61026560048036038101906102609190612af8565b610d17565b6040516102729190612b78565b60405180910390f35b610283610d6d565b604051610291929190612b34565b60405180910390f35b6102a2610d7e565b005b6102ac610d92565b6040516102b99190612ba2565b60405180910390f35b6102dc60048036038101906102d79190612af8565b610dbb565b005b6102e6610f48565b6040516102f391906129a8565b60405180910390f35b61031660048036038101906103119190612a8b565b610f6e565b005b610332600480360381019061032d9190612a8b565b61115e565b005b61033c6112f3565b6040516103499190612c7b565b60405180910390f35b61036c60048036038101906103679190612af8565b611381565b60405161037d959493929190612c9d565b60405180910390f35b6103a0600480360381019061039b9190612a8b565b6113c4565b005b6103aa611420565b6040516103b79190612cf0565b60405180910390f35b6103c861157a565b6040516103d59190612cf0565b60405180910390f35b6103f860048036038101906103f39190612a8b565b61163a565b005b610414600480360381019061040f9190612d0b565b611839565b005b610430600480360381019061042b9190612ab8565b61191a565b005b61044c60048036038101906104479190612a8b565b6119de565b005b61046860048036038101906104639190612af8565b611af0565b005b610472611b76565b60405161047f9190612c7b565b60405180910390f35b600260009054906101000a900473ffffffffffffffffffffffffffffffffffffffff1681565b6104b6611d6b565b81600660006101000a81548173ffffffffffffffffffffffffffffffffffffffff021916908373ffffffffffffffffffffffffffffffffffffffff16021790555081600560006101000a81548173ffffffffffffffffffffffffffffffffffffffff021916908373ffffffffffffffffffffffffffffffffffffffff16021790555080600760006101000a81548173ffffffffffffffffffffffffffffffffffffffff021916908373ffffffffffffffffffffffffffffffffffffffff1602179055505050565b80600960003373ffffffffffffffffffffffffffffffffffffffff1673ffffffffffffffffffffffffffffffffffffffff168152602001908152602001600020600001541015610602576040517f08c379a00000000000000000000000000000000000000000000000000000000081526004016105f990612da8565b60405180910390fd5b600960003373ffffffffffffffffffffffffffffffffffffffff1673ffffffffffffffffffffffffffffffffffffffff16815260200190815260200160002060030160009054906101000a900460ff1615806107075750600960003373ffffffffffffffffffffffffffffffffffffffff1673ffffffffffffffffffffffffffffffffffffffff16815260200190815260200160002060030160009054906101000a900460ff168015610706575063b2d05e0081600960003373ffffffffffffffffffffffffffffffffffffffff1673ffffffffffffffffffffffffffffffffffffffff168152602001908152602001600020600001546107039190612df7565b10155b5b610746576040517f08c379a000000000000000000000000000000000000000000000000000000000815260040161073d90612e9d565b60405180910390fd5b80600960003373ffffffffffffffffffffffffffffffffffffffff1673ffffffffffffffffffffffffffffffffffffffff16815260200190815260200160002060000160008282546107989190612df7565b9250508190555080600d60008282546107b19190612df7565b925050819055506108053382600160009054906101000a900473ffffffffffffffffffffffffffffffffffffffff1673ffffffffffffffffffffffffffffffffffffffff16611df29092919063ffffffff16565b6000600960003373ffffffffffffffffffffffffffffffffffffffff1673ffffffffffffffffffffffffffffffffffffffff16815260200190815260200160002060000154036108f9576000600960003373ffffffffffffffffffffffffffffffffffffffff1673ffffffffffffffffffffffffffffffffffffffff168152602001908152602001600020600201819055506000600c60003373ffffffffffffffffffffffffffffffffffffffff1673ffffffffffffffffffffffffffffffffffffffff16815260200190815260200160002060006101000a81548160ff0219169083151502179055506108f833611e71565b5b3373ffffffffffffffffffffffffffffffffffffffff167f8da6bbbd263553c945fa317d1f55be0f42f0fa4c6895e74767e6926cdb2bce0f8260405161093f9190612cf0565b60405180910390a250565b610952611d6b565b60006064603c600d546109659190612ebd565b61096f9190612f2e565b9050808211156109b4576040517f08c379a00000000000000000000000000000000000000000000000000000000081526004016109ab90612fd1565b60405180910390fd5b81600d5410156109f9576040517f08c379a00000000000000000000000000000000000000000000000000000000081526004016109f090613063565b60405180910390fd5b6000600560009054906101000a900473ffffffffffffffffffffffffffffffffffffffff1673ffffffffffffffffffffffffffffffffffffffff1663401853b7856040518263ffffffff1660e01b8152600401610a569190612cf0565b600060405180830381865afa158015610a73573d6000803e3d6000fd5b505050506040513d6000823e3d601f19601f82011682018060405250810190610a9c9190613225565b95505050505050600b600085815260200190815260200160002060009054906101000a900460ff1615610b04576040517f08c379a0000000000000000000000000000000000000000000000000000000008152600401610afb90613340565b60405180910390fd5b80610b44576040517f08c379a0000000000000000000000000000000000000000000000000000000008152600401610b3b906133ac565b60405180910390fd5b82600d6000828254610b569190612df7565b925050819055506001600b600086815260200190815260200160002060006101000a81548160ff021916908315150217905550610bd63384600160009054906101000a900473ffffffffffffffffffffffffffffffffffffffff1673ffffffffffffffffffffffffffffffffffffffff16611df29092919063ffffffff16565b3373ffffffffffffffffffffffffffffffffffffffff167f1854f40cafc6d1d892b7723388876e2ddaa1e0509aed7e9c9d0e2a54d1a6e9368585604051610c1e929190612b34565b60405180910390a250505050565b600080600960008473ffffffffffffffffffffffffffffffffffffffff1673ffffffffffffffffffffffffffffffffffffffff16815260200190815260200160002060000154600960008573ffffffffffffffffffffffffffffffffffffffff1673ffffffffffffffffffffffffffffffffffffffff1681526020019081526020016000206001015491509150915091565b6000600960008373ffffffffffffffffffffffffffffffffffffffff1673ffffffffffffffffffffffffffffffffffffffff16815260200190815260200160002060030160009054906101000a900460ff169050919050565b6000600c60008373ffffffffffffffffffffffffffffffffffffffff1673ffffffffffffffffffffffffffffffffffffffff16815260200190815260200160002060009054906101000a900460ff169050919050565b600080600d54600e54915091509091565b610d86611d6b565b610d906000612059565b565b60008060009054906101000a900473ffffffffffffffffffffffffffffffffffffffff16905090565b600660009054906101000a900473ffffffffffffffffffffffffffffffffffffffff1673ffffffffffffffffffffffffffffffffffffffff163373ffffffffffffffffffffffffffffffffffffffff1614610e4b576040517f08c379a0000000000000000000000000000000000000000000000000000000008152600401610e429061343e565b60405180910390fd5b6001600960008373ffffffffffffffffffffffffffffffffffffffff1673ffffffffffffffffffffffffffffffffffffffff16815260200190815260200160002060030160006101000a81548160ff021916908315150217905550600460009054906101000a900473ffffffffffffffffffffffffffffffffffffffff1673ffffffffffffffffffffffffffffffffffffffff16636a627842826040518263ffffffff1660e01b8152600401610f019190612ba2565b6020604051808303816000875af1158015610f20573d6000803e3d6000fd5b505050506040513d601f19601f82011682018060405250810190610f44919061345e565b5050565b600160009054906101000a900473ffffffffffffffffffffffffffffffffffffffff1681565b610f76611d6b565b6000805b60088054905081101561101057600060088281548110610f9d57610f9c61348b565b5b9060005260206000200160009054906101000a900473ffffffffffffffffffffffffffffffffffffffff1690506000610fd582610c2c565b50905060006301312d0082610fea9190612f2e565b90508085610ff891906134ba565b94505050508080611008906134ee565b915050610f7a565b506000818361101f9190612f2e565b905060005b600880549050811015611158576000600882815481106110475761104661348b565b5b9060005260206000200160009054906101000a900473ffffffffffffffffffffffffffffffffffffffff169050600061107f82610c2c565b50905060006301312d00826110949190612f2e565b9050600081866110a49190612ebd565b90506110f38482600260009054906101000a900473ffffffffffffffffffffffffffffffffffffffff1673ffffffffffffffffffffffffffffffffffffffff16611df29092919063ffffffff16565b8373ffffffffffffffffffffffffffffffffffffffff167fef90046b8142ea9ef9fbd7a5569b220918264e0b4a07f0103e11e3c21f999da6826040516111399190612cf0565b60405180910390a2505050508080611150906134ee565b915050611024565b50505050565b80600960003373ffffffffffffffffffffffffffffffffffffffff1673ffffffffffffffffffffffffffffffffffffffff1681526020019081526020016000206001015410156111e3576040517f08c379a00000000000000000000000000000000000000000000000000000000081526004016111da906135a8565b60405180910390fd5b80600960003373ffffffffffffffffffffffffffffffffffffffff1673ffffffffffffffffffffffffffffffffffffffff16815260200190815260200160002060010160008282546112359190612df7565b9250508190555080600e600082825461124e9190612df7565b925050819055506112a23382600260009054906101000a900473ffffffffffffffffffffffffffffffffffffffff1673ffffffffffffffffffffffffffffffffffffffff16611df29092919063ffffffff16565b3373ffffffffffffffffffffffffffffffffffffffff167f40ff18d8562aa6b923b7affefd9232a6fd44371c4bc7f63b5e5bb8ad41e10951826040516112e89190612cf0565b60405180910390a250565b6060600880548060200260200160405190810160405280929190818152602001828054801561137757602002820191906000526020600020905b8160009054906101000a900473ffffffffffffffffffffffffffffffffffffffff1673ffffffffffffffffffffffffffffffffffffffff168152602001906001019080831161132d575b5050505050905090565b60096020528060005260406000206000915090508060000154908060010154908060020154908060030160009054906101000a900460ff16908060040154905085565b611413333083600160009054906101000a900473ffffffffffffffffffffffffffffffffffffffff1673ffffffffffffffffffffffffffffffffffffffff1661211d909392919063ffffffff16565b61141d338261219f565b50565b6000806000905060005b6008805490508110156115725760006008828154811061144d5761144c61348b565b5b9060005260206000200160009054906101000a900473ffffffffffffffffffffffffffffffffffffffff169050600960008273ffffffffffffffffffffffffffffffffffffffff1673ffffffffffffffffffffffffffffffffffffffff16815260200190815260200160002060030160009054906101000a900460ff161561155e5760096000600884815481106114e7576114e661348b565b5b9060005260206000200160009054906101000a900473ffffffffffffffffffffffffffffffffffffffff1673ffffffffffffffffffffffffffffffffffffffff1673ffffffffffffffffffffffffffffffffffffffff168152602001908152602001600020600201548361155b91906134ba565b92505b50808061156a906134ee565b91505061142a565b508091505090565b6000806000905060005b6008805490508110156116325760096000600883815481106115a9576115a861348b565b5b9060005260206000200160009054906101000a900473ffffffffffffffffffffffffffffffffffffffff1673ffffffffffffffffffffffffffffffffffffffff1673ffffffffffffffffffffffffffffffffffffffff168152602001908152602001600020600201548261161d91906134ba565b9150808061162a906134ee565b915050611584565b508091505090565b600960003373ffffffffffffffffffffffffffffffffffffffff1673ffffffffffffffffffffffffffffffffffffffff16815260200190815260200160002060030160009054906101000a900460ff166116c9576040517f08c379a00000000000000000000000000000000000000000000000000000000081526004016116c090613614565b60405180910390fd5b600960003373ffffffffffffffffffffffffffffffffffffffff1673ffffffffffffffffffffffffffffffffffffffff1681526020019081526020016000206004015442101561174e576040517f08c379a000000000000000000000000000000000000000000000000000000000815260040161174590613680565b60405180910390fd5b600460009054906101000a900473ffffffffffffffffffffffffffffffffffffffff1673ffffffffffffffffffffffffffffffffffffffff166342966c68826040518263ffffffff1660e01b81526004016117a99190612cf0565b600060405180830381600087803b1580156117c357600080fd5b505af11580156117d7573d6000803e3d6000fd5b505050506000600960003373ffffffffffffffffffffffffffffffffffffffff1673ffffffffffffffffffffffffffffffffffffffff16815260200190815260200160002060030160006101000a81548160ff02191690831515021790555050565b600760009054906101000a900473ffffffffffffffffffffffffffffffffffffffff1673ffffffffffffffffffffffffffffffffffffffff163373ffffffffffffffffffffffffffffffffffffffff16146118c9576040517f08c379a00000000000000000000000000000000000000000000000000000000081526004016118c090613712565b60405180910390fd5b6119168282600260009054906101000a900473ffffffffffffffffffffffffffffffffffffffff1673ffffffffffffffffffffffffffffffffffffffff16611df29092919063ffffffff16565b5050565b611922611d6b565b80600d600082825461193491906134ba565b9250508190555061198a333083600160009054906101000a900473ffffffffffffffffffffffffffffffffffffffff1673ffffffffffffffffffffffffffffffffffffffff1661211d909392919063ffffffff16565b3373ffffffffffffffffffffffffffffffffffffffff167f67919281a58536bcf2587be81b58dda99c51f4c910a6a0d06e7c4aaf799712cc83836040516119d2929190612b34565b60405180910390a25050565b611a2d333083600260009054906101000a900473ffffffffffffffffffffffffffffffffffffffff1673ffffffffffffffffffffffffffffffffffffffff1661211d909392919063ffffffff16565b80600960003373ffffffffffffffffffffffffffffffffffffffff1673ffffffffffffffffffffffffffffffffffffffff1681526020019081526020016000206001016000828254611a7f91906134ba565b9250508190555080600e6000828254611a9891906134ba565b925050819055503373ffffffffffffffffffffffffffffffffffffffff167f7365a163ac1a293ecf4b97d273ff73481f31903153e764483f6adde58d06fe9b82604051611ae59190612cf0565b60405180910390a250565b611af8611d6b565b600073ffffffffffffffffffffffffffffffffffffffff168173ffffffffffffffffffffffffffffffffffffffff1603611b6a5760006040517f1e4fbdf7000000000000000000000000000000000000000000000000000000008152600401611b619190612ba2565b60405180910390fd5b611b7381612059565b50565b60606000611b8261157a565b90506000611b8e611420565b905060008183611b9e9190612df7565b90508067ffffffffffffffff811115611bba57611bb961309e565b5b604051908082528060200260200182016040528015611be85781602001602082028036833780820191505090505b5093506000805b600880549050811015611d6357600060088281548110611c1257611c1161348b565b5b9060005260206000200160009054906101000a900473ffffffffffffffffffffffffffffffffffffffff169050600960008273ffffffffffffffffffffffffffffffffffffffff1673ffffffffffffffffffffffffffffffffffffffff16815260200190815260200160002060030160009054906101000a900460ff16611d4f5760005b600960008373ffffffffffffffffffffffffffffffffffffffff1673ffffffffffffffffffffffffffffffffffffffff16815260200190815260200160002060020154811015611d4d5781888580611ced906134ee565b965081518110611d0057611cff61348b565b5b602002602001019073ffffffffffffffffffffffffffffffffffffffff16908173ffffffffffffffffffffffffffffffffffffffff16815250508080611d45906134ee565b915050611c96565b505b508080611d5b906134ee565b915050611bef565b505050505090565b611d736126d3565b73ffffffffffffffffffffffffffffffffffffffff16611d91610d92565b73ffffffffffffffffffffffffffffffffffffffff1614611df057611db46126d3565b6040517f118cdaa7000000000000000000000000000000000000000000000000000000008152600401611de79190612ba2565b60405180910390fd5b565b611e6c838473ffffffffffffffffffffffffffffffffffffffff1663a9059cbb8585604051602401611e25929190613732565b604051602081830303815290604052915060e01b6020820180517bffffffffffffffffffffffffffffffffffffffffffffffffffffffff83818316178352505050506126db565b505050565b6000600a60008373ffffffffffffffffffffffffffffffffffffffff1673ffffffffffffffffffffffffffffffffffffffff16815260200190815260200160002060006101000a81548160ff02191690831515021790555060005b600880549050811015612055578173ffffffffffffffffffffffffffffffffffffffff1660088281548110611f0457611f0361348b565b5b9060005260206000200160009054906101000a900473ffffffffffffffffffffffffffffffffffffffff1673ffffffffffffffffffffffffffffffffffffffff16036120425760086001600880549050611f5e9190612df7565b81548110611f6f57611f6e61348b565b5b9060005260206000200160009054906101000a900473ffffffffffffffffffffffffffffffffffffffff1660088281548110611fae57611fad61348b565b5b9060005260206000200160006101000a81548173ffffffffffffffffffffffffffffffffffffffff021916908373ffffffffffffffffffffffffffffffffffffffff16021790555060088054806120085761200761375b565b5b6001900381819060005260206000200160006101000a81549073ffffffffffffffffffffffffffffffffffffffff02191690559055612055565b808061204d906134ee565b915050611ecc565b5050565b60008060009054906101000a900473ffffffffffffffffffffffffffffffffffffffff169050816000806101000a81548173ffffffffffffffffffffffffffffffffffffffff021916908373ffffffffffffffffffffffffffffffffffffffff1602179055508173ffffffffffffffffffffffffffffffffffffffff168173ffffffffffffffffffffffffffffffffffffffff167f8be0079c531659141344cd1fd0a4f28419497f9722a3daafe3b4186f6b6457e060405160405180910390a35050565b612199848573ffffffffffffffffffffffffffffffffffffffff166323b872dd8686866040516024016121529392919061378a565b604051602081830303815290604052915060e01b6020820180517bffffffffffffffffffffffffffffffffffffffffffffffffffffffff83818316178352505050506126db565b50505050565b6000600960008473ffffffffffffffffffffffffffffffffffffffff1673ffffffffffffffffffffffffffffffffffffffff1681526020019081526020016000206000015414801561223b5750600a60008373ffffffffffffffffffffffffffffffffffffffff1673ffffffffffffffffffffffffffffffffffffffff16815260200190815260200160002060009054906101000a900460ff16155b156122fc576008829080600181540180825580915050600190039060005260206000200160009091909190916101000a81548173ffffffffffffffffffffffffffffffffffffffff021916908373ffffffffffffffffffffffffffffffffffffffff1602179055506001600a60008473ffffffffffffffffffffffffffffffffffffffff1673ffffffffffffffffffffffffffffffffffffffff16815260200190815260200160002060006101000a81548160ff0219169083151502179055505b80600960008473ffffffffffffffffffffffffffffffffffffffff1673ffffffffffffffffffffffffffffffffffffffff168152602001908152602001600020600001600082825461234e91906134ba565b9250508190555080600d600082825461236791906134ba565b925050819055506305f5e100600960008473ffffffffffffffffffffffffffffffffffffffff1673ffffffffffffffffffffffffffffffffffffffff168152602001908152602001600020600001546123c09190612f2e565b600960008473ffffffffffffffffffffffffffffffffffffffff1673ffffffffffffffffffffffffffffffffffffffff16815260200190815260200160002060020181905550600960008373ffffffffffffffffffffffffffffffffffffffff1673ffffffffffffffffffffffffffffffffffffffff16815260200190815260200160002060030160009054906101000a900460ff161580156124a9575063b2d05e00600960008473ffffffffffffffffffffffffffffffffffffffff1673ffffffffffffffffffffffffffffffffffffffff1681526020019081526020016000206000015410155b80156124ff5750600c60008373ffffffffffffffffffffffffffffffffffffffff1673ffffffffffffffffffffffffffffffffffffffff16815260200190815260200160002060009054906101000a900460ff16155b15612681576001600c60008473ffffffffffffffffffffffffffffffffffffffff1673ffffffffffffffffffffffffffffffffffffffff16815260200190815260200160002060006101000a81548160ff021916908315150217905550600360009054906101000a900473ffffffffffffffffffffffffffffffffffffffff1673ffffffffffffffffffffffffffffffffffffffff16639c443d3e6040518163ffffffff1660e01b81526004016125b59061380d565b600060405180830381600087803b1580156125cf57600080fd5b505af11580156125e3573d6000803e3d6000fd5b505050506301e13380426125f791906134ba565b600960008473ffffffffffffffffffffffffffffffffffffffff1673ffffffffffffffffffffffffffffffffffffffff168152602001908152602001600020600401819055508173ffffffffffffffffffffffffffffffffffffffff167f3c13d0a07131c49ded24688f7fb6c1a3e22a4bdce72d705a31ce569fa13bc73e60405160405180910390a25b8173ffffffffffffffffffffffffffffffffffffffff167f66cef183dbc45fd6ab6c6cfd4ada8f7b1780d070873ce30723107d9f644ec660826040516126c79190612cf0565b60405180910390a25050565b600033905090565b6000612706828473ffffffffffffffffffffffffffffffffffffffff1661277290919063ffffffff16565b9050600081511415801561272b575080806020019051810190612729919061382d565b155b1561276d57826040517f5274afe70000000000000000000000000000000000000000000000000000000081526004016127649190612ba2565b60405180910390fd5b505050565b606061278083836000612788565b905092915050565b6060814710156127cf57306040517fcd7860590000000000000000000000000000000000000000000000000000000081526004016127c69190612ba2565b60405180910390fd5b6000808573ffffffffffffffffffffffffffffffffffffffff1684866040516127f891906138a1565b60006040518083038185875af1925050503d8060008114612835576040519150601f19603f3d011682016040523d82523d6000602084013e61283a565b606091505b509150915061284a868383612855565b925050509392505050565b60608261286a57612865826128e4565b6128dc565b60008251148015612892575060008473ffffffffffffffffffffffffffffffffffffffff163b145b156128d457836040517f9996b3150000000000000000000000000000000000000000000000000000000081526004016128cb9190612ba2565b60405180910390fd5b8190506128dd565b5b9392505050565b6000815111156128f75780518082602001fd5b6040517f1425ea4200000000000000000000000000000000000000000000000000000000815260040160405180910390fd5b600073ffffffffffffffffffffffffffffffffffffffff82169050919050565b6000819050919050565b600061296e61296961296484612929565b612949565b612929565b9050919050565b600061298082612953565b9050919050565b600061299282612975565b9050919050565b6129a281612987565b82525050565b60006020820190506129bd6000830184612999565b92915050565b6000604051905090565b600080fd5b600080fd5b60006129e282612929565b9050919050565b6129f2816129d7565b81146129fd57600080fd5b50565b600081359050612a0f816129e9565b92915050565b60008060408385031215612a2c57612a2b6129cd565b5b6000612a3a85828601612a00565b9250506020612a4b85828601612a00565b9150509250929050565b6000819050919050565b612a6881612a55565b8114612a7357600080fd5b50565b600081359050612a8581612a5f565b92915050565b600060208284031215612aa157612aa06129cd565b5b6000612aaf84828501612a76565b91505092915050565b60008060408385031215612acf57612ace6129cd565b5b6000612add85828601612a76565b9250506020612aee85828601612a76565b9150509250929050565b600060208284031215612b0e57612b0d6129cd565b5b6000612b1c84828501612a00565b91505092915050565b612b2e81612a55565b82525050565b6000604082019050612b496000830185612b25565b612b566020830184612b25565b9392505050565b60008115159050919050565b612b7281612b5d565b82525050565b6000602082019050612b8d6000830184612b69565b92915050565b612b9c816129d7565b82525050565b6000602082019050612bb76000830184612b93565b92915050565b600081519050919050565b600082825260208201905092915050565b6000819050602082019050919050565b612bf2816129d7565b82525050565b6000612c048383612be9565b60208301905092915050565b6000602082019050919050565b6000612c2882612bbd565b612c328185612bc8565b9350612c3d83612bd9565b8060005b83811015612c6e578151612c558882612bf8565b9750612c6083612c10565b925050600181019050612c41565b5085935050505092915050565b60006020820190508181036000830152612c958184612c1d565b905092915050565b600060a082019050612cb26000830188612b25565b612cbf6020830187612b25565b612ccc6040830186612b25565b612cd96060830185612b69565b612ce66080830184612b25565b9695505050505050565b6000602082019050612d056000830184612b25565b92915050565b60008060408385031215612d2257612d216129cd565b5b6000612d3085828601612a00565b9250506020612d4185828601612a76565b9150509250929050565b600082825260208201905092915050565b7f496e73756666696369656e7420737461626c6520636f696e2062616c616e6365600082015250565b6000612d92602083612d4b565b9150612d9d82612d5c565b602082019050919050565b60006020820190508181036000830152612dc181612d85565b9050919050565b7f4e487b7100000000000000000000000000000000000000000000000000000000600052601160045260246000fd5b6000612e0282612a55565b9150612e0d83612a55565b9250828203905081811115612e2557612e24612dc8565b5b92915050565b7f44414f206d656d62657273206d75737420666f72666569742044414f206d656d60008201527f6265727368697020746f2077697468647261772066756e647300000000000000602082015250565b6000612e87603983612d4b565b9150612e9282612e2b565b604082019050919050565b60006020820190508181036000830152612eb681612e7a565b9050919050565b6000612ec882612a55565b9150612ed383612a55565b9250828202612ee181612a55565b91508282048414831517612ef857612ef7612dc8565b5b5092915050565b7f4e487b7100000000000000000000000000000000000000000000000000000000600052601260045260246000fd5b6000612f3982612a55565b9150612f4483612a55565b925082612f5457612f53612eff565b5b828204905092915050565b7f5769746864726177616c20616d6f756e74206578636565647320746865206d6160008201527f78696d756d20616c6c6f77656400000000000000000000000000000000000000602082015250565b6000612fbb602d83612d4b565b9150612fc682612f5f565b604082019050919050565b60006020820190508181036000830152612fea81612fae565b9050919050565b7f496e73756666696369656e7420737461626c65546f6b656e2062616c616e636560008201527f20696e20636f6e74726163740000000000000000000000000000000000000000602082015250565b600061304d602c83612d4b565b915061305882612ff1565b604082019050919050565b6000602082019050818103600083015261307c81613040565b9050919050565b600080fd5b600080fd5b6000601f19601f8301169050919050565b7f4e487b7100000000000000000000000000000000000000000000000000000000600052604160045260246000fd5b6130d68261308d565b810181811067ffffffffffffffff821117156130f5576130f461309e565b5b80604052505050565b60006131086129c3565b905061311482826130cd565b919050565b600067ffffffffffffffff8211156131345761313361309e565b5b61313d8261308d565b9050602081019050919050565b60005b8381101561316857808201518184015260208101905061314d565b60008484015250505050565b600061318761318284613119565b6130fe565b9050828152602081018484840111156131a3576131a2613088565b5b6131ae84828561314a565b509392505050565b600082601f8301126131cb576131ca613083565b5b81516131db848260208601613174565b91505092915050565b6000815190506131f381612a5f565b92915050565b61320281612b5d565b811461320d57600080fd5b50565b60008151905061321f816131f9565b92915050565b60008060008060008060c08789031215613242576132416129cd565b5b600087015167ffffffffffffffff8111156132605761325f6129d2565b5b61326c89828a016131b6565b965050602061327d89828a016131e4565b955050604061328e89828a016131e4565b945050606061329f89828a016131e4565b93505060806132b089828a01613210565b92505060a06132c189828a01613210565b9150509295509295509295565b7f416d6f756e7420616c72656164792077697468647261776e20666f722074686960008201527f732070726f706f73616c00000000000000000000000000000000000000000000602082015250565b600061332a602a83612d4b565b9150613335826132ce565b604082019050919050565b600060208201905081810360008301526133598161331d565b9050919050565b7f50726f706f73616c20776173206e6f7420616363657074656400000000000000600082015250565b6000613396601983612d4b565b91506133a182613360565b602082019050919050565b600060208201905081810360008301526133c581613389565b9050919050565b7f4f6e6c792044414f20476f7665726e616e63652063616e20616363657074207560008201527f7365727300000000000000000000000000000000000000000000000000000000602082015250565b6000613428602483612d4b565b9150613433826133cc565b604082019050919050565b600060208201905081810360008301526134578161341b565b9050919050565b600060208284031215613474576134736129cd565b5b6000613482848285016131e4565b91505092915050565b7f4e487b7100000000000000000000000000000000000000000000000000000000600052603260045260246000fd5b60006134c582612a55565b91506134d083612a55565b92508282019050808211156134e8576134e7612dc8565b5b92915050565b60006134f982612a55565b91507fffffffffffffffffffffffffffffffffffffffffffffffffffffffffffffffff820361352b5761352a612dc8565b5b600182019050919050565b7f496e73756666696369656e7420636f6e747261637420746f6b656e2062616c6160008201527f6e63650000000000000000000000000000000000000000000000000000000000602082015250565b6000613592602383612d4b565b915061359d82613536565b604082019050919050565b600060208201905081810360008301526135c181613585565b9050919050565b7f4e6f7420612044414f206d656d62657200000000000000000000000000000000600082015250565b60006135fe601083612d4b565b9150613609826135c8565b602082019050919050565b6000602082019050818103600083015261362d816135f1565b9050919050565b7f44414f206c6f636b20706572696f6420686173206e6f74206578706972656400600082015250565b600061366a601f83612d4b565b915061367582613634565b602082019050919050565b600060208201905081810360008301526136998161365d565b9050919050565b7f4f6e6c79207072697a65446973747269627574696f6e20636f6e74726163742060008201527f63616e2063616c6c20746869732066756e6374696f6e00000000000000000000602082015250565b60006136fc603683612d4b565b9150613707826136a0565b604082019050919050565b6000602082019050818103600083015261372b816136ef565b9050919050565b60006040820190506137476000830185612b93565b6137546020830184612b25565b9392505050565b7f4e487b7100000000000000000000000000000000000000000000000000000000600052603160045260246000fd5b600060608201905061379f6000830186612b93565b6137ac6020830185612b93565b6137b96040830184612b25565b949350505050565b7f4e65772044414f00000000000000000000000000000000000000000000000000600082015250565b60006137f7600783612d4b565b9150613802826137c1565b602082019050919050565b60006020820190508181036000830152613826816137ea565b9050919050565b600060208284031215613843576138426129cd565b5b600061385184828501613210565b91505092915050565b600081519050919050565b600081905092915050565b600061387b8261385a565b6138858185613865565b935061389581856020860161314a565b80840191505092915050565b60006138ad8284613870565b91508190509291505056fea2646970667358221220fcbc3f4a50c8160b22f33601f4fe39608e3f078dfde7b776bde65ebe3be3646564736f6c63430008140033",
  "linkReferences": {},
  "deployedLinkReferences": {}
}