{
  "_format": "hh-sol-artifact-1",
  "contractName": "PrizeDistribution",
  "sourceName": "contracts/PrizeDistribution.sol",
  "abi": [
    {
      "inputs": [
        {
          "internalType": "address",
          "name": "_savingsContractAddress",
          "type": "address"
        },
        {
          "internalType": "address",
          "name": "_daoGovernanceAddress",
          "type": "address"
        }
      ],
      "stateMutability": "nonpayable",
      "type": "constructor"
    },
    {
      "anonymous": false,
      "inputs": [
        {
          "indexed": true,
          "internalType": "address",
          "name": "from",
          "type": "address"
        },
        {
          "indexed": true,
          "internalType": "address",
          "name": "to",
          "type": "address"
        }
      ],
      "name": "OwnershipTransferRequested",
      "type": "event"
    },
    {
      "anonymous": false,
      "inputs": [
        {
          "indexed": true,
          "internalType": "address",
          "name": "from",
          "type": "address"
        },
        {
          "indexed": true,
          "internalType": "address",
          "name": "to",
          "type": "address"
        }
      ],
      "name": "OwnershipTransferred",
      "type": "event"
    },
    {
      "anonymous": false,
      "inputs": [
        {
          "indexed": true,
          "internalType": "address",
          "name": "proposer",
          "type": "address"
        },
        {
          "indexed": false,
          "internalType": "uint256",
          "name": "proposerShare",
          "type": "uint256"
        },
        {
          "indexed": false,
          "internalType": "uint256",
          "name": "contractShare",
          "type": "uint256"
        },
        {
          "indexed": false,
          "internalType": "uint256",
          "name": "daoShare",
          "type": "uint256"
        },
        {
          "indexed": false,
          "internalType": "address[]",
          "name": "winners",
          "type": "address[]"
        },
        {
          "indexed": false,
          "internalType": "uint256",
          "name": "winnerShare",
          "type": "uint256"
        }
      ],
      "name": "ProfitDistributed",
      "type": "event"
    },
    {
      "anonymous": false,
      "inputs": [
        {
          "indexed": false,
          "internalType": "uint256",
          "name": "requestId",
          "type": "uint256"
        },
        {
          "indexed": false,
          "internalType": "uint256[]",
          "name": "randomWords",
          "type": "uint256[]"
        },
        {
          "indexed": false,
          "internalType": "uint256",
          "name": "payment",
          "type": "uint256"
        }
      ],
      "name": "RequestFulfilled",
      "type": "event"
    },
    {
      "anonymous": false,
      "inputs": [
        {
          "indexed": false,
          "internalType": "uint256",
          "name": "requestId",
          "type": "uint256"
        },
        {
          "indexed": false,
          "internalType": "uint32",
          "name": "numWords",
          "type": "uint32"
        }
      ],
      "name": "RequestSent",
      "type": "event"
    },
    {
      "anonymous": false,
      "inputs": [
        {
          "indexed": false,
          "internalType": "address[]",
          "name": "winners",
          "type": "address[]"
        }
      ],
      "name": "WinnersSelected",
      "type": "event"
    },
    {
      "inputs": [],
      "name": "acceptOwnership",
      "outputs": [],
      "stateMutability": "nonpayable",
      "type": "function"
    },
    {
      "inputs": [],
      "name": "daoGovernance",
      "outputs": [
        {
          "internalType": "contract IDAOGovernance",
          "name": "",
          "type": "address"
        }
      ],
      "stateMutability": "view",
      "type": "function"
    },
    {
      "inputs": [
        {
          "internalType": "uint256",
          "name": "amount",
          "type": "uint256"
        }
      ],
      "name": "distributeProfit",
      "outputs": [],
      "stateMutability": "nonpayable",
      "type": "function"
    },
    {
      "inputs": [],
      "name": "getNumWords",
      "outputs": [
        {
          "internalType": "uint32",
          "name": "_numWords",
          "type": "uint32"
        }
      ],
      "stateMutability": "view",
      "type": "function"
    },
    {
      "inputs": [
        {
          "internalType": "uint256",
          "name": "_requestId",
          "type": "uint256"
        }
      ],
      "name": "getRequestStatus",
      "outputs": [
        {
          "internalType": "uint256",
          "name": "paid",
          "type": "uint256"
        },
        {
          "internalType": "bool",
          "name": "fulfilled",
          "type": "bool"
        },
        {
          "internalType": "uint256[]",
          "name": "randomWords",
          "type": "uint256[]"
        }
      ],
      "stateMutability": "view",
      "type": "function"
    },
    {
      "inputs": [],
      "name": "getWinners",
      "outputs": [
        {
          "internalType": "address[]",
          "name": "",
          "type": "address[]"
        }
      ],
      "stateMutability": "nonpayable",
      "type": "function"
    },
    {
      "inputs": [],
      "name": "lastRequestId",
      "outputs": [
        {
          "internalType": "uint256",
          "name": "",
          "type": "uint256"
        }
      ],
      "stateMutability": "view",
      "type": "function"
    },
    {
      "inputs": [],
      "name": "owner",
      "outputs": [
        {
          "internalType": "address",
          "name": "",
          "type": "address"
        }
      ],
      "stateMutability": "view",
      "type": "function"
    },
    {
      "inputs": [
        {
          "internalType": "uint256",
          "name": "_requestId",
          "type": "uint256"
        },
        {
          "internalType": "uint256[]",
          "name": "_randomWords",
          "type": "uint256[]"
        }
      ],
      "name": "rawFulfillRandomWords",
      "outputs": [],
      "stateMutability": "nonpayable",
      "type": "function"
    },
    {
      "inputs": [
        {
          "internalType": "uint256",
          "name": "",
          "type": "uint256"
        }
      ],
      "name": "requestIds",
      "outputs": [
        {
          "internalType": "uint256",
          "name": "",
          "type": "uint256"
        }
      ],
      "stateMutability": "view",
      "type": "function"
    },
    {
      "inputs": [],
      "name": "requestRandomWords",
      "outputs": [
        {
          "internalType": "uint256",
          "name": "requestId",
          "type": "uint256"
        }
      ],
      "stateMutability": "nonpayable",
      "type": "function"
    },
    {
      "inputs": [
        {
          "internalType": "uint256",
          "name": "",
          "type": "uint256"
        }
      ],
      "name": "s_requests",
      "outputs": [
        {
          "internalType": "uint256",
          "name": "paid",
          "type": "uint256"
        },
        {
          "internalType": "bool",
          "name": "fulfilled",
          "type": "bool"
        }
      ],
      "stateMutability": "view",
      "type": "function"
    },
    {
      "inputs": [],
      "name": "savingsContract",
      "outputs": [
        {
          "internalType": "contract ISavingsContract",
          "name": "",
          "type": "address"
        }
      ],
      "stateMutability": "view",
      "type": "function"
    },
    {
      "inputs": [
        {
          "internalType": "address",
          "name": "to",
          "type": "address"
        }
      ],
      "name": "transferOwnership",
      "outputs": [],
      "stateMutability": "nonpayable",
      "type": "function"
    },
    {
      "inputs": [
        {
          "internalType": "uint256",
          "name": "",
          "type": "uint256"
        }
      ],
      "name": "winners",
      "outputs": [
        {
          "internalType": "address",
          "name": "",
          "type": "address"
        }
      ],
      "stateMutability": "view",
      "type": "function"
    },
    {
      "inputs": [],
      "name": "withdrawLink",
      "outputs": [],
      "stateMutability": "nonpayable",
      "type": "function"
    }
  ],
  "bytecode": "0x60c0604052620493e0600860006101000a81548163ffffffff021916908363ffffffff1602179055506003600860046101000a81548161ffff021916908361ffff16021790555073779877a7b0d9e8603169ddbd7836e478b46247896008600a6101000a81548173ffffffffffffffffffffffffffffffffffffffff021916908373ffffffffffffffffffffffffffffffffffffffff16021790555073ab18414cd93297b0d12ac29e63ca20f515b3db46600960006101000a81548173ffffffffffffffffffffffffffffffffffffffff021916908373ffffffffffffffffffffffffffffffffffffffff1602179055506014600c55601e600d55601e600e55600a600f55600a6010553480156200011657600080fd5b5060405162003ce238038062003ce283398181016040528101906200013c919062000572565b338060006008600a9054906101000a900473ffffffffffffffffffffffffffffffffffffffff16600960009054906101000a900473ffffffffffffffffffffffffffffffffffffffff168173ffffffffffffffffffffffffffffffffffffffff1660808173ffffffffffffffffffffffffffffffffffffffff16815250508073ffffffffffffffffffffffffffffffffffffffff1660a08173ffffffffffffffffffffffffffffffffffffffff16815250505050600073ffffffffffffffffffffffffffffffffffffffff168273ffffffffffffffffffffffffffffffffffffffff160362000262576040517f08c379a000000000000000000000000000000000000000000000000000000000815260040162000259906200061a565b60405180910390fd5b816000806101000a81548173ffffffffffffffffffffffffffffffffffffffff021916908373ffffffffffffffffffffffffffffffffffffffff160217905550600073ffffffffffffffffffffffffffffffffffffffff168173ffffffffffffffffffffffffffffffffffffffff1614620002e957620002e881620003d960201b60201c565b5b50505081600260006101000a81548173ffffffffffffffffffffffffffffffffffffffff021916908373ffffffffffffffffffffffffffffffffffffffff160217905550600b60009054906101000a900473ffffffffffffffffffffffffffffffffffffffff16600b60006101000a81548173ffffffffffffffffffffffffffffffffffffffff021916908373ffffffffffffffffffffffffffffffffffffffff16021790555080600360006101000a81548173ffffffffffffffffffffffffffffffffffffffff021916908373ffffffffffffffffffffffffffffffffffffffff1602179055505050620006ae565b3373ffffffffffffffffffffffffffffffffffffffff168173ffffffffffffffffffffffffffffffffffffffff16036200044a576040517f08c379a000000000000000000000000000000000000000000000000000000000815260040162000441906200068c565b60405180910390fd5b80600160006101000a81548173ffffffffffffffffffffffffffffffffffffffff021916908373ffffffffffffffffffffffffffffffffffffffff1602179055508073ffffffffffffffffffffffffffffffffffffffff1660008054906101000a900473ffffffffffffffffffffffffffffffffffffffff1673ffffffffffffffffffffffffffffffffffffffff167fed8889f560326eb138920d842192f0eb3dd22b4f139c87a2c57538e05bae127860405160405180910390a350565b600080fd5b600073ffffffffffffffffffffffffffffffffffffffff82169050919050565b60006200053a826200050d565b9050919050565b6200054c816200052d565b81146200055857600080fd5b50565b6000815190506200056c8162000541565b92915050565b600080604083850312156200058c576200058b62000508565b5b60006200059c858286016200055b565b9250506020620005af858286016200055b565b9150509250929050565b600082825260208201905092915050565b7f43616e6e6f7420736574206f776e657220746f207a65726f0000000000000000600082015250565b600062000602601883620005b9565b91506200060f82620005ca565b602082019050919050565b600060208201905081810360008301526200063581620005f3565b9050919050565b7f43616e6e6f74207472616e7366657220746f2073656c66000000000000000000600082015250565b600062000674601783620005b9565b915062000681826200063c565b602082019050919050565b60006020820190508181036000830152620006a78162000665565b9050919050565b60805160a0516135f2620006f0600039600081816103040152818161196401528181611d4d01528181611d6e0152611e8e01526000611d1101526135f26000f3fe608060405234801561001057600080fd5b50600436106101005760003560e01c8063a168fa8911610097578063df15c37e11610066578063df15c37e1461028c578063e0c86289146102aa578063f2fde38b146102c8578063fc2a88c3146102e457610100565b8063a168fa89146101dd578063a2fb11751461020e578063d36dfac81461023e578063d8a4676f1461025a57610100565b806385a83f09116100d357806385a83f09146101675780638796ba8c146101855780638da5cb5b146101b55780638dc654a2146101d357610100565b80631fe543e3146101055780633d4e5ddd1461012157806353a2c19a1461013f57806379ba50971461015d575b600080fd5b61011f600480360381019061011a9190612308565b610302565b005b61012961039e565b60405161013691906123e3565b60405180910390f35b6101476103c4565b604051610154919061241d565b60405180910390f35b6101656104d5565b005b61016f61066a565b60405161017c9190612459565b60405180910390f35b61019f600480360381019061019a9190612474565b610690565b6040516101ac91906124b0565b60405180910390f35b6101bd6106b4565b6040516101ca91906124ec565b60405180910390f35b6101db6106dd565b005b6101f760048036038101906101f29190612474565b610845565b604051610205929190612522565b60405180910390f35b61022860048036038101906102239190612474565b610876565b60405161023591906124ec565b60405180910390f35b61025860048036038101906102539190612474565b6108b5565b005b610274600480360381019061026f9190612474565b611171565b60405161028393929190612609565b60405180910390f35b61029461128b565b6040516102a19190612705565b60405180910390f35b6102b26118e4565b6040516102bf91906124b0565b60405180910390f35b6102e260048036038101906102dd9190612753565b611b4b565b005b6102ec611b5f565b6040516102f991906124b0565b60405180910390f35b7f000000000000000000000000000000000000000000000000000000000000000073ffffffffffffffffffffffffffffffffffffffff163373ffffffffffffffffffffffffffffffffffffffff1614610390576040517f08c379a0000000000000000000000000000000000000000000000000000000008152600401610387906127dd565b60405180910390fd5b61039a8282611b65565b5050565b600360009054906101000a900473ffffffffffffffffffffffffffffffffffffffff1681565b600080600260009054906101000a900473ffffffffffffffffffffffffffffffffffffffff1673ffffffffffffffffffffffffffffffffffffffff1663a04bfbfd6040518163ffffffff1660e01b8152600401600060405180830381865afa158015610434573d6000803e3d6000fd5b505050506040513d6000823e3d601f19601f8201168201806040525081019061045d91906128d5565b905063ffffffff8016815111156104a9576040517f08c379a00000000000000000000000000000000000000000000000000000000081526004016104a090612990565b60405180910390fd5b60016064600583516104bb91906129df565b6104c59190612a50565b6104cf9190612a81565b91505090565b600160009054906101000a900473ffffffffffffffffffffffffffffffffffffffff1673ffffffffffffffffffffffffffffffffffffffff163373ffffffffffffffffffffffffffffffffffffffff1614610565576040517f08c379a000000000000000000000000000000000000000000000000000000000815260040161055c90612b01565b60405180910390fd5b60008060009054906101000a900473ffffffffffffffffffffffffffffffffffffffff169050336000806101000a81548173ffffffffffffffffffffffffffffffffffffffff021916908373ffffffffffffffffffffffffffffffffffffffff1602179055506000600160006101000a81548173ffffffffffffffffffffffffffffffffffffffff021916908373ffffffffffffffffffffffffffffffffffffffff1602179055503373ffffffffffffffffffffffffffffffffffffffff168173ffffffffffffffffffffffffffffffffffffffff167f8be0079c531659141344cd1fd0a4f28419497f9722a3daafe3b4186f6b6457e060405160405180910390a350565b600260009054906101000a900473ffffffffffffffffffffffffffffffffffffffff1681565b600581815481106106a057600080fd5b906000526020600020016000915090505481565b60008060009054906101000a900473ffffffffffffffffffffffffffffffffffffffff16905090565b6106e5611c6d565b60006008600a9054906101000a900473ffffffffffffffffffffffffffffffffffffffff1690508073ffffffffffffffffffffffffffffffffffffffff1663a9059cbb338373ffffffffffffffffffffffffffffffffffffffff166370a08231306040518263ffffffff1660e01b815260040161076291906124ec565b602060405180830381865afa15801561077f573d6000803e3d6000fd5b505050506040513d601f19601f820116820180604052508101906107a39190612b36565b6040518363ffffffff1660e01b81526004016107c0929190612b63565b6020604051808303816000875af11580156107df573d6000803e3d6000fd5b505050506040513d601f19601f820116820180604052508101906108039190612bb8565b610842576040517f08c379a000000000000000000000000000000000000000000000000000000000815260040161083990612c31565b60405180910390fd5b50565b60046020528060005260406000206000915090508060000154908060010160009054906101000a900460ff16905082565b600a818154811061088657600080fd5b906000526020600020016000915054906101000a900473ffffffffffffffffffffffffffffffffffffffff1681565b6108bd611c6d565b6108c5611cfd565b60008111610908576040517f08c379a00000000000000000000000000000000000000000000000000000000081526004016108ff90612c9d565b60405180910390fd5b600061091261128b565b90506000600360009054906101000a900473ffffffffffffffffffffffffffffffffffffffff1673ffffffffffffffffffffffffffffffffffffffff16633b10244b6040518163ffffffff1660e01b8152600401602060405180830381865afa158015610983573d6000803e3d6000fd5b505050506040513d601f19601f820116820180604052508101906109a79190612cbd565b9050600073ffffffffffffffffffffffffffffffffffffffff168173ffffffffffffffffffffffffffffffffffffffff1603610a18576040517f08c379a0000000000000000000000000000000000000000000000000000000008152600401610a0f90612d36565b60405180910390fd5b60005b8251811015610ae357600a8181548110610a3857610a37612d56565b5b9060005260206000200160009054906101000a900473ffffffffffffffffffffffffffffffffffffffff1673ffffffffffffffffffffffffffffffffffffffff168273ffffffffffffffffffffffffffffffffffffffff1603610ad0576040517f08c379a0000000000000000000000000000000000000000000000000000000008152600401610ac790612dd1565b60405180910390fd5b8080610adb90612df1565b915050610a1b565b506000606460105485610af691906129df565b610b009190612a50565b905060006064600c5486610b1491906129df565b610b1e9190612a50565b905060006064600d5487610b3291906129df565b610b3c9190612a50565b90506000600360009054906101000a900473ffffffffffffffffffffffffffffffffffffffff1673ffffffffffffffffffffffffffffffffffffffff16638b73a46b6040518163ffffffff1660e01b8152600401602060405180830381865afa158015610bad573d6000803e3d6000fd5b505050506040513d601f19601f82011682018060405250810190610bd19190612b36565b82610bdc9190612a50565b905060006064600e5489610bf091906129df565b610bfa9190612a50565b90506000875182610c0b9190612a50565b905060006064600f548b610c1f91906129df565b610c299190612a50565b90506000600260009054906101000a900473ffffffffffffffffffffffffffffffffffffffff1673ffffffffffffffffffffffffffffffffffffffff1663a04bfbfd6040518163ffffffff1660e01b8152600401600060405180830381865afa158015610c9a573d6000803e3d6000fd5b505050506040513d6000823e3d601f19601f82011682018060405250810190610cc391906128d5565b90506000815183610cd49190612a50565b9050600260009054906101000a900473ffffffffffffffffffffffffffffffffffffffff1673ffffffffffffffffffffffffffffffffffffffff1663e2dc35e08b8b6040518363ffffffff1660e01b8152600401610d33929190612b63565b600060405180830381600087803b158015610d4d57600080fd5b505af1158015610d61573d6000803e3d6000fd5b50505050600260009054906101000a900473ffffffffffffffffffffffffffffffffffffffff1673ffffffffffffffffffffffffffffffffffffffff1663e2dc35e0600b60009054906101000a900473ffffffffffffffffffffffffffffffffffffffff168a6040518363ffffffff1660e01b8152600401610de4929190612b63565b600060405180830381600087803b158015610dfe57600080fd5b505af1158015610e12573d6000803e3d6000fd5b505050506000600360009054906101000a900473ffffffffffffffffffffffffffffffffffffffff1673ffffffffffffffffffffffffffffffffffffffff1663d211bc3f6040518163ffffffff1660e01b8152600401600060405180830381865afa158015610e85573d6000803e3d6000fd5b505050506040513d6000823e3d601f19601f82011682018060405250810190610eae91906128d5565b905060005b8151811015610f7857600260009054906101000a900473ffffffffffffffffffffffffffffffffffffffff1673ffffffffffffffffffffffffffffffffffffffff1663e2dc35e0838381518110610f0d57610f0c612d56565b5b60200260200101518a6040518363ffffffff1660e01b8152600401610f33929190612b63565b600060405180830381600087803b158015610f4d57600080fd5b505af1158015610f61573d6000803e3d6000fd5b505050508080610f7090612df1565b915050610eb3565b5060005b835181101561104157600260009054906101000a900473ffffffffffffffffffffffffffffffffffffffff1673ffffffffffffffffffffffffffffffffffffffff1663e2dc35e0858381518110610fd657610fd5612d56565b5b6020026020010151856040518363ffffffff1660e01b8152600401610ffc929190612b63565b600060405180830381600087803b15801561101657600080fd5b505af115801561102a573d6000803e3d6000fd5b50505050808061103990612df1565b915050610f7c565b5060005b8c5181101561110a57600260009054906101000a900473ffffffffffffffffffffffffffffffffffffffff1673ffffffffffffffffffffffffffffffffffffffff1663e2dc35e08e838151811061109f5761109e612d56565b5b6020026020010151886040518363ffffffff1660e01b81526004016110c5929190612b63565b600060405180830381600087803b1580156110df57600080fd5b505af11580156110f3573d6000803e3d6000fd5b50505050808061110290612df1565b915050611045565b508a73ffffffffffffffffffffffffffffffffffffffff167fe7b0caf632f3a0dc5084d9f3fc12e61b957acea4ad57c512506311ac669043ce8b8b8a600a8b60405161115a959493929190612f25565b60405180910390a250505050505050505050505050565b600080606060006004600086815260200190815260200160002060000154116111cf576040517f08c379a00000000000000000000000000000000000000000000000000000000081526004016111c690612fcb565b60405180910390fd5b600060046000868152602001908152602001600020604051806060016040529081600082015481526020016001820160009054906101000a900460ff161515151581526020016002820180548060200260200160405190810160405280929190818152602001828054801561126357602002820191906000526020600020905b81548152602001906001019080831161124f575b5050505050815250509050806000015181602001518260400151935093509350509193909250565b60606000600654036112d2576040517f08c379a00000000000000000000000000000000000000000000000000000000081526004016112c99061305d565b60405180910390fd5b60286007546112e19190612a81565b4211611322576040517f08c379a0000000000000000000000000000000000000000000000000000000008152600401611319906130ef565b60405180910390fd5b600061132f600654611171565b5091505080611373576040517f08c379a000000000000000000000000000000000000000000000000000000000815260040161136a9061315b565b60405180910390fd5b6000600260009054906101000a900473ffffffffffffffffffffffffffffffffffffffff1673ffffffffffffffffffffffffffffffffffffffff1663c8c59ac46040518163ffffffff1660e01b8152600401602060405180830381865afa1580156113e2573d6000803e3d6000fd5b505050506040513d601f19601f820116820180604052508101906114069190612b36565b90506000600260009054906101000a900473ffffffffffffffffffffffffffffffffffffffff1673ffffffffffffffffffffffffffffffffffffffff1663c428c06a6040518163ffffffff1660e01b8152600401602060405180830381865afa158015611477573d6000803e3d6000fd5b505050506040513d601f19601f8201168201806040525081019061149b9190612b36565b9050600081836114ab919061317b565b9050600860069054906101000a900463ffffffff1663ffffffff16811015611508576040517f08c379a00000000000000000000000000000000000000000000000000000000081526004016114ff90613221565b60405180910390fd5b6115106103c4565b600860066101000a81548163ffffffff021916908363ffffffff1602179055506000600860069054906101000a900463ffffffff1663ffffffff1667ffffffffffffffff811115611564576115636121c5565b5b6040519080825280602002602001820160405280156115925781602001602082028036833780820191505090505b50905060006004600060065481526020019081526020016000206002018054806020026020016040519081016040528092919081815260200182805480156115f957602002820191906000526020600020905b8154815260200190600101908083116115e5575b50505050509050600860069054906101000a900463ffffffff1663ffffffff1681511461165b576040517f08c379a00000000000000000000000000000000000000000000000000000000081526004016116529061328d565b60405180910390fd5b6000600260009054906101000a900473ffffffffffffffffffffffffffffffffffffffff1673ffffffffffffffffffffffffffffffffffffffff1663f7c4cd6d6040518163ffffffff1660e01b8152600401600060405180830381865afa1580156116ca573d6000803e3d6000fd5b505050506040513d6000823e3d601f19601f820116820180604052508101906116f391906128d5565b905060005b600860069054906101000a900463ffffffff1663ffffffff168110156118015760008584838151811061172e5761172d612d56565b5b602002602001015161174091906132ad565b905082518110611785576040517f08c379a000000000000000000000000000000000000000000000000000000000815260040161177c9061332a565b60405180910390fd5b82818151811061179857611797612d56565b5b60200260200101518583815181106117b3576117b2612d56565b5b602002602001019073ffffffffffffffffffffffffffffffffffffffff16908173ffffffffffffffffffffffffffffffffffffffff16815250505080806117f990612df1565b9150506116f8565b5082600a9080519060200190611818929190612050565b507f32a1b5731a757f192a06ca973715ca4dbc42c2d15323cabaa74e0a2d5dc088e4600a604051611849919061334a565b60405180910390a1600a8054806020026020016040519081016040528092919081815260200182805480156118d357602002820191906000526020600020905b8160009054906101000a900473ffffffffffffffffffffffffffffffffffffffff1673ffffffffffffffffffffffffffffffffffffffff1681526020019060010190808311611889575b505050505097505050505050505090565b60006118ee611c6d565b6118f66103c4565b600860066101000a81548163ffffffff021916908363ffffffff160217905550611955600860009054906101000a900463ffffffff16600860049054906101000a900461ffff16600860069054906101000a900463ffffffff16611d0d565b905060405180606001604052807f000000000000000000000000000000000000000000000000000000000000000073ffffffffffffffffffffffffffffffffffffffff16634306d354600860009054906101000a900463ffffffff166040518263ffffffff1660e01b81526004016119cd919061241d565b602060405180830381865afa1580156119ea573d6000803e3d6000fd5b505050506040513d601f19601f82011682018060405250810190611a0e9190612b36565b8152602001600015158152602001600067ffffffffffffffff811115611a3757611a366121c5565b5b604051908082528060200260200182016040528015611a655781602001602082028036833780820191505090505b50815250600460008381526020019081526020016000206000820151816000015560208201518160010160006101000a81548160ff0219169083151502179055506040820151816002019080519060200190611ac29291906120da565b50905050600581908060018154018082558091505060019003906000526020600020016000909190919091505580600681905550426007819055507fcc58b13ad3eab50626c6a6300b1d139cd6ebb1688a7cced9461c2f7e762665ee81600860069054906101000a900463ffffffff16604051611b4092919061336c565b60405180910390a190565b611b53611c6d565b611b5c81611f24565b50565b60065481565b6000600460008481526020019081526020016000206000015411611bbe576040517f08c379a0000000000000000000000000000000000000000000000000000000008152600401611bb590612fcb565b60405180910390fd5b60016004600084815260200190815260200160002060010160006101000a81548160ff02191690831515021790555080600460008481526020019081526020016000206002019080519060200190611c179291906120da565b507f147eb1ff0c82f87f2b03e2c43f5a36488ff63ec6b730195fde4605f612f8db5182826004600086815260200190815260200160002060000154604051611c6193929190613395565b60405180910390a15050565b60008054906101000a900473ffffffffffffffffffffffffffffffffffffffff1673ffffffffffffffffffffffffffffffffffffffff163373ffffffffffffffffffffffffffffffffffffffff1614611cfb576040517f08c379a0000000000000000000000000000000000000000000000000000000008152600401611cf29061341f565b60405180910390fd5b565b600a6000611d0b9190612127565b565b60007f000000000000000000000000000000000000000000000000000000000000000073ffffffffffffffffffffffffffffffffffffffff16634000aea07f00000000000000000000000000000000000000000000000000000000000000007f000000000000000000000000000000000000000000000000000000000000000073ffffffffffffffffffffffffffffffffffffffff16634306d354886040518263ffffffff1660e01b8152600401611dc5919061241d565b602060405180830381865afa158015611de2573d6000803e3d6000fd5b505050506040513d601f19601f82011682018060405250810190611e069190612b36565b878787604051602001611e1b9392919061345c565b6040516020818303038152906040526040518463ffffffff1660e01b8152600401611e4893929190613512565b6020604051808303816000875af1158015611e67573d6000803e3d6000fd5b505050506040513d601f19601f82011682018060405250810190611e8b9190612bb8565b507f000000000000000000000000000000000000000000000000000000000000000073ffffffffffffffffffffffffffffffffffffffff1663fc2a88c36040518163ffffffff1660e01b8152600401602060405180830381865afa158015611ef7573d6000803e3d6000fd5b505050506040513d601f19601f82011682018060405250810190611f1b9190612b36565b90509392505050565b3373ffffffffffffffffffffffffffffffffffffffff168173ffffffffffffffffffffffffffffffffffffffff1603611f92576040517f08c379a0000000000000000000000000000000000000000000000000000000008152600401611f899061359c565b60405180910390fd5b80600160006101000a81548173ffffffffffffffffffffffffffffffffffffffff021916908373ffffffffffffffffffffffffffffffffffffffff1602179055508073ffffffffffffffffffffffffffffffffffffffff1660008054906101000a900473ffffffffffffffffffffffffffffffffffffffff1673ffffffffffffffffffffffffffffffffffffffff167fed8889f560326eb138920d842192f0eb3dd22b4f139c87a2c57538e05bae127860405160405180910390a350565b8280548282559060005260206000209081019282156120c9579160200282015b828111156120c85782518260006101000a81548173ffffffffffffffffffffffffffffffffffffffff021916908373ffffffffffffffffffffffffffffffffffffffff16021790555091602001919060010190612070565b5b5090506120d69190612148565b5090565b828054828255906000526020600020908101928215612116579160200282015b828111156121155782518255916020019190600101906120fa565b5b5090506121239190612148565b5090565b50805460008255906000526020600020908101906121459190612148565b50565b5b80821115612161576000816000905550600101612149565b5090565b6000604051905090565b600080fd5b600080fd5b6000819050919050565b61218c81612179565b811461219757600080fd5b50565b6000813590506121a981612183565b92915050565b600080fd5b6000601f19601f8301169050919050565b7f4e487b7100000000000000000000000000000000000000000000000000000000600052604160045260246000fd5b6121fd826121b4565b810181811067ffffffffffffffff8211171561221c5761221b6121c5565b5b80604052505050565b600061222f612165565b905061223b82826121f4565b919050565b600067ffffffffffffffff82111561225b5761225a6121c5565b5b602082029050602081019050919050565b600080fd5b600061228461227f84612240565b612225565b905080838252602082019050602084028301858111156122a7576122a661226c565b5b835b818110156122d057806122bc888261219a565b8452602084019350506020810190506122a9565b5050509392505050565b600082601f8301126122ef576122ee6121af565b5b81356122ff848260208601612271565b91505092915050565b6000806040838503121561231f5761231e61216f565b5b600061232d8582860161219a565b925050602083013567ffffffffffffffff81111561234e5761234d612174565b5b61235a858286016122da565b9150509250929050565b600073ffffffffffffffffffffffffffffffffffffffff82169050919050565b6000819050919050565b60006123a96123a461239f84612364565b612384565b612364565b9050919050565b60006123bb8261238e565b9050919050565b60006123cd826123b0565b9050919050565b6123dd816123c2565b82525050565b60006020820190506123f860008301846123d4565b92915050565b600063ffffffff82169050919050565b612417816123fe565b82525050565b6000602082019050612432600083018461240e565b92915050565b6000612443826123b0565b9050919050565b61245381612438565b82525050565b600060208201905061246e600083018461244a565b92915050565b60006020828403121561248a5761248961216f565b5b60006124988482850161219a565b91505092915050565b6124aa81612179565b82525050565b60006020820190506124c560008301846124a1565b92915050565b60006124d682612364565b9050919050565b6124e6816124cb565b82525050565b600060208201905061250160008301846124dd565b92915050565b60008115159050919050565b61251c81612507565b82525050565b600060408201905061253760008301856124a1565b6125446020830184612513565b9392505050565b600081519050919050565b600082825260208201905092915050565b6000819050602082019050919050565b61258081612179565b82525050565b60006125928383612577565b60208301905092915050565b6000602082019050919050565b60006125b68261254b565b6125c08185612556565b93506125cb83612567565b8060005b838110156125fc5781516125e38882612586565b97506125ee8361259e565b9250506001810190506125cf565b5085935050505092915050565b600060608201905061261e60008301866124a1565b61262b6020830185612513565b818103604083015261263d81846125ab565b9050949350505050565b600081519050919050565b600082825260208201905092915050565b6000819050602082019050919050565b61267c816124cb565b82525050565b600061268e8383612673565b60208301905092915050565b6000602082019050919050565b60006126b282612647565b6126bc8185612652565b93506126c783612663565b8060005b838110156126f85781516126df8882612682565b97506126ea8361269a565b9250506001810190506126cb565b5085935050505092915050565b6000602082019050818103600083015261271f81846126a7565b905092915050565b612730816124cb565b811461273b57600080fd5b50565b60008135905061274d81612727565b92915050565b6000602082840312156127695761276861216f565b5b60006127778482850161273e565b91505092915050565b600082825260208201905092915050565b7f6f6e6c792056524620563220777261707065722063616e2066756c66696c6c00600082015250565b60006127c7601f83612780565b91506127d282612791565b602082019050919050565b600060208201905081810360008301526127f6816127ba565b9050919050565b600067ffffffffffffffff821115612818576128176121c5565b5b602082029050602081019050919050565b60008151905061283881612727565b92915050565b600061285161284c846127fd565b612225565b905080838252602082019050602084028301858111156128745761287361226c565b5b835b8181101561289d57806128898882612829565b845260208401935050602081019050612876565b5050509392505050565b600082601f8301126128bc576128bb6121af565b5b81516128cc84826020860161283e565b91505092915050565b6000602082840312156128eb576128ea61216f565b5b600082015167ffffffffffffffff81111561290957612908612174565b5b612915848285016128a7565b91505092915050565b7f4e756d626572206f662077696e6e65727320657863656564732075696e74333260008201527f206d61782076616c756500000000000000000000000000000000000000000000602082015250565b600061297a602a83612780565b91506129858261291e565b604082019050919050565b600060208201905081810360008301526129a98161296d565b9050919050565b7f4e487b7100000000000000000000000000000000000000000000000000000000600052601160045260246000fd5b60006129ea82612179565b91506129f583612179565b9250828202612a0381612179565b91508282048414831517612a1a57612a196129b0565b5b5092915050565b7f4e487b7100000000000000000000000000000000000000000000000000000000600052601260045260246000fd5b6000612a5b82612179565b9150612a6683612179565b925082612a7657612a75612a21565b5b828204905092915050565b6000612a8c82612179565b9150612a9783612179565b9250828201905080821115612aaf57612aae6129b0565b5b92915050565b7f4d7573742062652070726f706f736564206f776e657200000000000000000000600082015250565b6000612aeb601683612780565b9150612af682612ab5565b602082019050919050565b60006020820190508181036000830152612b1a81612ade565b9050919050565b600081519050612b3081612183565b92915050565b600060208284031215612b4c57612b4b61216f565b5b6000612b5a84828501612b21565b91505092915050565b6000604082019050612b7860008301856124dd565b612b8560208301846124a1565b9392505050565b612b9581612507565b8114612ba057600080fd5b50565b600081519050612bb281612b8c565b92915050565b600060208284031215612bce57612bcd61216f565b5b6000612bdc84828501612ba3565b91505092915050565b7f556e61626c6520746f207472616e736665720000000000000000000000000000600082015250565b6000612c1b601283612780565b9150612c2682612be5565b602082019050919050565b60006020820190508181036000830152612c4a81612c0e565b9050919050565b7f496e76616c69642070726f66697420616d6f756e740000000000000000000000600082015250565b6000612c87601583612780565b9150612c9282612c51565b602082019050919050565b60006020820190508181036000830152612cb681612c7a565b9050919050565b600060208284031215612cd357612cd261216f565b5b6000612ce184828501612829565b91505092915050565b7f4e6f2070726f706f73657220666f756e64000000000000000000000000000000600082015250565b6000612d20601183612780565b9150612d2b82612cea565b602082019050919050565b60006020820190508181036000830152612d4f81612d13565b9050919050565b7f4e487b7100000000000000000000000000000000000000000000000000000000600052603260045260246000fd5b7f50726f706f7365722063616e6e6f7420626520612077696e6e65720000000000600082015250565b6000612dbb601b83612780565b9150612dc682612d85565b602082019050919050565b60006020820190508181036000830152612dea81612dae565b9050919050565b6000612dfc82612179565b91507fffffffffffffffffffffffffffffffffffffffffffffffffffffffffffffffff8203612e2e57612e2d6129b0565b5b600182019050919050565b600081549050919050565b60008190508160005260206000209050919050565b60008160001c9050919050565b600073ffffffffffffffffffffffffffffffffffffffff82169050919050565b6000612e99612e9483612e59565b612e66565b9050919050565b6000612eac8254612e86565b9050919050565b6000600182019050919050565b6000612ecb82612e39565b612ed58185612652565b9350612ee083612e44565b8060005b83811015612f1857612ef582612ea0565b612eff8882612682565b9750612f0a83612eb3565b925050600181019050612ee4565b5085935050505092915050565b600060a082019050612f3a60008301886124a1565b612f4760208301876124a1565b612f5460408301866124a1565b8181036060830152612f668185612ec0565b9050612f7560808301846124a1565b9695505050505050565b7f72657175657374206e6f7420666f756e64000000000000000000000000000000600082015250565b6000612fb5601183612780565b9150612fc082612f7f565b602082019050919050565b60006020820190508181036000830152612fe481612fa8565b9050919050565b7f7265717565737452616e646f6d576f726473206e6f742063616c6c656420796560008201527f7400000000000000000000000000000000000000000000000000000000000000602082015250565b6000613047602183612780565b915061305282612feb565b604082019050919050565b600060208201905081810360008301526130768161303a565b9050919050565b7f57616974206120626974206c6f6e67657220666f722066756c66696c6c6d656e60008201527f7400000000000000000000000000000000000000000000000000000000000000602082015250565b60006130d9602183612780565b91506130e48261307d565b604082019050919050565b60006020820190508181036000830152613108816130cc565b9050919050565b7f52616e646f6d206e756d626572206e6f742079657420617661696c61626c6500600082015250565b6000613145601f83612780565b91506131508261310f565b602082019050919050565b6000602082019050818103600083015261317481613138565b9050919050565b600061318682612179565b915061319183612179565b92508282039050818111156131a9576131a86129b0565b5b92915050565b7f4e6f7420656e6f7567682061646472657373657320666f722073656c6563746960008201527f6f6e000000000000000000000000000000000000000000000000000000000000602082015250565b600061320b602283612780565b9150613216826131af565b604082019050919050565b6000602082019050818103600083015261323a816131fe565b9050919050565b7f52616e646f6d20776f726473206e6f7420617661696c61626c65000000000000600082015250565b6000613277601a83612780565b915061328282613241565b602082019050919050565b600060208201905081810360008301526132a68161326a565b9050919050565b60006132b882612179565b91506132c383612179565b9250826132d3576132d2612a21565b5b828206905092915050565b7f496e646578206f7574206f6620626f756e647300000000000000000000000000600082015250565b6000613314601383612780565b915061331f826132de565b602082019050919050565b6000602082019050818103600083015261334381613307565b9050919050565b600060208201905081810360008301526133648184612ec0565b905092915050565b600060408201905061338160008301856124a1565b61338e602083018461240e565b9392505050565b60006060820190506133aa60008301866124a1565b81810360208301526133bc81856125ab565b90506133cb60408301846124a1565b949350505050565b7f4f6e6c792063616c6c61626c65206279206f776e657200000000000000000000600082015250565b6000613409601683612780565b9150613414826133d3565b602082019050919050565b60006020820190508181036000830152613438816133fc565b9050919050565b600061ffff82169050919050565b6134568161343f565b82525050565b6000606082019050613471600083018661240e565b61347e602083018561344d565b61348b604083018461240e565b949350505050565b600081519050919050565b600082825260208201905092915050565b60005b838110156134cd5780820151818401526020810190506134b2565b60008484015250505050565b60006134e482613493565b6134ee818561349e565b93506134fe8185602086016134af565b613507816121b4565b840191505092915050565b600060608201905061352760008301866124dd565b61353460208301856124a1565b818103604083015261354681846134d9565b9050949350505050565b7f43616e6e6f74207472616e7366657220746f2073656c66000000000000000000600082015250565b6000613586601783612780565b915061359182613550565b602082019050919050565b600060208201905081810360008301526135b581613579565b905091905056fea26469706673582212208abd3183aed65dd9ae59e09f9df538a0c66b3fe79864d73f4f5ac8646645276364736f6c63430008140033",
  "linkReferences": {},
  "deployedLinkReferences": {}
}