{
  "_format": "hh-sol-artifact-1",
  "contractName": "SwapContract",
  "sourceName": "contracts/SwapContract.sol",
  "abi": [
    {
      "inputs": [],
      "stateMutability": "nonpayable",
      "type": "constructor"
    },
    {
      "inputs": [
        {
          "internalType": "uint256",
          "name": "blzAmount",
          "type": "uint256"
        }
      ],
      "name": "convertBLZtoUSD",
      "outputs": [
        {
          "internalType": "uint256",
          "name": "",
          "type": "uint256"
        }
      ],
      "stateMutability": "view",
      "type": "function"
    },
    {
      "inputs": [
        {
          "internalType": "uint256",
          "name": "usdAmount",
          "type": "uint256"
        }
      ],
      "name": "convertUSDtoBLZ",
      "outputs": [
        {
          "internalType": "uint256",
          "name": "",
          "type": "uint256"
        }
      ],
      "stateMutability": "view",
      "type": "function"
    },
    {
      "inputs": [],
      "name": "getChainlinkDataFeedLatestAnswer",
      "outputs": [
        {
          "internalType": "int256",
          "name": "",
          "type": "int256"
        }
      ],
      "stateMutability": "view",
      "type": "function"
    }
  ],
  "bytecode": "0x608060405234801561001057600080fd5b5073c32f0a9d70a34b9e7377c10fdad88512596f61ea6000806101000a81548173ffffffffffffffffffffffffffffffffffffffff021916908373ffffffffffffffffffffffffffffffffffffffff1602179055506104e8806100746000396000f3fe608060405234801561001057600080fd5b50600436106100415760003560e01c8063219f364a14610046578063bea4dfb514610076578063ea83c62614610094575b600080fd5b610060600480360381019061005b9190610258565b6100c4565b60405161006d9190610294565b60405180910390f35b61007e610121565b60405161008b91906102c8565b60405180910390f35b6100ae60048036038101906100a99190610258565b6101c0565b6040516100bb9190610294565b60405180910390f35b6000806100cf610121565b905060006305f5e100620f4240836100e79190610312565b6100f19190610383565b90506000670de0b6b3a7640000828661010a9190610312565b6101149190610383565b9050809350505050919050565b60008060008054906101000a900473ffffffffffffffffffffffffffffffffffffffff1673ffffffffffffffffffffffffffffffffffffffff1663feaf968c6040518163ffffffff1660e01b815260040160a060405180830381865afa15801561018f573d6000803e3d6000fd5b505050506040513d601f19601f820116820180604052508101906101b39190610437565b5050509150508091505090565b6000806101cb610121565b905060006305f5e100620f4240836101e39190610312565b6101ed9190610383565b9050600081670de0b6b3a7640000866102069190610312565b6102109190610383565b9050809350505050919050565b600080fd5b6000819050919050565b61023581610222565b811461024057600080fd5b50565b6000813590506102528161022c565b92915050565b60006020828403121561026e5761026d61021d565b5b600061027c84828501610243565b91505092915050565b61028e81610222565b82525050565b60006020820190506102a96000830184610285565b92915050565b6000819050919050565b6102c2816102af565b82525050565b60006020820190506102dd60008301846102b9565b92915050565b7f4e487b7100000000000000000000000000000000000000000000000000000000600052601160045260246000fd5b600061031d82610222565b915061032883610222565b925082820261033681610222565b9150828204841483151761034d5761034c6102e3565b5b5092915050565b7f4e487b7100000000000000000000000000000000000000000000000000000000600052601260045260246000fd5b600061038e82610222565b915061039983610222565b9250826103a9576103a8610354565b5b828204905092915050565b600069ffffffffffffffffffff82169050919050565b6103d3816103b4565b81146103de57600080fd5b50565b6000815190506103f0816103ca565b92915050565b6103ff816102af565b811461040a57600080fd5b50565b60008151905061041c816103f6565b92915050565b6000815190506104318161022c565b92915050565b600080600080600060a086880312156104535761045261021d565b5b6000610461888289016103e1565b95505060206104728882890161040d565b945050604061048388828901610422565b935050606061049488828901610422565b92505060806104a5888289016103e1565b915050929550929590935056fea2646970667358221220a1dbc9e6d32e74558bc4e0c1f0a742926a73c1e93d246e3c146e713c55846e3964736f6c63430008140033",
  "linkReferences": {},
  "deployedLinkReferences": {}
}