{
  "_format": "hh-sol-artifact-1",
  "contractName": "NFTContract",
  "sourceName": "contracts/NFTContract.sol",
  "abi": [
    {
      "inputs": [],
      "stateMutability": "nonpayable",
      "type": "constructor"
    },
    {
      "inputs": [
        {
          "internalType": "address",
          "name": "sender",
          "type": "address"
        },
        {
          "internalType": "uint256",
          "name": "tokenId",
          "type": "uint256"
        },
        {
          "internalType": "address",
          "name": "owner",
          "type": "address"
        }
      ],
      "name": "ERC721IncorrectOwner",
      "type": "error"
    },
    {
      "inputs": [
        {
          "internalType": "address",
          "name": "operator",
          "type": "address"
        },
        {
          "internalType": "uint256",
          "name": "tokenId",
          "type": "uint256"
        }
      ],
      "name": "ERC721InsufficientApproval",
      "type": "error"
    },
    {
      "inputs": [
        {
          "internalType": "address",
          "name": "approver",
          "type": "address"
        }
      ],
      "name": "ERC721InvalidApprover",
      "type": "error"
    },
    {
      "inputs": [
        {
          "internalType": "address",
          "name": "operator",
          "type": "address"
        }
      ],
      "name": "ERC721InvalidOperator",
      "type": "error"
    },
    {
      "inputs": [
        {
          "internalType": "address",
          "name": "owner",
          "type": "address"
        }
      ],
      "name": "ERC721InvalidOwner",
      "type": "error"
    },
    {
      "inputs": [
        {
          "internalType": "address",
          "name": "receiver",
          "type": "address"
        }
      ],
      "name": "ERC721InvalidReceiver",
      "type": "error"
    },
    {
      "inputs": [
        {
          "internalType": "address",
          "name": "sender",
          "type": "address"
        }
      ],
      "name": "ERC721InvalidSender",
      "type": "error"
    },
    {
      "inputs": [
        {
          "internalType": "uint256",
          "name": "tokenId",
          "type": "uint256"
        }
      ],
      "name": "ERC721NonexistentToken",
      "type": "error"
    },
    {
      "inputs": [
        {
          "internalType": "address",
          "name": "owner",
          "type": "address"
        }
      ],
      "name": "OwnableInvalidOwner",
      "type": "error"
    },
    {
      "inputs": [
        {
          "internalType": "address",
          "name": "account",
          "type": "address"
        }
      ],
      "name": "OwnableUnauthorizedAccount",
      "type": "error"
    },
    {
      "anonymous": false,
      "inputs": [
        {
          "indexed": true,
          "internalType": "address",
          "name": "owner",
          "type": "address"
        },
        {
          "indexed": true,
          "internalType": "address",
          "name": "approved",
          "type": "address"
        },
        {
          "indexed": true,
          "internalType": "uint256",
          "name": "tokenId",
          "type": "uint256"
        }
      ],
      "name": "Approval",
      "type": "event"
    },
    {
      "anonymous": false,
      "inputs": [
        {
          "indexed": true,
          "internalType": "address",
          "name": "owner",
          "type": "address"
        },
        {
          "indexed": true,
          "internalType": "address",
          "name": "operator",
          "type": "address"
        },
        {
          "indexed": false,
          "internalType": "bool",
          "name": "approved",
          "type": "bool"
        }
      ],
      "name": "ApprovalForAll",
      "type": "event"
    },
    {
      "anonymous": false,
      "inputs": [
        {
          "indexed": false,
          "internalType": "uint256",
          "name": "_fromTokenId",
          "type": "uint256"
        },
        {
          "indexed": false,
          "internalType": "uint256",
          "name": "_toTokenId",
          "type": "uint256"
        }
      ],
      "name": "BatchMetadataUpdate",
      "type": "event"
    },
    {
      "anonymous": false,
      "inputs": [
        {
          "indexed": false,
          "internalType": "uint256",
          "name": "_tokenId",
          "type": "uint256"
        }
      ],
      "name": "MetadataUpdate",
      "type": "event"
    },
    {
      "anonymous": false,
      "inputs": [
        {
          "indexed": true,
          "internalType": "address",
          "name": "previousOwner",
          "type": "address"
        },
        {
          "indexed": true,
          "internalType": "address",
          "name": "newOwner",
          "type": "address"
        }
      ],
      "name": "OwnershipTransferred",
      "type": "event"
    },
    {
      "anonymous": false,
      "inputs": [
        {
          "indexed": true,
          "internalType": "address",
          "name": "from",
          "type": "address"
        },
        {
          "indexed": true,
          "internalType": "address",
          "name": "to",
          "type": "address"
        },
        {
          "indexed": true,
          "internalType": "uint256",
          "name": "tokenId",
          "type": "uint256"
        }
      ],
      "name": "Transfer",
      "type": "event"
    },
    {
      "inputs": [
        {
          "internalType": "address",
          "name": "to",
          "type": "address"
        },
        {
          "internalType": "uint256",
          "name": "tokenId",
          "type": "uint256"
        }
      ],
      "name": "approve",
      "outputs": [],
      "stateMutability": "nonpayable",
      "type": "function"
    },
    {
      "inputs": [
        {
          "internalType": "address",
          "name": "owner",
          "type": "address"
        }
      ],
      "name": "balanceOf",
      "outputs": [
        {
          "internalType": "uint256",
          "name": "",
          "type": "uint256"
        }
      ],
      "stateMutability": "view",
      "type": "function"
    },
    {
      "inputs": [
        {
          "internalType": "address",
          "name": "_savingsContractAddress",
          "type": "address"
        }
      ],
      "name": "bindAddress",
      "outputs": [],
      "stateMutability": "nonpayable",
      "type": "function"
    },
    {
      "inputs": [
        {
          "internalType": "uint256",
          "name": "tokenId",
          "type": "uint256"
        }
      ],
      "name": "burn",
      "outputs": [],
      "stateMutability": "nonpayable",
      "type": "function"
    },
    {
      "inputs": [
        {
          "internalType": "uint256",
          "name": "tokenId",
          "type": "uint256"
        }
      ],
      "name": "getApproved",
      "outputs": [
        {
          "internalType": "address",
          "name": "",
          "type": "address"
        }
      ],
      "stateMutability": "view",
      "type": "function"
    },
    {
      "inputs": [
        {
          "internalType": "address",
          "name": "owner",
          "type": "address"
        },
        {
          "internalType": "address",
          "name": "operator",
          "type": "address"
        }
      ],
      "name": "isApprovedForAll",
      "outputs": [
        {
          "internalType": "bool",
          "name": "",
          "type": "bool"
        }
      ],
      "stateMutability": "view",
      "type": "function"
    },
    {
      "inputs": [
        {
          "internalType": "address",
          "name": "to",
          "type": "address"
        }
      ],
      "name": "mint",
      "outputs": [
        {
          "internalType": "uint256",
          "name": "",
          "type": "uint256"
        }
      ],
      "stateMutability": "nonpayable",
      "type": "function"
    },
    {
      "inputs": [],
      "name": "name",
      "outputs": [
        {
          "internalType": "string",
          "name": "",
          "type": "string"
        }
      ],
      "stateMutability": "view",
      "type": "function"
    },
    {
      "inputs": [],
      "name": "owner",
      "outputs": [
        {
          "internalType": "address",
          "name": "",
          "type": "address"
        }
      ],
      "stateMutability": "view",
      "type": "function"
    },
    {
      "inputs": [
        {
          "internalType": "uint256",
          "name": "tokenId",
          "type": "uint256"
        }
      ],
      "name": "ownerOf",
      "outputs": [
        {
          "internalType": "address",
          "name": "",
          "type": "address"
        }
      ],
      "stateMutability": "view",
      "type": "function"
    },
    {
      "inputs": [],
      "name": "renounceOwnership",
      "outputs": [],
      "stateMutability": "nonpayable",
      "type": "function"
    },
    {
      "inputs": [
        {
          "internalType": "address",
          "name": "from",
          "type": "address"
        },
        {
          "internalType": "address",
          "name": "to",
          "type": "address"
        },
        {
          "internalType": "uint256",
          "name": "tokenId",
          "type": "uint256"
        }
      ],
      "name": "safeTransferFrom",
      "outputs": [],
      "stateMutability": "nonpayable",
      "type": "function"
    },
    {
      "inputs": [
        {
          "internalType": "address",
          "name": "from",
          "type": "address"
        },
        {
          "internalType": "address",
          "name": "to",
          "type": "address"
        },
        {
          "internalType": "uint256",
          "name": "tokenId",
          "type": "uint256"
        },
        {
          "internalType": "bytes",
          "name": "data",
          "type": "bytes"
        }
      ],
      "name": "safeTransferFrom",
      "outputs": [],
      "stateMutability": "nonpayable",
      "type": "function"
    },
    {
      "inputs": [
        {
          "internalType": "address",
          "name": "operator",
          "type": "address"
        },
        {
          "internalType": "bool",
          "name": "approved",
          "type": "bool"
        }
      ],
      "name": "setApprovalForAll",
      "outputs": [],
      "stateMutability": "nonpayable",
      "type": "function"
    },
    {
      "inputs": [
        {
          "internalType": "bytes4",
          "name": "interfaceId",
          "type": "bytes4"
        }
      ],
      "name": "supportsInterface",
      "outputs": [
        {
          "internalType": "bool",
          "name": "",
          "type": "bool"
        }
      ],
      "stateMutability": "view",
      "type": "function"
    },
    {
      "inputs": [],
      "name": "symbol",
      "outputs": [
        {
          "internalType": "string",
          "name": "",
          "type": "string"
        }
      ],
      "stateMutability": "view",
      "type": "function"
    },
    {
      "inputs": [
        {
          "internalType": "uint256",
          "name": "tokenId",
          "type": "uint256"
        }
      ],
      "name": "tokenURI",
      "outputs": [
        {
          "internalType": "string",
          "name": "",
          "type": "string"
        }
      ],
      "stateMutability": "view",
      "type": "function"
    },
    {
      "inputs": [
        {
          "internalType": "address",
          "name": "from",
          "type": "address"
        },
        {
          "internalType": "address",
          "name": "to",
          "type": "address"
        },
        {
          "internalType": "uint256",
          "name": "tokenId",
          "type": "uint256"
        }
      ],
      "name": "transferFrom",
      "outputs": [],
      "stateMutability": "nonpayable",
      "type": "function"
    },
    {
      "inputs": [
        {
          "internalType": "address",
          "name": "newOwner",
          "type": "address"
        }
      ],
      "name": "transferOwnership",
      "outputs": [],
      "stateMutability": "nonpayable",
      "type": "function"
    }
  ],
  "bytecode": "0x608060405260405180608001604052806048815260200162002e7e60489139600a90816200002e91906200049d565b503480156200003c57600080fd5b50336040518060400160405280601281526020017f44414f204d656d62657273686970204e465400000000000000000000000000008152506040518060400160405280600681526020017f44414f4e465400000000000000000000000000000000000000000000000000008152508160009081620000bb91906200049d565b508060019081620000cd91906200049d565b505050600073ffffffffffffffffffffffffffffffffffffffff168173ffffffffffffffffffffffffffffffffffffffff1603620001455760006040517f1e4fbdf70000000000000000000000000000000000000000000000000000000081526004016200013c9190620005c9565b60405180910390fd5b62000156816200015d60201b60201c565b50620005e6565b6000600760009054906101000a900473ffffffffffffffffffffffffffffffffffffffff16905081600760006101000a81548173ffffffffffffffffffffffffffffffffffffffff021916908373ffffffffffffffffffffffffffffffffffffffff1602179055508173ffffffffffffffffffffffffffffffffffffffff168173ffffffffffffffffffffffffffffffffffffffff167f8be0079c531659141344cd1fd0a4f28419497f9722a3daafe3b4186f6b6457e060405160405180910390a35050565b600081519050919050565b7f4e487b7100000000000000000000000000000000000000000000000000000000600052604160045260246000fd5b7f4e487b7100000000000000000000000000000000000000000000000000000000600052602260045260246000fd5b60006002820490506001821680620002a557607f821691505b602082108103620002bb57620002ba6200025d565b5b50919050565b60008190508160005260206000209050919050565b60006020601f8301049050919050565b600082821b905092915050565b600060088302620003257fffffffffffffffffffffffffffffffffffffffffffffffffffffffffffffffff82620002e6565b620003318683620002e6565b95508019841693508086168417925050509392505050565b6000819050919050565b6000819050919050565b60006200037e62000378620003728462000349565b62000353565b62000349565b9050919050565b6000819050919050565b6200039a836200035d565b620003b2620003a98262000385565b848454620002f3565b825550505050565b600090565b620003c9620003ba565b620003d68184846200038f565b505050565b5b81811015620003fe57620003f2600082620003bf565b600181019050620003dc565b5050565b601f8211156200044d576200041781620002c1565b6200042284620002d6565b8101602085101562000432578190505b6200044a6200044185620002d6565b830182620003db565b50505b505050565b600082821c905092915050565b6000620004726000198460080262000452565b1980831691505092915050565b60006200048d83836200045f565b9150826002028217905092915050565b620004a88262000223565b67ffffffffffffffff811115620004c457620004c36200022e565b5b620004d082546200028c565b620004dd82828562000402565b600060209050601f83116001811462000515576000841562000500578287015190505b6200050c85826200047f565b8655506200057c565b601f1984166200052586620002c1565b60005b828110156200054f5784890151825560018201915060208501945060208101905062000528565b868310156200056f57848901516200056b601f8916826200045f565b8355505b6001600288020188555050505b505050505050565b600073ffffffffffffffffffffffffffffffffffffffff82169050919050565b6000620005b18262000584565b9050919050565b620005c381620005a4565b82525050565b6000602082019050620005e06000830184620005b8565b92915050565b61288880620005f66000396000f3fe608060405234801561001057600080fd5b50600436106101215760003560e01c806370a08231116100ad578063b88d4fde11610071578063b88d4fde14610306578063c76ea97814610322578063c87b56dd1461033e578063e985e9c51461036e578063f2fde38b1461039e57610121565b806370a0823114610274578063715018a6146102a45780638da5cb5b146102ae57806395d89b41146102cc578063a22cb465146102ea57610121565b806323b872dd116100f457806323b872dd146101c057806342842e0e146101dc57806342966c68146101f85780636352211e146102145780636a6278421461024457610121565b806301ffc9a71461012657806306fdde0314610156578063081812fc14610174578063095ea7b3146101a4575b600080fd5b610140600480360381019061013b9190611d5f565b6103ba565b60405161014d9190611da7565b60405180910390f35b61015e61041b565b60405161016b9190611e52565b60405180910390f35b61018e60048036038101906101899190611eaa565b6104ad565b60405161019b9190611f18565b60405180910390f35b6101be60048036038101906101b99190611f5f565b6104c9565b005b6101da60048036038101906101d59190611f9f565b6104df565b005b6101f660048036038101906101f19190611f9f565b6105e1565b005b610212600480360381019061020d9190611eaa565b610601565b005b61022e60048036038101906102299190611eaa565b61069d565b60405161023b9190611f18565b60405180910390f35b61025e60048036038101906102599190611ff2565b6106af565b60405161026b919061202e565b60405180910390f35b61028e60048036038101906102899190611ff2565b610802565b60405161029b919061202e565b60405180910390f35b6102ac6108bc565b005b6102b66108d0565b6040516102c39190611f18565b60405180910390f35b6102d46108fa565b6040516102e19190611e52565b60405180910390f35b61030460048036038101906102ff9190612075565b61098c565b005b610320600480360381019061031b91906121ea565b6109a2565b005b61033c60048036038101906103379190611ff2565b6109bf565b005b61035860048036038101906103539190611eaa565b610a0b565b6040516103659190611e52565b60405180910390f35b6103886004803603810190610383919061226d565b610b1e565b6040516103959190611da7565b60405180910390f35b6103b860048036038101906103b39190611ff2565b610bb2565b005b6000634906490660e01b7bffffffffffffffffffffffffffffffffffffffffffffffffffffffff1916827bffffffffffffffffffffffffffffffffffffffffffffffffffffffff19161480610414575061041382610c38565b5b9050919050565b60606000805461042a906122dc565b80601f0160208091040260200160405190810160405280929190818152602001828054610456906122dc565b80156104a35780601f10610478576101008083540402835291602001916104a3565b820191906000526020600020905b81548152906001019060200180831161048657829003601f168201915b5050505050905090565b60006104b882610d1a565b506104c282610da2565b9050919050565b6104db82826104d6610ddf565b610de7565b5050565b600073ffffffffffffffffffffffffffffffffffffffff168273ffffffffffffffffffffffffffffffffffffffff16036105515760006040517f64a0ae920000000000000000000000000000000000000000000000000000000081526004016105489190611f18565b60405180910390fd5b60006105658383610560610ddf565b610df9565b90508373ffffffffffffffffffffffffffffffffffffffff168173ffffffffffffffffffffffffffffffffffffffff16146105db578382826040517f64283d7b0000000000000000000000000000000000000000000000000000000081526004016105d29392919061230d565b60405180910390fd5b50505050565b6105fc838383604051806020016040528060008152506109a2565b505050565b600960009054906101000a900473ffffffffffffffffffffffffffffffffffffffff1673ffffffffffffffffffffffffffffffffffffffff163373ffffffffffffffffffffffffffffffffffffffff1614610691576040517f08c379a0000000000000000000000000000000000000000000000000000000008152600401610688906123b6565b60405180910390fd5b61069a81611013565b50565b60006106a882610d1a565b9050919050565b6000600960009054906101000a900473ffffffffffffffffffffffffffffffffffffffff1673ffffffffffffffffffffffffffffffffffffffff163373ffffffffffffffffffffffffffffffffffffffff1614610741576040517f08c379a0000000000000000000000000000000000000000000000000000000008152600401610738906123b6565b60405180910390fd5b600060016008546107529190612405565b905061075e8382611099565b6107f281600a805461076f906122dc565b80601f016020809104026020016040519081016040528092919081815260200182805461079b906122dc565b80156107e85780601f106107bd576101008083540402835291602001916107e8565b820191906000526020600020905b8154815290600101906020018083116107cb57829003601f168201915b5050505050611192565b8060088190555080915050919050565b60008073ffffffffffffffffffffffffffffffffffffffff168273ffffffffffffffffffffffffffffffffffffffff16036108755760006040517f89c62b6400000000000000000000000000000000000000000000000000000000815260040161086c9190611f18565b60405180910390fd5b600360008373ffffffffffffffffffffffffffffffffffffffff1673ffffffffffffffffffffffffffffffffffffffff168152602001908152602001600020549050919050565b6108c46111ee565b6108ce6000611275565b565b6000600760009054906101000a900473ffffffffffffffffffffffffffffffffffffffff16905090565b606060018054610909906122dc565b80601f0160208091040260200160405190810160405280929190818152602001828054610935906122dc565b80156109825780601f1061095757610100808354040283529160200191610982565b820191906000526020600020905b81548152906001019060200180831161096557829003601f168201915b5050505050905090565b61099e610997610ddf565b838361133b565b5050565b6109ad8484846104df565b6109b9848484846114aa565b50505050565b6109c76111ee565b80600960006101000a81548173ffffffffffffffffffffffffffffffffffffffff021916908373ffffffffffffffffffffffffffffffffffffffff16021790555050565b6060610a1682610d1a565b506000600660008481526020019081526020016000208054610a37906122dc565b80601f0160208091040260200160405190810160405280929190818152602001828054610a63906122dc565b8015610ab05780601f10610a8557610100808354040283529160200191610ab0565b820191906000526020600020905b815481529060010190602001808311610a9357829003601f168201915b505050505090506000610ac1611661565b90506000815103610ad6578192505050610b19565b600082511115610b0b578082604051602001610af3929190612475565b60405160208183030381529060405292505050610b19565b610b1484611678565b925050505b919050565b6000600560008473ffffffffffffffffffffffffffffffffffffffff1673ffffffffffffffffffffffffffffffffffffffff16815260200190815260200160002060008373ffffffffffffffffffffffffffffffffffffffff1673ffffffffffffffffffffffffffffffffffffffff16815260200190815260200160002060009054906101000a900460ff16905092915050565b610bba6111ee565b600073ffffffffffffffffffffffffffffffffffffffff168173ffffffffffffffffffffffffffffffffffffffff1603610c2c5760006040517f1e4fbdf7000000000000000000000000000000000000000000000000000000008152600401610c239190611f18565b60405180910390fd5b610c3581611275565b50565b60007f80ac58cd000000000000000000000000000000000000000000000000000000007bffffffffffffffffffffffffffffffffffffffffffffffffffffffff1916827bffffffffffffffffffffffffffffffffffffffffffffffffffffffff19161480610d0357507f5b5e139f000000000000000000000000000000000000000000000000000000007bffffffffffffffffffffffffffffffffffffffffffffffffffffffff1916827bffffffffffffffffffffffffffffffffffffffffffffffffffffffff1916145b80610d135750610d12826116e1565b5b9050919050565b600080610d268361174b565b9050600073ffffffffffffffffffffffffffffffffffffffff168173ffffffffffffffffffffffffffffffffffffffff1603610d9957826040517f7e273289000000000000000000000000000000000000000000000000000000008152600401610d90919061202e565b60405180910390fd5b80915050919050565b60006004600083815260200190815260200160002060009054906101000a900473ffffffffffffffffffffffffffffffffffffffff169050919050565b600033905090565b610df48383836001611788565b505050565b600080610e058461174b565b9050600073ffffffffffffffffffffffffffffffffffffffff168373ffffffffffffffffffffffffffffffffffffffff1614610e4757610e4681848661194d565b5b600073ffffffffffffffffffffffffffffffffffffffff168173ffffffffffffffffffffffffffffffffffffffff1614610ed857610e89600085600080611788565b6001600360008373ffffffffffffffffffffffffffffffffffffffff1673ffffffffffffffffffffffffffffffffffffffff168152602001908152602001600020600082825403925050819055505b600073ffffffffffffffffffffffffffffffffffffffff168573ffffffffffffffffffffffffffffffffffffffff1614610f5b576001600360008773ffffffffffffffffffffffffffffffffffffffff1673ffffffffffffffffffffffffffffffffffffffff168152602001908152602001600020600082825401925050819055505b846002600086815260200190815260200160002060006101000a81548173ffffffffffffffffffffffffffffffffffffffff021916908373ffffffffffffffffffffffffffffffffffffffff160217905550838573ffffffffffffffffffffffffffffffffffffffff168273ffffffffffffffffffffffffffffffffffffffff167fddf252ad1be2c89b69c2b068fc378daa952ba7f163c4a11628f55a4df523b3ef60405160405180910390a4809150509392505050565b60006110226000836000610df9565b9050600073ffffffffffffffffffffffffffffffffffffffff168173ffffffffffffffffffffffffffffffffffffffff160361109557816040517f7e27328900000000000000000000000000000000000000000000000000000000815260040161108c919061202e565b60405180910390fd5b5050565b600073ffffffffffffffffffffffffffffffffffffffff168273ffffffffffffffffffffffffffffffffffffffff160361110b5760006040517f64a0ae920000000000000000000000000000000000000000000000000000000081526004016111029190611f18565b60405180910390fd5b600061111983836000610df9565b9050600073ffffffffffffffffffffffffffffffffffffffff168173ffffffffffffffffffffffffffffffffffffffff161461118d5760006040517f73c6ac6e0000000000000000000000000000000000000000000000000000000081526004016111849190611f18565b60405180910390fd5b505050565b806006600084815260200190815260200160002090816111b29190612645565b507ff8e1a15aba9398e019f0b49df1a4fde98ee17ae345cb5f6b5e2c27f5033e8ce7826040516111e2919061202e565b60405180910390a15050565b6111f6610ddf565b73ffffffffffffffffffffffffffffffffffffffff166112146108d0565b73ffffffffffffffffffffffffffffffffffffffff161461127357611237610ddf565b6040517f118cdaa700000000000000000000000000000000000000000000000000000000815260040161126a9190611f18565b60405180910390fd5b565b6000600760009054906101000a900473ffffffffffffffffffffffffffffffffffffffff16905081600760006101000a81548173ffffffffffffffffffffffffffffffffffffffff021916908373ffffffffffffffffffffffffffffffffffffffff1602179055508173ffffffffffffffffffffffffffffffffffffffff168173ffffffffffffffffffffffffffffffffffffffff167f8be0079c531659141344cd1fd0a4f28419497f9722a3daafe3b4186f6b6457e060405160405180910390a35050565b600073ffffffffffffffffffffffffffffffffffffffff168273ffffffffffffffffffffffffffffffffffffffff16036113ac57816040517f5b08ba180000000000000000000000000000000000000000000000000000000081526004016113a39190611f18565b60405180910390fd5b80600560008573ffffffffffffffffffffffffffffffffffffffff1673ffffffffffffffffffffffffffffffffffffffff16815260200190815260200160002060008473ffffffffffffffffffffffffffffffffffffffff1673ffffffffffffffffffffffffffffffffffffffff16815260200190815260200160002060006101000a81548160ff0219169083151502179055508173ffffffffffffffffffffffffffffffffffffffff168373ffffffffffffffffffffffffffffffffffffffff167f17307eab39ab6107e8899845ad3d59bd9653f200f220920489ca2b5937696c318360405161149d9190611da7565b60405180910390a3505050565b60008373ffffffffffffffffffffffffffffffffffffffff163b111561165b578273ffffffffffffffffffffffffffffffffffffffff1663150b7a026114ee610ddf565b8685856040518563ffffffff1660e01b8152600401611510949392919061276c565b6020604051808303816000875af192505050801561154c57506040513d601f19601f8201168201806040525081019061154991906127cd565b60015b6115d0573d806000811461157c576040519150601f19603f3d011682016040523d82523d6000602084013e611581565b606091505b5060008151036115c857836040517f64a0ae920000000000000000000000000000000000000000000000000000000081526004016115bf9190611f18565b60405180910390fd5b805181602001fd5b63150b7a0260e01b7bffffffffffffffffffffffffffffffffffffffffffffffffffffffff1916817bffffffffffffffffffffffffffffffffffffffffffffffffffffffff19161461165957836040517f64a0ae920000000000000000000000000000000000000000000000000000000081526004016116509190611f18565b60405180910390fd5b505b50505050565b606060405180602001604052806000815250905090565b606061168382610d1a565b50600061168e611661565b905060008151116116ae57604051806020016040528060008152506116d9565b806116b884611a11565b6040516020016116c9929190612475565b6040516020818303038152906040525b915050919050565b60007f01ffc9a7000000000000000000000000000000000000000000000000000000007bffffffffffffffffffffffffffffffffffffffffffffffffffffffff1916827bffffffffffffffffffffffffffffffffffffffffffffffffffffffff1916149050919050565b60006002600083815260200190815260200160002060009054906101000a900473ffffffffffffffffffffffffffffffffffffffff169050919050565b80806117c15750600073ffffffffffffffffffffffffffffffffffffffff168273ffffffffffffffffffffffffffffffffffffffff1614155b156118f55760006117d184610d1a565b9050600073ffffffffffffffffffffffffffffffffffffffff168373ffffffffffffffffffffffffffffffffffffffff161415801561183c57508273ffffffffffffffffffffffffffffffffffffffff168173ffffffffffffffffffffffffffffffffffffffff1614155b801561184f575061184d8184610b1e565b155b1561189157826040517fa9fbf51f0000000000000000000000000000000000000000000000000000000081526004016118889190611f18565b60405180910390fd5b81156118f357838573ffffffffffffffffffffffffffffffffffffffff168273ffffffffffffffffffffffffffffffffffffffff167f8c5be1e5ebec7d5bd14f71427d1e84f3dd0314c0f7b2291e5b200ac8c7c3b92560405160405180910390a45b505b836004600085815260200190815260200160002060006101000a81548173ffffffffffffffffffffffffffffffffffffffff021916908373ffffffffffffffffffffffffffffffffffffffff16021790555050505050565b611958838383611adf565b611a0c57600073ffffffffffffffffffffffffffffffffffffffff168373ffffffffffffffffffffffffffffffffffffffff16036119cd57806040517f7e2732890000000000000000000000000000000000000000000000000000000081526004016119c4919061202e565b60405180910390fd5b81816040517f177e802f000000000000000000000000000000000000000000000000000000008152600401611a039291906127fa565b60405180910390fd5b505050565b606060006001611a2084611ba0565b01905060008167ffffffffffffffff811115611a3f57611a3e6120bf565b5b6040519080825280601f01601f191660200182016040528015611a715781602001600182028036833780820191505090505b509050600082602001820190505b600115611ad4578080600190039150507f3031323334353637383961626364656600000000000000000000000000000000600a86061a8153600a8581611ac857611ac7612823565b5b04945060008503611a7f575b819350505050919050565b60008073ffffffffffffffffffffffffffffffffffffffff168373ffffffffffffffffffffffffffffffffffffffff1614158015611b9757508273ffffffffffffffffffffffffffffffffffffffff168473ffffffffffffffffffffffffffffffffffffffff161480611b585750611b578484610b1e565b5b80611b9657508273ffffffffffffffffffffffffffffffffffffffff16611b7e83610da2565b73ffffffffffffffffffffffffffffffffffffffff16145b5b90509392505050565b600080600090507a184f03e93ff9f4daa797ed6e38ed64bf6a1f0100000000000000008310611bfe577a184f03e93ff9f4daa797ed6e38ed64bf6a1f0100000000000000008381611bf457611bf3612823565b5b0492506040810190505b6d04ee2d6d415b85acef81000000008310611c3b576d04ee2d6d415b85acef81000000008381611c3157611c30612823565b5b0492506020810190505b662386f26fc100008310611c6a57662386f26fc100008381611c6057611c5f612823565b5b0492506010810190505b6305f5e1008310611c93576305f5e1008381611c8957611c88612823565b5b0492506008810190505b6127108310611cb8576127108381611cae57611cad612823565b5b0492506004810190505b60648310611cdb5760648381611cd157611cd0612823565b5b0492506002810190505b600a8310611cea576001810190505b80915050919050565b6000604051905090565b600080fd5b600080fd5b60007fffffffff0000000000000000000000000000000000000000000000000000000082169050919050565b611d3c81611d07565b8114611d4757600080fd5b50565b600081359050611d5981611d33565b92915050565b600060208284031215611d7557611d74611cfd565b5b6000611d8384828501611d4a565b91505092915050565b60008115159050919050565b611da181611d8c565b82525050565b6000602082019050611dbc6000830184611d98565b92915050565b600081519050919050565b600082825260208201905092915050565b60005b83811015611dfc578082015181840152602081019050611de1565b60008484015250505050565b6000601f19601f8301169050919050565b6000611e2482611dc2565b611e2e8185611dcd565b9350611e3e818560208601611dde565b611e4781611e08565b840191505092915050565b60006020820190508181036000830152611e6c8184611e19565b905092915050565b6000819050919050565b611e8781611e74565b8114611e9257600080fd5b50565b600081359050611ea481611e7e565b92915050565b600060208284031215611ec057611ebf611cfd565b5b6000611ece84828501611e95565b91505092915050565b600073ffffffffffffffffffffffffffffffffffffffff82169050919050565b6000611f0282611ed7565b9050919050565b611f1281611ef7565b82525050565b6000602082019050611f2d6000830184611f09565b92915050565b611f3c81611ef7565b8114611f4757600080fd5b50565b600081359050611f5981611f33565b92915050565b60008060408385031215611f7657611f75611cfd565b5b6000611f8485828601611f4a565b9250506020611f9585828601611e95565b9150509250929050565b600080600060608486031215611fb857611fb7611cfd565b5b6000611fc686828701611f4a565b9350506020611fd786828701611f4a565b9250506040611fe886828701611e95565b9150509250925092565b60006020828403121561200857612007611cfd565b5b600061201684828501611f4a565b91505092915050565b61202881611e74565b82525050565b6000602082019050612043600083018461201f565b92915050565b61205281611d8c565b811461205d57600080fd5b50565b60008135905061206f81612049565b92915050565b6000806040838503121561208c5761208b611cfd565b5b600061209a85828601611f4a565b92505060206120ab85828601612060565b9150509250929050565b600080fd5b600080fd5b7f4e487b7100000000000000000000000000000000000000000000000000000000600052604160045260246000fd5b6120f782611e08565b810181811067ffffffffffffffff82111715612116576121156120bf565b5b80604052505050565b6000612129611cf3565b905061213582826120ee565b919050565b600067ffffffffffffffff821115612155576121546120bf565b5b61215e82611e08565b9050602081019050919050565b82818337600083830152505050565b600061218d6121888461213a565b61211f565b9050828152602081018484840111156121a9576121a86120ba565b5b6121b484828561216b565b509392505050565b600082601f8301126121d1576121d06120b5565b5b81356121e184826020860161217a565b91505092915050565b6000806000806080858703121561220457612203611cfd565b5b600061221287828801611f4a565b945050602061222387828801611f4a565b935050604061223487828801611e95565b925050606085013567ffffffffffffffff81111561225557612254611d02565b5b612261878288016121bc565b91505092959194509250565b6000806040838503121561228457612283611cfd565b5b600061229285828601611f4a565b92505060206122a385828601611f4a565b9150509250929050565b7f4e487b7100000000000000000000000000000000000000000000000000000000600052602260045260246000fd5b600060028204905060018216806122f457607f821691505b602082108103612307576123066122ad565b5b50919050565b60006060820190506123226000830186611f09565b61232f602083018561201f565b61233c6040830184611f09565b949350505050565b7f4f6e6c7920736176696e677320636f6e74726163742063616e2063616c6c207460008201527f6869732066756e6374696f6e0000000000000000000000000000000000000000602082015250565b60006123a0602c83611dcd565b91506123ab82612344565b604082019050919050565b600060208201905081810360008301526123cf81612393565b9050919050565b7f4e487b7100000000000000000000000000000000000000000000000000000000600052601160045260246000fd5b600061241082611e74565b915061241b83611e74565b9250828201905080821115612433576124326123d6565b5b92915050565b600081905092915050565b600061244f82611dc2565b6124598185612439565b9350612469818560208601611dde565b80840191505092915050565b60006124818285612444565b915061248d8284612444565b91508190509392505050565b60008190508160005260206000209050919050565b60006020601f8301049050919050565b600082821b905092915050565b6000600883026124fb7fffffffffffffffffffffffffffffffffffffffffffffffffffffffffffffffff826124be565b61250586836124be565b95508019841693508086168417925050509392505050565b6000819050919050565b600061254261253d61253884611e74565b61251d565b611e74565b9050919050565b6000819050919050565b61255c83612527565b61257061256882612549565b8484546124cb565b825550505050565b600090565b612585612578565b612590818484612553565b505050565b5b818110156125b4576125a960008261257d565b600181019050612596565b5050565b601f8211156125f9576125ca81612499565b6125d3846124ae565b810160208510156125e2578190505b6125f66125ee856124ae565b830182612595565b50505b505050565b600082821c905092915050565b600061261c600019846008026125fe565b1980831691505092915050565b6000612635838361260b565b9150826002028217905092915050565b61264e82611dc2565b67ffffffffffffffff811115612667576126666120bf565b5b61267182546122dc565b61267c8282856125b8565b600060209050601f8311600181146126af576000841561269d578287015190505b6126a78582612629565b86555061270f565b601f1984166126bd86612499565b60005b828110156126e5578489015182556001820191506020850194506020810190506126c0565b8683101561270257848901516126fe601f89168261260b565b8355505b6001600288020188555050505b505050505050565b600081519050919050565b600082825260208201905092915050565b600061273e82612717565b6127488185612722565b9350612758818560208601611dde565b61276181611e08565b840191505092915050565b60006080820190506127816000830187611f09565b61278e6020830186611f09565b61279b604083018561201f565b81810360608301526127ad8184612733565b905095945050505050565b6000815190506127c781611d33565b92915050565b6000602082840312156127e3576127e2611cfd565b5b60006127f1848285016127b8565b91505092915050565b600060408201905061280f6000830185611f09565b61281c602083018461201f565b9392505050565b7f4e487b7100000000000000000000000000000000000000000000000000000000600052601260045260246000fdfea2646970667358221220cf4051ce662cf9bf6e36a15a339a67690cd07501dd5699fab7d5e7728f886ca464736f6c63430008140033697066733a2f2f62616679626569647063713273646c6863323661787a61617a726b356a6e627864786b71637475366f7175377434777632656b6e796171746a75612f302e706e67",
  "linkReferences": {},
  "deployedLinkReferences": {}
}