{
  "_format": "hh-sol-artifact-1",
  "contractName": "RegulatoryCompliance",
  "sourceName": "contracts/RegulatoryCompliance.sol",
  "abi": [
    {
      "inputs": [
        {
          "internalType": "address",
          "name": "_complianceDatabaseAddress",
          "type": "address"
        }
      ],
      "stateMutability": "nonpayable",
      "type": "constructor"
    },
    {
      "inputs": [
        {
          "internalType": "address",
          "name": "owner",
          "type": "address"
        }
      ],
      "name": "OwnableInvalidOwner",
      "type": "error"
    },
    {
      "inputs": [
        {
          "internalType": "address",
          "name": "account",
          "type": "address"
        }
      ],
      "name": "OwnableUnauthorizedAccount",
      "type": "error"
    },
    {
      "anonymous": false,
      "inputs": [
        {
          "indexed": true,
          "internalType": "address",
          "name": "user",
          "type": "address"
        },
        {
          "indexed": false,
          "internalType": "string",
          "name": "key",
          "type": "string"
        }
      ],
      "name": "AgreementSent",
      "type": "event"
    },
    {
      "anonymous": false,
      "inputs": [
        {
          "indexed": true,
          "internalType": "address",
          "name": "previousOwner",
          "type": "address"
        },
        {
          "indexed": true,
          "internalType": "address",
          "name": "newOwner",
          "type": "address"
        }
      ],
      "name": "OwnershipTransferred",
      "type": "event"
    },
    {
      "inputs": [],
      "name": "acceptAgreement",
      "outputs": [],
      "stateMutability": "nonpayable",
      "type": "function"
    },
    {
      "inputs": [
        {
          "internalType": "address",
          "name": "",
          "type": "address"
        }
      ],
      "name": "agreementStatus",
      "outputs": [
        {
          "internalType": "bool",
          "name": "",
          "type": "bool"
        }
      ],
      "stateMutability": "view",
      "type": "function"
    },
    {
      "inputs": [
        {
          "internalType": "address",
          "name": "_daoGovernanceAddress",
          "type": "address"
        },
        {
          "internalType": "address",
          "name": "_savingsContractAddress",
          "type": "address"
        }
      ],
      "name": "bindAddresses",
      "outputs": [],
      "stateMutability": "nonpayable",
      "type": "function"
    },
    {
      "inputs": [],
      "name": "complianceDatabase",
      "outputs": [
        {
          "internalType": "contract IComplianceDatabase",
          "name": "",
          "type": "address"
        }
      ],
      "stateMutability": "view",
      "type": "function"
    },
    {
      "inputs": [],
      "name": "daoGovernance",
      "outputs": [
        {
          "internalType": "contract IDAOGovernance",
          "name": "",
          "type": "address"
        }
      ],
      "stateMutability": "view",
      "type": "function"
    },
    {
      "inputs": [],
      "name": "owner",
      "outputs": [
        {
          "internalType": "address",
          "name": "",
          "type": "address"
        }
      ],
      "stateMutability": "view",
      "type": "function"
    },
    {
      "inputs": [],
      "name": "renounceOwnership",
      "outputs": [],
      "stateMutability": "nonpayable",
      "type": "function"
    },
    {
      "inputs": [],
      "name": "savingsContractAddress",
      "outputs": [
        {
          "internalType": "address",
          "name": "",
          "type": "address"
        }
      ],
      "stateMutability": "view",
      "type": "function"
    },
    {
      "inputs": [
        {
          "internalType": "string",
          "name": "key",
          "type": "string"
        }
      ],
      "name": "sendAgreements",
      "outputs": [],
      "stateMutability": "nonpayable",
      "type": "function"
    },
    {
      "inputs": [
        {
          "internalType": "address",
          "name": "newOwner",
          "type": "address"
        }
      ],
      "name": "transferOwnership",
      "outputs": [],
      "stateMutability": "nonpayable",
      "type": "function"
    }
  ],
  "bytecode": "0x60806040523480156200001157600080fd5b506040516200107b3803806200107b833981810160405281019062000037919062000235565b33600073ffffffffffffffffffffffffffffffffffffffff168173ffffffffffffffffffffffffffffffffffffffff1603620000ad5760006040517f1e4fbdf7000000000000000000000000000000000000000000000000000000008152600401620000a4919062000278565b60405180910390fd5b620000be816200010760201b60201c565b5080600360006101000a81548173ffffffffffffffffffffffffffffffffffffffff021916908373ffffffffffffffffffffffffffffffffffffffff1602179055505062000295565b60008060009054906101000a900473ffffffffffffffffffffffffffffffffffffffff169050816000806101000a81548173ffffffffffffffffffffffffffffffffffffffff021916908373ffffffffffffffffffffffffffffffffffffffff1602179055508173ffffffffffffffffffffffffffffffffffffffff168173ffffffffffffffffffffffffffffffffffffffff167f8be0079c531659141344cd1fd0a4f28419497f9722a3daafe3b4186f6b6457e060405160405180910390a35050565b600080fd5b600073ffffffffffffffffffffffffffffffffffffffff82169050919050565b6000620001fd82620001d0565b9050919050565b6200020f81620001f0565b81146200021b57600080fd5b50565b6000815190506200022f8162000204565b92915050565b6000602082840312156200024e576200024d620001cb565b5b60006200025e848285016200021e565b91505092915050565b6200027281620001f0565b82525050565b60006020820190506200028f600083018462000267565b92915050565b610dd680620002a56000396000f3fe608060405234801561001057600080fd5b506004361061009e5760003560e01c80639c443d3e116100665780639c443d3e14610123578063c6bd04851461013f578063c79001c71461016f578063dac96d4a1461018d578063f2fde38b146101975761009e565b80633d4e5ddd146100a35780634dc69011146100c15780636360d6ce146100dd578063715018a6146100fb5780638da5cb5b14610105575b600080fd5b6100ab6101b3565b6040516100b89190610864565b60405180910390f35b6100db60048036038101906100d691906108d1565b6101d9565b005b6100e5610267565b6040516100f29190610932565b60405180910390f35b61010361028d565b005b61010d6102a1565b60405161011a919061095c565b60405180910390f35b61013d600480360381019061013891906109dc565b6102ca565b005b61015960048036038101906101549190610a29565b610452565b6040516101669190610a71565b60405180910390f35b610177610472565b604051610184919061095c565b60405180910390f35b610195610498565b005b6101b160048036038101906101ac9190610a29565b61060c565b005b600160009054906101000a900473ffffffffffffffffffffffffffffffffffffffff1681565b6101e1610692565b81600160006101000a81548173ffffffffffffffffffffffffffffffffffffffff021916908373ffffffffffffffffffffffffffffffffffffffff16021790555080600260006101000a81548173ffffffffffffffffffffffffffffffffffffffff021916908373ffffffffffffffffffffffffffffffffffffffff1602179055505050565b600360009054906101000a900473ffffffffffffffffffffffffffffffffffffffff1681565b610295610692565b61029f6000610719565b565b60008060009054906101000a900473ffffffffffffffffffffffffffffffffffffffff16905090565b600260009054906101000a900473ffffffffffffffffffffffffffffffffffffffff1673ffffffffffffffffffffffffffffffffffffffff163373ffffffffffffffffffffffffffffffffffffffff161461035a576040517f08c379a000000000000000000000000000000000000000000000000000000000815260040161035190610b0f565b60405180910390fd5b600360009054906101000a900473ffffffffffffffffffffffffffffffffffffffff1673ffffffffffffffffffffffffffffffffffffffff16635b2fdcc783836040518363ffffffff1660e01b81526004016103b7929190610b7c565b600060405180830381865afa1580156103d4573d6000803e3d6000fd5b505050506040513d6000823e3d601f19601f820116820180604052508101906103fd9190610ceb565b503373ffffffffffffffffffffffffffffffffffffffff167ffab5c81985d2766c7d5da55ce81760a566a1d9c93f7bec7468d57badcbe1010a8383604051610446929190610b7c565b60405180910390a25050565b60046020528060005260406000206000915054906101000a900460ff1681565b600260009054906101000a900473ffffffffffffffffffffffffffffffffffffffff1681565b600460003373ffffffffffffffffffffffffffffffffffffffff1673ffffffffffffffffffffffffffffffffffffffff16815260200190815260200160002060009054906101000a900460ff1615610525576040517f08c379a000000000000000000000000000000000000000000000000000000000815260040161051c90610d80565b60405180910390fd5b6001600460003373ffffffffffffffffffffffffffffffffffffffff1673ffffffffffffffffffffffffffffffffffffffff16815260200190815260200160002060006101000a81548160ff021916908315150217905550600160009054906101000a900473ffffffffffffffffffffffffffffffffffffffff1673ffffffffffffffffffffffffffffffffffffffff1663f7a829d0336040518263ffffffff1660e01b81526004016105d8919061095c565b600060405180830381600087803b1580156105f257600080fd5b505af1158015610606573d6000803e3d6000fd5b50505050565b610614610692565b600073ffffffffffffffffffffffffffffffffffffffff168173ffffffffffffffffffffffffffffffffffffffff16036106865760006040517f1e4fbdf700000000000000000000000000000000000000000000000000000000815260040161067d919061095c565b60405180910390fd5b61068f81610719565b50565b61069a6107dd565b73ffffffffffffffffffffffffffffffffffffffff166106b86102a1565b73ffffffffffffffffffffffffffffffffffffffff1614610717576106db6107dd565b6040517f118cdaa700000000000000000000000000000000000000000000000000000000815260040161070e919061095c565b60405180910390fd5b565b60008060009054906101000a900473ffffffffffffffffffffffffffffffffffffffff169050816000806101000a81548173ffffffffffffffffffffffffffffffffffffffff021916908373ffffffffffffffffffffffffffffffffffffffff1602179055508173ffffffffffffffffffffffffffffffffffffffff168173ffffffffffffffffffffffffffffffffffffffff167f8be0079c531659141344cd1fd0a4f28419497f9722a3daafe3b4186f6b6457e060405160405180910390a35050565b600033905090565b600073ffffffffffffffffffffffffffffffffffffffff82169050919050565b6000819050919050565b600061082a610825610820846107e5565b610805565b6107e5565b9050919050565b600061083c8261080f565b9050919050565b600061084e82610831565b9050919050565b61085e81610843565b82525050565b60006020820190506108796000830184610855565b92915050565b6000604051905090565b600080fd5b600080fd5b600061089e826107e5565b9050919050565b6108ae81610893565b81146108b957600080fd5b50565b6000813590506108cb816108a5565b92915050565b600080604083850312156108e8576108e7610889565b5b60006108f6858286016108bc565b9250506020610907858286016108bc565b9150509250929050565b600061091c82610831565b9050919050565b61092c81610911565b82525050565b60006020820190506109476000830184610923565b92915050565b61095681610893565b82525050565b6000602082019050610971600083018461094d565b92915050565b600080fd5b600080fd5b600080fd5b60008083601f84011261099c5761099b610977565b5b8235905067ffffffffffffffff8111156109b9576109b861097c565b5b6020830191508360018202830111156109d5576109d4610981565b5b9250929050565b600080602083850312156109f3576109f2610889565b5b600083013567ffffffffffffffff811115610a1157610a1061088e565b5b610a1d85828601610986565b92509250509250929050565b600060208284031215610a3f57610a3e610889565b5b6000610a4d848285016108bc565b91505092915050565b60008115159050919050565b610a6b81610a56565b82525050565b6000602082019050610a866000830184610a62565b92915050565b600082825260208201905092915050565b7f4f6e6c7920736176696e677320636f6e74726163742063616e2063616c6c207460008201527f6869732066756e6374696f6e0000000000000000000000000000000000000000602082015250565b6000610af9602c83610a8c565b9150610b0482610a9d565b604082019050919050565b60006020820190508181036000830152610b2881610aec565b9050919050565b82818337600083830152505050565b6000601f19601f8301169050919050565b6000610b5b8385610a8c565b9350610b68838584610b2f565b610b7183610b3e565b840190509392505050565b60006020820190508181036000830152610b97818486610b4f565b90509392505050565b600080fd5b7f4e487b7100000000000000000000000000000000000000000000000000000000600052604160045260246000fd5b610bdd82610b3e565b810181811067ffffffffffffffff82111715610bfc57610bfb610ba5565b5b80604052505050565b6000610c0f61087f565b9050610c1b8282610bd4565b919050565b600067ffffffffffffffff821115610c3b57610c3a610ba5565b5b610c4482610b3e565b9050602081019050919050565b60005b83811015610c6f578082015181840152602081019050610c54565b60008484015250505050565b6000610c8e610c8984610c20565b610c05565b905082815260208101848484011115610caa57610ca9610ba0565b5b610cb5848285610c51565b509392505050565b600082601f830112610cd257610cd1610977565b5b8151610ce2848260208601610c7b565b91505092915050565b600060208284031215610d0157610d00610889565b5b600082015167ffffffffffffffff811115610d1f57610d1e61088e565b5b610d2b84828501610cbd565b91505092915050565b7f41677265656d656e7420616c7265616479206163636570746564000000000000600082015250565b6000610d6a601a83610a8c565b9150610d7582610d34565b602082019050919050565b60006020820190508181036000830152610d9981610d5d565b905091905056fea2646970667358221220aff15d91d9d613f6b99a653cbba154e4639f07c47189d741b5723eac7d72dd9e64736f6c63430008140033",
  "linkReferences": {},
  "deployedLinkReferences": {}
}