{
  "_format": "hh-sol-artifact-1",
  "contractName": "SavingsContract",
  "sourceName": "contracts/SavingsContract.sol",
  "abi": [
    {
      "inputs": [
        {
          "internalType": "address",
          "name": "_stableCoinAddress",
          "type": "address"
        },
        {
          "internalType": "address",
          "name": "_contractTokenAddress",
          "type": "address"
        },
        {
          "internalType": "address",
          "name": "_regulatoryComplianceAddress",
          "type": "address"
        },
        {
          "internalType": "address",
          "name": "_nftContractAddress",
          "type": "address"
        }
      ],
      "stateMutability": "nonpayable",
      "type": "constructor"
    },
    {
      "inputs": [
        {
          "internalType": "address",
          "name": "target",
          "type": "address"
        }
      ],
      "name": "AddressEmptyCode",
      "type": "error"
    },
    {
      "inputs": [
        {
          "internalType": "address",
          "name": "account",
          "type": "address"
        }
      ],
      "name": "AddressInsufficientBalance",
      "type": "error"
    },
    {
      "inputs": [],
      "name": "FailedInnerCall",
      "type": "error"
    },
    {
      "inputs": [
        {
          "internalType": "address",
          "name": "owner",
          "type": "address"
        }
      ],
      "name": "OwnableInvalidOwner",
      "type": "error"
    },
    {
      "inputs": [
        {
          "internalType": "address",
          "name": "account",
          "type": "address"
        }
      ],
      "name": "OwnableUnauthorizedAccount",
      "type": "error"
    },
    {
      "inputs": [
        {
          "internalType": "address",
          "name": "token",
          "type": "address"
        }
      ],
      "name": "SafeERC20FailedOperation",
      "type": "error"
    },
    {
      "anonymous": false,
      "inputs": [
        {
          "indexed": true,
          "internalType": "address",
          "name": "recipient",
          "type": "address"
        },
        {
          "indexed": false,
          "internalType": "uint256",
          "name": "amount",
          "type": "uint256"
        }
      ],
      "name": "AirdropDistributed",
      "type": "event"
    },
    {
      "anonymous": false,
      "inputs": [
        {
          "indexed": true,
          "internalType": "address",
          "name": "user",
          "type": "address"
        },
        {
          "indexed": false,
          "internalType": "uint256",
          "name": "amount",
          "type": "uint256"
        }
      ],
      "name": "ContractTokenDeposited",
      "type": "event"
    },
    {
      "anonymous": false,
      "inputs": [
        {
          "indexed": true,
          "internalType": "address",
          "name": "user",
          "type": "address"
        },
        {
          "indexed": false,
          "internalType": "uint256",
          "name": "amount",
          "type": "uint256"
        }
      ],
      "name": "ContractTokenWithdrawn",
      "type": "event"
    },
    {
      "anonymous": false,
      "inputs": [
        {
          "indexed": true,
          "internalType": "address",
          "name": "user",
          "type": "address"
        },
        {
          "indexed": false,
          "internalType": "uint256",
          "name": "proposalId",
          "type": "uint256"
        },
        {
          "indexed": false,
          "internalType": "uint256",
          "name": "amount",
          "type": "uint256"
        }
      ],
      "name": "OwnerRefund",
      "type": "event"
    },
    {
      "anonymous": false,
      "inputs": [
        {
          "indexed": true,
          "internalType": "address",
          "name": "user",
          "type": "address"
        },
        {
          "indexed": false,
          "internalType": "uint256",
          "name": "proposalId",
          "type": "uint256"
        },
        {
          "indexed": false,
          "internalType": "uint256",
          "name": "amount",
          "type": "uint256"
        }
      ],
      "name": "OwnerWithdraw",
      "type": "event"
    },
    {
      "anonymous": false,
      "inputs": [
        {
          "indexed": true,
          "internalType": "address",
          "name": "previousOwner",
          "type": "address"
        },
        {
          "indexed": true,
          "internalType": "address",
          "name": "newOwner",
          "type": "address"
        }
      ],
      "name": "OwnershipTransferred",
      "type": "event"
    },
    {
      "anonymous": false,
      "inputs": [
        {
          "indexed": true,
          "internalType": "address",
          "name": "user",
          "type": "address"
        },
        {
          "indexed": false,
          "internalType": "uint256",
          "name": "amount",
          "type": "uint256"
        }
      ],
      "name": "StableCoinDeposited",
      "type": "event"
    },
    {
      "anonymous": false,
      "inputs": [
        {
          "indexed": true,
          "internalType": "address",
          "name": "user",
          "type": "address"
        },
        {
          "indexed": false,
          "internalType": "uint256",
          "name": "amount",
          "type": "uint256"
        }
      ],
      "name": "StableCoinWithdrawn",
      "type": "event"
    },
    {
      "inputs": [
        {
          "internalType": "address",
          "name": "user",
          "type": "address"
        }
      ],
      "name": "acceptIntoDAO",
      "outputs": [],
      "stateMutability": "nonpayable",
      "type": "function"
    },
    {
      "inputs": [
        {
          "internalType": "address",
          "name": "_daoGovernanceAddress",
          "type": "address"
        },
        {
          "internalType": "address",
          "name": "_prizeDistributionAddress",
          "type": "address"
        }
      ],
      "name": "bindAddress",
      "outputs": [],
      "stateMutability": "nonpayable",
      "type": "function"
    },
    {
      "inputs": [],
      "name": "contractToken",
      "outputs": [
        {
          "internalType": "contract IERC20",
          "name": "",
          "type": "address"
        }
      ],
      "stateMutability": "view",
      "type": "function"
    },
    {
      "inputs": [
        {
          "internalType": "uint256",
          "name": "amount",
          "type": "uint256"
        }
      ],
      "name": "deposit",
      "outputs": [],
      "stateMutability": "nonpayable",
      "type": "function"
    },
    {
      "inputs": [
        {
          "internalType": "uint256",
          "name": "amount",
          "type": "uint256"
        }
      ],
      "name": "depositContractToken",
      "outputs": [],
      "stateMutability": "nonpayable",
      "type": "function"
    },
    {
      "inputs": [
        {
          "internalType": "uint256",
          "name": "amount",
          "type": "uint256"
        },
        {
          "internalType": "address[]",
          "name": "airdropWinners",
          "type": "address[]"
        }
      ],
      "name": "distributeAirdrop",
      "outputs": [],
      "stateMutability": "nonpayable",
      "type": "function"
    },
    {
      "inputs": [],
      "name": "fetchAddressesBySlots",
      "outputs": [
        {
          "internalType": "address[]",
          "name": "sortedAddresses",
          "type": "address[]"
        }
      ],
      "stateMutability": "view",
      "type": "function"
    },
    {
      "inputs": [],
      "name": "fetchUserAddresses",
      "outputs": [
        {
          "internalType": "address[]",
          "name": "uniqueUserAddresses",
          "type": "address[]"
        }
      ],
      "stateMutability": "view",
      "type": "function"
    },
    {
      "inputs": [
        {
          "internalType": "uint256",
          "name": "tokenId",
          "type": "uint256"
        }
      ],
      "name": "forfeitDAO",
      "outputs": [],
      "stateMutability": "nonpayable",
      "type": "function"
    },
    {
      "inputs": [],
      "name": "getContractBalance",
      "outputs": [
        {
          "internalType": "uint256",
          "name": "stableCoinBalance",
          "type": "uint256"
        },
        {
          "internalType": "uint256",
          "name": "contractTokenBalance",
          "type": "uint256"
        }
      ],
      "stateMutability": "view",
      "type": "function"
    },
    {
      "inputs": [],
      "name": "getTotalSlots",
      "outputs": [
        {
          "internalType": "uint256",
          "name": "",
          "type": "uint256"
        }
      ],
      "stateMutability": "view",
      "type": "function"
    },
    {
      "inputs": [
        {
          "internalType": "address",
          "name": "user",
          "type": "address"
        }
      ],
      "name": "getUserBalance",
      "outputs": [
        {
          "internalType": "uint256",
          "name": "stableCoinBalance",
          "type": "uint256"
        },
        {
          "internalType": "uint256",
          "name": "contractTokenBalance",
          "type": "uint256"
        }
      ],
      "stateMutability": "view",
      "type": "function"
    },
    {
      "inputs": [
        {
          "internalType": "address",
          "name": "user",
          "type": "address"
        }
      ],
      "name": "isDAO",
      "outputs": [
        {
          "internalType": "bool",
          "name": "",
          "type": "bool"
        }
      ],
      "stateMutability": "view",
      "type": "function"
    },
    {
      "inputs": [],
      "name": "owner",
      "outputs": [
        {
          "internalType": "address",
          "name": "",
          "type": "address"
        }
      ],
      "stateMutability": "view",
      "type": "function"
    },
    {
      "inputs": [
        {
          "internalType": "uint256",
          "name": "proposalId",
          "type": "uint256"
        },
        {
          "internalType": "uint256",
          "name": "amount",
          "type": "uint256"
        }
      ],
      "name": "refundWithdrawnAmount",
      "outputs": [],
      "stateMutability": "nonpayable",
      "type": "function"
    },
    {
      "inputs": [],
      "name": "renounceOwnership",
      "outputs": [],
      "stateMutability": "nonpayable",
      "type": "function"
    },
    {
      "inputs": [],
      "name": "stableCoin",
      "outputs": [
        {
          "internalType": "contract IERC20",
          "name": "",
          "type": "address"
        }
      ],
      "stateMutability": "view",
      "type": "function"
    },
    {
      "inputs": [],
      "name": "totalContractTokenBalance",
      "outputs": [
        {
          "internalType": "uint256",
          "name": "",
          "type": "uint256"
        }
      ],
      "stateMutability": "view",
      "type": "function"
    },
    {
      "inputs": [],
      "name": "totalStableCoinBalance",
      "outputs": [
        {
          "internalType": "uint256",
          "name": "",
          "type": "uint256"
        }
      ],
      "stateMutability": "view",
      "type": "function"
    },
    {
      "inputs": [
        {
          "internalType": "address",
          "name": "to",
          "type": "address"
        },
        {
          "internalType": "uint256",
          "name": "amount",
          "type": "uint256"
        }
      ],
      "name": "transferFund",
      "outputs": [],
      "stateMutability": "nonpayable",
      "type": "function"
    },
    {
      "inputs": [
        {
          "internalType": "address",
          "name": "newOwner",
          "type": "address"
        }
      ],
      "name": "transferOwnership",
      "outputs": [],
      "stateMutability": "nonpayable",
      "type": "function"
    },
    {
      "inputs": [
        {
          "internalType": "uint256",
          "name": "",
          "type": "uint256"
        }
      ],
      "name": "userAddresses",
      "outputs": [
        {
          "internalType": "address",
          "name": "",
          "type": "address"
        }
      ],
      "stateMutability": "view",
      "type": "function"
    },
    {
      "inputs": [
        {
          "internalType": "address",
          "name": "",
          "type": "address"
        }
      ],
      "name": "users",
      "outputs": [
        {
          "internalType": "uint256",
          "name": "stableCoinBalance",
          "type": "uint256"
        },
        {
          "internalType": "uint256",
          "name": "contractTokenBalance",
          "type": "uint256"
        },
        {
          "internalType": "uint256",
          "name": "slots",
          "type": "uint256"
        },
        {
          "internalType": "bool",
          "name": "isDAO",
          "type": "bool"
        },
        {
          "internalType": "uint256",
          "name": "daoLockExpiry",
          "type": "uint256"
        }
      ],
      "stateMutability": "view",
      "type": "function"
    },
    {
      "inputs": [
        {
          "internalType": "uint256",
          "name": "amount",
          "type": "uint256"
        }
      ],
      "name": "withdraw",
      "outputs": [],
      "stateMutability": "nonpayable",
      "type": "function"
    },
    {
      "inputs": [
        {
          "internalType": "uint256",
          "name": "proposalId",
          "type": "uint256"
        },
        {
          "internalType": "uint256",
          "name": "amount",
          "type": "uint256"
        }
      ],
      "name": "withdrawAmount",
      "outputs": [],
      "stateMutability": "nonpayable",
      "type": "function"
    },
    {
      "inputs": [
        {
          "internalType": "uint256",
          "name": "amount",
          "type": "uint256"
        }
      ],
      "name": "withdrawContractToken",
      "outputs": [],
      "stateMutability": "nonpayable",
      "type": "function"
    }
  ],
  "bytecode": "0x60806040523480156200001157600080fd5b5060405162003acc38038062003acc8339818101604052810190620000379190620002fb565b33600073ffffffffffffffffffffffffffffffffffffffff168173ffffffffffffffffffffffffffffffffffffffff1603620000ad5760006040517f1e4fbdf7000000000000000000000000000000000000000000000000000000008152600401620000a491906200037e565b60405180910390fd5b620000be81620001cd60201b60201c565b5083600160006101000a81548173ffffffffffffffffffffffffffffffffffffffff021916908373ffffffffffffffffffffffffffffffffffffffff16021790555082600260006101000a81548173ffffffffffffffffffffffffffffffffffffffff021916908373ffffffffffffffffffffffffffffffffffffffff16021790555081600360006101000a81548173ffffffffffffffffffffffffffffffffffffffff021916908373ffffffffffffffffffffffffffffffffffffffff16021790555080600460006101000a81548173ffffffffffffffffffffffffffffffffffffffff021916908373ffffffffffffffffffffffffffffffffffffffff160217905550505050506200039b565b60008060009054906101000a900473ffffffffffffffffffffffffffffffffffffffff169050816000806101000a81548173ffffffffffffffffffffffffffffffffffffffff021916908373ffffffffffffffffffffffffffffffffffffffff1602179055508173ffffffffffffffffffffffffffffffffffffffff168173ffffffffffffffffffffffffffffffffffffffff167f8be0079c531659141344cd1fd0a4f28419497f9722a3daafe3b4186f6b6457e060405160405180910390a35050565b600080fd5b600073ffffffffffffffffffffffffffffffffffffffff82169050919050565b6000620002c38262000296565b9050919050565b620002d581620002b6565b8114620002e157600080fd5b50565b600081519050620002f581620002ca565b92915050565b6000806000806080858703121562000318576200031762000291565b5b60006200032887828801620002e4565b94505060206200033b87828801620002e4565b93505060406200034e87828801620002e4565b92505060606200036187828801620002e4565b91505092959194509250565b6200037881620002b6565b82525050565b60006020820190506200039560008301846200036d565b92915050565b61372180620003ab6000396000f3fe608060405234801561001057600080fd5b506004361061018e5760003560e01c80639b943ca9116100de578063cfbd8a6011610097578063e4208b2811610071578063e4208b281461044f578063eaa8517c1461046b578063f2fde38b14610487578063f7c4cd6d146104a35761018e565b8063cfbd8a60146103f9578063d874639a14610417578063e2dc35e0146104335761018e565b80639b943ca9146103335780639ef7e72314610351578063a04bfbfd1461036d578063a87430ba1461038b578063b6b55f25146103bf578063c8c59ac4146103db5761018e565b806350435fa41161014b578063715018a611610125578063715018a6146102d15780638da5cb5b146102db57806394922348146102f9578063992642e5146103155761018e565b806350435fa41461026657806359ac07fa146102965780636f9fb98a146102b25761018e565b806305b39f8a146101935780632ad0c902146101b15780632e1a7d4d146101cd578063436bb199146101e95780634773489214610205578063502c9bd514610236575b600080fd5b61019b6104c1565b6040516101a8919061271b565b60405180910390f35b6101cb60048036038101906101c69190612788565b6104e7565b005b6101e760048036038101906101e291906127fe565b6105b6565b005b61020360048036038101906101fe919061282b565b61092b565b005b61021f600480360381019061021a919061286b565b610c0d565b60405161022d9291906128a7565b60405180910390f35b610250600480360381019061024b91906127fe565b610c9f565b60405161025d91906128df565b60405180910390f35b610280600480360381019061027b919061286b565b610cde565b60405161028d9190612915565b60405180910390f35b6102b060048036038101906102ab9190612995565b610d37565b005b6102ba610ef7565b6040516102c89291906128a7565b60405180910390f35b6102d9610f08565b005b6102e3610f1c565b6040516102f091906128df565b60405180910390f35b610313600480360381019061030e919061286b565b610f45565b005b61031d6110d2565b60405161032a919061271b565b60405180910390f35b61033b6110f8565b60405161034891906129f5565b60405180910390f35b61036b600480360381019061036691906127fe565b6110fe565b005b610375611293565b6040516103829190612ace565b60405180910390f35b6103a560048036038101906103a0919061286b565b6113ac565b6040516103b6959493929190612af0565b60405180910390f35b6103d960048036038101906103d491906127fe565b6113ef565b005b6103e361144b565b6040516103f091906129f5565b60405180910390f35b61040161150b565b60405161040e91906129f5565b60405180910390f35b610431600480360381019061042c91906127fe565b611511565b005b61044d60048036038101906104489190612b43565b611710565b005b6104696004803603810190610464919061282b565b6117f1565b005b610485600480360381019061048091906127fe565b6118b5565b005b6104a1600480360381019061049c919061286b565b6119c7565b005b6104ab611a4d565b6040516104b89190612ace565b60405180910390f35b600260009054906101000a900473ffffffffffffffffffffffffffffffffffffffff1681565b6104ef611bcf565b81600660006101000a81548173ffffffffffffffffffffffffffffffffffffffff021916908373ffffffffffffffffffffffffffffffffffffffff16021790555081600560006101000a81548173ffffffffffffffffffffffffffffffffffffffff021916908373ffffffffffffffffffffffffffffffffffffffff16021790555080600760006101000a81548173ffffffffffffffffffffffffffffffffffffffff021916908373ffffffffffffffffffffffffffffffffffffffff1602179055505050565b80600960003373ffffffffffffffffffffffffffffffffffffffff1673ffffffffffffffffffffffffffffffffffffffff16815260200190815260200160002060000154101561063b576040517f08c379a000000000000000000000000000000000000000000000000000000000815260040161063290612be0565b60405180910390fd5b600960003373ffffffffffffffffffffffffffffffffffffffff1673ffffffffffffffffffffffffffffffffffffffff16815260200190815260200160002060030160009054906101000a900460ff1615806107405750600960003373ffffffffffffffffffffffffffffffffffffffff1673ffffffffffffffffffffffffffffffffffffffff16815260200190815260200160002060030160009054906101000a900460ff16801561073f575063b2d05e0081600960003373ffffffffffffffffffffffffffffffffffffffff1673ffffffffffffffffffffffffffffffffffffffff1681526020019081526020016000206000015461073c9190612c2f565b10155b5b61077f576040517f08c379a000000000000000000000000000000000000000000000000000000000815260040161077690612cd5565b60405180910390fd5b80600960003373ffffffffffffffffffffffffffffffffffffffff1673ffffffffffffffffffffffffffffffffffffffff16815260200190815260200160002060000160008282546107d19190612c2f565b9250508190555080600c60008282546107ea9190612c2f565b9250508190555061083e3382600160009054906101000a900473ffffffffffffffffffffffffffffffffffffffff1673ffffffffffffffffffffffffffffffffffffffff16611c569092919063ffffffff16565b6000600960003373ffffffffffffffffffffffffffffffffffffffff1673ffffffffffffffffffffffffffffffffffffffff16815260200190815260200160002060000154036108da576000600960003373ffffffffffffffffffffffffffffffffffffffff1673ffffffffffffffffffffffffffffffffffffffff168152602001908152602001600020600201819055506108d933611cd5565b5b3373ffffffffffffffffffffffffffffffffffffffff167f8da6bbbd263553c945fa317d1f55be0f42f0fa4c6895e74767e6926cdb2bce0f8260405161092091906129f5565b60405180910390a250565b610933611bcf565b60006064603c600c546109469190612cf5565b6109509190612d66565b905080821115610995576040517f08c379a000000000000000000000000000000000000000000000000000000000815260040161098c90612e09565b60405180910390fd5b81600c5410156109da576040517f08c379a00000000000000000000000000000000000000000000000000000000081526004016109d190612e9b565b60405180910390fd5b6000600560009054906101000a900473ffffffffffffffffffffffffffffffffffffffff1673ffffffffffffffffffffffffffffffffffffffff1663401853b7856040518263ffffffff1660e01b8152600401610a3791906129f5565b600060405180830381865afa158015610a54573d6000803e3d6000fd5b505050506040513d6000823e3d601f19601f82011682018060405250810190610a7d9190613058565b95505050505050600b600085815260200190815260200160002060009054906101000a900460ff1615610ae5576040517f08c379a0000000000000000000000000000000000000000000000000000000008152600401610adc90613173565b60405180910390fd5b80610b25576040517f08c379a0000000000000000000000000000000000000000000000000000000008152600401610b1c906131df565b60405180910390fd5b82600c6000828254610b379190612c2f565b925050819055506001600b600086815260200190815260200160002060006101000a81548160ff021916908315150217905550610bb73384600160009054906101000a900473ffffffffffffffffffffffffffffffffffffffff1673ffffffffffffffffffffffffffffffffffffffff16611c569092919063ffffffff16565b3373ffffffffffffffffffffffffffffffffffffffff167f1854f40cafc6d1d892b7723388876e2ddaa1e0509aed7e9c9d0e2a54d1a6e9368585604051610bff9291906128a7565b60405180910390a250505050565b600080600960008473ffffffffffffffffffffffffffffffffffffffff1673ffffffffffffffffffffffffffffffffffffffff16815260200190815260200160002060000154600960008573ffffffffffffffffffffffffffffffffffffffff1673ffffffffffffffffffffffffffffffffffffffff1681526020019081526020016000206001015491509150915091565b60088181548110610caf57600080fd5b906000526020600020016000915054906101000a900473ffffffffffffffffffffffffffffffffffffffff1681565b6000600960008373ffffffffffffffffffffffffffffffffffffffff1673ffffffffffffffffffffffffffffffffffffffff16815260200190815260200160002060030160009054906101000a900460ff169050919050565b610d3f611bcf565b6000805b83839050811015610dc0576000848483818110610d6357610d626131ff565b5b9050602002016020810190610d78919061286b565b90506000610d8582610c0d565b50905060006301312d0082610d9a9190612d66565b90508085610da8919061322e565b94505050508080610db890613262565b915050610d43565b5060008185610dcf9190612d66565b905060005b84849050811015610eef576000858583818110610df457610df36131ff565b5b9050602002016020810190610e09919061286b565b90506000610e1682610c0d565b50905060006301312d0082610e2b9190612d66565b905060008186610e3b9190612cf5565b9050610e8a8482600260009054906101000a900473ffffffffffffffffffffffffffffffffffffffff1673ffffffffffffffffffffffffffffffffffffffff16611c569092919063ffffffff16565b8373ffffffffffffffffffffffffffffffffffffffff167fef90046b8142ea9ef9fbd7a5569b220918264e0b4a07f0103e11e3c21f999da682604051610ed091906129f5565b60405180910390a2505050508080610ee790613262565b915050610dd4565b505050505050565b600080600c54600d54915091509091565b610f10611bcf565b610f1a6000611ebd565b565b60008060009054906101000a900473ffffffffffffffffffffffffffffffffffffffff16905090565b600660009054906101000a900473ffffffffffffffffffffffffffffffffffffffff1673ffffffffffffffffffffffffffffffffffffffff163373ffffffffffffffffffffffffffffffffffffffff1614610fd5576040517f08c379a0000000000000000000000000000000000000000000000000000000008152600401610fcc9061331c565b60405180910390fd5b6001600960008373ffffffffffffffffffffffffffffffffffffffff1673ffffffffffffffffffffffffffffffffffffffff16815260200190815260200160002060030160006101000a81548160ff021916908315150217905550600460009054906101000a900473ffffffffffffffffffffffffffffffffffffffff1673ffffffffffffffffffffffffffffffffffffffff16636a627842826040518263ffffffff1660e01b815260040161108b91906128df565b6020604051808303816000875af11580156110aa573d6000803e3d6000fd5b505050506040513d601f19601f820116820180604052508101906110ce919061333c565b5050565b600160009054906101000a900473ffffffffffffffffffffffffffffffffffffffff1681565b600d5481565b80600960003373ffffffffffffffffffffffffffffffffffffffff1673ffffffffffffffffffffffffffffffffffffffff168152602001908152602001600020600101541015611183576040517f08c379a000000000000000000000000000000000000000000000000000000000815260040161117a906133db565b60405180910390fd5b80600960003373ffffffffffffffffffffffffffffffffffffffff1673ffffffffffffffffffffffffffffffffffffffff16815260200190815260200160002060010160008282546111d59190612c2f565b9250508190555080600d60008282546111ee9190612c2f565b925050819055506112423382600260009054906101000a900473ffffffffffffffffffffffffffffffffffffffff1673ffffffffffffffffffffffffffffffffffffffff16611c569092919063ffffffff16565b3373ffffffffffffffffffffffffffffffffffffffff167f40ff18d8562aa6b923b7affefd9232a6fd44371c4bc7f63b5e5bb8ad41e109518260405161128891906129f5565b60405180910390a250565b6060600060088054905090508067ffffffffffffffff8111156112b9576112b8612ed1565b5b6040519080825280602002602001820160405280156112e75781602001602082028036833780820191505090505b5091506000805b6008805490508110156113a6576008818154811061130f5761130e6131ff565b5b9060005260206000200160009054906101000a900473ffffffffffffffffffffffffffffffffffffffff1684838061134690613262565b945081518110611359576113586131ff565b5b602002602001019073ffffffffffffffffffffffffffffffffffffffff16908173ffffffffffffffffffffffffffffffffffffffff1681525050808061139e90613262565b9150506112ee565b50505090565b60096020528060005260406000206000915090508060000154908060010154908060020154908060030160009054906101000a900460ff16908060040154905085565b61143e333083600160009054906101000a900473ffffffffffffffffffffffffffffffffffffffff1673ffffffffffffffffffffffffffffffffffffffff16611f81909392919063ffffffff16565b6114483382612003565b50565b6000806000905060005b60088054905081101561150357600960006008838154811061147a576114796131ff565b5b9060005260206000200160009054906101000a900473ffffffffffffffffffffffffffffffffffffffff1673ffffffffffffffffffffffffffffffffffffffff1673ffffffffffffffffffffffffffffffffffffffff16815260200190815260200160002060020154826114ee919061322e565b915080806114fb90613262565b915050611455565b508091505090565b600c5481565b600960003373ffffffffffffffffffffffffffffffffffffffff1673ffffffffffffffffffffffffffffffffffffffff16815260200190815260200160002060030160009054906101000a900460ff166115a0576040517f08c379a000000000000000000000000000000000000000000000000000000000815260040161159790613447565b60405180910390fd5b600960003373ffffffffffffffffffffffffffffffffffffffff1673ffffffffffffffffffffffffffffffffffffffff16815260200190815260200160002060040154421015611625576040517f08c379a000000000000000000000000000000000000000000000000000000000815260040161161c906134b3565b60405180910390fd5b600460009054906101000a900473ffffffffffffffffffffffffffffffffffffffff1673ffffffffffffffffffffffffffffffffffffffff166342966c68826040518263ffffffff1660e01b815260040161168091906129f5565b600060405180830381600087803b15801561169a57600080fd5b505af11580156116ae573d6000803e3d6000fd5b505050506000600960003373ffffffffffffffffffffffffffffffffffffffff1673ffffffffffffffffffffffffffffffffffffffff16815260200190815260200160002060030160006101000a81548160ff02191690831515021790555050565b600760009054906101000a900473ffffffffffffffffffffffffffffffffffffffff1673ffffffffffffffffffffffffffffffffffffffff163373ffffffffffffffffffffffffffffffffffffffff16146117a0576040517f08c379a000000000000000000000000000000000000000000000000000000000815260040161179790613545565b60405180910390fd5b6117ed8282600260009054906101000a900473ffffffffffffffffffffffffffffffffffffffff1673ffffffffffffffffffffffffffffffffffffffff16611c569092919063ffffffff16565b5050565b6117f9611bcf565b80600c600082825461180b919061322e565b92505081905550611861333083600160009054906101000a900473ffffffffffffffffffffffffffffffffffffffff1673ffffffffffffffffffffffffffffffffffffffff16611f81909392919063ffffffff16565b3373ffffffffffffffffffffffffffffffffffffffff167f67919281a58536bcf2587be81b58dda99c51f4c910a6a0d06e7c4aaf799712cc83836040516118a99291906128a7565b60405180910390a25050565b611904333083600260009054906101000a900473ffffffffffffffffffffffffffffffffffffffff1673ffffffffffffffffffffffffffffffffffffffff16611f81909392919063ffffffff16565b80600960003373ffffffffffffffffffffffffffffffffffffffff1673ffffffffffffffffffffffffffffffffffffffff1681526020019081526020016000206001016000828254611956919061322e565b9250508190555080600d600082825461196f919061322e565b925050819055503373ffffffffffffffffffffffffffffffffffffffff167f7365a163ac1a293ecf4b97d273ff73481f31903153e764483f6adde58d06fe9b826040516119bc91906129f5565b60405180910390a250565b6119cf611bcf565b600073ffffffffffffffffffffffffffffffffffffffff168173ffffffffffffffffffffffffffffffffffffffff1603611a415760006040517f1e4fbdf7000000000000000000000000000000000000000000000000000000008152600401611a3891906128df565b60405180910390fd5b611a4a81611ebd565b50565b60606000611a5961144b565b90508067ffffffffffffffff811115611a7557611a74612ed1565b5b604051908082528060200260200182016040528015611aa35781602001602082028036833780820191505090505b5091506000805b600880549050811015611bc957600060088281548110611acd57611acc6131ff565b5b9060005260206000200160009054906101000a900473ffffffffffffffffffffffffffffffffffffffff16905060005b600960008373ffffffffffffffffffffffffffffffffffffffff1673ffffffffffffffffffffffffffffffffffffffff16815260200190815260200160002060020154811015611bb45781868580611b5490613262565b965081518110611b6757611b666131ff565b5b602002602001019073ffffffffffffffffffffffffffffffffffffffff16908173ffffffffffffffffffffffffffffffffffffffff16815250508080611bac90613262565b915050611afd565b50508080611bc190613262565b915050611aaa565b50505090565b611bd7612446565b73ffffffffffffffffffffffffffffffffffffffff16611bf5610f1c565b73ffffffffffffffffffffffffffffffffffffffff1614611c5457611c18612446565b6040517f118cdaa7000000000000000000000000000000000000000000000000000000008152600401611c4b91906128df565b60405180910390fd5b565b611cd0838473ffffffffffffffffffffffffffffffffffffffff1663a9059cbb8585604051602401611c89929190613565565b604051602081830303815290604052915060e01b6020820180517bffffffffffffffffffffffffffffffffffffffffffffffffffffffff838183161783525050505061244e565b505050565b6000600a60008373ffffffffffffffffffffffffffffffffffffffff1673ffffffffffffffffffffffffffffffffffffffff16815260200190815260200160002060006101000a81548160ff02191690831515021790555060005b600880549050811015611eb9578173ffffffffffffffffffffffffffffffffffffffff1660088281548110611d6857611d676131ff565b5b9060005260206000200160009054906101000a900473ffffffffffffffffffffffffffffffffffffffff1673ffffffffffffffffffffffffffffffffffffffff1603611ea65760086001600880549050611dc29190612c2f565b81548110611dd357611dd26131ff565b5b9060005260206000200160009054906101000a900473ffffffffffffffffffffffffffffffffffffffff1660088281548110611e1257611e116131ff565b5b9060005260206000200160006101000a81548173ffffffffffffffffffffffffffffffffffffffff021916908373ffffffffffffffffffffffffffffffffffffffff1602179055506008805480611e6c57611e6b61358e565b5b6001900381819060005260206000200160006101000a81549073ffffffffffffffffffffffffffffffffffffffff02191690559055611eb9565b8080611eb190613262565b915050611d30565b5050565b60008060009054906101000a900473ffffffffffffffffffffffffffffffffffffffff169050816000806101000a81548173ffffffffffffffffffffffffffffffffffffffff021916908373ffffffffffffffffffffffffffffffffffffffff1602179055508173ffffffffffffffffffffffffffffffffffffffff168173ffffffffffffffffffffffffffffffffffffffff167f8be0079c531659141344cd1fd0a4f28419497f9722a3daafe3b4186f6b6457e060405160405180910390a35050565b611ffd848573ffffffffffffffffffffffffffffffffffffffff166323b872dd868686604051602401611fb6939291906135bd565b604051602081830303815290604052915060e01b6020820180517bffffffffffffffffffffffffffffffffffffffffffffffffffffffff838183161783525050505061244e565b50505050565b6000600960008473ffffffffffffffffffffffffffffffffffffffff1673ffffffffffffffffffffffffffffffffffffffff1681526020019081526020016000206000015414801561209f5750600a60008373ffffffffffffffffffffffffffffffffffffffff1673ffffffffffffffffffffffffffffffffffffffff16815260200190815260200160002060009054906101000a900460ff16155b15612160576008829080600181540180825580915050600190039060005260206000200160009091909190916101000a81548173ffffffffffffffffffffffffffffffffffffffff021916908373ffffffffffffffffffffffffffffffffffffffff1602179055506001600a60008473ffffffffffffffffffffffffffffffffffffffff1673ffffffffffffffffffffffffffffffffffffffff16815260200190815260200160002060006101000a81548160ff0219169083151502179055505b80600960008473ffffffffffffffffffffffffffffffffffffffff1673ffffffffffffffffffffffffffffffffffffffff16815260200190815260200160002060000160008282546121b2919061322e565b9250508190555080600c60008282546121cb919061322e565b925050819055506305f5e100600960008473ffffffffffffffffffffffffffffffffffffffff1673ffffffffffffffffffffffffffffffffffffffff168152602001908152602001600020600001546122249190612d66565b600960008473ffffffffffffffffffffffffffffffffffffffff1673ffffffffffffffffffffffffffffffffffffffff16815260200190815260200160002060020181905550600960008373ffffffffffffffffffffffffffffffffffffffff1673ffffffffffffffffffffffffffffffffffffffff16815260200190815260200160002060030160009054906101000a900460ff1615801561230d575063b2d05e00600960008473ffffffffffffffffffffffffffffffffffffffff1673ffffffffffffffffffffffffffffffffffffffff1681526020019081526020016000206000015410155b156123f457600360009054906101000a900473ffffffffffffffffffffffffffffffffffffffff1673ffffffffffffffffffffffffffffffffffffffff16639c443d3e6040518163ffffffff1660e01b815260040161236b90613640565b600060405180830381600087803b15801561238557600080fd5b505af1158015612399573d6000803e3d6000fd5b505050506301e13380426123ad919061322e565b600960008473ffffffffffffffffffffffffffffffffffffffff1673ffffffffffffffffffffffffffffffffffffffff168152602001908152602001600020600401819055505b8173ffffffffffffffffffffffffffffffffffffffff167f66cef183dbc45fd6ab6c6cfd4ada8f7b1780d070873ce30723107d9f644ec6608260405161243a91906129f5565b60405180910390a25050565b600033905090565b6000612479828473ffffffffffffffffffffffffffffffffffffffff166124e590919063ffffffff16565b9050600081511415801561249e57508080602001905181019061249c9190613660565b155b156124e057826040517f5274afe70000000000000000000000000000000000000000000000000000000081526004016124d791906128df565b60405180910390fd5b505050565b60606124f3838360006124fb565b905092915050565b60608147101561254257306040517fcd78605900000000000000000000000000000000000000000000000000000000815260040161253991906128df565b60405180910390fd5b6000808573ffffffffffffffffffffffffffffffffffffffff16848660405161256b91906136d4565b60006040518083038185875af1925050503d80600081146125a8576040519150601f19603f3d011682016040523d82523d6000602084013e6125ad565b606091505b50915091506125bd8683836125c8565b925050509392505050565b6060826125dd576125d882612657565b61264f565b60008251148015612605575060008473ffffffffffffffffffffffffffffffffffffffff163b145b1561264757836040517f9996b31500000000000000000000000000000000000000000000000000000000815260040161263e91906128df565b60405180910390fd5b819050612650565b5b9392505050565b60008151111561266a5780518082602001fd5b6040517f1425ea4200000000000000000000000000000000000000000000000000000000815260040160405180910390fd5b600073ffffffffffffffffffffffffffffffffffffffff82169050919050565b6000819050919050565b60006126e16126dc6126d78461269c565b6126bc565b61269c565b9050919050565b60006126f3826126c6565b9050919050565b6000612705826126e8565b9050919050565b612715816126fa565b82525050565b6000602082019050612730600083018461270c565b92915050565b6000604051905090565b600080fd5b600080fd5b60006127558261269c565b9050919050565b6127658161274a565b811461277057600080fd5b50565b6000813590506127828161275c565b92915050565b6000806040838503121561279f5761279e612740565b5b60006127ad85828601612773565b92505060206127be85828601612773565b9150509250929050565b6000819050919050565b6127db816127c8565b81146127e657600080fd5b50565b6000813590506127f8816127d2565b92915050565b60006020828403121561281457612813612740565b5b6000612822848285016127e9565b91505092915050565b6000806040838503121561284257612841612740565b5b6000612850858286016127e9565b9250506020612861858286016127e9565b9150509250929050565b60006020828403121561288157612880612740565b5b600061288f84828501612773565b91505092915050565b6128a1816127c8565b82525050565b60006040820190506128bc6000830185612898565b6128c96020830184612898565b9392505050565b6128d98161274a565b82525050565b60006020820190506128f460008301846128d0565b92915050565b60008115159050919050565b61290f816128fa565b82525050565b600060208201905061292a6000830184612906565b92915050565b600080fd5b600080fd5b600080fd5b60008083601f84011261295557612954612930565b5b8235905067ffffffffffffffff81111561297257612971612935565b5b60208301915083602082028301111561298e5761298d61293a565b5b9250929050565b6000806000604084860312156129ae576129ad612740565b5b60006129bc868287016127e9565b935050602084013567ffffffffffffffff8111156129dd576129dc612745565b5b6129e98682870161293f565b92509250509250925092565b6000602082019050612a0a6000830184612898565b92915050565b600081519050919050565b600082825260208201905092915050565b6000819050602082019050919050565b612a458161274a565b82525050565b6000612a578383612a3c565b60208301905092915050565b6000602082019050919050565b6000612a7b82612a10565b612a858185612a1b565b9350612a9083612a2c565b8060005b83811015612ac1578151612aa88882612a4b565b9750612ab383612a63565b925050600181019050612a94565b5085935050505092915050565b60006020820190508181036000830152612ae88184612a70565b905092915050565b600060a082019050612b056000830188612898565b612b126020830187612898565b612b1f6040830186612898565b612b2c6060830185612906565b612b396080830184612898565b9695505050505050565b60008060408385031215612b5a57612b59612740565b5b6000612b6885828601612773565b9250506020612b79858286016127e9565b9150509250929050565b600082825260208201905092915050565b7f496e73756666696369656e7420737461626c6520636f696e2062616c616e6365600082015250565b6000612bca602083612b83565b9150612bd582612b94565b602082019050919050565b60006020820190508181036000830152612bf981612bbd565b9050919050565b7f4e487b7100000000000000000000000000000000000000000000000000000000600052601160045260246000fd5b6000612c3a826127c8565b9150612c45836127c8565b9250828203905081811115612c5d57612c5c612c00565b5b92915050565b7f44414f206d656d62657273206d75737420666f72666569742044414f206d656d60008201527f6265727368697020746f2077697468647261772066756e647300000000000000602082015250565b6000612cbf603983612b83565b9150612cca82612c63565b604082019050919050565b60006020820190508181036000830152612cee81612cb2565b9050919050565b6000612d00826127c8565b9150612d0b836127c8565b9250828202612d19816127c8565b91508282048414831517612d3057612d2f612c00565b5b5092915050565b7f4e487b7100000000000000000000000000000000000000000000000000000000600052601260045260246000fd5b6000612d71826127c8565b9150612d7c836127c8565b925082612d8c57612d8b612d37565b5b828204905092915050565b7f5769746864726177616c20616d6f756e74206578636565647320746865206d6160008201527f78696d756d20616c6c6f77656400000000000000000000000000000000000000602082015250565b6000612df3602d83612b83565b9150612dfe82612d97565b604082019050919050565b60006020820190508181036000830152612e2281612de6565b9050919050565b7f496e73756666696369656e7420737461626c65546f6b656e2062616c616e636560008201527f20696e20636f6e74726163740000000000000000000000000000000000000000602082015250565b6000612e85602c83612b83565b9150612e9082612e29565b604082019050919050565b60006020820190508181036000830152612eb481612e78565b9050919050565b600080fd5b6000601f19601f8301169050919050565b7f4e487b7100000000000000000000000000000000000000000000000000000000600052604160045260246000fd5b612f0982612ec0565b810181811067ffffffffffffffff82111715612f2857612f27612ed1565b5b80604052505050565b6000612f3b612736565b9050612f478282612f00565b919050565b600067ffffffffffffffff821115612f6757612f66612ed1565b5b612f7082612ec0565b9050602081019050919050565b60005b83811015612f9b578082015181840152602081019050612f80565b60008484015250505050565b6000612fba612fb584612f4c565b612f31565b905082815260208101848484011115612fd657612fd5612ebb565b5b612fe1848285612f7d565b509392505050565b600082601f830112612ffe57612ffd612930565b5b815161300e848260208601612fa7565b91505092915050565b600081519050613026816127d2565b92915050565b613035816128fa565b811461304057600080fd5b50565b6000815190506130528161302c565b92915050565b60008060008060008060c0878903121561307557613074612740565b5b600087015167ffffffffffffffff81111561309357613092612745565b5b61309f89828a01612fe9565b96505060206130b089828a01613017565b95505060406130c189828a01613017565b94505060606130d289828a01613017565b93505060806130e389828a01613043565b92505060a06130f489828a01613043565b9150509295509295509295565b7f416d6f756e7420616c72656164792077697468647261776e20666f722074686960008201527f732070726f706f73616c00000000000000000000000000000000000000000000602082015250565b600061315d602a83612b83565b915061316882613101565b604082019050919050565b6000602082019050818103600083015261318c81613150565b9050919050565b7f50726f706f73616c20776173206e6f7420616363657074656400000000000000600082015250565b60006131c9601983612b83565b91506131d482613193565b602082019050919050565b600060208201905081810360008301526131f8816131bc565b9050919050565b7f4e487b7100000000000000000000000000000000000000000000000000000000600052603260045260246000fd5b6000613239826127c8565b9150613244836127c8565b925082820190508082111561325c5761325b612c00565b5b92915050565b600061326d826127c8565b91507fffffffffffffffffffffffffffffffffffffffffffffffffffffffffffffffff820361329f5761329e612c00565b5b600182019050919050565b7f4f6e6c792044414f20476f7665726e616e63652063616e20616363657074207560008201527f7365727300000000000000000000000000000000000000000000000000000000602082015250565b6000613306602483612b83565b9150613311826132aa565b604082019050919050565b60006020820190508181036000830152613335816132f9565b9050919050565b60006020828403121561335257613351612740565b5b600061336084828501613017565b91505092915050565b7f496e73756666696369656e7420636f6e747261637420746f6b656e2062616c6160008201527f6e63650000000000000000000000000000000000000000000000000000000000602082015250565b60006133c5602383612b83565b91506133d082613369565b604082019050919050565b600060208201905081810360008301526133f4816133b8565b9050919050565b7f4e6f7420612044414f206d656d62657200000000000000000000000000000000600082015250565b6000613431601083612b83565b915061343c826133fb565b602082019050919050565b6000602082019050818103600083015261346081613424565b9050919050565b7f44414f206c6f636b20706572696f6420686173206e6f74206578706972656400600082015250565b600061349d601f83612b83565b91506134a882613467565b602082019050919050565b600060208201905081810360008301526134cc81613490565b9050919050565b7f4f6e6c79207072697a65446973747269627574696f6e20636f6e74726163742060008201527f63616e2063616c6c20746869732066756e6374696f6e00000000000000000000602082015250565b600061352f603683612b83565b915061353a826134d3565b604082019050919050565b6000602082019050818103600083015261355e81613522565b9050919050565b600060408201905061357a60008301856128d0565b6135876020830184612898565b9392505050565b7f4e487b7100000000000000000000000000000000000000000000000000000000600052603160045260246000fd5b60006060820190506135d260008301866128d0565b6135df60208301856128d0565b6135ec6040830184612898565b949350505050565b7f4e65772044414f00000000000000000000000000000000000000000000000000600082015250565b600061362a600783612b83565b9150613635826135f4565b602082019050919050565b600060208201905081810360008301526136598161361d565b9050919050565b60006020828403121561367657613675612740565b5b600061368484828501613043565b91505092915050565b600081519050919050565b600081905092915050565b60006136ae8261368d565b6136b88185613698565b93506136c8818560208601612f7d565b80840191505092915050565b60006136e082846136a3565b91508190509291505056fea26469706673582212209dff6c3d4986f49e583aeefdfbbac00f90b24a14eba19227954cfe1576bcbe8f64736f6c63430008140033",
  "linkReferences": {},
  "deployedLinkReferences": {}
}