{
  "_format": "hh-sol-artifact-1",
  "contractName": "PrizeDistribution",
  "sourceName": "contracts/PrizeDistribution.sol",
  "abi": [
    {
      "inputs": [
        {
          "internalType": "address",
          "name": "_savingsContractAddress",
          "type": "address"
        },
        {
          "internalType": "address",
          "name": "_daoGovernanceAddress",
          "type": "address"
        }
      ],
      "stateMutability": "nonpayable",
      "type": "constructor"
    },
    {
      "anonymous": false,
      "inputs": [
        {
          "indexed": true,
          "internalType": "address",
          "name": "from",
          "type": "address"
        },
        {
          "indexed": true,
          "internalType": "address",
          "name": "to",
          "type": "address"
        }
      ],
      "name": "OwnershipTransferRequested",
      "type": "event"
    },
    {
      "anonymous": false,
      "inputs": [
        {
          "indexed": true,
          "internalType": "address",
          "name": "from",
          "type": "address"
        },
        {
          "indexed": true,
          "internalType": "address",
          "name": "to",
          "type": "address"
        }
      ],
      "name": "OwnershipTransferred",
      "type": "event"
    },
    {
      "anonymous": false,
      "inputs": [
        {
          "indexed": true,
          "internalType": "address",
          "name": "proposer",
          "type": "address"
        },
        {
          "indexed": false,
          "internalType": "uint256",
          "name": "proposerShare",
          "type": "uint256"
        },
        {
          "indexed": false,
          "internalType": "uint256",
          "name": "contractShare",
          "type": "uint256"
        },
        {
          "indexed": false,
          "internalType": "uint256",
          "name": "daoShare",
          "type": "uint256"
        },
        {
          "indexed": false,
          "internalType": "address[]",
          "name": "winners",
          "type": "address[]"
        },
        {
          "indexed": false,
          "internalType": "uint256",
          "name": "winnerShare",
          "type": "uint256"
        }
      ],
      "name": "ProfitDistributed",
      "type": "event"
    },
    {
      "anonymous": false,
      "inputs": [
        {
          "indexed": false,
          "internalType": "uint256",
          "name": "requestId",
          "type": "uint256"
        },
        {
          "indexed": false,
          "internalType": "uint256[]",
          "name": "randomWords",
          "type": "uint256[]"
        },
        {
          "indexed": false,
          "internalType": "uint256",
          "name": "payment",
          "type": "uint256"
        }
      ],
      "name": "RequestFulfilled",
      "type": "event"
    },
    {
      "anonymous": false,
      "inputs": [
        {
          "indexed": false,
          "internalType": "uint256",
          "name": "requestId",
          "type": "uint256"
        },
        {
          "indexed": false,
          "internalType": "uint32",
          "name": "numWords",
          "type": "uint32"
        }
      ],
      "name": "RequestSent",
      "type": "event"
    },
    {
      "anonymous": false,
      "inputs": [
        {
          "indexed": false,
          "internalType": "address[]",
          "name": "winners",
          "type": "address[]"
        }
      ],
      "name": "WinnersSelected",
      "type": "event"
    },
    {
      "inputs": [],
      "name": "acceptOwnership",
      "outputs": [],
      "stateMutability": "nonpayable",
      "type": "function"
    },
    {
      "inputs": [],
      "name": "daoGovernance",
      "outputs": [
        {
          "internalType": "contract IDAOGovernance",
          "name": "",
          "type": "address"
        }
      ],
      "stateMutability": "view",
      "type": "function"
    },
    {
      "inputs": [
        {
          "internalType": "uint256",
          "name": "amount",
          "type": "uint256"
        }
      ],
      "name": "distributeProfit",
      "outputs": [],
      "stateMutability": "nonpayable",
      "type": "function"
    },
    {
      "inputs": [
        {
          "internalType": "uint256",
          "name": "_requestId",
          "type": "uint256"
        }
      ],
      "name": "getRequestStatus",
      "outputs": [
        {
          "internalType": "uint256",
          "name": "paid",
          "type": "uint256"
        },
        {
          "internalType": "bool",
          "name": "fulfilled",
          "type": "bool"
        },
        {
          "internalType": "uint256[]",
          "name": "randomWords",
          "type": "uint256[]"
        }
      ],
      "stateMutability": "view",
      "type": "function"
    },
    {
      "inputs": [],
      "name": "getWinners",
      "outputs": [
        {
          "internalType": "address[]",
          "name": "",
          "type": "address[]"
        }
      ],
      "stateMutability": "nonpayable",
      "type": "function"
    },
    {
      "inputs": [],
      "name": "lastRequestId",
      "outputs": [
        {
          "internalType": "uint256",
          "name": "",
          "type": "uint256"
        }
      ],
      "stateMutability": "view",
      "type": "function"
    },
    {
      "inputs": [],
      "name": "owner",
      "outputs": [
        {
          "internalType": "address",
          "name": "",
          "type": "address"
        }
      ],
      "stateMutability": "view",
      "type": "function"
    },
    {
      "inputs": [
        {
          "internalType": "uint256",
          "name": "_requestId",
          "type": "uint256"
        },
        {
          "internalType": "uint256[]",
          "name": "_randomWords",
          "type": "uint256[]"
        }
      ],
      "name": "rawFulfillRandomWords",
      "outputs": [],
      "stateMutability": "nonpayable",
      "type": "function"
    },
    {
      "inputs": [
        {
          "internalType": "uint256",
          "name": "",
          "type": "uint256"
        }
      ],
      "name": "requestIds",
      "outputs": [
        {
          "internalType": "uint256",
          "name": "",
          "type": "uint256"
        }
      ],
      "stateMutability": "view",
      "type": "function"
    },
    {
      "inputs": [],
      "name": "requestRandomWords",
      "outputs": [
        {
          "internalType": "uint256",
          "name": "requestId",
          "type": "uint256"
        }
      ],
      "stateMutability": "nonpayable",
      "type": "function"
    },
    {
      "inputs": [
        {
          "internalType": "uint256",
          "name": "",
          "type": "uint256"
        }
      ],
      "name": "s_requests",
      "outputs": [
        {
          "internalType": "uint256",
          "name": "paid",
          "type": "uint256"
        },
        {
          "internalType": "bool",
          "name": "fulfilled",
          "type": "bool"
        }
      ],
      "stateMutability": "view",
      "type": "function"
    },
    {
      "inputs": [],
      "name": "savingsContract",
      "outputs": [
        {
          "internalType": "contract ISavingsContract",
          "name": "",
          "type": "address"
        }
      ],
      "stateMutability": "view",
      "type": "function"
    },
    {
      "inputs": [
        {
          "internalType": "address",
          "name": "to",
          "type": "address"
        }
      ],
      "name": "transferOwnership",
      "outputs": [],
      "stateMutability": "nonpayable",
      "type": "function"
    },
    {
      "inputs": [
        {
          "internalType": "uint256",
          "name": "",
          "type": "uint256"
        }
      ],
      "name": "winners",
      "outputs": [
        {
          "internalType": "address",
          "name": "",
          "type": "address"
        }
      ],
      "stateMutability": "view",
      "type": "function"
    },
    {
      "inputs": [],
      "name": "withdrawLink",
      "outputs": [],
      "stateMutability": "nonpayable",
      "type": "function"
    }
  ],
  "bytecode": "0x60c0604052620493e0600760006101000a81548163ffffffff021916908363ffffffff1602179055506003600760046101000a81548161ffff021916908361ffff1602179055506005600760066101000a81548163ffffffff021916908363ffffffff16021790555073779877a7b0d9e8603169ddbd7836e478b46247896007600a6101000a81548173ffffffffffffffffffffffffffffffffffffffff021916908373ffffffffffffffffffffffffffffffffffffffff16021790555073ab18414cd93297b0d12ac29e63ca20f515b3db46600860006101000a81548173ffffffffffffffffffffffffffffffffffffffff021916908373ffffffffffffffffffffffffffffffffffffffff160217905550601e600a55601e600b55601e600c55600a600d553480156200013357600080fd5b50604051620036183803806200361883398181016040528101906200015991906200052c565b338060006007600a9054906101000a900473ffffffffffffffffffffffffffffffffffffffff16600860009054906101000a900473ffffffffffffffffffffffffffffffffffffffff168173ffffffffffffffffffffffffffffffffffffffff1660808173ffffffffffffffffffffffffffffffffffffffff16815250508073ffffffffffffffffffffffffffffffffffffffff1660a08173ffffffffffffffffffffffffffffffffffffffff16815250505050600073ffffffffffffffffffffffffffffffffffffffff168273ffffffffffffffffffffffffffffffffffffffff16036200027f576040517f08c379a00000000000000000000000000000000000000000000000000000000081526004016200027690620005d4565b60405180910390fd5b816000806101000a81548173ffffffffffffffffffffffffffffffffffffffff021916908373ffffffffffffffffffffffffffffffffffffffff160217905550600073ffffffffffffffffffffffffffffffffffffffff168173ffffffffffffffffffffffffffffffffffffffff1614620003065762000305816200039360201b60201c565b5b50505081600260006101000a81548173ffffffffffffffffffffffffffffffffffffffff021916908373ffffffffffffffffffffffffffffffffffffffff16021790555080600360006101000a81548173ffffffffffffffffffffffffffffffffffffffff021916908373ffffffffffffffffffffffffffffffffffffffff160217905550505062000668565b3373ffffffffffffffffffffffffffffffffffffffff168173ffffffffffffffffffffffffffffffffffffffff160362000404576040517f08c379a0000000000000000000000000000000000000000000000000000000008152600401620003fb9062000646565b60405180910390fd5b80600160006101000a81548173ffffffffffffffffffffffffffffffffffffffff021916908373ffffffffffffffffffffffffffffffffffffffff1602179055508073ffffffffffffffffffffffffffffffffffffffff1660008054906101000a900473ffffffffffffffffffffffffffffffffffffffff1673ffffffffffffffffffffffffffffffffffffffff167fed8889f560326eb138920d842192f0eb3dd22b4f139c87a2c57538e05bae127860405160405180910390a350565b600080fd5b600073ffffffffffffffffffffffffffffffffffffffff82169050919050565b6000620004f482620004c7565b9050919050565b6200050681620004e7565b81146200051257600080fd5b50565b6000815190506200052681620004fb565b92915050565b60008060408385031215620005465762000545620004c2565b5b6000620005568582860162000515565b9250506020620005698582860162000515565b9150509250929050565b600082825260208201905092915050565b7f43616e6e6f7420736574206f776e657220746f207a65726f0000000000000000600082015250565b6000620005bc60188362000573565b9150620005c98262000584565b602082019050919050565b60006020820190508181036000830152620005ef81620005ad565b9050919050565b7f43616e6e6f74207472616e7366657220746f2073656c66000000000000000000600082015250565b60006200062e60178362000573565b91506200063b82620005f6565b602082019050919050565b6000602082019050818103600083015262000661816200061f565b9050919050565b60805160a051612f6e620006aa600039600081816102db01528181611505015281816118e7015281816119080152611a28015260006118ab0152612f6e6000f3fe608060405234801561001057600080fd5b50600436106100f55760003560e01c8063a168fa8911610097578063df15c37e11610066578063df15c37e14610263578063e0c8628914610281578063f2fde38b1461029f578063fc2a88c3146102bb576100f5565b8063a168fa89146101b4578063a2fb1175146101e5578063d36dfac814610215578063d8a4676f14610231576100f5565b806385a83f09116100d357806385a83f091461013e5780638796ba8c1461015c5780638da5cb5b1461018c5780638dc654a2146101aa576100f5565b80631fe543e3146100fa5780633d4e5ddd1461011657806379ba509714610134575b600080fd5b610114600480360381019061010f9190611ea2565b6102d9565b005b61011e610375565b60405161012b9190611f7d565b60405180910390f35b61013c61039b565b005b610146610530565b6040516101539190611fb9565b60405180910390f35b61017660048036038101906101719190611fd4565b610556565b6040516101839190612010565b60405180910390f35b61019461057a565b6040516101a1919061204c565b60405180910390f35b6101b26105a3565b005b6101ce60048036038101906101c99190611fd4565b61070b565b6040516101dc929190612082565b60405180910390f35b6101ff60048036038101906101fa9190611fd4565b61073c565b60405161020c919061204c565b60405180910390f35b61022f600480360381019061022a9190611fd4565b61077b565b005b61024b60048036038101906102469190611fd4565b610ef0565b60405161025a93929190612169565b60405180910390f35b61026b61100a565b6040516102789190612265565b60405180910390f35b6102896114ad565b6040516102969190612010565b60405180910390f35b6102b960048036038101906102b491906122b3565b6116e5565b005b6102c36116f9565b6040516102d09190612010565b60405180910390f35b7f000000000000000000000000000000000000000000000000000000000000000073ffffffffffffffffffffffffffffffffffffffff163373ffffffffffffffffffffffffffffffffffffffff1614610367576040517f08c379a000000000000000000000000000000000000000000000000000000000815260040161035e9061233d565b60405180910390fd5b61037182826116ff565b5050565b600360009054906101000a900473ffffffffffffffffffffffffffffffffffffffff1681565b600160009054906101000a900473ffffffffffffffffffffffffffffffffffffffff1673ffffffffffffffffffffffffffffffffffffffff163373ffffffffffffffffffffffffffffffffffffffff161461042b576040517f08c379a0000000000000000000000000000000000000000000000000000000008152600401610422906123a9565b60405180910390fd5b60008060009054906101000a900473ffffffffffffffffffffffffffffffffffffffff169050336000806101000a81548173ffffffffffffffffffffffffffffffffffffffff021916908373ffffffffffffffffffffffffffffffffffffffff1602179055506000600160006101000a81548173ffffffffffffffffffffffffffffffffffffffff021916908373ffffffffffffffffffffffffffffffffffffffff1602179055503373ffffffffffffffffffffffffffffffffffffffff168173ffffffffffffffffffffffffffffffffffffffff167f8be0079c531659141344cd1fd0a4f28419497f9722a3daafe3b4186f6b6457e060405160405180910390a350565b600260009054906101000a900473ffffffffffffffffffffffffffffffffffffffff1681565b6005818154811061056657600080fd5b906000526020600020016000915090505481565b60008060009054906101000a900473ffffffffffffffffffffffffffffffffffffffff16905090565b6105ab611807565b60006007600a9054906101000a900473ffffffffffffffffffffffffffffffffffffffff1690508073ffffffffffffffffffffffffffffffffffffffff1663a9059cbb338373ffffffffffffffffffffffffffffffffffffffff166370a08231306040518263ffffffff1660e01b8152600401610628919061204c565b602060405180830381865afa158015610645573d6000803e3d6000fd5b505050506040513d601f19601f8201168201806040525081019061066991906123de565b6040518363ffffffff1660e01b815260040161068692919061240b565b6020604051808303816000875af11580156106a5573d6000803e3d6000fd5b505050506040513d601f19601f820116820180604052508101906106c99190612460565b610708576040517f08c379a00000000000000000000000000000000000000000000000000000000081526004016106ff906124d9565b60405180910390fd5b50565b60046020528060005260406000206000915090508060000154908060010160009054906101000a900460ff16905082565b6009818154811061074c57600080fd5b906000526020600020016000915054906101000a900473ffffffffffffffffffffffffffffffffffffffff1681565b610783611807565b600081116107c6576040517f08c379a00000000000000000000000000000000000000000000000000000000081526004016107bd90612545565b60405180910390fd5b60006107d061100a565b90506005815114610816576040517f08c379a000000000000000000000000000000000000000000000000000000000815260040161080d906125b1565b60405180910390fd5b6000600360009054906101000a900473ffffffffffffffffffffffffffffffffffffffff1673ffffffffffffffffffffffffffffffffffffffff16633b10244b6040518163ffffffff1660e01b8152600401602060405180830381865afa158015610885573d6000803e3d6000fd5b505050506040513d601f19601f820116820180604052508101906108a991906125e6565b9050600073ffffffffffffffffffffffffffffffffffffffff168173ffffffffffffffffffffffffffffffffffffffff160361091a576040517f08c379a00000000000000000000000000000000000000000000000000000000081526004016109119061265f565b60405180910390fd5b60005b82518110156109e5576009818154811061093a5761093961267f565b5b9060005260206000200160009054906101000a900473ffffffffffffffffffffffffffffffffffffffff1673ffffffffffffffffffffffffffffffffffffffff168273ffffffffffffffffffffffffffffffffffffffff16036109d2576040517f08c379a00000000000000000000000000000000000000000000000000000000081526004016109c9906126fa565b60405180910390fd5b80806109dd90612749565b91505061091d565b5060006064600d54856109f89190612791565b610a029190612802565b905060006064600a5486610a169190612791565b610a209190612802565b905060006064600b5487610a349190612791565b610a3e9190612802565b90506000600360009054906101000a900473ffffffffffffffffffffffffffffffffffffffff1673ffffffffffffffffffffffffffffffffffffffff16638b73a46b6040518163ffffffff1660e01b8152600401602060405180830381865afa158015610aaf573d6000803e3d6000fd5b505050506040513d601f19601f82011682018060405250810190610ad391906123de565b82610ade9190612802565b905060006064600c5489610af29190612791565b610afc9190612802565b9050600060098054905082610b119190612802565b9050600260009054906101000a900473ffffffffffffffffffffffffffffffffffffffff1673ffffffffffffffffffffffffffffffffffffffff1663e2dc35e088886040518363ffffffff1660e01b8152600401610b7092919061240b565b600060405180830381600087803b158015610b8a57600080fd5b505af1158015610b9e573d6000803e3d6000fd5b50505050600260009054906101000a900473ffffffffffffffffffffffffffffffffffffffff1673ffffffffffffffffffffffffffffffffffffffff1663e2dc35e030876040518363ffffffff1660e01b8152600401610bff92919061240b565b600060405180830381600087803b158015610c1957600080fd5b505af1158015610c2d573d6000803e3d6000fd5b505050506000600360009054906101000a900473ffffffffffffffffffffffffffffffffffffffff1673ffffffffffffffffffffffffffffffffffffffff1663d211bc3f6040518163ffffffff1660e01b8152600401600060405180830381865afa158015610ca0573d6000803e3d6000fd5b505050506040513d6000823e3d601f19601f82011682018060405250810190610cc991906128f6565b905060005b8151811015610d9357600260009054906101000a900473ffffffffffffffffffffffffffffffffffffffff1673ffffffffffffffffffffffffffffffffffffffff1663e2dc35e0838381518110610d2857610d2761267f565b5b6020026020010151876040518363ffffffff1660e01b8152600401610d4e92919061240b565b600060405180830381600087803b158015610d6857600080fd5b505af1158015610d7c573d6000803e3d6000fd5b505050508080610d8b90612749565b915050610cce565b5060005b600980549050811015610e8457600260009054906101000a900473ffffffffffffffffffffffffffffffffffffffff1673ffffffffffffffffffffffffffffffffffffffff1663e2dc35e060098381548110610df657610df561267f565b5b9060005260206000200160009054906101000a900473ffffffffffffffffffffffffffffffffffffffff16856040518363ffffffff1660e01b8152600401610e3f92919061240b565b600060405180830381600087803b158015610e5957600080fd5b505af1158015610e6d573d6000803e3d6000fd5b505050508080610e7c90612749565b915050610d97565b50610e8d611897565b8773ffffffffffffffffffffffffffffffffffffffff167fe7b0caf632f3a0dc5084d9f3fc12e61b957acea4ad57c512506311ac669043ce888887600988604051610edc959493929190612a2b565b60405180910390a250505050505050505050565b60008060606000600460008681526020019081526020016000206000015411610f4e576040517f08c379a0000000000000000000000000000000000000000000000000000000008152600401610f4590612ad1565b60405180910390fd5b600060046000868152602001908152602001600020604051806060016040529081600082015481526020016001820160009054906101000a900460ff1615151515815260200160028201805480602002602001604051908101604052809291908181526020018280548015610fe257602002820191906000526020600020905b815481526020019060010190808311610fce575b5050505050815250509050806000015181602001518260400151935093509350509193909250565b60606000600260009054906101000a900473ffffffffffffffffffffffffffffffffffffffff1673ffffffffffffffffffffffffffffffffffffffff1663c8c59ac46040518163ffffffff1660e01b8152600401602060405180830381865afa15801561107b573d6000803e3d6000fd5b505050506040513d601f19601f8201168201806040525081019061109f91906123de565b9050600760069054906101000a900463ffffffff1663ffffffff168110156110fc576040517f08c379a00000000000000000000000000000000000000000000000000000000081526004016110f390612b63565b60405180910390fd5b6000600760069054906101000a900463ffffffff1663ffffffff1667ffffffffffffffff8111156111305761112f611d5f565b5b60405190808252806020026020018201604052801561115e5781602001602082028036833780820191505090505b50905060006004600060065481526020019081526020016000206002018054806020026020016040519081016040528092919081815260200182805480156111c557602002820191906000526020600020905b8154815260200190600101908083116111b1575b50505050509050600760069054906101000a900463ffffffff1663ffffffff16815114611227576040517f08c379a000000000000000000000000000000000000000000000000000000000815260040161121e90612bcf565b60405180910390fd5b6000600260009054906101000a900473ffffffffffffffffffffffffffffffffffffffff1673ffffffffffffffffffffffffffffffffffffffff1663f7c4cd6d6040518163ffffffff1660e01b8152600401600060405180830381865afa158015611296573d6000803e3d6000fd5b505050506040513d6000823e3d601f19601f820116820180604052508101906112bf91906128f6565b905060005b600760069054906101000a900463ffffffff1663ffffffff168110156113cd576000858483815181106112fa576112f961267f565b5b602002602001015161130c9190612bef565b905082518110611351576040517f08c379a000000000000000000000000000000000000000000000000000000000815260040161134890612c6c565b60405180910390fd5b8281815181106113645761136361267f565b5b602002602001015185838151811061137f5761137e61267f565b5b602002602001019073ffffffffffffffffffffffffffffffffffffffff16908173ffffffffffffffffffffffffffffffffffffffff16815250505080806113c590612749565b9150506112c4565b5082600990805190602001906113e4929190611bea565b507f32a1b5731a757f192a06ca973715ca4dbc42c2d15323cabaa74e0a2d5dc088e460096040516114159190612c8c565b60405180910390a1600980548060200260200160405190810160405280929190818152602001828054801561149f57602002820191906000526020600020905b8160009054906101000a900473ffffffffffffffffffffffffffffffffffffffff1673ffffffffffffffffffffffffffffffffffffffff1681526020019060010190808311611455575b505050505094505050505090565b60006114b7611807565b6114f6600760009054906101000a900463ffffffff16600760049054906101000a900461ffff16600760069054906101000a900463ffffffff166118a7565b905060405180606001604052807f000000000000000000000000000000000000000000000000000000000000000073ffffffffffffffffffffffffffffffffffffffff16634306d354600760009054906101000a900463ffffffff166040518263ffffffff1660e01b815260040161156e9190612ccd565b602060405180830381865afa15801561158b573d6000803e3d6000fd5b505050506040513d601f19601f820116820180604052508101906115af91906123de565b8152602001600015158152602001600067ffffffffffffffff8111156115d8576115d7611d5f565b5b6040519080825280602002602001820160405280156116065781602001602082028036833780820191505090505b50815250600460008381526020019081526020016000206000820151816000015560208201518160010160006101000a81548160ff0219169083151502179055506040820151816002019080519060200190611663929190611c74565b509050506005819080600181540180825580915050600190039060005260206000200160009091909190915055806006819055507fcc58b13ad3eab50626c6a6300b1d139cd6ebb1688a7cced9461c2f7e762665ee81600760069054906101000a900463ffffffff166040516116da929190612ce8565b60405180910390a190565b6116ed611807565b6116f681611abe565b50565b60065481565b6000600460008481526020019081526020016000206000015411611758576040517f08c379a000000000000000000000000000000000000000000000000000000000815260040161174f90612ad1565b60405180910390fd5b60016004600084815260200190815260200160002060010160006101000a81548160ff021916908315150217905550806004600084815260200190815260200160002060020190805190602001906117b1929190611c74565b507f147eb1ff0c82f87f2b03e2c43f5a36488ff63ec6b730195fde4605f612f8db51828260046000868152602001908152602001600020600001546040516117fb93929190612d11565b60405180910390a15050565b60008054906101000a900473ffffffffffffffffffffffffffffffffffffffff1673ffffffffffffffffffffffffffffffffffffffff163373ffffffffffffffffffffffffffffffffffffffff1614611895576040517f08c379a000000000000000000000000000000000000000000000000000000000815260040161188c90612d9b565b60405180910390fd5b565b600960006118a59190611cc1565b565b60007f000000000000000000000000000000000000000000000000000000000000000073ffffffffffffffffffffffffffffffffffffffff16634000aea07f00000000000000000000000000000000000000000000000000000000000000007f000000000000000000000000000000000000000000000000000000000000000073ffffffffffffffffffffffffffffffffffffffff16634306d354886040518263ffffffff1660e01b815260040161195f9190612ccd565b602060405180830381865afa15801561197c573d6000803e3d6000fd5b505050506040513d601f19601f820116820180604052508101906119a091906123de565b8787876040516020016119b593929190612dd8565b6040516020818303038152906040526040518463ffffffff1660e01b81526004016119e293929190612e8e565b6020604051808303816000875af1158015611a01573d6000803e3d6000fd5b505050506040513d601f19601f82011682018060405250810190611a259190612460565b507f000000000000000000000000000000000000000000000000000000000000000073ffffffffffffffffffffffffffffffffffffffff1663fc2a88c36040518163ffffffff1660e01b8152600401602060405180830381865afa158015611a91573d6000803e3d6000fd5b505050506040513d601f19601f82011682018060405250810190611ab591906123de565b90509392505050565b3373ffffffffffffffffffffffffffffffffffffffff168173ffffffffffffffffffffffffffffffffffffffff1603611b2c576040517f08c379a0000000000000000000000000000000000000000000000000000000008152600401611b2390612f18565b60405180910390fd5b80600160006101000a81548173ffffffffffffffffffffffffffffffffffffffff021916908373ffffffffffffffffffffffffffffffffffffffff1602179055508073ffffffffffffffffffffffffffffffffffffffff1660008054906101000a900473ffffffffffffffffffffffffffffffffffffffff1673ffffffffffffffffffffffffffffffffffffffff167fed8889f560326eb138920d842192f0eb3dd22b4f139c87a2c57538e05bae127860405160405180910390a350565b828054828255906000526020600020908101928215611c63579160200282015b82811115611c625782518260006101000a81548173ffffffffffffffffffffffffffffffffffffffff021916908373ffffffffffffffffffffffffffffffffffffffff16021790555091602001919060010190611c0a565b5b509050611c709190611ce2565b5090565b828054828255906000526020600020908101928215611cb0579160200282015b82811115611caf578251825591602001919060010190611c94565b5b509050611cbd9190611ce2565b5090565b5080546000825590600052602060002090810190611cdf9190611ce2565b50565b5b80821115611cfb576000816000905550600101611ce3565b5090565b6000604051905090565b600080fd5b600080fd5b6000819050919050565b611d2681611d13565b8114611d3157600080fd5b50565b600081359050611d4381611d1d565b92915050565b600080fd5b6000601f19601f8301169050919050565b7f4e487b7100000000000000000000000000000000000000000000000000000000600052604160045260246000fd5b611d9782611d4e565b810181811067ffffffffffffffff82111715611db657611db5611d5f565b5b80604052505050565b6000611dc9611cff565b9050611dd58282611d8e565b919050565b600067ffffffffffffffff821115611df557611df4611d5f565b5b602082029050602081019050919050565b600080fd5b6000611e1e611e1984611dda565b611dbf565b90508083825260208201905060208402830185811115611e4157611e40611e06565b5b835b81811015611e6a5780611e568882611d34565b845260208401935050602081019050611e43565b5050509392505050565b600082601f830112611e8957611e88611d49565b5b8135611e99848260208601611e0b565b91505092915050565b60008060408385031215611eb957611eb8611d09565b5b6000611ec785828601611d34565b925050602083013567ffffffffffffffff811115611ee857611ee7611d0e565b5b611ef485828601611e74565b9150509250929050565b600073ffffffffffffffffffffffffffffffffffffffff82169050919050565b6000819050919050565b6000611f43611f3e611f3984611efe565b611f1e565b611efe565b9050919050565b6000611f5582611f28565b9050919050565b6000611f6782611f4a565b9050919050565b611f7781611f5c565b82525050565b6000602082019050611f926000830184611f6e565b92915050565b6000611fa382611f4a565b9050919050565b611fb381611f98565b82525050565b6000602082019050611fce6000830184611faa565b92915050565b600060208284031215611fea57611fe9611d09565b5b6000611ff884828501611d34565b91505092915050565b61200a81611d13565b82525050565b60006020820190506120256000830184612001565b92915050565b600061203682611efe565b9050919050565b6120468161202b565b82525050565b6000602082019050612061600083018461203d565b92915050565b60008115159050919050565b61207c81612067565b82525050565b60006040820190506120976000830185612001565b6120a46020830184612073565b9392505050565b600081519050919050565b600082825260208201905092915050565b6000819050602082019050919050565b6120e081611d13565b82525050565b60006120f283836120d7565b60208301905092915050565b6000602082019050919050565b6000612116826120ab565b61212081856120b6565b935061212b836120c7565b8060005b8381101561215c57815161214388826120e6565b975061214e836120fe565b92505060018101905061212f565b5085935050505092915050565b600060608201905061217e6000830186612001565b61218b6020830185612073565b818103604083015261219d818461210b565b9050949350505050565b600081519050919050565b600082825260208201905092915050565b6000819050602082019050919050565b6121dc8161202b565b82525050565b60006121ee83836121d3565b60208301905092915050565b6000602082019050919050565b6000612212826121a7565b61221c81856121b2565b9350612227836121c3565b8060005b8381101561225857815161223f88826121e2565b975061224a836121fa565b92505060018101905061222b565b5085935050505092915050565b6000602082019050818103600083015261227f8184612207565b905092915050565b6122908161202b565b811461229b57600080fd5b50565b6000813590506122ad81612287565b92915050565b6000602082840312156122c9576122c8611d09565b5b60006122d78482850161229e565b91505092915050565b600082825260208201905092915050565b7f6f6e6c792056524620563220777261707065722063616e2066756c66696c6c00600082015250565b6000612327601f836122e0565b9150612332826122f1565b602082019050919050565b600060208201905081810360008301526123568161231a565b9050919050565b7f4d7573742062652070726f706f736564206f776e657200000000000000000000600082015250565b60006123936016836122e0565b915061239e8261235d565b602082019050919050565b600060208201905081810360008301526123c281612386565b9050919050565b6000815190506123d881611d1d565b92915050565b6000602082840312156123f4576123f3611d09565b5b6000612402848285016123c9565b91505092915050565b6000604082019050612420600083018561203d565b61242d6020830184612001565b9392505050565b61243d81612067565b811461244857600080fd5b50565b60008151905061245a81612434565b92915050565b60006020828403121561247657612475611d09565b5b60006124848482850161244b565b91505092915050565b7f556e61626c6520746f207472616e736665720000000000000000000000000000600082015250565b60006124c36012836122e0565b91506124ce8261248d565b602082019050919050565b600060208201905081810360008301526124f2816124b6565b9050919050565b7f496e76616c69642070726f66697420616d6f756e740000000000000000000000600082015250565b600061252f6015836122e0565b915061253a826124f9565b602082019050919050565b6000602082019050818103600083015261255e81612522565b9050919050565b7f496e76616c6964206e756d626572206f662077696e6e65727300000000000000600082015250565b600061259b6019836122e0565b91506125a682612565565b602082019050919050565b600060208201905081810360008301526125ca8161258e565b9050919050565b6000815190506125e081612287565b92915050565b6000602082840312156125fc576125fb611d09565b5b600061260a848285016125d1565b91505092915050565b7f4e6f2070726f706f73657220666f756e64000000000000000000000000000000600082015250565b60006126496011836122e0565b915061265482612613565b602082019050919050565b600060208201905081810360008301526126788161263c565b9050919050565b7f4e487b7100000000000000000000000000000000000000000000000000000000600052603260045260246000fd5b7f50726f706f7365722063616e6e6f7420626520612077696e6e65720000000000600082015250565b60006126e4601b836122e0565b91506126ef826126ae565b602082019050919050565b60006020820190508181036000830152612713816126d7565b9050919050565b7f4e487b7100000000000000000000000000000000000000000000000000000000600052601160045260246000fd5b600061275482611d13565b91507fffffffffffffffffffffffffffffffffffffffffffffffffffffffffffffffff82036127865761278561271a565b5b600182019050919050565b600061279c82611d13565b91506127a783611d13565b92508282026127b581611d13565b915082820484148315176127cc576127cb61271a565b5b5092915050565b7f4e487b7100000000000000000000000000000000000000000000000000000000600052601260045260246000fd5b600061280d82611d13565b915061281883611d13565b925082612828576128276127d3565b5b828204905092915050565b600067ffffffffffffffff82111561284e5761284d611d5f565b5b602082029050602081019050919050565b600061287261286d84612833565b611dbf565b9050808382526020820190506020840283018581111561289557612894611e06565b5b835b818110156128be57806128aa88826125d1565b845260208401935050602081019050612897565b5050509392505050565b600082601f8301126128dd576128dc611d49565b5b81516128ed84826020860161285f565b91505092915050565b60006020828403121561290c5761290b611d09565b5b600082015167ffffffffffffffff81111561292a57612929611d0e565b5b612936848285016128c8565b91505092915050565b600081549050919050565b60008190508160005260206000209050919050565b60008160001c9050919050565b600073ffffffffffffffffffffffffffffffffffffffff82169050919050565b600061299f61299a8361295f565b61296c565b9050919050565b60006129b2825461298c565b9050919050565b6000600182019050919050565b60006129d18261293f565b6129db81856121b2565b93506129e68361294a565b8060005b83811015612a1e576129fb826129a6565b612a0588826121e2565b9750612a10836129b9565b9250506001810190506129ea565b5085935050505092915050565b600060a082019050612a406000830188612001565b612a4d6020830187612001565b612a5a6040830186612001565b8181036060830152612a6c81856129c6565b9050612a7b6080830184612001565b9695505050505050565b7f72657175657374206e6f7420666f756e64000000000000000000000000000000600082015250565b6000612abb6011836122e0565b9150612ac682612a85565b602082019050919050565b60006020820190508181036000830152612aea81612aae565b9050919050565b7f4e6f7420656e6f7567682061646472657373657320666f722073656c6563746960008201527f6f6e000000000000000000000000000000000000000000000000000000000000602082015250565b6000612b4d6022836122e0565b9150612b5882612af1565b604082019050919050565b60006020820190508181036000830152612b7c81612b40565b9050919050565b7f52616e646f6d20776f726473206e6f7420617661696c61626c65000000000000600082015250565b6000612bb9601a836122e0565b9150612bc482612b83565b602082019050919050565b60006020820190508181036000830152612be881612bac565b9050919050565b6000612bfa82611d13565b9150612c0583611d13565b925082612c1557612c146127d3565b5b828206905092915050565b7f496e646578206f7574206f6620626f756e647300000000000000000000000000600082015250565b6000612c566013836122e0565b9150612c6182612c20565b602082019050919050565b60006020820190508181036000830152612c8581612c49565b9050919050565b60006020820190508181036000830152612ca681846129c6565b905092915050565b600063ffffffff82169050919050565b612cc781612cae565b82525050565b6000602082019050612ce26000830184612cbe565b92915050565b6000604082019050612cfd6000830185612001565b612d0a6020830184612cbe565b9392505050565b6000606082019050612d266000830186612001565b8181036020830152612d38818561210b565b9050612d476040830184612001565b949350505050565b7f4f6e6c792063616c6c61626c65206279206f776e657200000000000000000000600082015250565b6000612d856016836122e0565b9150612d9082612d4f565b602082019050919050565b60006020820190508181036000830152612db481612d78565b9050919050565b600061ffff82169050919050565b612dd281612dbb565b82525050565b6000606082019050612ded6000830186612cbe565b612dfa6020830185612dc9565b612e076040830184612cbe565b949350505050565b600081519050919050565b600082825260208201905092915050565b60005b83811015612e49578082015181840152602081019050612e2e565b60008484015250505050565b6000612e6082612e0f565b612e6a8185612e1a565b9350612e7a818560208601612e2b565b612e8381611d4e565b840191505092915050565b6000606082019050612ea3600083018661203d565b612eb06020830185612001565b8181036040830152612ec28184612e55565b9050949350505050565b7f43616e6e6f74207472616e7366657220746f2073656c66000000000000000000600082015250565b6000612f026017836122e0565b9150612f0d82612ecc565b602082019050919050565b60006020820190508181036000830152612f3181612ef5565b905091905056fea2646970667358221220853df17d2a6f74576ae601fd3bc3dc1047af4e31c254a56a9d17a1293bc748b964736f6c63430008140033",
  "linkReferences": {},
  "deployedLinkReferences": {}
}