{
  "_format": "hh-sol-artifact-1",
  "contractName": "ComplianceDatabase",
  "sourceName": "contracts/ComplianceDatabase.sol",
  "abi": [
    {
      "inputs": [],
      "stateMutability": "nonpayable",
      "type": "constructor"
    },
    {
      "inputs": [
        {
          "internalType": "address",
          "name": "owner",
          "type": "address"
        }
      ],
      "name": "OwnableInvalidOwner",
      "type": "error"
    },
    {
      "inputs": [
        {
          "internalType": "address",
          "name": "account",
          "type": "address"
        }
      ],
      "name": "OwnableUnauthorizedAccount",
      "type": "error"
    },
    {
      "anonymous": false,
      "inputs": [
        {
          "indexed": true,
          "internalType": "address",
          "name": "previousOwner",
          "type": "address"
        },
        {
          "indexed": true,
          "internalType": "address",
          "name": "newOwner",
          "type": "address"
        }
      ],
      "name": "OwnershipTransferred",
      "type": "event"
    },
    {
      "inputs": [
        {
          "internalType": "string",
          "name": "key",
          "type": "string"
        },
        {
          "internalType": "string",
          "name": "regulation",
          "type": "string"
        }
      ],
      "name": "addDAORegulation",
      "outputs": [],
      "stateMutability": "nonpayable",
      "type": "function"
    },
    {
      "inputs": [
        {
          "internalType": "string",
          "name": "key",
          "type": "string"
        },
        {
          "internalType": "string",
          "name": "regulation",
          "type": "string"
        }
      ],
      "name": "addUserRegulation",
      "outputs": [],
      "stateMutability": "nonpayable",
      "type": "function"
    },
    {
      "inputs": [
        {
          "internalType": "string",
          "name": "",
          "type": "string"
        }
      ],
      "name": "daoRegulations",
      "outputs": [
        {
          "internalType": "string",
          "name": "",
          "type": "string"
        }
      ],
      "stateMutability": "view",
      "type": "function"
    },
    {
      "inputs": [
        {
          "internalType": "string",
          "name": "key",
          "type": "string"
        }
      ],
      "name": "getDAORegulation",
      "outputs": [
        {
          "internalType": "string",
          "name": "",
          "type": "string"
        }
      ],
      "stateMutability": "view",
      "type": "function"
    },
    {
      "inputs": [
        {
          "internalType": "string",
          "name": "key",
          "type": "string"
        }
      ],
      "name": "getUserRegulation",
      "outputs": [
        {
          "internalType": "string",
          "name": "",
          "type": "string"
        }
      ],
      "stateMutability": "view",
      "type": "function"
    },
    {
      "inputs": [],
      "name": "owner",
      "outputs": [
        {
          "internalType": "address",
          "name": "",
          "type": "address"
        }
      ],
      "stateMutability": "view",
      "type": "function"
    },
    {
      "inputs": [],
      "name": "renounceOwnership",
      "outputs": [],
      "stateMutability": "nonpayable",
      "type": "function"
    },
    {
      "inputs": [
        {
          "internalType": "address",
          "name": "newOwner",
          "type": "address"
        }
      ],
      "name": "transferOwnership",
      "outputs": [],
      "stateMutability": "nonpayable",
      "type": "function"
    },
    {
      "inputs": [
        {
          "internalType": "string",
          "name": "",
          "type": "string"
        }
      ],
      "name": "userRegulations",
      "outputs": [
        {
          "internalType": "string",
          "name": "",
          "type": "string"
        }
      ],
      "stateMutability": "view",
      "type": "function"
    }
  ],
  "bytecode": "0x60806040523480156200001157600080fd5b5033600073ffffffffffffffffffffffffffffffffffffffff168173ffffffffffffffffffffffffffffffffffffffff1603620000885760006040517f1e4fbdf70000000000000000000000000000000000000000000000000000000081526004016200007f9190620002cb565b60405180910390fd5b6200009981620001c260201b60201c565b5060405180610100016040528060d081526020016200187860d091396001604051620000c59062000343565b90815260200160405180910390209081620000e19190620005d4565b5060405180610100016040528060dc8152602001620016cf60dc913960016040516200010d906200070b565b90815260200160405180910390209081620001299190620005d4565b5060405180610100016040528060cd8152602001620017ab60cd91396001604051620001559062000772565b90815260200160405180910390209081620001719190620005d4565b50604051806102800160405280610249815260200162001948610249913960026040516200019f90620007d9565b90815260200160405180910390209081620001bb9190620005d4565b50620007f0565b60008060009054906101000a900473ffffffffffffffffffffffffffffffffffffffff169050816000806101000a81548173ffffffffffffffffffffffffffffffffffffffff021916908373ffffffffffffffffffffffffffffffffffffffff1602179055508173ffffffffffffffffffffffffffffffffffffffff168173ffffffffffffffffffffffffffffffffffffffff167f8be0079c531659141344cd1fd0a4f28419497f9722a3daafe3b4186f6b6457e060405160405180910390a35050565b600073ffffffffffffffffffffffffffffffffffffffff82169050919050565b6000620002b38262000286565b9050919050565b620002c581620002a6565b82525050565b6000602082019050620002e26000830184620002ba565b92915050565b600081905092915050565b7f414d4c2f4b594300000000000000000000000000000000000000000000000000600082015250565b60006200032b600783620002e8565b91506200033882620002f3565b600782019050919050565b600062000350826200031c565b9150819050919050565b600081519050919050565b7f4e487b7100000000000000000000000000000000000000000000000000000000600052604160045260246000fd5b7f4e487b7100000000000000000000000000000000000000000000000000000000600052602260045260246000fd5b60006002820490506001821680620003dc57607f821691505b602082108103620003f257620003f162000394565b5b50919050565b60008190508160005260206000209050919050565b60006020601f8301049050919050565b600082821b905092915050565b6000600883026200045c7fffffffffffffffffffffffffffffffffffffffffffffffffffffffffffffffff826200041d565b6200046886836200041d565b95508019841693508086168417925050509392505050565b6000819050919050565b6000819050919050565b6000620004b5620004af620004a98462000480565b6200048a565b62000480565b9050919050565b6000819050919050565b620004d18362000494565b620004e9620004e082620004bc565b8484546200042a565b825550505050565b600090565b62000500620004f1565b6200050d818484620004c6565b505050565b5b81811015620005355762000529600082620004f6565b60018101905062000513565b5050565b601f82111562000584576200054e81620003f8565b62000559846200040d565b8101602085101562000569578190505b6200058162000578856200040d565b83018262000512565b50505b505050565b600082821c905092915050565b6000620005a96000198460080262000589565b1980831691505092915050565b6000620005c4838362000596565b9150826002028217905092915050565b620005df826200035a565b67ffffffffffffffff811115620005fb57620005fa62000365565b5b620006078254620003c3565b6200061482828562000539565b600060209050601f8311600181146200064c576000841562000637578287015190505b620006438582620005b6565b865550620006b3565b601f1984166200065c86620003f8565b60005b8281101562000686578489015182556001820191506020850194506020810190506200065f565b86831015620006a65784890151620006a2601f89168262000596565b8355505b6001600288020188555050505b505050505050565b7f5365637572697469657300000000000000000000000000000000000000000000600082015250565b6000620006f3600a83620002e8565b91506200070082620006bb565b600a82019050919050565b60006200071882620006e4565b9150819050919050565b7f5461780000000000000000000000000000000000000000000000000000000000600082015250565b60006200075a600383620002e8565b9150620007678262000722565b600382019050919050565b60006200077f826200074b565b9150819050919050565b7f4e65772044414f00000000000000000000000000000000000000000000000000600082015250565b6000620007c1600783620002e8565b9150620007ce8262000789565b600782019050919050565b6000620007e682620007b2565b9150819050919050565b610ecf80620008006000396000f3fe608060405234801561001057600080fd5b50600436106100935760003560e01c80637484010c116100665780637484010c1461010a5780638da5cb5b1461013a578063d6b12a1814610158578063f2fde38b14610188578063f718c36e146101a457610093565b806350e718ed14610098578063554cdfab146100b45780635b2fdcc7146100d0578063715018a614610100575b600080fd5b6100b260048036038101906100ad91906107b1565b6101d4565b005b6100ce60048036038101906100c991906107b1565b610212565b005b6100ea60048036038101906100e59190610832565b610250565b6040516100f7919061090f565b60405180910390f35b610108610303565b005b610124600480360381019061011f9190610a61565b610317565b604051610131919061090f565b60405180910390f35b6101426103cd565b60405161014f9190610aeb565b60405180910390f35b610172600480360381019061016d9190610832565b6103f6565b60405161017f919061090f565b60405180910390f35b6101a2600480360381019061019d9190610b32565b6104a9565b005b6101be60048036038101906101b99190610a61565b61052f565b6040516101cb919061090f565b60405180910390f35b6101dc6105e5565b8181600186866040516101f0929190610b8f565b9081526020016040518091039020918261020b929190610dc9565b5050505050565b61021a6105e5565b81816002868660405161022e929190610b8f565b90815260200160405180910390209182610249929190610dc9565b5050505050565b606060028383604051610264929190610b8f565b9081526020016040518091039020805461027d90610be2565b80601f01602080910402602001604051908101604052809291908181526020018280546102a990610be2565b80156102f65780601f106102cb576101008083540402835291602001916102f6565b820191906000526020600020905b8154815290600101906020018083116102d957829003601f168201915b5050505050905092915050565b61030b6105e5565b610315600061066c565b565b600181805160208101820180518482526020830160208501208183528095505050505050600091509050805461034c90610be2565b80601f016020809104026020016040519081016040528092919081815260200182805461037890610be2565b80156103c55780601f1061039a576101008083540402835291602001916103c5565b820191906000526020600020905b8154815290600101906020018083116103a857829003601f168201915b505050505081565b60008060009054906101000a900473ffffffffffffffffffffffffffffffffffffffff16905090565b60606001838360405161040a929190610b8f565b9081526020016040518091039020805461042390610be2565b80601f016020809104026020016040519081016040528092919081815260200182805461044f90610be2565b801561049c5780601f106104715761010080835404028352916020019161049c565b820191906000526020600020905b81548152906001019060200180831161047f57829003601f168201915b5050505050905092915050565b6104b16105e5565b600073ffffffffffffffffffffffffffffffffffffffff168173ffffffffffffffffffffffffffffffffffffffff16036105235760006040517f1e4fbdf700000000000000000000000000000000000000000000000000000000815260040161051a9190610aeb565b60405180910390fd5b61052c8161066c565b50565b600281805160208101820180518482526020830160208501208183528095505050505050600091509050805461056490610be2565b80601f016020809104026020016040519081016040528092919081815260200182805461059090610be2565b80156105dd5780601f106105b2576101008083540402835291602001916105dd565b820191906000526020600020905b8154815290600101906020018083116105c057829003601f168201915b505050505081565b6105ed610730565b73ffffffffffffffffffffffffffffffffffffffff1661060b6103cd565b73ffffffffffffffffffffffffffffffffffffffff161461066a5761062e610730565b6040517f118cdaa70000000000000000000000000000000000000000000000000000000081526004016106619190610aeb565b60405180910390fd5b565b60008060009054906101000a900473ffffffffffffffffffffffffffffffffffffffff169050816000806101000a81548173ffffffffffffffffffffffffffffffffffffffff021916908373ffffffffffffffffffffffffffffffffffffffff1602179055508173ffffffffffffffffffffffffffffffffffffffff168173ffffffffffffffffffffffffffffffffffffffff167f8be0079c531659141344cd1fd0a4f28419497f9722a3daafe3b4186f6b6457e060405160405180910390a35050565b600033905090565b6000604051905090565b600080fd5b600080fd5b600080fd5b600080fd5b600080fd5b60008083601f8401126107715761077061074c565b5b8235905067ffffffffffffffff81111561078e5761078d610751565b5b6020830191508360018202830111156107aa576107a9610756565b5b9250929050565b600080600080604085870312156107cb576107ca610742565b5b600085013567ffffffffffffffff8111156107e9576107e8610747565b5b6107f58782880161075b565b9450945050602085013567ffffffffffffffff81111561081857610817610747565b5b6108248782880161075b565b925092505092959194509250565b6000806020838503121561084957610848610742565b5b600083013567ffffffffffffffff81111561086757610866610747565b5b6108738582860161075b565b92509250509250929050565b600081519050919050565b600082825260208201905092915050565b60005b838110156108b957808201518184015260208101905061089e565b60008484015250505050565b6000601f19601f8301169050919050565b60006108e18261087f565b6108eb818561088a565b93506108fb81856020860161089b565b610904816108c5565b840191505092915050565b6000602082019050818103600083015261092981846108d6565b905092915050565b600080fd5b7f4e487b7100000000000000000000000000000000000000000000000000000000600052604160045260246000fd5b61096e826108c5565b810181811067ffffffffffffffff8211171561098d5761098c610936565b5b80604052505050565b60006109a0610738565b90506109ac8282610965565b919050565b600067ffffffffffffffff8211156109cc576109cb610936565b5b6109d5826108c5565b9050602081019050919050565b82818337600083830152505050565b6000610a046109ff846109b1565b610996565b905082815260208101848484011115610a2057610a1f610931565b5b610a2b8482856109e2565b509392505050565b600082601f830112610a4857610a4761074c565b5b8135610a588482602086016109f1565b91505092915050565b600060208284031215610a7757610a76610742565b5b600082013567ffffffffffffffff811115610a9557610a94610747565b5b610aa184828501610a33565b91505092915050565b600073ffffffffffffffffffffffffffffffffffffffff82169050919050565b6000610ad582610aaa565b9050919050565b610ae581610aca565b82525050565b6000602082019050610b006000830184610adc565b92915050565b610b0f81610aca565b8114610b1a57600080fd5b50565b600081359050610b2c81610b06565b92915050565b600060208284031215610b4857610b47610742565b5b6000610b5684828501610b1d565b91505092915050565b600081905092915050565b6000610b768385610b5f565b9350610b838385846109e2565b82840190509392505050565b6000610b9c828486610b6a565b91508190509392505050565b600082905092915050565b7f4e487b7100000000000000000000000000000000000000000000000000000000600052602260045260246000fd5b60006002820490506001821680610bfa57607f821691505b602082108103610c0d57610c0c610bb3565b5b50919050565b60008190508160005260206000209050919050565b60006020601f8301049050919050565b600082821b905092915050565b600060088302610c757fffffffffffffffffffffffffffffffffffffffffffffffffffffffffffffffff82610c38565b610c7f8683610c38565b95508019841693508086168417925050509392505050565b6000819050919050565b6000819050919050565b6000610cc6610cc1610cbc84610c97565b610ca1565b610c97565b9050919050565b6000819050919050565b610ce083610cab565b610cf4610cec82610ccd565b848454610c45565b825550505050565b600090565b610d09610cfc565b610d14818484610cd7565b505050565b5b81811015610d3857610d2d600082610d01565b600181019050610d1a565b5050565b601f821115610d7d57610d4e81610c13565b610d5784610c28565b81016020851015610d66578190505b610d7a610d7285610c28565b830182610d19565b50505b505050565b600082821c905092915050565b6000610da060001984600802610d82565b1980831691505092915050565b6000610db98383610d8f565b9150826002028217905092915050565b610dd38383610ba8565b67ffffffffffffffff811115610dec57610deb610936565b5b610df68254610be2565b610e01828285610d3c565b6000601f831160018114610e305760008415610e1e578287013590505b610e288582610dad565b865550610e90565b601f198416610e3e86610c13565b60005b82811015610e6657848901358255600182019150602085019450602081019050610e41565b86831015610e835784890135610e7f601f891682610d8f565b8355505b6001600288020188555050505b5050505050505056fea264697066735822122096eecb887d2a6c4d900235ff169db616fa4d6b6224aae8faed55dce6f70a75be64736f6c634300081400335365637572697469657320726567756c6174696f6e7320676f7665726e207468652073616c6520616e6420646973747269627574696f6e206f6620696e766573746d656e742070726f64756374732c20696e636c7564696e67206469676974616c20617373657473207375636820617320746f6b656e732e20436f6d706c69616e6365207769746820746865736520726567756c6174696f6e732068656c70732070726f7465637420696e766573746f727320616e6420656e7375726573206661697220616e64207472616e73706172656e74206d61726b6574732e54617820726567756c6174696f6e7320676f7665726e20746865207461786174696f6e206f662063727970746f63757272656e6379207472616e73616374696f6e732c20696e636c7564696e6720627579696e672c2073656c6c696e672c20616e642074726164696e67206469676974616c206173736574732e20556e6465727374616e64696e6720796f757220746178206f626c69676174696f6e7320697320696d706f7274616e7420746f20656e7375726520636f6d706c69616e6365207769746820746865206c61772e416e74692d4d6f6e6579204c61756e646572696e672028414d4c2920616e64204b6e6f7720596f757220437573746f6d657220284b59432920726567756c6174696f6e73207265717569726520757320746f2076657269667920796f7572206964656e7469747920616e64206d6f6e69746f72207472616e73616374696f6e7320746f2070726576656e7420696c6c6567616c20616374697669746965732073756368206173206d6f6e6579206c61756e646572696e6720616e6420746572726f726973742066696e616e63696e672e41206c6f636b20706572696f642077696c6c20626520696e6974696174656420666f7220616e20616d6f756e74206f6620243330303020666f72206f6e6520796561722e20416c6c2044414f73206765747320746f20736861726520333025206f662074686520746f74616c20636f6d706c657465206f6e2065616368207072697a6520646973747269627574696f6e2e20412044414f2063616e206561726e206d6f7265207768656e206869732070726f706f73616c2069732061636365707465642e204265666f72652070726f706f73696e67206120627573696e65737320696465612077697468696e207468652044414f2c206d656d626572732073686f756c6420636f6e647563742074686f726f756768206475652064696c6967656e636520746f2061737365737320706f74656e7469616c207269736b7320616e6420656e73757265207468652076696162696c697479206f66207468652070726f706f73616c2e2044414f2066756e647320617265206174207269736b2c20616e6420696d70726f7065722070726f706f73616c73206d6179206c65616420746f206c6f7373657320666f722074686520636f6d6d756e6974792e204d656d6265727320666f756e6420746f2068617665206b6e6f77696e676c792070726f706f736564206672617564756c656e74206f72207269736b792076656e7475726573206d617920666163652070656e616c746965732c20696e636c7564696e67206c6f7373206f6620746f6b656e73206f7220657870756c73696f6e2066726f6d207468652044414f2e",
  "linkReferences": {},
  "deployedLinkReferences": {}
}