{
  "_format": "hh-sol-artifact-1",
  "contractName": "DAOGovernance",
  "sourceName": "contracts/DAOGovernance.sol",
  "abi": [
    {
      "inputs": [
        {
          "internalType": "address",
          "name": "_savingsContractAddress",
          "type": "address"
        }
      ],
      "stateMutability": "nonpayable",
      "type": "constructor"
    },
    {
      "inputs": [
        {
          "internalType": "address",
          "name": "owner",
          "type": "address"
        }
      ],
      "name": "OwnableInvalidOwner",
      "type": "error"
    },
    {
      "inputs": [
        {
          "internalType": "address",
          "name": "account",
          "type": "address"
        }
      ],
      "name": "OwnableUnauthorizedAccount",
      "type": "error"
    },
    {
      "anonymous": false,
      "inputs": [
        {
          "indexed": false,
          "internalType": "address",
          "name": "member",
          "type": "address"
        }
      ],
      "name": "MemberAdded",
      "type": "event"
    },
    {
      "anonymous": false,
      "inputs": [
        {
          "indexed": false,
          "internalType": "address",
          "name": "member",
          "type": "address"
        }
      ],
      "name": "MemberRemoved",
      "type": "event"
    },
    {
      "anonymous": false,
      "inputs": [
        {
          "indexed": true,
          "internalType": "address",
          "name": "previousOwner",
          "type": "address"
        },
        {
          "indexed": true,
          "internalType": "address",
          "name": "newOwner",
          "type": "address"
        }
      ],
      "name": "OwnershipTransferred",
      "type": "event"
    },
    {
      "anonymous": false,
      "inputs": [
        {
          "indexed": false,
          "internalType": "uint256",
          "name": "proposalId",
          "type": "uint256"
        },
        {
          "indexed": false,
          "internalType": "string",
          "name": "description",
          "type": "string"
        }
      ],
      "name": "ProposalCreated",
      "type": "event"
    },
    {
      "anonymous": false,
      "inputs": [
        {
          "indexed": false,
          "internalType": "uint256",
          "name": "proposalId",
          "type": "uint256"
        }
      ],
      "name": "ProposalPassed",
      "type": "event"
    },
    {
      "anonymous": false,
      "inputs": [
        {
          "indexed": false,
          "internalType": "uint256",
          "name": "proposalId",
          "type": "uint256"
        },
        {
          "indexed": false,
          "internalType": "address",
          "name": "voter",
          "type": "address"
        },
        {
          "indexed": false,
          "internalType": "uint256",
          "name": "votes",
          "type": "uint256"
        }
      ],
      "name": "Voted",
      "type": "event"
    },
    {
      "inputs": [],
      "name": "MAX_VOTING_DURATION",
      "outputs": [
        {
          "internalType": "uint256",
          "name": "",
          "type": "uint256"
        }
      ],
      "stateMutability": "view",
      "type": "function"
    },
    {
      "inputs": [],
      "name": "MIN_VOTING_DURATION",
      "outputs": [
        {
          "internalType": "uint256",
          "name": "",
          "type": "uint256"
        }
      ],
      "stateMutability": "view",
      "type": "function"
    },
    {
      "inputs": [],
      "name": "acceptedDAO",
      "outputs": [
        {
          "internalType": "address",
          "name": "",
          "type": "address"
        }
      ],
      "stateMutability": "view",
      "type": "function"
    },
    {
      "inputs": [
        {
          "internalType": "address",
          "name": "member",
          "type": "address"
        }
      ],
      "name": "addMember",
      "outputs": [],
      "stateMutability": "nonpayable",
      "type": "function"
    },
    {
      "inputs": [
        {
          "internalType": "address",
          "name": "_regulatoryCompliance",
          "type": "address"
        }
      ],
      "name": "bindAddress",
      "outputs": [],
      "stateMutability": "nonpayable",
      "type": "function"
    },
    {
      "inputs": [],
      "name": "getCurrentProposer",
      "outputs": [
        {
          "internalType": "address",
          "name": "",
          "type": "address"
        }
      ],
      "stateMutability": "view",
      "type": "function"
    },
    {
      "inputs": [],
      "name": "getDAOAddresses",
      "outputs": [
        {
          "internalType": "address[]",
          "name": "",
          "type": "address[]"
        }
      ],
      "stateMutability": "view",
      "type": "function"
    },
    {
      "inputs": [],
      "name": "getNumberOfMembers",
      "outputs": [
        {
          "internalType": "uint256",
          "name": "",
          "type": "uint256"
        }
      ],
      "stateMutability": "view",
      "type": "function"
    },
    {
      "inputs": [
        {
          "internalType": "uint256",
          "name": "proposalId",
          "type": "uint256"
        }
      ],
      "name": "getProposalStatus",
      "outputs": [
        {
          "internalType": "string",
          "name": "description",
          "type": "string"
        },
        {
          "internalType": "uint256",
          "name": "totalVotes",
          "type": "uint256"
        },
        {
          "internalType": "uint256",
          "name": "requiredVotes",
          "type": "uint256"
        },
        {
          "internalType": "uint256",
          "name": "endTime",
          "type": "uint256"
        },
        {
          "internalType": "bool",
          "name": "active",
          "type": "bool"
        },
        {
          "internalType": "bool",
          "name": "acceptWithdrawal",
          "type": "bool"
        }
      ],
      "stateMutability": "view",
      "type": "function"
    },
    {
      "inputs": [],
      "name": "owner",
      "outputs": [
        {
          "internalType": "address",
          "name": "",
          "type": "address"
        }
      ],
      "stateMutability": "view",
      "type": "function"
    },
    {
      "inputs": [],
      "name": "proposalCount",
      "outputs": [
        {
          "internalType": "uint256",
          "name": "",
          "type": "uint256"
        }
      ],
      "stateMutability": "view",
      "type": "function"
    },
    {
      "inputs": [
        {
          "internalType": "uint256",
          "name": "",
          "type": "uint256"
        }
      ],
      "name": "proposals",
      "outputs": [
        {
          "internalType": "address",
          "name": "proposer",
          "type": "address"
        },
        {
          "internalType": "string",
          "name": "description",
          "type": "string"
        },
        {
          "internalType": "uint256",
          "name": "totalVotes",
          "type": "uint256"
        },
        {
          "internalType": "uint256",
          "name": "requiredVotes",
          "type": "uint256"
        },
        {
          "internalType": "uint256",
          "name": "endTime",
          "type": "uint256"
        },
        {
          "internalType": "bool",
          "name": "active",
          "type": "bool"
        },
        {
          "internalType": "bool",
          "name": "acceptWithdrawal",
          "type": "bool"
        },
        {
          "internalType": "bool",
          "name": "amountWithdrawn",
          "type": "bool"
        }
      ],
      "stateMutability": "view",
      "type": "function"
    },
    {
      "inputs": [
        {
          "internalType": "string",
          "name": "description",
          "type": "string"
        },
        {
          "internalType": "uint256",
          "name": "duration",
          "type": "uint256"
        }
      ],
      "name": "proposeActivity",
      "outputs": [],
      "stateMutability": "nonpayable",
      "type": "function"
    },
    {
      "inputs": [
        {
          "internalType": "address",
          "name": "user",
          "type": "address"
        }
      ],
      "name": "proposeMembership",
      "outputs": [],
      "stateMutability": "nonpayable",
      "type": "function"
    },
    {
      "inputs": [],
      "name": "regulatoryCompliance",
      "outputs": [
        {
          "internalType": "address",
          "name": "",
          "type": "address"
        }
      ],
      "stateMutability": "view",
      "type": "function"
    },
    {
      "inputs": [
        {
          "internalType": "address",
          "name": "member",
          "type": "address"
        }
      ],
      "name": "removeMember",
      "outputs": [],
      "stateMutability": "nonpayable",
      "type": "function"
    },
    {
      "inputs": [],
      "name": "renounceOwnership",
      "outputs": [],
      "stateMutability": "nonpayable",
      "type": "function"
    },
    {
      "inputs": [],
      "name": "totalMembers",
      "outputs": [
        {
          "internalType": "uint256",
          "name": "",
          "type": "uint256"
        }
      ],
      "stateMutability": "view",
      "type": "function"
    },
    {
      "inputs": [],
      "name": "totalVotingPower",
      "outputs": [
        {
          "internalType": "uint256",
          "name": "",
          "type": "uint256"
        }
      ],
      "stateMutability": "view",
      "type": "function"
    },
    {
      "inputs": [
        {
          "internalType": "address",
          "name": "newOwner",
          "type": "address"
        }
      ],
      "name": "transferOwnership",
      "outputs": [],
      "stateMutability": "nonpayable",
      "type": "function"
    },
    {
      "inputs": [
        {
          "internalType": "uint256",
          "name": "proposalId",
          "type": "uint256"
        },
        {
          "internalType": "bool",
          "name": "support",
          "type": "bool"
        }
      ],
      "name": "voteOnProposal",
      "outputs": [],
      "stateMutability": "nonpayable",
      "type": "function"
    }
  ],
  "bytecode": "0x60806040523480156200001157600080fd5b5060405162002b9438038062002b94833981810160405281019062000037919062000235565b33600073ffffffffffffffffffffffffffffffffffffffff168173ffffffffffffffffffffffffffffffffffffffff1603620000ad5760006040517f1e4fbdf7000000000000000000000000000000000000000000000000000000008152600401620000a4919062000278565b60405180910390fd5b620000be816200010760201b60201c565b5080600260006101000a81548173ffffffffffffffffffffffffffffffffffffffff021916908373ffffffffffffffffffffffffffffffffffffffff1602179055505062000295565b60008060009054906101000a900473ffffffffffffffffffffffffffffffffffffffff169050816000806101000a81548173ffffffffffffffffffffffffffffffffffffffff021916908373ffffffffffffffffffffffffffffffffffffffff1602179055508173ffffffffffffffffffffffffffffffffffffffff168173ffffffffffffffffffffffffffffffffffffffff167f8be0079c531659141344cd1fd0a4f28419497f9722a3daafe3b4186f6b6457e060405160405180910390a35050565b600080fd5b600073ffffffffffffffffffffffffffffffffffffffff82169050919050565b6000620001fd82620001d0565b9050919050565b6200020f81620001f0565b81146200021b57600080fd5b50565b6000815190506200022f8162000204565b92915050565b6000602082840312156200024e576200024d620001cb565b5b60006200025e848285016200021e565b91505092915050565b6200027281620001f0565b82525050565b60006020820190506200028f600083018462000267565b92915050565b6128ef80620002a56000396000f3fe608060405234801561001057600080fd5b50600436106101375760003560e01c806384d1360b116100b8578063d211bc3f1161007c578063d211bc3f14610310578063da35c6641461032e578063eaf1061c1461034c578063eefe85e41461036a578063f2fde38b14610388578063f7a829d0146103a457610137565b806384d1360b1461027e5780638b73a46b1461029c5780638da5cb5b146102ba578063c76ea978146102d8578063ca6d56dc146102f457610137565b80633b177803116100ff5780633b177803146101e5578063401853b714610203578063671b379314610238578063715018a61461025657806376e925591461026057610137565b8063013cf08b1461013c5780630554e94e146101735780630b1ca49a1461018f5780631614665c146101ab5780633b10244b146101c7575b600080fd5b61015660048036038101906101519190611790565b6103c0565b60405161016a9897969594939291906118b8565b60405180910390f35b61018d60048036038101906101889190611a72565b6104d7565b005b6101a960048036038101906101a49190611afa565b610621565b005b6101c560048036038101906101c09190611b53565b6107a5565b005b6101cf610cc3565b6040516101dc9190611b93565b60405180910390f35b6101ed610ced565b6040516101fa9190611b93565b60405180910390f35b61021d60048036038101906102189190611790565b610d13565b60405161022f96959493929190611bae565b60405180910390f35b610240610e0c565b60405161024d9190611c16565b60405180910390f35b61025e610e12565b005b610268610e26565b6040516102759190611c16565b60405180910390f35b610286610e2c565b6040516102939190611b93565b60405180910390f35b6102a4610e52565b6040516102b19190611c16565b60405180910390f35b6102c2610e5c565b6040516102cf9190611b93565b60405180910390f35b6102f260048036038101906102ed9190611afa565b610e85565b005b61030e60048036038101906103099190611afa565b610ed1565b005b610318610ee5565b6040516103259190611cef565b60405180910390f35b610336610f73565b6040516103439190611c16565b60405180910390f35b610354610f79565b6040516103619190611c16565b60405180910390f35b610372610f80565b60405161037f9190611c16565b60405180910390f35b6103a2600480360381019061039d9190611afa565b610f87565b005b6103be60048036038101906103b99190611afa565b61100d565b005b60046020528060005260406000206000915090508060000160009054906101000a900473ffffffffffffffffffffffffffffffffffffffff169080600101805461040990611d40565b80601f016020809104026020016040519081016040528092919081815260200182805461043590611d40565b80156104825780601f1061045757610100808354040283529160200191610482565b820191906000526020600020905b81548152906001019060200180831161046557829003601f168201915b5050505050908060020154908060030154908060040154908060050160009054906101000a900460ff16908060050160019054906101000a900460ff16908060050160029054906101000a900460ff16905088565b600260009054906101000a900473ffffffffffffffffffffffffffffffffffffffff1673ffffffffffffffffffffffffffffffffffffffff166350435fa4336040518263ffffffff1660e01b81526004016105329190611b93565b602060405180830381865afa15801561054f573d6000803e3d6000fd5b505050506040513d601f19601f820116820180604052508101906105739190611d86565b6105b2576040517f08c379a00000000000000000000000000000000000000000000000000000000081526004016105a990611e25565b60405180910390fd5b6201518081101580156105c8575062093a808111155b610607576040517f08c379a00000000000000000000000000000000000000000000000000000000081526004016105fe90611e91565b60405180910390fd5b61061d338383426106189190611ee0565b6110ee565b5050565b610629611223565b600260009054906101000a900473ffffffffffffffffffffffffffffffffffffffff1673ffffffffffffffffffffffffffffffffffffffff166350435fa4826040518263ffffffff1660e01b81526004016106849190611b93565b602060405180830381865afa1580156106a1573d6000803e3d6000fd5b505050506040513d601f19601f820116820180604052508101906106c59190611d86565b610704576040517f08c379a00000000000000000000000000000000000000000000000000000000081526004016106fb90611f60565b60405180910390fd5b600180548061071657610715611f80565b5b6001900381819060005260206000200160006101000a81549073ffffffffffffffffffffffffffffffffffffffff021916905590556006600081548092919061075e90611faf565b919050555061076b6112aa565b7f6e76fb4c77256006d9c38ec7d82b45a8c8f3c27b1d6766fffc42dfb8de6844928160405161079a9190611b93565b60405180910390a150565b816004600082815260200190815260200160002060050160009054906101000a900460ff16610809576040517f08c379a000000000000000000000000000000000000000000000000000000000815260040161080090612024565b60405180910390fd5b600260009054906101000a900473ffffffffffffffffffffffffffffffffffffffff1673ffffffffffffffffffffffffffffffffffffffff166350435fa4336040518263ffffffff1660e01b81526004016108649190611b93565b602060405180830381865afa158015610881573d6000803e3d6000fd5b505050506040513d601f19601f820116820180604052508101906108a59190611d86565b6108e4576040517f08c379a00000000000000000000000000000000000000000000000000000000081526004016108db90612090565b60405180910390fd5b60006004600085815260200190815260200160002090508060060160003373ffffffffffffffffffffffffffffffffffffffff1673ffffffffffffffffffffffffffffffffffffffff16815260200190815260200160002060009054906101000a900460ff161561098a576040517f08c379a0000000000000000000000000000000000000000000000000000000008152600401610981906120fc565b60405180910390fd5b806004015442106109d0576040517f08c379a00000000000000000000000000000000000000000000000000000000081526004016109c790612168565b60405180910390fd5b6000600260009054906101000a900473ffffffffffffffffffffffffffffffffffffffff1673ffffffffffffffffffffffffffffffffffffffff166347734892336040518263ffffffff1660e01b8152600401610a2d9190611b93565b6040805180830381865afa158015610a49573d6000803e3d6000fd5b505050506040513d601f19601f82011682018060405250810190610a6d919061219d565b509050600063b2d05e0082610a82919061220c565b9050848015610a915750600081115b15610c615780836002016000828254610aaa9190611ee0565b925050819055507f1abe610cf2bf87e57dcc1181fcf5ac0934e843d8344ab9eed6e86c799f62585e863383604051610ae49392919061223d565b60405180910390a18260030154836002015410610c605760008360050160006101000a81548160ff0219169083151502179055506040518060400160405280601b81526020017f4e65772044414f204d656d626572736869702050726f706f73616c00000000008152508051906020012083600101604051610b669190612317565b604051809103902003610ba557610ba08360000160009054906101000a900473ffffffffffffffffffffffffffffffffffffffff16611454565b610c28565b60018360050160016101000a81548160ff0219169083151502179055508260000160009054906101000a900473ffffffffffffffffffffffffffffffffffffffff16600860006101000a81548173ffffffffffffffffffffffffffffffffffffffff021916908373ffffffffffffffffffffffffffffffffffffffff1602179055505b7fe36f8b7448daff4a52e2945db0d1d7a436279cc1d527a45c27835dcbd27f336d86604051610c579190611c16565b60405180910390a15b5b60018360060160003373ffffffffffffffffffffffffffffffffffffffff1673ffffffffffffffffffffffffffffffffffffffff16815260200190815260200160002060006101000a81548160ff021916908315150217905550505050505050565b6000600860009054906101000a900473ffffffffffffffffffffffffffffffffffffffff16905090565b600360009054906101000a900473ffffffffffffffffffffffffffffffffffffffff1681565b6060600080600080600080600460008981526020019081526020016000209050806001018160020154826003015483600401548460050160009054906101000a900460ff168560050160019054906101000a900460ff16858054610d7690611d40565b80601f0160208091040260200160405190810160405280929190818152602001828054610da290611d40565b8015610def5780601f10610dc457610100808354040283529160200191610def565b820191906000526020600020905b815481529060010190602001808311610dd257829003601f168201915b505050505095509650965096509650965096505091939550919395565b60075481565b610e1a611223565b610e24600061167a565b565b60065481565b600860009054906101000a900473ffffffffffffffffffffffffffffffffffffffff1681565b6000600654905090565b60008060009054906101000a900473ffffffffffffffffffffffffffffffffffffffff16905090565b610e8d611223565b80600360006101000a81548173ffffffffffffffffffffffffffffffffffffffff021916908373ffffffffffffffffffffffffffffffffffffffff16021790555050565b610ed9611223565b610ee281611454565b50565b60606001805480602002602001604051908101604052809291908181526020018280548015610f6957602002820191906000526020600020905b8160009054906101000a900473ffffffffffffffffffffffffffffffffffffffff1673ffffffffffffffffffffffffffffffffffffffff1681526020019060010190808311610f1f575b5050505050905090565b60055481565b6201518081565b62093a8081565b610f8f611223565b600073ffffffffffffffffffffffffffffffffffffffff168173ffffffffffffffffffffffffffffffffffffffff16036110015760006040517f1e4fbdf7000000000000000000000000000000000000000000000000000000008152600401610ff89190611b93565b60405180910390fd5b61100a8161167a565b50565b600360009054906101000a900473ffffffffffffffffffffffffffffffffffffffff1673ffffffffffffffffffffffffffffffffffffffff163373ffffffffffffffffffffffffffffffffffffffff161461109d576040517f08c379a0000000000000000000000000000000000000000000000000000000008152600401611094906123a0565b60405180910390fd5b6110eb816040518060400160405280601b81526020017f4e65772044414f204d656d626572736869702050726f706f73616c000000000081525062093a80426110e69190611ee0565b6110ee565b50565b60006005600081546110ff906123c0565b91905081905590506000600460008381526020019081526020016000209050848160000160006101000a81548173ffffffffffffffffffffffffffffffffffffffff021916908373ffffffffffffffffffffffffffffffffffffffff1602179055508381600101908161117291906125b4565b50600081600201819055506003600260075461118e9190612686565b611198919061220c565b816003018190555082816004018190555060018160050160006101000a81548160ff02191690831515021790555060008160050160016101000a81548160ff0219169083151502179055507f9c770c289ab5bf7e57cb1d23c8ceae993aea46eb64847072fd3d78ca60d3e43282856040516112149291906126c8565b60405180910390a15050505050565b61122b61173e565b73ffffffffffffffffffffffffffffffffffffffff16611249610e5c565b73ffffffffffffffffffffffffffffffffffffffff16146112a85761126c61173e565b6040517f118cdaa700000000000000000000000000000000000000000000000000000000815260040161129f9190611b93565b60405180910390fd5b565b600080600260009054906101000a900473ffffffffffffffffffffffffffffffffffffffff1673ffffffffffffffffffffffffffffffffffffffff1663a04bfbfd6040518163ffffffff1660e01b8152600401600060405180830381865afa15801561131a573d6000803e3d6000fd5b505050506040513d6000823e3d601f19601f8201168201806040525081019061134391906127d5565b905060005b81518110156114485760008282815181106113665761136561281e565b5b602002602001015190506000600260009054906101000a900473ffffffffffffffffffffffffffffffffffffffff1673ffffffffffffffffffffffffffffffffffffffff166347734892836040518263ffffffff1660e01b81526004016113cd9190611b93565b6040805180830381865afa1580156113e9573d6000803e3d6000fd5b505050506040513d601f19601f8201168201806040525081019061140d919061219d565b509050600063b2d05e0082611422919061220c565b905080866114309190611ee0565b95505050508080611440906123c0565b915050611348565b50816007819055505050565b600260009054906101000a900473ffffffffffffffffffffffffffffffffffffffff1673ffffffffffffffffffffffffffffffffffffffff166350435fa4826040518263ffffffff1660e01b81526004016114af9190611b93565b602060405180830381865afa1580156114cc573d6000803e3d6000fd5b505050506040513d601f19601f820116820180604052508101906114f09190611d86565b15611530576040517f08c379a000000000000000000000000000000000000000000000000000000000815260040161152790612899565b60405180910390fd5b600260009054906101000a900473ffffffffffffffffffffffffffffffffffffffff1673ffffffffffffffffffffffffffffffffffffffff166394922348826040518263ffffffff1660e01b815260040161158b9190611b93565b600060405180830381600087803b1580156115a557600080fd5b505af11580156115b9573d6000803e3d6000fd5b505050506001819080600181540180825580915050600190039060005260206000200160009091909190916101000a81548173ffffffffffffffffffffffffffffffffffffffff021916908373ffffffffffffffffffffffffffffffffffffffff16021790555060066000815480929190611633906123c0565b91905055506116406112aa565b7fb251eb052afc73ffd02ffe85ad79990a8b3fed60d76dbc2fa2fdd7123dffd9148160405161166f9190611b93565b60405180910390a150565b60008060009054906101000a900473ffffffffffffffffffffffffffffffffffffffff169050816000806101000a81548173ffffffffffffffffffffffffffffffffffffffff021916908373ffffffffffffffffffffffffffffffffffffffff1602179055508173ffffffffffffffffffffffffffffffffffffffff168173ffffffffffffffffffffffffffffffffffffffff167f8be0079c531659141344cd1fd0a4f28419497f9722a3daafe3b4186f6b6457e060405160405180910390a35050565b600033905090565b6000604051905090565b600080fd5b600080fd5b6000819050919050565b61176d8161175a565b811461177857600080fd5b50565b60008135905061178a81611764565b92915050565b6000602082840312156117a6576117a5611750565b5b60006117b48482850161177b565b91505092915050565b600073ffffffffffffffffffffffffffffffffffffffff82169050919050565b60006117e8826117bd565b9050919050565b6117f8816117dd565b82525050565b600081519050919050565b600082825260208201905092915050565b60005b8381101561183857808201518184015260208101905061181d565b60008484015250505050565b6000601f19601f8301169050919050565b6000611860826117fe565b61186a8185611809565b935061187a81856020860161181a565b61188381611844565b840191505092915050565b6118978161175a565b82525050565b60008115159050919050565b6118b28161189d565b82525050565b6000610100820190506118ce600083018b6117ef565b81810360208301526118e0818a611855565b90506118ef604083018961188e565b6118fc606083018861188e565b611909608083018761188e565b61191660a08301866118a9565b61192360c08301856118a9565b61193060e08301846118a9565b9998505050505050505050565b600080fd5b600080fd5b7f4e487b7100000000000000000000000000000000000000000000000000000000600052604160045260246000fd5b61197f82611844565b810181811067ffffffffffffffff8211171561199e5761199d611947565b5b80604052505050565b60006119b1611746565b90506119bd8282611976565b919050565b600067ffffffffffffffff8211156119dd576119dc611947565b5b6119e682611844565b9050602081019050919050565b82818337600083830152505050565b6000611a15611a10846119c2565b6119a7565b905082815260208101848484011115611a3157611a30611942565b5b611a3c8482856119f3565b509392505050565b600082601f830112611a5957611a5861193d565b5b8135611a69848260208601611a02565b91505092915050565b60008060408385031215611a8957611a88611750565b5b600083013567ffffffffffffffff811115611aa757611aa6611755565b5b611ab385828601611a44565b9250506020611ac48582860161177b565b9150509250929050565b611ad7816117dd565b8114611ae257600080fd5b50565b600081359050611af481611ace565b92915050565b600060208284031215611b1057611b0f611750565b5b6000611b1e84828501611ae5565b91505092915050565b611b308161189d565b8114611b3b57600080fd5b50565b600081359050611b4d81611b27565b92915050565b60008060408385031215611b6a57611b69611750565b5b6000611b788582860161177b565b9250506020611b8985828601611b3e565b9150509250929050565b6000602082019050611ba860008301846117ef565b92915050565b600060c0820190508181036000830152611bc88189611855565b9050611bd7602083018861188e565b611be4604083018761188e565b611bf1606083018661188e565b611bfe60808301856118a9565b611c0b60a08301846118a9565b979650505050505050565b6000602082019050611c2b600083018461188e565b92915050565b600081519050919050565b600082825260208201905092915050565b6000819050602082019050919050565b611c66816117dd565b82525050565b6000611c788383611c5d565b60208301905092915050565b6000602082019050919050565b6000611c9c82611c31565b611ca68185611c3c565b9350611cb183611c4d565b8060005b83811015611ce2578151611cc98882611c6c565b9750611cd483611c84565b925050600181019050611cb5565b5085935050505092915050565b60006020820190508181036000830152611d098184611c91565b905092915050565b7f4e487b7100000000000000000000000000000000000000000000000000000000600052602260045260246000fd5b60006002820490506001821680611d5857607f821691505b602082108103611d6b57611d6a611d11565b5b50919050565b600081519050611d8081611b27565b92915050565b600060208284031215611d9c57611d9b611750565b5b6000611daa84828501611d71565b91505092915050565b7f4f6e6c792044414f206d656d626572732063616e2070726f706f73652061637460008201527f69766974792e0000000000000000000000000000000000000000000000000000602082015250565b6000611e0f602683611809565b9150611e1a82611db3565b604082019050919050565b60006020820190508181036000830152611e3e81611e02565b9050919050565b7f496e76616c696420766f74696e67206475726174696f6e000000000000000000600082015250565b6000611e7b601783611809565b9150611e8682611e45565b602082019050919050565b60006020820190508181036000830152611eaa81611e6e565b9050919050565b7f4e487b7100000000000000000000000000000000000000000000000000000000600052601160045260246000fd5b6000611eeb8261175a565b9150611ef68361175a565b9250828201905080821115611f0e57611f0d611eb1565b5b92915050565b7f4e6f7420612044414f206d656d62657200000000000000000000000000000000600082015250565b6000611f4a601083611809565b9150611f5582611f14565b602082019050919050565b60006020820190508181036000830152611f7981611f3d565b9050919050565b7f4e487b7100000000000000000000000000000000000000000000000000000000600052603160045260246000fd5b6000611fba8261175a565b915060008203611fcd57611fcc611eb1565b5b600182039050919050565b7f50726f706f73616c206973206e6f742061637469766500000000000000000000600082015250565b600061200e601683611809565b915061201982611fd8565b602082019050919050565b6000602082019050818103600083015261203d81612001565b9050919050565b7f4f6e6c792044414f206d656d626572732063616e20766f746500000000000000600082015250565b600061207a601983611809565b915061208582612044565b602082019050919050565b600060208201905081810360008301526120a98161206d565b9050919050565b7f416c726561647920766f74656400000000000000000000000000000000000000600082015250565b60006120e6600d83611809565b91506120f1826120b0565b602082019050919050565b60006020820190508181036000830152612115816120d9565b9050919050565b7f566f74696e6720706572696f642068617320656e646564000000000000000000600082015250565b6000612152601783611809565b915061215d8261211c565b602082019050919050565b6000602082019050818103600083015261218181612145565b9050919050565b60008151905061219781611764565b92915050565b600080604083850312156121b4576121b3611750565b5b60006121c285828601612188565b92505060206121d385828601612188565b9150509250929050565b7f4e487b7100000000000000000000000000000000000000000000000000000000600052601260045260246000fd5b60006122178261175a565b91506122228361175a565b925082612232576122316121dd565b5b828204905092915050565b6000606082019050612252600083018661188e565b61225f60208301856117ef565b61226c604083018461188e565b949350505050565b600081905092915050565b60008190508160005260206000209050919050565b600081546122a181611d40565b6122ab8186612274565b945060018216600081146122c657600181146122db5761230e565b60ff198316865281151582028601935061230e565b6122e48561227f565b60005b83811015612306578154818901526001820191506020810190506122e7565b838801955050505b50505092915050565b60006123238284612294565b915081905092915050565b7f4f6e6c7920726567756c61746f7279436f6d706c69616e636520636f6e74726160008201527f63742063616e2063616c6c20746869732066756e6374696f6e00000000000000602082015250565b600061238a603983611809565b91506123958261232e565b604082019050919050565b600060208201905081810360008301526123b98161237d565b9050919050565b60006123cb8261175a565b91507fffffffffffffffffffffffffffffffffffffffffffffffffffffffffffffffff82036123fd576123fc611eb1565b5b600182019050919050565b60008190508160005260206000209050919050565b60006020601f8301049050919050565b600082821b905092915050565b60006008830261246a7fffffffffffffffffffffffffffffffffffffffffffffffffffffffffffffffff8261242d565b612474868361242d565b95508019841693508086168417925050509392505050565b6000819050919050565b60006124b16124ac6124a78461175a565b61248c565b61175a565b9050919050565b6000819050919050565b6124cb83612496565b6124df6124d7826124b8565b84845461243a565b825550505050565b600090565b6124f46124e7565b6124ff8184846124c2565b505050565b5b81811015612523576125186000826124ec565b600181019050612505565b5050565b601f8211156125685761253981612408565b6125428461241d565b81016020851015612551578190505b61256561255d8561241d565b830182612504565b50505b505050565b600082821c905092915050565b600061258b6000198460080261256d565b1980831691505092915050565b60006125a4838361257a565b9150826002028217905092915050565b6125bd826117fe565b67ffffffffffffffff8111156125d6576125d5611947565b5b6125e08254611d40565b6125eb828285612527565b600060209050601f83116001811461261e576000841561260c578287015190505b6126168582612598565b86555061267e565b601f19841661262c86612408565b60005b828110156126545784890151825560018201915060208501945060208101905061262f565b86831015612671578489015161266d601f89168261257a565b8355505b6001600288020188555050505b505050505050565b60006126918261175a565b915061269c8361175a565b92508282026126aa8161175a565b915082820484148315176126c1576126c0611eb1565b5b5092915050565b60006040820190506126dd600083018561188e565b81810360208301526126ef8184611855565b90509392505050565b600067ffffffffffffffff82111561271357612712611947565b5b602082029050602081019050919050565b600080fd5b60008151905061273881611ace565b92915050565b600061275161274c846126f8565b6119a7565b9050808382526020820190506020840283018581111561277457612773612724565b5b835b8181101561279d57806127898882612729565b845260208401935050602081019050612776565b5050509392505050565b600082601f8301126127bc576127bb61193d565b5b81516127cc84826020860161273e565b91505092915050565b6000602082840312156127eb576127ea611750565b5b600082015167ffffffffffffffff81111561280957612808611755565b5b612815848285016127a7565b91505092915050565b7f4e487b7100000000000000000000000000000000000000000000000000000000600052603260045260246000fd5b7f416c726561647920612044414f206d656d626572000000000000000000000000600082015250565b6000612883601483611809565b915061288e8261284d565b602082019050919050565b600060208201905081810360008301526128b281612876565b905091905056fea2646970667358221220b85ec97db7d6ec90fbdb7ac9a13291d3e643ccf39b945c675351354959107b6664736f6c63430008140033",
  "linkReferences": {},
  "deployedLinkReferences": {}
}