{
  "_format": "hh-sol-artifact-1",
  "contractName": "DAOGovernance",
  "sourceName": "contracts/DAOGovernance.sol",
  "abi": [
    {
      "inputs": [
        {
          "internalType": "address",
          "name": "_savingsContractAddress",
          "type": "address"
        }
      ],
      "stateMutability": "nonpayable",
      "type": "constructor"
    },
    {
      "inputs": [
        {
          "internalType": "address",
          "name": "owner",
          "type": "address"
        }
      ],
      "name": "OwnableInvalidOwner",
      "type": "error"
    },
    {
      "inputs": [
        {
          "internalType": "address",
          "name": "account",
          "type": "address"
        }
      ],
      "name": "OwnableUnauthorizedAccount",
      "type": "error"
    },
    {
      "anonymous": false,
      "inputs": [
        {
          "indexed": false,
          "internalType": "address",
          "name": "member",
          "type": "address"
        }
      ],
      "name": "MemberAdded",
      "type": "event"
    },
    {
      "anonymous": false,
      "inputs": [
        {
          "indexed": false,
          "internalType": "address",
          "name": "member",
          "type": "address"
        }
      ],
      "name": "MemberRemoved",
      "type": "event"
    },
    {
      "anonymous": false,
      "inputs": [
        {
          "indexed": true,
          "internalType": "address",
          "name": "previousOwner",
          "type": "address"
        },
        {
          "indexed": true,
          "internalType": "address",
          "name": "newOwner",
          "type": "address"
        }
      ],
      "name": "OwnershipTransferred",
      "type": "event"
    },
    {
      "anonymous": false,
      "inputs": [
        {
          "indexed": false,
          "internalType": "uint256",
          "name": "proposalId",
          "type": "uint256"
        },
        {
          "indexed": false,
          "internalType": "string",
          "name": "description",
          "type": "string"
        }
      ],
      "name": "ProposalCreated",
      "type": "event"
    },
    {
      "anonymous": false,
      "inputs": [
        {
          "indexed": false,
          "internalType": "uint256",
          "name": "proposalId",
          "type": "uint256"
        }
      ],
      "name": "ProposalPassed",
      "type": "event"
    },
    {
      "anonymous": false,
      "inputs": [
        {
          "indexed": false,
          "internalType": "uint256",
          "name": "proposalId",
          "type": "uint256"
        },
        {
          "indexed": false,
          "internalType": "address",
          "name": "voter",
          "type": "address"
        },
        {
          "indexed": false,
          "internalType": "uint256",
          "name": "votes",
          "type": "uint256"
        }
      ],
      "name": "Voted",
      "type": "event"
    },
    {
      "inputs": [],
      "name": "MAX_VOTING_DURATION",
      "outputs": [
        {
          "internalType": "uint256",
          "name": "",
          "type": "uint256"
        }
      ],
      "stateMutability": "view",
      "type": "function"
    },
    {
      "inputs": [],
      "name": "MIN_VOTING_DURATION",
      "outputs": [
        {
          "internalType": "uint256",
          "name": "",
          "type": "uint256"
        }
      ],
      "stateMutability": "view",
      "type": "function"
    },
    {
      "inputs": [],
      "name": "acceptedDAO",
      "outputs": [
        {
          "internalType": "address",
          "name": "",
          "type": "address"
        }
      ],
      "stateMutability": "view",
      "type": "function"
    },
    {
      "inputs": [
        {
          "internalType": "address",
          "name": "member",
          "type": "address"
        }
      ],
      "name": "addMember",
      "outputs": [],
      "stateMutability": "nonpayable",
      "type": "function"
    },
    {
      "inputs": [
        {
          "internalType": "address",
          "name": "_regulatoryCompliance",
          "type": "address"
        }
      ],
      "name": "bindAddress",
      "outputs": [],
      "stateMutability": "nonpayable",
      "type": "function"
    },
    {
      "inputs": [],
      "name": "getCurrentProposer",
      "outputs": [
        {
          "internalType": "address",
          "name": "",
          "type": "address"
        }
      ],
      "stateMutability": "view",
      "type": "function"
    },
    {
      "inputs": [],
      "name": "getDAOAddresses",
      "outputs": [
        {
          "internalType": "address[]",
          "name": "",
          "type": "address[]"
        }
      ],
      "stateMutability": "view",
      "type": "function"
    },
    {
      "inputs": [],
      "name": "getNumberOfMembers",
      "outputs": [
        {
          "internalType": "uint256",
          "name": "",
          "type": "uint256"
        }
      ],
      "stateMutability": "view",
      "type": "function"
    },
    {
      "inputs": [
        {
          "internalType": "uint256",
          "name": "proposalId",
          "type": "uint256"
        }
      ],
      "name": "getProposalStatus",
      "outputs": [
        {
          "internalType": "string",
          "name": "description",
          "type": "string"
        },
        {
          "internalType": "uint256",
          "name": "totalVotes",
          "type": "uint256"
        },
        {
          "internalType": "uint256",
          "name": "requiredVotes",
          "type": "uint256"
        },
        {
          "internalType": "uint256",
          "name": "endTime",
          "type": "uint256"
        },
        {
          "internalType": "bool",
          "name": "active",
          "type": "bool"
        }
      ],
      "stateMutability": "view",
      "type": "function"
    },
    {
      "inputs": [],
      "name": "owner",
      "outputs": [
        {
          "internalType": "address",
          "name": "",
          "type": "address"
        }
      ],
      "stateMutability": "view",
      "type": "function"
    },
    {
      "inputs": [],
      "name": "proposalCount",
      "outputs": [
        {
          "internalType": "uint256",
          "name": "",
          "type": "uint256"
        }
      ],
      "stateMutability": "view",
      "type": "function"
    },
    {
      "inputs": [
        {
          "internalType": "uint256",
          "name": "",
          "type": "uint256"
        }
      ],
      "name": "proposals",
      "outputs": [
        {
          "internalType": "address",
          "name": "proposer",
          "type": "address"
        },
        {
          "internalType": "string",
          "name": "description",
          "type": "string"
        },
        {
          "internalType": "uint256",
          "name": "totalVotes",
          "type": "uint256"
        },
        {
          "internalType": "uint256",
          "name": "requiredVotes",
          "type": "uint256"
        },
        {
          "internalType": "uint256",
          "name": "endTime",
          "type": "uint256"
        },
        {
          "internalType": "bool",
          "name": "active",
          "type": "bool"
        }
      ],
      "stateMutability": "view",
      "type": "function"
    },
    {
      "inputs": [
        {
          "internalType": "string",
          "name": "description",
          "type": "string"
        },
        {
          "internalType": "uint256",
          "name": "duration",
          "type": "uint256"
        }
      ],
      "name": "proposeActivity",
      "outputs": [],
      "stateMutability": "nonpayable",
      "type": "function"
    },
    {
      "inputs": [
        {
          "internalType": "address",
          "name": "user",
          "type": "address"
        }
      ],
      "name": "proposeMembership",
      "outputs": [],
      "stateMutability": "nonpayable",
      "type": "function"
    },
    {
      "inputs": [],
      "name": "regulatoryCompliance",
      "outputs": [
        {
          "internalType": "address",
          "name": "",
          "type": "address"
        }
      ],
      "stateMutability": "view",
      "type": "function"
    },
    {
      "inputs": [
        {
          "internalType": "address",
          "name": "member",
          "type": "address"
        }
      ],
      "name": "removeMember",
      "outputs": [],
      "stateMutability": "nonpayable",
      "type": "function"
    },
    {
      "inputs": [],
      "name": "renounceOwnership",
      "outputs": [],
      "stateMutability": "nonpayable",
      "type": "function"
    },
    {
      "inputs": [],
      "name": "totalMembers",
      "outputs": [
        {
          "internalType": "uint256",
          "name": "",
          "type": "uint256"
        }
      ],
      "stateMutability": "view",
      "type": "function"
    },
    {
      "inputs": [],
      "name": "totalVotingPower",
      "outputs": [
        {
          "internalType": "uint256",
          "name": "",
          "type": "uint256"
        }
      ],
      "stateMutability": "view",
      "type": "function"
    },
    {
      "inputs": [
        {
          "internalType": "address",
          "name": "newOwner",
          "type": "address"
        }
      ],
      "name": "transferOwnership",
      "outputs": [],
      "stateMutability": "nonpayable",
      "type": "function"
    },
    {
      "inputs": [
        {
          "internalType": "uint256",
          "name": "proposalId",
          "type": "uint256"
        },
        {
          "internalType": "bool",
          "name": "support",
          "type": "bool"
        }
      ],
      "name": "voteOnProposal",
      "outputs": [],
      "stateMutability": "nonpayable",
      "type": "function"
    }
  ],
  "bytecode": "0x60806040523480156200001157600080fd5b5060405162002af138038062002af1833981810160405281019062000037919062000235565b33600073ffffffffffffffffffffffffffffffffffffffff168173ffffffffffffffffffffffffffffffffffffffff1603620000ad5760006040517f1e4fbdf7000000000000000000000000000000000000000000000000000000008152600401620000a4919062000278565b60405180910390fd5b620000be816200010760201b60201c565b5080600260006101000a81548173ffffffffffffffffffffffffffffffffffffffff021916908373ffffffffffffffffffffffffffffffffffffffff1602179055505062000295565b60008060009054906101000a900473ffffffffffffffffffffffffffffffffffffffff169050816000806101000a81548173ffffffffffffffffffffffffffffffffffffffff021916908373ffffffffffffffffffffffffffffffffffffffff1602179055508173ffffffffffffffffffffffffffffffffffffffff168173ffffffffffffffffffffffffffffffffffffffff167f8be0079c531659141344cd1fd0a4f28419497f9722a3daafe3b4186f6b6457e060405160405180910390a35050565b600080fd5b600073ffffffffffffffffffffffffffffffffffffffff82169050919050565b6000620001fd82620001d0565b9050919050565b6200020f81620001f0565b81146200021b57600080fd5b50565b6000815190506200022f8162000204565b92915050565b6000602082840312156200024e576200024d620001cb565b5b60006200025e848285016200021e565b91505092915050565b6200027281620001f0565b82525050565b60006020820190506200028f600083018462000267565b92915050565b61284c80620002a56000396000f3fe608060405234801561001057600080fd5b50600436106101375760003560e01c806384d1360b116100b8578063d211bc3f1161007c578063d211bc3f1461030d578063da35c6641461032b578063eaf1061c14610349578063eefe85e414610367578063f2fde38b14610385578063f7a829d0146103a157610137565b806384d1360b1461027b5780638b73a46b146102995780638da5cb5b146102b7578063c76ea978146102d5578063ca6d56dc146102f157610137565b80633b177803116100ff5780633b177803146101e3578063401853b714610201578063671b379314610235578063715018a61461025357806376e925591461025d57610137565b8063013cf08b1461013c5780630554e94e146101715780630b1ca49a1461018d5780631614665c146101a95780633b10244b146101c5575b600080fd5b61015660048036038101906101519190611718565b6103bd565b60405161016896959493929190611840565b60405180910390f35b61018b600480360381019061018691906119dd565b6104ae565b005b6101a760048036038101906101a29190611a65565b6105f8565b005b6101c360048036038101906101be9190611abe565b61077c565b005b6101cd610c7d565b6040516101da9190611afe565b60405180910390f35b6101eb610ca7565b6040516101f89190611afe565b60405180910390f35b61021b60048036038101906102169190611718565b610ccd565b60405161022c959493929190611b19565b60405180910390f35b61023d610db1565b60405161024a9190611b73565b60405180910390f35b61025b610db7565b005b610265610dcb565b6040516102729190611b73565b60405180910390f35b610283610dd1565b6040516102909190611afe565b60405180910390f35b6102a1610df7565b6040516102ae9190611b73565b60405180910390f35b6102bf610e01565b6040516102cc9190611afe565b60405180910390f35b6102ef60048036038101906102ea9190611a65565b610e2a565b005b61030b60048036038101906103069190611a65565b610e76565b005b610315610e8a565b6040516103229190611c4c565b60405180910390f35b610333610f18565b6040516103409190611b73565b60405180910390f35b610351610f1e565b60405161035e9190611b73565b60405180910390f35b61036f610f25565b60405161037c9190611b73565b60405180910390f35b61039f600480360381019061039a9190611a65565b610f2c565b005b6103bb60048036038101906103b69190611a65565b610fb2565b005b60046020528060005260406000206000915090508060000160009054906101000a900473ffffffffffffffffffffffffffffffffffffffff169080600101805461040690611c9d565b80601f016020809104026020016040519081016040528092919081815260200182805461043290611c9d565b801561047f5780601f106104545761010080835404028352916020019161047f565b820191906000526020600020905b81548152906001019060200180831161046257829003601f168201915b5050505050908060020154908060030154908060040154908060050160009054906101000a900460ff16905086565b600260009054906101000a900473ffffffffffffffffffffffffffffffffffffffff1673ffffffffffffffffffffffffffffffffffffffff166350435fa4336040518263ffffffff1660e01b81526004016105099190611afe565b602060405180830381865afa158015610526573d6000803e3d6000fd5b505050506040513d601f19601f8201168201806040525081019061054a9190611ce3565b610589576040517f08c379a000000000000000000000000000000000000000000000000000000000815260040161058090611d82565b60405180910390fd5b62015180811015801561059f575062093a808111155b6105de576040517f08c379a00000000000000000000000000000000000000000000000000000000081526004016105d590611dee565b60405180910390fd5b6105f4338383426105ef9190611e3d565b611093565b5050565b6106006111ab565b600260009054906101000a900473ffffffffffffffffffffffffffffffffffffffff1673ffffffffffffffffffffffffffffffffffffffff166350435fa4826040518263ffffffff1660e01b815260040161065b9190611afe565b602060405180830381865afa158015610678573d6000803e3d6000fd5b505050506040513d601f19601f8201168201806040525081019061069c9190611ce3565b6106db576040517f08c379a00000000000000000000000000000000000000000000000000000000081526004016106d290611ebd565b60405180910390fd5b60018054806106ed576106ec611edd565b5b6001900381819060005260206000200160006101000a81549073ffffffffffffffffffffffffffffffffffffffff021916905590556006600081548092919061073590611f0c565b9190505550610742611232565b7f6e76fb4c77256006d9c38ec7d82b45a8c8f3c27b1d6766fffc42dfb8de684492816040516107719190611afe565b60405180910390a150565b816004600082815260200190815260200160002060050160009054906101000a900460ff166107e0576040517f08c379a00000000000000000000000000000000000000000000000000000000081526004016107d790611f81565b60405180910390fd5b600260009054906101000a900473ffffffffffffffffffffffffffffffffffffffff1673ffffffffffffffffffffffffffffffffffffffff166350435fa4336040518263ffffffff1660e01b815260040161083b9190611afe565b602060405180830381865afa158015610858573d6000803e3d6000fd5b505050506040513d601f19601f8201168201806040525081019061087c9190611ce3565b6108bb576040517f08c379a00000000000000000000000000000000000000000000000000000000081526004016108b290611fed565b60405180910390fd5b60006004600085815260200190815260200160002090508060060160003373ffffffffffffffffffffffffffffffffffffffff1673ffffffffffffffffffffffffffffffffffffffff16815260200190815260200160002060009054906101000a900460ff1615610961576040517f08c379a000000000000000000000000000000000000000000000000000000000815260040161095890612059565b60405180910390fd5b806004015442106109a7576040517f08c379a000000000000000000000000000000000000000000000000000000000815260040161099e906120c5565b60405180910390fd5b6000600260009054906101000a900473ffffffffffffffffffffffffffffffffffffffff1673ffffffffffffffffffffffffffffffffffffffff166347734892336040518263ffffffff1660e01b8152600401610a049190611afe565b6040805180830381865afa158015610a20573d6000803e3d6000fd5b505050506040513d601f19601f82011682018060405250810190610a4491906120fa565b509050600063b2d05e0082610a599190612169565b9050848015610a685750600081115b15610c1b5780836002016000828254610a819190611e3d565b925050819055507f1abe610cf2bf87e57dcc1181fcf5ac0934e843d8344ab9eed6e86c799f62585e863383604051610abb9392919061219a565b60405180910390a18260030154836002015410610c1a5760008360050160006101000a81548160ff0219169083151502179055506040518060400160405280601b81526020017f4e65772044414f204d656d626572736869702050726f706f73616c00000000008152508051906020012083600101604051610b3d9190612274565b604051809103902003610b7c57610b778360000160009054906101000a900473ffffffffffffffffffffffffffffffffffffffff166113dc565b610be2565b8260000160009054906101000a900473ffffffffffffffffffffffffffffffffffffffff16600860006101000a81548173ffffffffffffffffffffffffffffffffffffffff021916908373ffffffffffffffffffffffffffffffffffffffff1602179055505b7fe36f8b7448daff4a52e2945db0d1d7a436279cc1d527a45c27835dcbd27f336d86604051610c119190611b73565b60405180910390a15b5b60018360060160003373ffffffffffffffffffffffffffffffffffffffff1673ffffffffffffffffffffffffffffffffffffffff16815260200190815260200160002060006101000a81548160ff021916908315150217905550505050505050565b6000600860009054906101000a900473ffffffffffffffffffffffffffffffffffffffff16905090565b600360009054906101000a900473ffffffffffffffffffffffffffffffffffffffff1681565b60606000806000806000600460008881526020019081526020016000209050806001018160020154826003015483600401548460050160009054906101000a900460ff16848054610d1d90611c9d565b80601f0160208091040260200160405190810160405280929190818152602001828054610d4990611c9d565b8015610d965780601f10610d6b57610100808354040283529160200191610d96565b820191906000526020600020905b815481529060010190602001808311610d7957829003601f168201915b50505050509450955095509550955095505091939590929450565b60075481565b610dbf6111ab565b610dc96000611602565b565b60065481565b600860009054906101000a900473ffffffffffffffffffffffffffffffffffffffff1681565b6000600654905090565b60008060009054906101000a900473ffffffffffffffffffffffffffffffffffffffff16905090565b610e326111ab565b80600360006101000a81548173ffffffffffffffffffffffffffffffffffffffff021916908373ffffffffffffffffffffffffffffffffffffffff16021790555050565b610e7e6111ab565b610e87816113dc565b50565b60606001805480602002602001604051908101604052809291908181526020018280548015610f0e57602002820191906000526020600020905b8160009054906101000a900473ffffffffffffffffffffffffffffffffffffffff1673ffffffffffffffffffffffffffffffffffffffff1681526020019060010190808311610ec4575b5050505050905090565b60055481565b6201518081565b62093a8081565b610f346111ab565b600073ffffffffffffffffffffffffffffffffffffffff168173ffffffffffffffffffffffffffffffffffffffff1603610fa65760006040517f1e4fbdf7000000000000000000000000000000000000000000000000000000008152600401610f9d9190611afe565b60405180910390fd5b610faf81611602565b50565b600360009054906101000a900473ffffffffffffffffffffffffffffffffffffffff1673ffffffffffffffffffffffffffffffffffffffff163373ffffffffffffffffffffffffffffffffffffffff1614611042576040517f08c379a0000000000000000000000000000000000000000000000000000000008152600401611039906122fd565b60405180910390fd5b611090816040518060400160405280601b81526020017f4e65772044414f204d656d626572736869702050726f706f73616c000000000081525062093a804261108b9190611e3d565b611093565b50565b60006005600081546110a49061231d565b91905081905590506000600460008381526020019081526020016000209050848160000160006101000a81548173ffffffffffffffffffffffffffffffffffffffff021916908373ffffffffffffffffffffffffffffffffffffffff160217905550838160010190816111179190612511565b50600081600201819055506003600260075461113391906125e3565b61113d9190612169565b816003018190555082816004018190555060018160050160006101000a81548160ff0219169083151502179055507f9c770c289ab5bf7e57cb1d23c8ceae993aea46eb64847072fd3d78ca60d3e432828560405161119c929190612625565b60405180910390a15050505050565b6111b36116c6565b73ffffffffffffffffffffffffffffffffffffffff166111d1610e01565b73ffffffffffffffffffffffffffffffffffffffff1614611230576111f46116c6565b6040517f118cdaa70000000000000000000000000000000000000000000000000000000081526004016112279190611afe565b60405180910390fd5b565b600080600260009054906101000a900473ffffffffffffffffffffffffffffffffffffffff1673ffffffffffffffffffffffffffffffffffffffff1663a04bfbfd6040518163ffffffff1660e01b8152600401600060405180830381865afa1580156112a2573d6000803e3d6000fd5b505050506040513d6000823e3d601f19601f820116820180604052508101906112cb9190612732565b905060005b81518110156113d05760008282815181106112ee576112ed61277b565b5b602002602001015190506000600260009054906101000a900473ffffffffffffffffffffffffffffffffffffffff1673ffffffffffffffffffffffffffffffffffffffff166347734892836040518263ffffffff1660e01b81526004016113559190611afe565b6040805180830381865afa158015611371573d6000803e3d6000fd5b505050506040513d601f19601f8201168201806040525081019061139591906120fa565b509050600063b2d05e00826113aa9190612169565b905080866113b89190611e3d565b955050505080806113c89061231d565b9150506112d0565b50816007819055505050565b600260009054906101000a900473ffffffffffffffffffffffffffffffffffffffff1673ffffffffffffffffffffffffffffffffffffffff166350435fa4826040518263ffffffff1660e01b81526004016114379190611afe565b602060405180830381865afa158015611454573d6000803e3d6000fd5b505050506040513d601f19601f820116820180604052508101906114789190611ce3565b156114b8576040517f08c379a00000000000000000000000000000000000000000000000000000000081526004016114af906127f6565b60405180910390fd5b600260009054906101000a900473ffffffffffffffffffffffffffffffffffffffff1673ffffffffffffffffffffffffffffffffffffffff166394922348826040518263ffffffff1660e01b81526004016115139190611afe565b600060405180830381600087803b15801561152d57600080fd5b505af1158015611541573d6000803e3d6000fd5b505050506001819080600181540180825580915050600190039060005260206000200160009091909190916101000a81548173ffffffffffffffffffffffffffffffffffffffff021916908373ffffffffffffffffffffffffffffffffffffffff160217905550600660008154809291906115bb9061231d565b91905055506115c8611232565b7fb251eb052afc73ffd02ffe85ad79990a8b3fed60d76dbc2fa2fdd7123dffd914816040516115f79190611afe565b60405180910390a150565b60008060009054906101000a900473ffffffffffffffffffffffffffffffffffffffff169050816000806101000a81548173ffffffffffffffffffffffffffffffffffffffff021916908373ffffffffffffffffffffffffffffffffffffffff1602179055508173ffffffffffffffffffffffffffffffffffffffff168173ffffffffffffffffffffffffffffffffffffffff167f8be0079c531659141344cd1fd0a4f28419497f9722a3daafe3b4186f6b6457e060405160405180910390a35050565b600033905090565b6000604051905090565b600080fd5b600080fd5b6000819050919050565b6116f5816116e2565b811461170057600080fd5b50565b600081359050611712816116ec565b92915050565b60006020828403121561172e5761172d6116d8565b5b600061173c84828501611703565b91505092915050565b600073ffffffffffffffffffffffffffffffffffffffff82169050919050565b600061177082611745565b9050919050565b61178081611765565b82525050565b600081519050919050565b600082825260208201905092915050565b60005b838110156117c05780820151818401526020810190506117a5565b60008484015250505050565b6000601f19601f8301169050919050565b60006117e882611786565b6117f28185611791565b93506118028185602086016117a2565b61180b816117cc565b840191505092915050565b61181f816116e2565b82525050565b60008115159050919050565b61183a81611825565b82525050565b600060c0820190506118556000830189611777565b818103602083015261186781886117dd565b90506118766040830187611816565b6118836060830186611816565b6118906080830185611816565b61189d60a0830184611831565b979650505050505050565b600080fd5b600080fd5b7f4e487b7100000000000000000000000000000000000000000000000000000000600052604160045260246000fd5b6118ea826117cc565b810181811067ffffffffffffffff82111715611909576119086118b2565b5b80604052505050565b600061191c6116ce565b905061192882826118e1565b919050565b600067ffffffffffffffff821115611948576119476118b2565b5b611951826117cc565b9050602081019050919050565b82818337600083830152505050565b600061198061197b8461192d565b611912565b90508281526020810184848401111561199c5761199b6118ad565b5b6119a784828561195e565b509392505050565b600082601f8301126119c4576119c36118a8565b5b81356119d484826020860161196d565b91505092915050565b600080604083850312156119f4576119f36116d8565b5b600083013567ffffffffffffffff811115611a1257611a116116dd565b5b611a1e858286016119af565b9250506020611a2f85828601611703565b9150509250929050565b611a4281611765565b8114611a4d57600080fd5b50565b600081359050611a5f81611a39565b92915050565b600060208284031215611a7b57611a7a6116d8565b5b6000611a8984828501611a50565b91505092915050565b611a9b81611825565b8114611aa657600080fd5b50565b600081359050611ab881611a92565b92915050565b60008060408385031215611ad557611ad46116d8565b5b6000611ae385828601611703565b9250506020611af485828601611aa9565b9150509250929050565b6000602082019050611b136000830184611777565b92915050565b600060a0820190508181036000830152611b3381886117dd565b9050611b426020830187611816565b611b4f6040830186611816565b611b5c6060830185611816565b611b696080830184611831565b9695505050505050565b6000602082019050611b886000830184611816565b92915050565b600081519050919050565b600082825260208201905092915050565b6000819050602082019050919050565b611bc381611765565b82525050565b6000611bd58383611bba565b60208301905092915050565b6000602082019050919050565b6000611bf982611b8e565b611c038185611b99565b9350611c0e83611baa565b8060005b83811015611c3f578151611c268882611bc9565b9750611c3183611be1565b925050600181019050611c12565b5085935050505092915050565b60006020820190508181036000830152611c668184611bee565b905092915050565b7f4e487b7100000000000000000000000000000000000000000000000000000000600052602260045260246000fd5b60006002820490506001821680611cb557607f821691505b602082108103611cc857611cc7611c6e565b5b50919050565b600081519050611cdd81611a92565b92915050565b600060208284031215611cf957611cf86116d8565b5b6000611d0784828501611cce565b91505092915050565b7f4f6e6c792044414f206d656d626572732063616e2070726f706f73652061637460008201527f69766974792e0000000000000000000000000000000000000000000000000000602082015250565b6000611d6c602683611791565b9150611d7782611d10565b604082019050919050565b60006020820190508181036000830152611d9b81611d5f565b9050919050565b7f496e76616c696420766f74696e67206475726174696f6e000000000000000000600082015250565b6000611dd8601783611791565b9150611de382611da2565b602082019050919050565b60006020820190508181036000830152611e0781611dcb565b9050919050565b7f4e487b7100000000000000000000000000000000000000000000000000000000600052601160045260246000fd5b6000611e48826116e2565b9150611e53836116e2565b9250828201905080821115611e6b57611e6a611e0e565b5b92915050565b7f4e6f7420612044414f206d656d62657200000000000000000000000000000000600082015250565b6000611ea7601083611791565b9150611eb282611e71565b602082019050919050565b60006020820190508181036000830152611ed681611e9a565b9050919050565b7f4e487b7100000000000000000000000000000000000000000000000000000000600052603160045260246000fd5b6000611f17826116e2565b915060008203611f2a57611f29611e0e565b5b600182039050919050565b7f50726f706f73616c206973206e6f742061637469766500000000000000000000600082015250565b6000611f6b601683611791565b9150611f7682611f35565b602082019050919050565b60006020820190508181036000830152611f9a81611f5e565b9050919050565b7f4f6e6c792044414f206d656d626572732063616e20766f746500000000000000600082015250565b6000611fd7601983611791565b9150611fe282611fa1565b602082019050919050565b6000602082019050818103600083015261200681611fca565b9050919050565b7f416c726561647920766f74656400000000000000000000000000000000000000600082015250565b6000612043600d83611791565b915061204e8261200d565b602082019050919050565b6000602082019050818103600083015261207281612036565b9050919050565b7f566f74696e6720706572696f642068617320656e646564000000000000000000600082015250565b60006120af601783611791565b91506120ba82612079565b602082019050919050565b600060208201905081810360008301526120de816120a2565b9050919050565b6000815190506120f4816116ec565b92915050565b60008060408385031215612111576121106116d8565b5b600061211f858286016120e5565b9250506020612130858286016120e5565b9150509250929050565b7f4e487b7100000000000000000000000000000000000000000000000000000000600052601260045260246000fd5b6000612174826116e2565b915061217f836116e2565b92508261218f5761218e61213a565b5b828204905092915050565b60006060820190506121af6000830186611816565b6121bc6020830185611777565b6121c96040830184611816565b949350505050565b600081905092915050565b60008190508160005260206000209050919050565b600081546121fe81611c9d565b61220881866121d1565b9450600182166000811461222357600181146122385761226b565b60ff198316865281151582028601935061226b565b612241856121dc565b60005b8381101561226357815481890152600182019150602081019050612244565b838801955050505b50505092915050565b600061228082846121f1565b915081905092915050565b7f4f6e6c7920726567756c61746f7279436f6d706c69616e636520636f6e74726160008201527f63742063616e2063616c6c20746869732066756e6374696f6e00000000000000602082015250565b60006122e7603983611791565b91506122f28261228b565b604082019050919050565b60006020820190508181036000830152612316816122da565b9050919050565b6000612328826116e2565b91507fffffffffffffffffffffffffffffffffffffffffffffffffffffffffffffffff820361235a57612359611e0e565b5b600182019050919050565b60008190508160005260206000209050919050565b60006020601f8301049050919050565b600082821b905092915050565b6000600883026123c77fffffffffffffffffffffffffffffffffffffffffffffffffffffffffffffffff8261238a565b6123d1868361238a565b95508019841693508086168417925050509392505050565b6000819050919050565b600061240e612409612404846116e2565b6123e9565b6116e2565b9050919050565b6000819050919050565b612428836123f3565b61243c61243482612415565b848454612397565b825550505050565b600090565b612451612444565b61245c81848461241f565b505050565b5b8181101561248057612475600082612449565b600181019050612462565b5050565b601f8211156124c55761249681612365565b61249f8461237a565b810160208510156124ae578190505b6124c26124ba8561237a565b830182612461565b50505b505050565b600082821c905092915050565b60006124e8600019846008026124ca565b1980831691505092915050565b600061250183836124d7565b9150826002028217905092915050565b61251a82611786565b67ffffffffffffffff811115612533576125326118b2565b5b61253d8254611c9d565b612548828285612484565b600060209050601f83116001811461257b5760008415612569578287015190505b61257385826124f5565b8655506125db565b601f19841661258986612365565b60005b828110156125b15784890151825560018201915060208501945060208101905061258c565b868310156125ce57848901516125ca601f8916826124d7565b8355505b6001600288020188555050505b505050505050565b60006125ee826116e2565b91506125f9836116e2565b9250828202612607816116e2565b9150828204841483151761261e5761261d611e0e565b5b5092915050565b600060408201905061263a6000830185611816565b818103602083015261264c81846117dd565b90509392505050565b600067ffffffffffffffff8211156126705761266f6118b2565b5b602082029050602081019050919050565b600080fd5b60008151905061269581611a39565b92915050565b60006126ae6126a984612655565b611912565b905080838252602082019050602084028301858111156126d1576126d0612681565b5b835b818110156126fa57806126e68882612686565b8452602084019350506020810190506126d3565b5050509392505050565b600082601f830112612719576127186118a8565b5b815161272984826020860161269b565b91505092915050565b600060208284031215612748576127476116d8565b5b600082015167ffffffffffffffff811115612766576127656116dd565b5b61277284828501612704565b91505092915050565b7f4e487b7100000000000000000000000000000000000000000000000000000000600052603260045260246000fd5b7f416c726561647920612044414f206d656d626572000000000000000000000000600082015250565b60006127e0601483611791565b91506127eb826127aa565b602082019050919050565b6000602082019050818103600083015261280f816127d3565b905091905056fea264697066735822122077d57bc51739e7da58ce4d82a667dd045d0df66f1c7cd443611e9ffaf22c858b64736f6c63430008140033",
  "linkReferences": {},
  "deployedLinkReferences": {}
}