{
  "_format": "hh-sol-artifact-1",
  "contractName": "SavingsContract",
  "sourceName": "contracts/SavingsContract.sol",
  "abi": [
    {
      "inputs": [
        {
          "internalType": "address",
          "name": "_stableCoinAddress",
          "type": "address"
        },
        {
          "internalType": "address",
          "name": "_contractTokenAddress",
          "type": "address"
        },
        {
          "internalType": "address",
          "name": "_regulatoryComplianceAddress",
          "type": "address"
        },
        {
          "internalType": "address",
          "name": "_nftContractAddress",
          "type": "address"
        }
      ],
      "stateMutability": "nonpayable",
      "type": "constructor"
    },
    {
      "inputs": [
        {
          "internalType": "address",
          "name": "target",
          "type": "address"
        }
      ],
      "name": "AddressEmptyCode",
      "type": "error"
    },
    {
      "inputs": [
        {
          "internalType": "address",
          "name": "account",
          "type": "address"
        }
      ],
      "name": "AddressInsufficientBalance",
      "type": "error"
    },
    {
      "inputs": [],
      "name": "FailedInnerCall",
      "type": "error"
    },
    {
      "inputs": [
        {
          "internalType": "address",
          "name": "owner",
          "type": "address"
        }
      ],
      "name": "OwnableInvalidOwner",
      "type": "error"
    },
    {
      "inputs": [
        {
          "internalType": "address",
          "name": "account",
          "type": "address"
        }
      ],
      "name": "OwnableUnauthorizedAccount",
      "type": "error"
    },
    {
      "inputs": [
        {
          "internalType": "address",
          "name": "token",
          "type": "address"
        }
      ],
      "name": "SafeERC20FailedOperation",
      "type": "error"
    },
    {
      "anonymous": false,
      "inputs": [
        {
          "indexed": true,
          "internalType": "address",
          "name": "user",
          "type": "address"
        }
      ],
      "name": "AgreementSent",
      "type": "event"
    },
    {
      "anonymous": false,
      "inputs": [
        {
          "indexed": true,
          "internalType": "address",
          "name": "recipient",
          "type": "address"
        },
        {
          "indexed": false,
          "internalType": "uint256",
          "name": "amount",
          "type": "uint256"
        }
      ],
      "name": "AirdropDistributed",
      "type": "event"
    },
    {
      "anonymous": false,
      "inputs": [
        {
          "indexed": true,
          "internalType": "address",
          "name": "user",
          "type": "address"
        },
        {
          "indexed": false,
          "internalType": "uint256",
          "name": "amount",
          "type": "uint256"
        }
      ],
      "name": "ContractTokenDeposited",
      "type": "event"
    },
    {
      "anonymous": false,
      "inputs": [
        {
          "indexed": true,
          "internalType": "address",
          "name": "user",
          "type": "address"
        },
        {
          "indexed": false,
          "internalType": "uint256",
          "name": "amount",
          "type": "uint256"
        }
      ],
      "name": "ContractTokenWithdrawn",
      "type": "event"
    },
    {
      "anonymous": false,
      "inputs": [
        {
          "indexed": true,
          "internalType": "address",
          "name": "user",
          "type": "address"
        },
        {
          "indexed": false,
          "internalType": "uint256",
          "name": "proposalId",
          "type": "uint256"
        },
        {
          "indexed": false,
          "internalType": "uint256",
          "name": "amount",
          "type": "uint256"
        }
      ],
      "name": "OwnerRefund",
      "type": "event"
    },
    {
      "anonymous": false,
      "inputs": [
        {
          "indexed": true,
          "internalType": "address",
          "name": "user",
          "type": "address"
        },
        {
          "indexed": false,
          "internalType": "uint256",
          "name": "proposalId",
          "type": "uint256"
        },
        {
          "indexed": false,
          "internalType": "uint256",
          "name": "amount",
          "type": "uint256"
        }
      ],
      "name": "OwnerWithdraw",
      "type": "event"
    },
    {
      "anonymous": false,
      "inputs": [
        {
          "indexed": true,
          "internalType": "address",
          "name": "previousOwner",
          "type": "address"
        },
        {
          "indexed": true,
          "internalType": "address",
          "name": "newOwner",
          "type": "address"
        }
      ],
      "name": "OwnershipTransferred",
      "type": "event"
    },
    {
      "anonymous": false,
      "inputs": [
        {
          "indexed": true,
          "internalType": "address",
          "name": "user",
          "type": "address"
        },
        {
          "indexed": false,
          "internalType": "uint256",
          "name": "amount",
          "type": "uint256"
        }
      ],
      "name": "StableCoinDeposited",
      "type": "event"
    },
    {
      "anonymous": false,
      "inputs": [
        {
          "indexed": true,
          "internalType": "address",
          "name": "user",
          "type": "address"
        },
        {
          "indexed": false,
          "internalType": "uint256",
          "name": "amount",
          "type": "uint256"
        }
      ],
      "name": "StableCoinWithdrawn",
      "type": "event"
    },
    {
      "inputs": [
        {
          "internalType": "address",
          "name": "user",
          "type": "address"
        }
      ],
      "name": "acceptIntoDAO",
      "outputs": [],
      "stateMutability": "nonpayable",
      "type": "function"
    },
    {
      "inputs": [
        {
          "internalType": "address",
          "name": "_daoGovernanceAddress",
          "type": "address"
        },
        {
          "internalType": "address",
          "name": "_prizeDistributionAddress",
          "type": "address"
        }
      ],
      "name": "bindAddress",
      "outputs": [],
      "stateMutability": "nonpayable",
      "type": "function"
    },
    {
      "inputs": [],
      "name": "contractToken",
      "outputs": [
        {
          "internalType": "contract IERC20",
          "name": "",
          "type": "address"
        }
      ],
      "stateMutability": "view",
      "type": "function"
    },
    {
      "inputs": [
        {
          "internalType": "uint256",
          "name": "amount",
          "type": "uint256"
        }
      ],
      "name": "deposit",
      "outputs": [],
      "stateMutability": "nonpayable",
      "type": "function"
    },
    {
      "inputs": [
        {
          "internalType": "uint256",
          "name": "amount",
          "type": "uint256"
        }
      ],
      "name": "depositContractToken",
      "outputs": [],
      "stateMutability": "nonpayable",
      "type": "function"
    },
    {
      "inputs": [
        {
          "internalType": "uint256",
          "name": "amount",
          "type": "uint256"
        },
        {
          "internalType": "address[]",
          "name": "airdropWinners",
          "type": "address[]"
        }
      ],
      "name": "distributeAirdrop",
      "outputs": [],
      "stateMutability": "nonpayable",
      "type": "function"
    },
    {
      "inputs": [],
      "name": "fetchAddressesBySlots",
      "outputs": [
        {
          "internalType": "address[]",
          "name": "sortedAddresses",
          "type": "address[]"
        }
      ],
      "stateMutability": "view",
      "type": "function"
    },
    {
      "inputs": [],
      "name": "fetchUserAddresses",
      "outputs": [
        {
          "internalType": "address[]",
          "name": "uniqueUserAddresses",
          "type": "address[]"
        }
      ],
      "stateMutability": "view",
      "type": "function"
    },
    {
      "inputs": [
        {
          "internalType": "uint256",
          "name": "tokenId",
          "type": "uint256"
        }
      ],
      "name": "forfeitDAO",
      "outputs": [],
      "stateMutability": "nonpayable",
      "type": "function"
    },
    {
      "inputs": [],
      "name": "getContractBalance",
      "outputs": [
        {
          "internalType": "uint256",
          "name": "stableCoinBalance",
          "type": "uint256"
        },
        {
          "internalType": "uint256",
          "name": "contractTokenBalance",
          "type": "uint256"
        }
      ],
      "stateMutability": "view",
      "type": "function"
    },
    {
      "inputs": [],
      "name": "getTotalSlots",
      "outputs": [
        {
          "internalType": "uint256",
          "name": "",
          "type": "uint256"
        }
      ],
      "stateMutability": "view",
      "type": "function"
    },
    {
      "inputs": [
        {
          "internalType": "address",
          "name": "user",
          "type": "address"
        }
      ],
      "name": "getUserBalance",
      "outputs": [
        {
          "internalType": "uint256",
          "name": "stableCoinBalance",
          "type": "uint256"
        },
        {
          "internalType": "uint256",
          "name": "contractTokenBalance",
          "type": "uint256"
        }
      ],
      "stateMutability": "view",
      "type": "function"
    },
    {
      "inputs": [
        {
          "internalType": "address",
          "name": "user",
          "type": "address"
        }
      ],
      "name": "isAgreementSent",
      "outputs": [
        {
          "internalType": "bool",
          "name": "",
          "type": "bool"
        }
      ],
      "stateMutability": "view",
      "type": "function"
    },
    {
      "inputs": [
        {
          "internalType": "address",
          "name": "user",
          "type": "address"
        }
      ],
      "name": "isDAO",
      "outputs": [
        {
          "internalType": "bool",
          "name": "",
          "type": "bool"
        }
      ],
      "stateMutability": "view",
      "type": "function"
    },
    {
      "inputs": [],
      "name": "owner",
      "outputs": [
        {
          "internalType": "address",
          "name": "",
          "type": "address"
        }
      ],
      "stateMutability": "view",
      "type": "function"
    },
    {
      "inputs": [
        {
          "internalType": "uint256",
          "name": "proposalId",
          "type": "uint256"
        },
        {
          "internalType": "uint256",
          "name": "amount",
          "type": "uint256"
        }
      ],
      "name": "refundWithdrawnAmount",
      "outputs": [],
      "stateMutability": "nonpayable",
      "type": "function"
    },
    {
      "inputs": [],
      "name": "renounceOwnership",
      "outputs": [],
      "stateMutability": "nonpayable",
      "type": "function"
    },
    {
      "inputs": [],
      "name": "stableCoin",
      "outputs": [
        {
          "internalType": "contract IERC20",
          "name": "",
          "type": "address"
        }
      ],
      "stateMutability": "view",
      "type": "function"
    },
    {
      "inputs": [],
      "name": "totalContractTokenBalance",
      "outputs": [
        {
          "internalType": "uint256",
          "name": "",
          "type": "uint256"
        }
      ],
      "stateMutability": "view",
      "type": "function"
    },
    {
      "inputs": [],
      "name": "totalStableCoinBalance",
      "outputs": [
        {
          "internalType": "uint256",
          "name": "",
          "type": "uint256"
        }
      ],
      "stateMutability": "view",
      "type": "function"
    },
    {
      "inputs": [
        {
          "internalType": "address",
          "name": "to",
          "type": "address"
        },
        {
          "internalType": "uint256",
          "name": "amount",
          "type": "uint256"
        }
      ],
      "name": "transferFund",
      "outputs": [],
      "stateMutability": "nonpayable",
      "type": "function"
    },
    {
      "inputs": [
        {
          "internalType": "address",
          "name": "newOwner",
          "type": "address"
        }
      ],
      "name": "transferOwnership",
      "outputs": [],
      "stateMutability": "nonpayable",
      "type": "function"
    },
    {
      "inputs": [
        {
          "internalType": "uint256",
          "name": "",
          "type": "uint256"
        }
      ],
      "name": "userAddresses",
      "outputs": [
        {
          "internalType": "address",
          "name": "",
          "type": "address"
        }
      ],
      "stateMutability": "view",
      "type": "function"
    },
    {
      "inputs": [
        {
          "internalType": "address",
          "name": "",
          "type": "address"
        }
      ],
      "name": "users",
      "outputs": [
        {
          "internalType": "uint256",
          "name": "stableCoinBalance",
          "type": "uint256"
        },
        {
          "internalType": "uint256",
          "name": "contractTokenBalance",
          "type": "uint256"
        },
        {
          "internalType": "uint256",
          "name": "slots",
          "type": "uint256"
        },
        {
          "internalType": "bool",
          "name": "isDAO",
          "type": "bool"
        },
        {
          "internalType": "uint256",
          "name": "daoLockExpiry",
          "type": "uint256"
        }
      ],
      "stateMutability": "view",
      "type": "function"
    },
    {
      "inputs": [
        {
          "internalType": "uint256",
          "name": "amount",
          "type": "uint256"
        }
      ],
      "name": "withdraw",
      "outputs": [],
      "stateMutability": "nonpayable",
      "type": "function"
    },
    {
      "inputs": [
        {
          "internalType": "uint256",
          "name": "proposalId",
          "type": "uint256"
        },
        {
          "internalType": "uint256",
          "name": "amount",
          "type": "uint256"
        }
      ],
      "name": "withdrawAmount",
      "outputs": [],
      "stateMutability": "nonpayable",
      "type": "function"
    },
    {
      "inputs": [
        {
          "internalType": "uint256",
          "name": "amount",
          "type": "uint256"
        }
      ],
      "name": "withdrawContractToken",
      "outputs": [],
      "stateMutability": "nonpayable",
      "type": "function"
    }
  ],
  "bytecode": "0x60806040523480156200001157600080fd5b5060405162003c5e38038062003c5e8339818101604052810190620000379190620002fb565b33600073ffffffffffffffffffffffffffffffffffffffff168173ffffffffffffffffffffffffffffffffffffffff1603620000ad5760006040517f1e4fbdf7000000000000000000000000000000000000000000000000000000008152600401620000a491906200037e565b60405180910390fd5b620000be81620001cd60201b60201c565b5083600160006101000a81548173ffffffffffffffffffffffffffffffffffffffff021916908373ffffffffffffffffffffffffffffffffffffffff16021790555082600260006101000a81548173ffffffffffffffffffffffffffffffffffffffff021916908373ffffffffffffffffffffffffffffffffffffffff16021790555081600360006101000a81548173ffffffffffffffffffffffffffffffffffffffff021916908373ffffffffffffffffffffffffffffffffffffffff16021790555080600460006101000a81548173ffffffffffffffffffffffffffffffffffffffff021916908373ffffffffffffffffffffffffffffffffffffffff160217905550505050506200039b565b60008060009054906101000a900473ffffffffffffffffffffffffffffffffffffffff169050816000806101000a81548173ffffffffffffffffffffffffffffffffffffffff021916908373ffffffffffffffffffffffffffffffffffffffff1602179055508173ffffffffffffffffffffffffffffffffffffffff168173ffffffffffffffffffffffffffffffffffffffff167f8be0079c531659141344cd1fd0a4f28419497f9722a3daafe3b4186f6b6457e060405160405180910390a35050565b600080fd5b600073ffffffffffffffffffffffffffffffffffffffff82169050919050565b6000620002c38262000296565b9050919050565b620002d581620002b6565b8114620002e157600080fd5b50565b600081519050620002f581620002ca565b92915050565b6000806000806080858703121562000318576200031762000291565b5b60006200032887828801620002e4565b94505060206200033b87828801620002e4565b93505060406200034e87828801620002e4565b92505060606200036187828801620002e4565b91505092959194509250565b6200037881620002b6565b82525050565b60006020820190506200039560008301846200036d565b92915050565b6138b380620003ab6000396000f3fe608060405234801561001057600080fd5b50600436106101a95760003560e01c8063992642e5116100f9578063cfbd8a6011610097578063e4208b2811610071578063e4208b281461049a578063eaa8517c146104b6578063f2fde38b146104d2578063f7c4cd6d146104ee576101a9565b8063cfbd8a6014610444578063d874639a14610462578063e2dc35e01461047e576101a9565b8063a04bfbfd116100d3578063a04bfbfd146103b8578063a87430ba146103d6578063b6b55f251461040a578063c8c59ac414610426576101a9565b8063992642e5146103605780639b943ca91461037e5780639ef7e7231461039c576101a9565b806350435fa4116101665780636f9fb98a116101405780636f9fb98a146102fd578063715018a61461031c5780638da5cb5b146103265780639492234814610344576101a9565b806350435fa41461028157806359ac07fa146102b15780636c269b49146102cd576101a9565b806305b39f8a146101ae5780632ad0c902146101cc5780632e1a7d4d146101e8578063436bb199146102045780634773489214610220578063502c9bd514610251575b600080fd5b6101b661050c565b6040516101c391906128ad565b60405180910390f35b6101e660048036038101906101e1919061291a565b610532565b005b61020260048036038101906101fd9190612990565b610601565b005b61021e600480360381019061021991906129bd565b610976565b005b61023a600480360381019061023591906129fd565b610c58565b604051610248929190612a39565b60405180910390f35b61026b60048036038101906102669190612990565b610cea565b6040516102789190612a71565b60405180910390f35b61029b600480360381019061029691906129fd565b610d29565b6040516102a89190612aa7565b60405180910390f35b6102cb60048036038101906102c69190612b27565b610d82565b005b6102e760048036038101906102e291906129fd565b610f42565b6040516102f49190612aa7565b60405180910390f35b610305610f98565b604051610313929190612a39565b60405180910390f35b610324610fa9565b005b61032e610fbd565b60405161033b9190612a71565b60405180910390f35b61035e600480360381019061035991906129fd565b610fe6565b005b610368611173565b60405161037591906128ad565b60405180910390f35b610386611199565b6040516103939190612b87565b60405180910390f35b6103b660048036038101906103b19190612990565b61119f565b005b6103c0611334565b6040516103cd9190612c60565b60405180910390f35b6103f060048036038101906103eb91906129fd565b61144d565b604051610401959493929190612c82565b60405180910390f35b610424600480360381019061041f9190612990565b611490565b005b61042e6114ec565b60405161043b9190612b87565b60405180910390f35b61044c6115ac565b6040516104599190612b87565b60405180910390f35b61047c60048036038101906104779190612990565b6115b2565b005b61049860048036038101906104939190612cd5565b6117b1565b005b6104b460048036038101906104af91906129bd565b611892565b005b6104d060048036038101906104cb9190612990565b611956565b005b6104ec60048036038101906104e791906129fd565b611a68565b005b6104f6611aee565b6040516105039190612c60565b60405180910390f35b600260009054906101000a900473ffffffffffffffffffffffffffffffffffffffff1681565b61053a611c70565b81600660006101000a81548173ffffffffffffffffffffffffffffffffffffffff021916908373ffffffffffffffffffffffffffffffffffffffff16021790555081600560006101000a81548173ffffffffffffffffffffffffffffffffffffffff021916908373ffffffffffffffffffffffffffffffffffffffff16021790555080600760006101000a81548173ffffffffffffffffffffffffffffffffffffffff021916908373ffffffffffffffffffffffffffffffffffffffff1602179055505050565b80600960003373ffffffffffffffffffffffffffffffffffffffff1673ffffffffffffffffffffffffffffffffffffffff168152602001908152602001600020600001541015610686576040517f08c379a000000000000000000000000000000000000000000000000000000000815260040161067d90612d72565b60405180910390fd5b600960003373ffffffffffffffffffffffffffffffffffffffff1673ffffffffffffffffffffffffffffffffffffffff16815260200190815260200160002060030160009054906101000a900460ff16158061078b5750600960003373ffffffffffffffffffffffffffffffffffffffff1673ffffffffffffffffffffffffffffffffffffffff16815260200190815260200160002060030160009054906101000a900460ff16801561078a575063b2d05e0081600960003373ffffffffffffffffffffffffffffffffffffffff1673ffffffffffffffffffffffffffffffffffffffff168152602001908152602001600020600001546107879190612dc1565b10155b5b6107ca576040517f08c379a00000000000000000000000000000000000000000000000000000000081526004016107c190612e67565b60405180910390fd5b80600960003373ffffffffffffffffffffffffffffffffffffffff1673ffffffffffffffffffffffffffffffffffffffff168152602001908152602001600020600001600082825461081c9190612dc1565b9250508190555080600d60008282546108359190612dc1565b925050819055506108893382600160009054906101000a900473ffffffffffffffffffffffffffffffffffffffff1673ffffffffffffffffffffffffffffffffffffffff16611cf79092919063ffffffff16565b6000600960003373ffffffffffffffffffffffffffffffffffffffff1673ffffffffffffffffffffffffffffffffffffffff1681526020019081526020016000206000015403610925576000600960003373ffffffffffffffffffffffffffffffffffffffff1673ffffffffffffffffffffffffffffffffffffffff1681526020019081526020016000206002018190555061092433611d76565b5b3373ffffffffffffffffffffffffffffffffffffffff167f8da6bbbd263553c945fa317d1f55be0f42f0fa4c6895e74767e6926cdb2bce0f8260405161096b9190612b87565b60405180910390a250565b61097e611c70565b60006064603c600d546109919190612e87565b61099b9190612ef8565b9050808211156109e0576040517f08c379a00000000000000000000000000000000000000000000000000000000081526004016109d790612f9b565b60405180910390fd5b81600d541015610a25576040517f08c379a0000000000000000000000000000000000000000000000000000000008152600401610a1c9061302d565b60405180910390fd5b6000600560009054906101000a900473ffffffffffffffffffffffffffffffffffffffff1673ffffffffffffffffffffffffffffffffffffffff1663401853b7856040518263ffffffff1660e01b8152600401610a829190612b87565b600060405180830381865afa158015610a9f573d6000803e3d6000fd5b505050506040513d6000823e3d601f19601f82011682018060405250810190610ac891906131ea565b95505050505050600b600085815260200190815260200160002060009054906101000a900460ff1615610b30576040517f08c379a0000000000000000000000000000000000000000000000000000000008152600401610b2790613305565b60405180910390fd5b80610b70576040517f08c379a0000000000000000000000000000000000000000000000000000000008152600401610b6790613371565b60405180910390fd5b82600d6000828254610b829190612dc1565b925050819055506001600b600086815260200190815260200160002060006101000a81548160ff021916908315150217905550610c023384600160009054906101000a900473ffffffffffffffffffffffffffffffffffffffff1673ffffffffffffffffffffffffffffffffffffffff16611cf79092919063ffffffff16565b3373ffffffffffffffffffffffffffffffffffffffff167f1854f40cafc6d1d892b7723388876e2ddaa1e0509aed7e9c9d0e2a54d1a6e9368585604051610c4a929190612a39565b60405180910390a250505050565b600080600960008473ffffffffffffffffffffffffffffffffffffffff1673ffffffffffffffffffffffffffffffffffffffff16815260200190815260200160002060000154600960008573ffffffffffffffffffffffffffffffffffffffff1673ffffffffffffffffffffffffffffffffffffffff1681526020019081526020016000206001015491509150915091565b60088181548110610cfa57600080fd5b906000526020600020016000915054906101000a900473ffffffffffffffffffffffffffffffffffffffff1681565b6000600960008373ffffffffffffffffffffffffffffffffffffffff1673ffffffffffffffffffffffffffffffffffffffff16815260200190815260200160002060030160009054906101000a900460ff169050919050565b610d8a611c70565b6000805b83839050811015610e0b576000848483818110610dae57610dad613391565b5b9050602002016020810190610dc391906129fd565b90506000610dd082610c58565b50905060006301312d0082610de59190612ef8565b90508085610df391906133c0565b94505050508080610e03906133f4565b915050610d8e565b5060008185610e1a9190612ef8565b905060005b84849050811015610f3a576000858583818110610e3f57610e3e613391565b5b9050602002016020810190610e5491906129fd565b90506000610e6182610c58565b50905060006301312d0082610e769190612ef8565b905060008186610e869190612e87565b9050610ed58482600260009054906101000a900473ffffffffffffffffffffffffffffffffffffffff1673ffffffffffffffffffffffffffffffffffffffff16611cf79092919063ffffffff16565b8373ffffffffffffffffffffffffffffffffffffffff167fef90046b8142ea9ef9fbd7a5569b220918264e0b4a07f0103e11e3c21f999da682604051610f1b9190612b87565b60405180910390a2505050508080610f32906133f4565b915050610e1f565b505050505050565b6000600c60008373ffffffffffffffffffffffffffffffffffffffff1673ffffffffffffffffffffffffffffffffffffffff16815260200190815260200160002060009054906101000a900460ff169050919050565b600080600d54600e54915091509091565b610fb1611c70565b610fbb6000611f5e565b565b60008060009054906101000a900473ffffffffffffffffffffffffffffffffffffffff16905090565b600660009054906101000a900473ffffffffffffffffffffffffffffffffffffffff1673ffffffffffffffffffffffffffffffffffffffff163373ffffffffffffffffffffffffffffffffffffffff1614611076576040517f08c379a000000000000000000000000000000000000000000000000000000000815260040161106d906134ae565b60405180910390fd5b6001600960008373ffffffffffffffffffffffffffffffffffffffff1673ffffffffffffffffffffffffffffffffffffffff16815260200190815260200160002060030160006101000a81548160ff021916908315150217905550600460009054906101000a900473ffffffffffffffffffffffffffffffffffffffff1673ffffffffffffffffffffffffffffffffffffffff16636a627842826040518263ffffffff1660e01b815260040161112c9190612a71565b6020604051808303816000875af115801561114b573d6000803e3d6000fd5b505050506040513d601f19601f8201168201806040525081019061116f91906134ce565b5050565b600160009054906101000a900473ffffffffffffffffffffffffffffffffffffffff1681565b600e5481565b80600960003373ffffffffffffffffffffffffffffffffffffffff1673ffffffffffffffffffffffffffffffffffffffff168152602001908152602001600020600101541015611224576040517f08c379a000000000000000000000000000000000000000000000000000000000815260040161121b9061356d565b60405180910390fd5b80600960003373ffffffffffffffffffffffffffffffffffffffff1673ffffffffffffffffffffffffffffffffffffffff16815260200190815260200160002060010160008282546112769190612dc1565b9250508190555080600e600082825461128f9190612dc1565b925050819055506112e33382600260009054906101000a900473ffffffffffffffffffffffffffffffffffffffff1673ffffffffffffffffffffffffffffffffffffffff16611cf79092919063ffffffff16565b3373ffffffffffffffffffffffffffffffffffffffff167f40ff18d8562aa6b923b7affefd9232a6fd44371c4bc7f63b5e5bb8ad41e10951826040516113299190612b87565b60405180910390a250565b6060600060088054905090508067ffffffffffffffff81111561135a57611359613063565b5b6040519080825280602002602001820160405280156113885781602001602082028036833780820191505090505b5091506000805b60088054905081101561144757600881815481106113b0576113af613391565b5b9060005260206000200160009054906101000a900473ffffffffffffffffffffffffffffffffffffffff168483806113e7906133f4565b9450815181106113fa576113f9613391565b5b602002602001019073ffffffffffffffffffffffffffffffffffffffff16908173ffffffffffffffffffffffffffffffffffffffff1681525050808061143f906133f4565b91505061138f565b50505090565b60096020528060005260406000206000915090508060000154908060010154908060020154908060030160009054906101000a900460ff16908060040154905085565b6114df333083600160009054906101000a900473ffffffffffffffffffffffffffffffffffffffff1673ffffffffffffffffffffffffffffffffffffffff16612022909392919063ffffffff16565b6114e933826120a4565b50565b6000806000905060005b6008805490508110156115a457600960006008838154811061151b5761151a613391565b5b9060005260206000200160009054906101000a900473ffffffffffffffffffffffffffffffffffffffff1673ffffffffffffffffffffffffffffffffffffffff1673ffffffffffffffffffffffffffffffffffffffff168152602001908152602001600020600201548261158f91906133c0565b9150808061159c906133f4565b9150506114f6565b508091505090565b600d5481565b600960003373ffffffffffffffffffffffffffffffffffffffff1673ffffffffffffffffffffffffffffffffffffffff16815260200190815260200160002060030160009054906101000a900460ff16611641576040517f08c379a0000000000000000000000000000000000000000000000000000000008152600401611638906135d9565b60405180910390fd5b600960003373ffffffffffffffffffffffffffffffffffffffff1673ffffffffffffffffffffffffffffffffffffffff168152602001908152602001600020600401544210156116c6576040517f08c379a00000000000000000000000000000000000000000000000000000000081526004016116bd90613645565b60405180910390fd5b600460009054906101000a900473ffffffffffffffffffffffffffffffffffffffff1673ffffffffffffffffffffffffffffffffffffffff166342966c68826040518263ffffffff1660e01b81526004016117219190612b87565b600060405180830381600087803b15801561173b57600080fd5b505af115801561174f573d6000803e3d6000fd5b505050506000600960003373ffffffffffffffffffffffffffffffffffffffff1673ffffffffffffffffffffffffffffffffffffffff16815260200190815260200160002060030160006101000a81548160ff02191690831515021790555050565b600760009054906101000a900473ffffffffffffffffffffffffffffffffffffffff1673ffffffffffffffffffffffffffffffffffffffff163373ffffffffffffffffffffffffffffffffffffffff1614611841576040517f08c379a0000000000000000000000000000000000000000000000000000000008152600401611838906136d7565b60405180910390fd5b61188e8282600260009054906101000a900473ffffffffffffffffffffffffffffffffffffffff1673ffffffffffffffffffffffffffffffffffffffff16611cf79092919063ffffffff16565b5050565b61189a611c70565b80600d60008282546118ac91906133c0565b92505081905550611902333083600160009054906101000a900473ffffffffffffffffffffffffffffffffffffffff1673ffffffffffffffffffffffffffffffffffffffff16612022909392919063ffffffff16565b3373ffffffffffffffffffffffffffffffffffffffff167f67919281a58536bcf2587be81b58dda99c51f4c910a6a0d06e7c4aaf799712cc838360405161194a929190612a39565b60405180910390a25050565b6119a5333083600260009054906101000a900473ffffffffffffffffffffffffffffffffffffffff1673ffffffffffffffffffffffffffffffffffffffff16612022909392919063ffffffff16565b80600960003373ffffffffffffffffffffffffffffffffffffffff1673ffffffffffffffffffffffffffffffffffffffff16815260200190815260200160002060010160008282546119f791906133c0565b9250508190555080600e6000828254611a1091906133c0565b925050819055503373ffffffffffffffffffffffffffffffffffffffff167f7365a163ac1a293ecf4b97d273ff73481f31903153e764483f6adde58d06fe9b82604051611a5d9190612b87565b60405180910390a250565b611a70611c70565b600073ffffffffffffffffffffffffffffffffffffffff168173ffffffffffffffffffffffffffffffffffffffff1603611ae25760006040517f1e4fbdf7000000000000000000000000000000000000000000000000000000008152600401611ad99190612a71565b60405180910390fd5b611aeb81611f5e565b50565b60606000611afa6114ec565b90508067ffffffffffffffff811115611b1657611b15613063565b5b604051908082528060200260200182016040528015611b445781602001602082028036833780820191505090505b5091506000805b600880549050811015611c6a57600060088281548110611b6e57611b6d613391565b5b9060005260206000200160009054906101000a900473ffffffffffffffffffffffffffffffffffffffff16905060005b600960008373ffffffffffffffffffffffffffffffffffffffff1673ffffffffffffffffffffffffffffffffffffffff16815260200190815260200160002060020154811015611c555781868580611bf5906133f4565b965081518110611c0857611c07613391565b5b602002602001019073ffffffffffffffffffffffffffffffffffffffff16908173ffffffffffffffffffffffffffffffffffffffff16815250508080611c4d906133f4565b915050611b9e565b50508080611c62906133f4565b915050611b4b565b50505090565b611c786125d8565b73ffffffffffffffffffffffffffffffffffffffff16611c96610fbd565b73ffffffffffffffffffffffffffffffffffffffff1614611cf557611cb96125d8565b6040517f118cdaa7000000000000000000000000000000000000000000000000000000008152600401611cec9190612a71565b60405180910390fd5b565b611d71838473ffffffffffffffffffffffffffffffffffffffff1663a9059cbb8585604051602401611d2a9291906136f7565b604051602081830303815290604052915060e01b6020820180517bffffffffffffffffffffffffffffffffffffffffffffffffffffffff83818316178352505050506125e0565b505050565b6000600a60008373ffffffffffffffffffffffffffffffffffffffff1673ffffffffffffffffffffffffffffffffffffffff16815260200190815260200160002060006101000a81548160ff02191690831515021790555060005b600880549050811015611f5a578173ffffffffffffffffffffffffffffffffffffffff1660088281548110611e0957611e08613391565b5b9060005260206000200160009054906101000a900473ffffffffffffffffffffffffffffffffffffffff1673ffffffffffffffffffffffffffffffffffffffff1603611f475760086001600880549050611e639190612dc1565b81548110611e7457611e73613391565b5b9060005260206000200160009054906101000a900473ffffffffffffffffffffffffffffffffffffffff1660088281548110611eb357611eb2613391565b5b9060005260206000200160006101000a81548173ffffffffffffffffffffffffffffffffffffffff021916908373ffffffffffffffffffffffffffffffffffffffff1602179055506008805480611f0d57611f0c613720565b5b6001900381819060005260206000200160006101000a81549073ffffffffffffffffffffffffffffffffffffffff02191690559055611f5a565b8080611f52906133f4565b915050611dd1565b5050565b60008060009054906101000a900473ffffffffffffffffffffffffffffffffffffffff169050816000806101000a81548173ffffffffffffffffffffffffffffffffffffffff021916908373ffffffffffffffffffffffffffffffffffffffff1602179055508173ffffffffffffffffffffffffffffffffffffffff168173ffffffffffffffffffffffffffffffffffffffff167f8be0079c531659141344cd1fd0a4f28419497f9722a3daafe3b4186f6b6457e060405160405180910390a35050565b61209e848573ffffffffffffffffffffffffffffffffffffffff166323b872dd8686866040516024016120579392919061374f565b604051602081830303815290604052915060e01b6020820180517bffffffffffffffffffffffffffffffffffffffffffffffffffffffff83818316178352505050506125e0565b50505050565b6000600960008473ffffffffffffffffffffffffffffffffffffffff1673ffffffffffffffffffffffffffffffffffffffff168152602001908152602001600020600001541480156121405750600a60008373ffffffffffffffffffffffffffffffffffffffff1673ffffffffffffffffffffffffffffffffffffffff16815260200190815260200160002060009054906101000a900460ff16155b15612201576008829080600181540180825580915050600190039060005260206000200160009091909190916101000a81548173ffffffffffffffffffffffffffffffffffffffff021916908373ffffffffffffffffffffffffffffffffffffffff1602179055506001600a60008473ffffffffffffffffffffffffffffffffffffffff1673ffffffffffffffffffffffffffffffffffffffff16815260200190815260200160002060006101000a81548160ff0219169083151502179055505b80600960008473ffffffffffffffffffffffffffffffffffffffff1673ffffffffffffffffffffffffffffffffffffffff168152602001908152602001600020600001600082825461225391906133c0565b9250508190555080600d600082825461226c91906133c0565b925050819055506305f5e100600960008473ffffffffffffffffffffffffffffffffffffffff1673ffffffffffffffffffffffffffffffffffffffff168152602001908152602001600020600001546122c59190612ef8565b600960008473ffffffffffffffffffffffffffffffffffffffff1673ffffffffffffffffffffffffffffffffffffffff16815260200190815260200160002060020181905550600960008373ffffffffffffffffffffffffffffffffffffffff1673ffffffffffffffffffffffffffffffffffffffff16815260200190815260200160002060030160009054906101000a900460ff161580156123ae575063b2d05e00600960008473ffffffffffffffffffffffffffffffffffffffff1673ffffffffffffffffffffffffffffffffffffffff1681526020019081526020016000206000015410155b80156124045750600c60008373ffffffffffffffffffffffffffffffffffffffff1673ffffffffffffffffffffffffffffffffffffffff16815260200190815260200160002060009054906101000a900460ff16155b1561258657600360009054906101000a900473ffffffffffffffffffffffffffffffffffffffff1673ffffffffffffffffffffffffffffffffffffffff16639c443d3e6040518163ffffffff1660e01b8152600401612462906137d2565b600060405180830381600087803b15801561247c57600080fd5b505af1158015612490573d6000803e3d6000fd5b505050506301e13380426124a491906133c0565b600960008473ffffffffffffffffffffffffffffffffffffffff1673ffffffffffffffffffffffffffffffffffffffff168152602001908152602001600020600401819055506001600c60008473ffffffffffffffffffffffffffffffffffffffff1673ffffffffffffffffffffffffffffffffffffffff16815260200190815260200160002060006101000a81548160ff0219169083151502179055508173ffffffffffffffffffffffffffffffffffffffff167f3c13d0a07131c49ded24688f7fb6c1a3e22a4bdce72d705a31ce569fa13bc73e60405160405180910390a25b8173ffffffffffffffffffffffffffffffffffffffff167f66cef183dbc45fd6ab6c6cfd4ada8f7b1780d070873ce30723107d9f644ec660826040516125cc9190612b87565b60405180910390a25050565b600033905090565b600061260b828473ffffffffffffffffffffffffffffffffffffffff1661267790919063ffffffff16565b9050600081511415801561263057508080602001905181019061262e91906137f2565b155b1561267257826040517f5274afe70000000000000000000000000000000000000000000000000000000081526004016126699190612a71565b60405180910390fd5b505050565b60606126858383600061268d565b905092915050565b6060814710156126d457306040517fcd7860590000000000000000000000000000000000000000000000000000000081526004016126cb9190612a71565b60405180910390fd5b6000808573ffffffffffffffffffffffffffffffffffffffff1684866040516126fd9190613866565b60006040518083038185875af1925050503d806000811461273a576040519150601f19603f3d011682016040523d82523d6000602084013e61273f565b606091505b509150915061274f86838361275a565b925050509392505050565b60608261276f5761276a826127e9565b6127e1565b60008251148015612797575060008473ffffffffffffffffffffffffffffffffffffffff163b145b156127d957836040517f9996b3150000000000000000000000000000000000000000000000000000000081526004016127d09190612a71565b60405180910390fd5b8190506127e2565b5b9392505050565b6000815111156127fc5780518082602001fd5b6040517f1425ea4200000000000000000000000000000000000000000000000000000000815260040160405180910390fd5b600073ffffffffffffffffffffffffffffffffffffffff82169050919050565b6000819050919050565b600061287361286e6128698461282e565b61284e565b61282e565b9050919050565b600061288582612858565b9050919050565b60006128978261287a565b9050919050565b6128a78161288c565b82525050565b60006020820190506128c2600083018461289e565b92915050565b6000604051905090565b600080fd5b600080fd5b60006128e78261282e565b9050919050565b6128f7816128dc565b811461290257600080fd5b50565b600081359050612914816128ee565b92915050565b60008060408385031215612931576129306128d2565b5b600061293f85828601612905565b925050602061295085828601612905565b9150509250929050565b6000819050919050565b61296d8161295a565b811461297857600080fd5b50565b60008135905061298a81612964565b92915050565b6000602082840312156129a6576129a56128d2565b5b60006129b48482850161297b565b91505092915050565b600080604083850312156129d4576129d36128d2565b5b60006129e28582860161297b565b92505060206129f38582860161297b565b9150509250929050565b600060208284031215612a1357612a126128d2565b5b6000612a2184828501612905565b91505092915050565b612a338161295a565b82525050565b6000604082019050612a4e6000830185612a2a565b612a5b6020830184612a2a565b9392505050565b612a6b816128dc565b82525050565b6000602082019050612a866000830184612a62565b92915050565b60008115159050919050565b612aa181612a8c565b82525050565b6000602082019050612abc6000830184612a98565b92915050565b600080fd5b600080fd5b600080fd5b60008083601f840112612ae757612ae6612ac2565b5b8235905067ffffffffffffffff811115612b0457612b03612ac7565b5b602083019150836020820283011115612b2057612b1f612acc565b5b9250929050565b600080600060408486031215612b4057612b3f6128d2565b5b6000612b4e8682870161297b565b935050602084013567ffffffffffffffff811115612b6f57612b6e6128d7565b5b612b7b86828701612ad1565b92509250509250925092565b6000602082019050612b9c6000830184612a2a565b92915050565b600081519050919050565b600082825260208201905092915050565b6000819050602082019050919050565b612bd7816128dc565b82525050565b6000612be98383612bce565b60208301905092915050565b6000602082019050919050565b6000612c0d82612ba2565b612c178185612bad565b9350612c2283612bbe565b8060005b83811015612c53578151612c3a8882612bdd565b9750612c4583612bf5565b925050600181019050612c26565b5085935050505092915050565b60006020820190508181036000830152612c7a8184612c02565b905092915050565b600060a082019050612c976000830188612a2a565b612ca46020830187612a2a565b612cb16040830186612a2a565b612cbe6060830185612a98565b612ccb6080830184612a2a565b9695505050505050565b60008060408385031215612cec57612ceb6128d2565b5b6000612cfa85828601612905565b9250506020612d0b8582860161297b565b9150509250929050565b600082825260208201905092915050565b7f496e73756666696369656e7420737461626c6520636f696e2062616c616e6365600082015250565b6000612d5c602083612d15565b9150612d6782612d26565b602082019050919050565b60006020820190508181036000830152612d8b81612d4f565b9050919050565b7f4e487b7100000000000000000000000000000000000000000000000000000000600052601160045260246000fd5b6000612dcc8261295a565b9150612dd78361295a565b9250828203905081811115612def57612dee612d92565b5b92915050565b7f44414f206d656d62657273206d75737420666f72666569742044414f206d656d60008201527f6265727368697020746f2077697468647261772066756e647300000000000000602082015250565b6000612e51603983612d15565b9150612e5c82612df5565b604082019050919050565b60006020820190508181036000830152612e8081612e44565b9050919050565b6000612e928261295a565b9150612e9d8361295a565b9250828202612eab8161295a565b91508282048414831517612ec257612ec1612d92565b5b5092915050565b7f4e487b7100000000000000000000000000000000000000000000000000000000600052601260045260246000fd5b6000612f038261295a565b9150612f0e8361295a565b925082612f1e57612f1d612ec9565b5b828204905092915050565b7f5769746864726177616c20616d6f756e74206578636565647320746865206d6160008201527f78696d756d20616c6c6f77656400000000000000000000000000000000000000602082015250565b6000612f85602d83612d15565b9150612f9082612f29565b604082019050919050565b60006020820190508181036000830152612fb481612f78565b9050919050565b7f496e73756666696369656e7420737461626c65546f6b656e2062616c616e636560008201527f20696e20636f6e74726163740000000000000000000000000000000000000000602082015250565b6000613017602c83612d15565b915061302282612fbb565b604082019050919050565b600060208201905081810360008301526130468161300a565b9050919050565b600080fd5b6000601f19601f8301169050919050565b7f4e487b7100000000000000000000000000000000000000000000000000000000600052604160045260246000fd5b61309b82613052565b810181811067ffffffffffffffff821117156130ba576130b9613063565b5b80604052505050565b60006130cd6128c8565b90506130d98282613092565b919050565b600067ffffffffffffffff8211156130f9576130f8613063565b5b61310282613052565b9050602081019050919050565b60005b8381101561312d578082015181840152602081019050613112565b60008484015250505050565b600061314c613147846130de565b6130c3565b9050828152602081018484840111156131685761316761304d565b5b61317384828561310f565b509392505050565b600082601f8301126131905761318f612ac2565b5b81516131a0848260208601613139565b91505092915050565b6000815190506131b881612964565b92915050565b6131c781612a8c565b81146131d257600080fd5b50565b6000815190506131e4816131be565b92915050565b60008060008060008060c08789031215613207576132066128d2565b5b600087015167ffffffffffffffff811115613225576132246128d7565b5b61323189828a0161317b565b965050602061324289828a016131a9565b955050604061325389828a016131a9565b945050606061326489828a016131a9565b935050608061327589828a016131d5565b92505060a061328689828a016131d5565b9150509295509295509295565b7f416d6f756e7420616c72656164792077697468647261776e20666f722074686960008201527f732070726f706f73616c00000000000000000000000000000000000000000000602082015250565b60006132ef602a83612d15565b91506132fa82613293565b604082019050919050565b6000602082019050818103600083015261331e816132e2565b9050919050565b7f50726f706f73616c20776173206e6f7420616363657074656400000000000000600082015250565b600061335b601983612d15565b915061336682613325565b602082019050919050565b6000602082019050818103600083015261338a8161334e565b9050919050565b7f4e487b7100000000000000000000000000000000000000000000000000000000600052603260045260246000fd5b60006133cb8261295a565b91506133d68361295a565b92508282019050808211156133ee576133ed612d92565b5b92915050565b60006133ff8261295a565b91507fffffffffffffffffffffffffffffffffffffffffffffffffffffffffffffffff820361343157613430612d92565b5b600182019050919050565b7f4f6e6c792044414f20476f7665726e616e63652063616e20616363657074207560008201527f7365727300000000000000000000000000000000000000000000000000000000602082015250565b6000613498602483612d15565b91506134a38261343c565b604082019050919050565b600060208201905081810360008301526134c78161348b565b9050919050565b6000602082840312156134e4576134e36128d2565b5b60006134f2848285016131a9565b91505092915050565b7f496e73756666696369656e7420636f6e747261637420746f6b656e2062616c6160008201527f6e63650000000000000000000000000000000000000000000000000000000000602082015250565b6000613557602383612d15565b9150613562826134fb565b604082019050919050565b600060208201905081810360008301526135868161354a565b9050919050565b7f4e6f7420612044414f206d656d62657200000000000000000000000000000000600082015250565b60006135c3601083612d15565b91506135ce8261358d565b602082019050919050565b600060208201905081810360008301526135f2816135b6565b9050919050565b7f44414f206c6f636b20706572696f6420686173206e6f74206578706972656400600082015250565b600061362f601f83612d15565b915061363a826135f9565b602082019050919050565b6000602082019050818103600083015261365e81613622565b9050919050565b7f4f6e6c79207072697a65446973747269627574696f6e20636f6e74726163742060008201527f63616e2063616c6c20746869732066756e6374696f6e00000000000000000000602082015250565b60006136c1603683612d15565b91506136cc82613665565b604082019050919050565b600060208201905081810360008301526136f0816136b4565b9050919050565b600060408201905061370c6000830185612a62565b6137196020830184612a2a565b9392505050565b7f4e487b7100000000000000000000000000000000000000000000000000000000600052603160045260246000fd5b60006060820190506137646000830186612a62565b6137716020830185612a62565b61377e6040830184612a2a565b949350505050565b7f4e65772044414f00000000000000000000000000000000000000000000000000600082015250565b60006137bc600783612d15565b91506137c782613786565b602082019050919050565b600060208201905081810360008301526137eb816137af565b9050919050565b600060208284031215613808576138076128d2565b5b6000613816848285016131d5565b91505092915050565b600081519050919050565b600081905092915050565b60006138408261381f565b61384a818561382a565b935061385a81856020860161310f565b80840191505092915050565b60006138728284613835565b91508190509291505056fea264697066735822122058717231aa172f1dcc4722267cbdccdabe417ea141d3d0ecb388ab79d9a8fa8164736f6c63430008140033",
  "linkReferences": {},
  "deployedLinkReferences": {}
}