{
  "_format": "hh-sol-artifact-1",
  "contractName": "SavingsContract",
  "sourceName": "contracts/SavingsContract.sol",
  "abi": [
    {
      "inputs": [
        {
          "internalType": "address",
          "name": "_stableCoinAddress",
          "type": "address"
        },
        {
          "internalType": "address",
          "name": "_contractTokenAddress",
          "type": "address"
        },
        {
          "internalType": "address",
          "name": "_regulatoryComplianceAddress",
          "type": "address"
        },
        {
          "internalType": "address",
          "name": "_nftContractAddress",
          "type": "address"
        }
      ],
      "stateMutability": "nonpayable",
      "type": "constructor"
    },
    {
      "inputs": [
        {
          "internalType": "address",
          "name": "target",
          "type": "address"
        }
      ],
      "name": "AddressEmptyCode",
      "type": "error"
    },
    {
      "inputs": [
        {
          "internalType": "address",
          "name": "account",
          "type": "address"
        }
      ],
      "name": "AddressInsufficientBalance",
      "type": "error"
    },
    {
      "inputs": [],
      "name": "FailedInnerCall",
      "type": "error"
    },
    {
      "inputs": [
        {
          "internalType": "address",
          "name": "owner",
          "type": "address"
        }
      ],
      "name": "OwnableInvalidOwner",
      "type": "error"
    },
    {
      "inputs": [
        {
          "internalType": "address",
          "name": "account",
          "type": "address"
        }
      ],
      "name": "OwnableUnauthorizedAccount",
      "type": "error"
    },
    {
      "inputs": [
        {
          "internalType": "address",
          "name": "token",
          "type": "address"
        }
      ],
      "name": "SafeERC20FailedOperation",
      "type": "error"
    },
    {
      "anonymous": false,
      "inputs": [
        {
          "indexed": true,
          "internalType": "address",
          "name": "user",
          "type": "address"
        },
        {
          "indexed": false,
          "internalType": "uint256",
          "name": "amount",
          "type": "uint256"
        }
      ],
      "name": "ActivityTracker",
      "type": "event"
    },
    {
      "anonymous": false,
      "inputs": [
        {
          "indexed": true,
          "internalType": "address",
          "name": "user",
          "type": "address"
        },
        {
          "indexed": false,
          "internalType": "uint256",
          "name": "amount",
          "type": "uint256"
        }
      ],
      "name": "ContractTokenDeposited",
      "type": "event"
    },
    {
      "anonymous": false,
      "inputs": [
        {
          "indexed": true,
          "internalType": "address",
          "name": "user",
          "type": "address"
        },
        {
          "indexed": false,
          "internalType": "uint256",
          "name": "amount",
          "type": "uint256"
        }
      ],
      "name": "ContractTokenWithdrawn",
      "type": "event"
    },
    {
      "anonymous": false,
      "inputs": [
        {
          "indexed": true,
          "internalType": "address",
          "name": "previousOwner",
          "type": "address"
        },
        {
          "indexed": true,
          "internalType": "address",
          "name": "newOwner",
          "type": "address"
        }
      ],
      "name": "OwnershipTransferred",
      "type": "event"
    },
    {
      "anonymous": false,
      "inputs": [
        {
          "indexed": true,
          "internalType": "address",
          "name": "user",
          "type": "address"
        },
        {
          "indexed": false,
          "internalType": "uint256",
          "name": "amount",
          "type": "uint256"
        }
      ],
      "name": "StableCoinDeposited",
      "type": "event"
    },
    {
      "anonymous": false,
      "inputs": [
        {
          "indexed": true,
          "internalType": "address",
          "name": "user",
          "type": "address"
        },
        {
          "indexed": false,
          "internalType": "uint256",
          "name": "amount",
          "type": "uint256"
        }
      ],
      "name": "StableCoinWithdrawn",
      "type": "event"
    },
    {
      "inputs": [
        {
          "internalType": "address",
          "name": "user",
          "type": "address"
        }
      ],
      "name": "acceptIntoDAO",
      "outputs": [],
      "stateMutability": "nonpayable",
      "type": "function"
    },
    {
      "inputs": [
        {
          "internalType": "address",
          "name": "_daoGovernanceAddress",
          "type": "address"
        },
        {
          "internalType": "address",
          "name": "_prizeDistributionAddress",
          "type": "address"
        }
      ],
      "name": "bindAddress",
      "outputs": [],
      "stateMutability": "nonpayable",
      "type": "function"
    },
    {
      "inputs": [],
      "name": "contractToken",
      "outputs": [
        {
          "internalType": "contract IERC20",
          "name": "",
          "type": "address"
        }
      ],
      "stateMutability": "view",
      "type": "function"
    },
    {
      "inputs": [
        {
          "internalType": "uint256",
          "name": "amount",
          "type": "uint256"
        }
      ],
      "name": "deposit",
      "outputs": [],
      "stateMutability": "nonpayable",
      "type": "function"
    },
    {
      "inputs": [],
      "name": "fetchAddressesBySlots",
      "outputs": [
        {
          "internalType": "address[]",
          "name": "sortedAddresses",
          "type": "address[]"
        }
      ],
      "stateMutability": "view",
      "type": "function"
    },
    {
      "inputs": [],
      "name": "fetchUserAddresses",
      "outputs": [
        {
          "internalType": "address[]",
          "name": "uniqueUserAddresses",
          "type": "address[]"
        }
      ],
      "stateMutability": "view",
      "type": "function"
    },
    {
      "inputs": [
        {
          "internalType": "uint256",
          "name": "tokenId",
          "type": "uint256"
        }
      ],
      "name": "forfeitDAO",
      "outputs": [],
      "stateMutability": "nonpayable",
      "type": "function"
    },
    {
      "inputs": [],
      "name": "getContractBalance",
      "outputs": [
        {
          "internalType": "uint256",
          "name": "stableCoinBalance",
          "type": "uint256"
        },
        {
          "internalType": "uint256",
          "name": "contractTokenBalance",
          "type": "uint256"
        }
      ],
      "stateMutability": "view",
      "type": "function"
    },
    {
      "inputs": [],
      "name": "getTotalSlots",
      "outputs": [
        {
          "internalType": "uint256",
          "name": "",
          "type": "uint256"
        }
      ],
      "stateMutability": "view",
      "type": "function"
    },
    {
      "inputs": [
        {
          "internalType": "address",
          "name": "user",
          "type": "address"
        }
      ],
      "name": "getUserBalance",
      "outputs": [
        {
          "internalType": "uint256",
          "name": "stableCoinBalance",
          "type": "uint256"
        },
        {
          "internalType": "uint256",
          "name": "contractTokenBalance",
          "type": "uint256"
        }
      ],
      "stateMutability": "view",
      "type": "function"
    },
    {
      "inputs": [
        {
          "internalType": "address",
          "name": "user",
          "type": "address"
        }
      ],
      "name": "isDAO",
      "outputs": [
        {
          "internalType": "bool",
          "name": "",
          "type": "bool"
        }
      ],
      "stateMutability": "view",
      "type": "function"
    },
    {
      "inputs": [],
      "name": "owner",
      "outputs": [
        {
          "internalType": "address",
          "name": "",
          "type": "address"
        }
      ],
      "stateMutability": "view",
      "type": "function"
    },
    {
      "inputs": [
        {
          "internalType": "uint256",
          "name": "amount",
          "type": "uint256"
        }
      ],
      "name": "refundWithdrawnAmount",
      "outputs": [],
      "stateMutability": "nonpayable",
      "type": "function"
    },
    {
      "inputs": [],
      "name": "renounceOwnership",
      "outputs": [],
      "stateMutability": "nonpayable",
      "type": "function"
    },
    {
      "inputs": [],
      "name": "stableCoin",
      "outputs": [
        {
          "internalType": "contract IERC20",
          "name": "",
          "type": "address"
        }
      ],
      "stateMutability": "view",
      "type": "function"
    },
    {
      "inputs": [],
      "name": "totalContractTokenBalance",
      "outputs": [
        {
          "internalType": "uint256",
          "name": "",
          "type": "uint256"
        }
      ],
      "stateMutability": "view",
      "type": "function"
    },
    {
      "inputs": [],
      "name": "totalStableCoinBalance",
      "outputs": [
        {
          "internalType": "uint256",
          "name": "",
          "type": "uint256"
        }
      ],
      "stateMutability": "view",
      "type": "function"
    },
    {
      "inputs": [
        {
          "internalType": "address",
          "name": "to",
          "type": "address"
        },
        {
          "internalType": "uint256",
          "name": "amount",
          "type": "uint256"
        }
      ],
      "name": "transferFund",
      "outputs": [],
      "stateMutability": "nonpayable",
      "type": "function"
    },
    {
      "inputs": [
        {
          "internalType": "address",
          "name": "newOwner",
          "type": "address"
        }
      ],
      "name": "transferOwnership",
      "outputs": [],
      "stateMutability": "nonpayable",
      "type": "function"
    },
    {
      "inputs": [
        {
          "internalType": "uint256",
          "name": "",
          "type": "uint256"
        }
      ],
      "name": "userAddresses",
      "outputs": [
        {
          "internalType": "address",
          "name": "",
          "type": "address"
        }
      ],
      "stateMutability": "view",
      "type": "function"
    },
    {
      "inputs": [
        {
          "internalType": "address",
          "name": "",
          "type": "address"
        }
      ],
      "name": "users",
      "outputs": [
        {
          "internalType": "uint256",
          "name": "stableCoinBalance",
          "type": "uint256"
        },
        {
          "internalType": "uint256",
          "name": "contractTokenBalance",
          "type": "uint256"
        },
        {
          "internalType": "uint256",
          "name": "slots",
          "type": "uint256"
        },
        {
          "internalType": "bool",
          "name": "isDAO",
          "type": "bool"
        },
        {
          "internalType": "uint256",
          "name": "daoLockExpiry",
          "type": "uint256"
        }
      ],
      "stateMutability": "view",
      "type": "function"
    },
    {
      "inputs": [
        {
          "internalType": "uint256",
          "name": "amount",
          "type": "uint256"
        }
      ],
      "name": "withdraw",
      "outputs": [],
      "stateMutability": "nonpayable",
      "type": "function"
    },
    {
      "inputs": [
        {
          "internalType": "uint256",
          "name": "amount",
          "type": "uint256"
        }
      ],
      "name": "withdrawAmount",
      "outputs": [],
      "stateMutability": "nonpayable",
      "type": "function"
    },
    {
      "inputs": [
        {
          "internalType": "uint256",
          "name": "amount",
          "type": "uint256"
        }
      ],
      "name": "withdrawContractToken",
      "outputs": [],
      "stateMutability": "nonpayable",
      "type": "function"
    }
  ],
  "bytecode": "0x60806040523480156200001157600080fd5b506040516200320f3803806200320f8339818101604052810190620000379190620002fb565b33600073ffffffffffffffffffffffffffffffffffffffff168173ffffffffffffffffffffffffffffffffffffffff1603620000ad5760006040517f1e4fbdf7000000000000000000000000000000000000000000000000000000008152600401620000a491906200037e565b60405180910390fd5b620000be81620001cd60201b60201c565b5083600160006101000a81548173ffffffffffffffffffffffffffffffffffffffff021916908373ffffffffffffffffffffffffffffffffffffffff16021790555082600260006101000a81548173ffffffffffffffffffffffffffffffffffffffff021916908373ffffffffffffffffffffffffffffffffffffffff16021790555081600360006101000a81548173ffffffffffffffffffffffffffffffffffffffff021916908373ffffffffffffffffffffffffffffffffffffffff16021790555080600460006101000a81548173ffffffffffffffffffffffffffffffffffffffff021916908373ffffffffffffffffffffffffffffffffffffffff160217905550505050506200039b565b60008060009054906101000a900473ffffffffffffffffffffffffffffffffffffffff169050816000806101000a81548173ffffffffffffffffffffffffffffffffffffffff021916908373ffffffffffffffffffffffffffffffffffffffff1602179055508173ffffffffffffffffffffffffffffffffffffffff168173ffffffffffffffffffffffffffffffffffffffff167f8be0079c531659141344cd1fd0a4f28419497f9722a3daafe3b4186f6b6457e060405160405180910390a35050565b600080fd5b600073ffffffffffffffffffffffffffffffffffffffff82169050919050565b6000620002c38262000296565b9050919050565b620002d581620002b6565b8114620002e157600080fd5b50565b600081519050620002f581620002ca565b92915050565b6000806000806080858703121562000318576200031762000291565b5b60006200032887828801620002e4565b94505060206200033b87828801620002e4565b93505060406200034e87828801620002e4565b92505060606200036187828801620002e4565b91505092959194509250565b6200037881620002b6565b82525050565b60006020820190506200039560008301846200036d565b92915050565b612e6480620003ab6000396000f3fe608060405234801561001057600080fd5b50600436106101585760003560e01c80639b943ca9116100c3578063ca090f611161007c578063ca090f61146103a7578063cfbd8a60146103c3578063d874639a146103e1578063e2dc35e0146103fd578063f2fde38b14610419578063f7c4cd6d1461043557610158565b80639b943ca9146102e15780639ef7e723146102ff578063a04bfbfd1461031b578063a87430ba14610339578063b6b55f251461036d578063c8c59ac41461038957610158565b806350435fa41161011557806350435fa4146102305780636f9fb98a14610260578063715018a61461027f5780638da5cb5b1461028957806394922348146102a7578063992642e5146102c357610158565b80630562b9f71461015d57806305b39f8a146101795780632ad0c902146101975780632e1a7d4d146101b357806347734892146101cf578063502c9bd514610200575b600080fd5b610177600480360381019061017291906121d8565b610453565b005b6101816105ba565b60405161018e9190612284565b60405180910390f35b6101b160048036038101906101ac91906122dd565b6105e0565b005b6101cd60048036038101906101c891906121d8565b61066e565b005b6101e960048036038101906101e4919061231d565b6109e3565b6040516101f7929190612359565b60405180910390f35b61021a600480360381019061021591906121d8565b610a75565b6040516102279190612391565b60405180910390f35b61024a6004803603810190610245919061231d565b610ab4565b60405161025791906123c7565b60405180910390f35b610268610b0d565b604051610276929190612359565b60405180910390f35b610287610b1e565b005b610291610b32565b60405161029e9190612391565b60405180910390f35b6102c160048036038101906102bc919061231d565b610b5b565b005b6102cb610ce8565b6040516102d89190612284565b60405180910390f35b6102e9610d0e565b6040516102f691906123e2565b60405180910390f35b610319600480360381019061031491906121d8565b610d14565b005b610323610ea9565b60405161033091906124bb565b60405180910390f35b610353600480360381019061034e919061231d565b610fc2565b6040516103649594939291906124dd565b60405180910390f35b610387600480360381019061038291906121d8565b611005565b005b610391611061565b60405161039e91906123e2565b60405180910390f35b6103c160048036038101906103bc91906121d8565b611121565b005b6103cb6111e2565b6040516103d891906123e2565b60405180910390f35b6103fb60048036038101906103f691906121d8565b6111e8565b005b61041760048036038101906104129190612530565b6113e7565b005b610433600480360381019061042e919061231d565b6114c8565b005b61043d61154e565b60405161044a91906124bb565b60405180910390f35b61045b6116d0565b60006064603c600a5461046e919061259f565b6104789190612610565b9050808211156104bd576040517f08c379a00000000000000000000000000000000000000000000000000000000081526004016104b4906126c4565b60405180910390fd5b81600a541015610502576040517f08c379a00000000000000000000000000000000000000000000000000000000081526004016104f990612756565b60405180910390fd5b81600a60008282546105149190612776565b925050819055506105683383600160009054906101000a900473ffffffffffffffffffffffffffffffffffffffff1673ffffffffffffffffffffffffffffffffffffffff166117579092919063ffffffff16565b3373ffffffffffffffffffffffffffffffffffffffff167fdd9cbd4e8bd12eeba1e65c199889d7715cca63f52e0026484cdbb006562e5fe0836040516105ae91906123e2565b60405180910390a25050565b600260009054906101000a900473ffffffffffffffffffffffffffffffffffffffff1681565b6105e86116d0565b81600560006101000a81548173ffffffffffffffffffffffffffffffffffffffff021916908373ffffffffffffffffffffffffffffffffffffffff16021790555080600660006101000a81548173ffffffffffffffffffffffffffffffffffffffff021916908373ffffffffffffffffffffffffffffffffffffffff1602179055505050565b80600860003373ffffffffffffffffffffffffffffffffffffffff1673ffffffffffffffffffffffffffffffffffffffff1681526020019081526020016000206000015410156106f3576040517f08c379a00000000000000000000000000000000000000000000000000000000081526004016106ea906127f6565b60405180910390fd5b600860003373ffffffffffffffffffffffffffffffffffffffff1673ffffffffffffffffffffffffffffffffffffffff16815260200190815260200160002060030160009054906101000a900460ff1615806107f85750600860003373ffffffffffffffffffffffffffffffffffffffff1673ffffffffffffffffffffffffffffffffffffffff16815260200190815260200160002060030160009054906101000a900460ff1680156107f7575063b2d05e0081600860003373ffffffffffffffffffffffffffffffffffffffff1673ffffffffffffffffffffffffffffffffffffffff168152602001908152602001600020600001546107f49190612776565b10155b5b610837576040517f08c379a000000000000000000000000000000000000000000000000000000000815260040161082e90612888565b60405180910390fd5b80600860003373ffffffffffffffffffffffffffffffffffffffff1673ffffffffffffffffffffffffffffffffffffffff16815260200190815260200160002060000160008282546108899190612776565b9250508190555080600a60008282546108a29190612776565b925050819055506108f63382600160009054906101000a900473ffffffffffffffffffffffffffffffffffffffff1673ffffffffffffffffffffffffffffffffffffffff166117579092919063ffffffff16565b6000600860003373ffffffffffffffffffffffffffffffffffffffff1673ffffffffffffffffffffffffffffffffffffffff1681526020019081526020016000206000015403610992576000600860003373ffffffffffffffffffffffffffffffffffffffff1673ffffffffffffffffffffffffffffffffffffffff16815260200190815260200160002060020181905550610991336117d6565b5b3373ffffffffffffffffffffffffffffffffffffffff167f8da6bbbd263553c945fa317d1f55be0f42f0fa4c6895e74767e6926cdb2bce0f826040516109d891906123e2565b60405180910390a250565b600080600860008473ffffffffffffffffffffffffffffffffffffffff1673ffffffffffffffffffffffffffffffffffffffff16815260200190815260200160002060000154600860008573ffffffffffffffffffffffffffffffffffffffff1673ffffffffffffffffffffffffffffffffffffffff1681526020019081526020016000206001015491509150915091565b60078181548110610a8557600080fd5b906000526020600020016000915054906101000a900473ffffffffffffffffffffffffffffffffffffffff1681565b6000600860008373ffffffffffffffffffffffffffffffffffffffff1673ffffffffffffffffffffffffffffffffffffffff16815260200190815260200160002060030160009054906101000a900460ff169050919050565b600080600a54600b54915091509091565b610b266116d0565b610b3060006119be565b565b60008060009054906101000a900473ffffffffffffffffffffffffffffffffffffffff16905090565b600560009054906101000a900473ffffffffffffffffffffffffffffffffffffffff1673ffffffffffffffffffffffffffffffffffffffff163373ffffffffffffffffffffffffffffffffffffffff1614610beb576040517f08c379a0000000000000000000000000000000000000000000000000000000008152600401610be29061291a565b60405180910390fd5b6001600860008373ffffffffffffffffffffffffffffffffffffffff1673ffffffffffffffffffffffffffffffffffffffff16815260200190815260200160002060030160006101000a81548160ff021916908315150217905550600460009054906101000a900473ffffffffffffffffffffffffffffffffffffffff1673ffffffffffffffffffffffffffffffffffffffff16636a627842826040518263ffffffff1660e01b8152600401610ca19190612391565b6020604051808303816000875af1158015610cc0573d6000803e3d6000fd5b505050506040513d601f19601f82011682018060405250810190610ce4919061294f565b5050565b600160009054906101000a900473ffffffffffffffffffffffffffffffffffffffff1681565b600b5481565b80600860003373ffffffffffffffffffffffffffffffffffffffff1673ffffffffffffffffffffffffffffffffffffffff168152602001908152602001600020600101541015610d99576040517f08c379a0000000000000000000000000000000000000000000000000000000008152600401610d90906129ee565b60405180910390fd5b80600860003373ffffffffffffffffffffffffffffffffffffffff1673ffffffffffffffffffffffffffffffffffffffff1681526020019081526020016000206001016000828254610deb9190612776565b9250508190555080600b6000828254610e049190612776565b92505081905550610e583382600260009054906101000a900473ffffffffffffffffffffffffffffffffffffffff1673ffffffffffffffffffffffffffffffffffffffff166117579092919063ffffffff16565b3373ffffffffffffffffffffffffffffffffffffffff167f40ff18d8562aa6b923b7affefd9232a6fd44371c4bc7f63b5e5bb8ad41e1095182604051610e9e91906123e2565b60405180910390a250565b6060600060078054905090508067ffffffffffffffff811115610ecf57610ece612a0e565b5b604051908082528060200260200182016040528015610efd5781602001602082028036833780820191505090505b5091506000805b600780549050811015610fbc5760078181548110610f2557610f24612a3d565b5b9060005260206000200160009054906101000a900473ffffffffffffffffffffffffffffffffffffffff16848380610f5c90612a6c565b945081518110610f6f57610f6e612a3d565b5b602002602001019073ffffffffffffffffffffffffffffffffffffffff16908173ffffffffffffffffffffffffffffffffffffffff16815250508080610fb490612a6c565b915050610f04565b50505090565b60086020528060005260406000206000915090508060000154908060010154908060020154908060030160009054906101000a900460ff16908060040154905085565b611054333083600160009054906101000a900473ffffffffffffffffffffffffffffffffffffffff1673ffffffffffffffffffffffffffffffffffffffff16611a82909392919063ffffffff16565b61105e3382611b04565b50565b6000806000905060005b6007805490508110156111195760086000600783815481106110905761108f612a3d565b5b9060005260206000200160009054906101000a900473ffffffffffffffffffffffffffffffffffffffff1673ffffffffffffffffffffffffffffffffffffffff1673ffffffffffffffffffffffffffffffffffffffff16815260200190815260200160002060020154826111049190612ab4565b9150808061111190612a6c565b91505061106b565b508091505090565b6111296116d0565b80600a600082825461113b9190612ab4565b92505081905550611191333083600160009054906101000a900473ffffffffffffffffffffffffffffffffffffffff1673ffffffffffffffffffffffffffffffffffffffff16611a82909392919063ffffffff16565b3373ffffffffffffffffffffffffffffffffffffffff167fdd9cbd4e8bd12eeba1e65c199889d7715cca63f52e0026484cdbb006562e5fe0826040516111d791906123e2565b60405180910390a250565b600a5481565b600860003373ffffffffffffffffffffffffffffffffffffffff1673ffffffffffffffffffffffffffffffffffffffff16815260200190815260200160002060030160009054906101000a900460ff16611277576040517f08c379a000000000000000000000000000000000000000000000000000000000815260040161126e90612b34565b60405180910390fd5b600860003373ffffffffffffffffffffffffffffffffffffffff1673ffffffffffffffffffffffffffffffffffffffff168152602001908152602001600020600401544210156112fc576040517f08c379a00000000000000000000000000000000000000000000000000000000081526004016112f390612ba0565b60405180910390fd5b600460009054906101000a900473ffffffffffffffffffffffffffffffffffffffff1673ffffffffffffffffffffffffffffffffffffffff166342966c68826040518263ffffffff1660e01b815260040161135791906123e2565b600060405180830381600087803b15801561137157600080fd5b505af1158015611385573d6000803e3d6000fd5b505050506000600860003373ffffffffffffffffffffffffffffffffffffffff1673ffffffffffffffffffffffffffffffffffffffff16815260200190815260200160002060030160006101000a81548160ff02191690831515021790555050565b600660009054906101000a900473ffffffffffffffffffffffffffffffffffffffff1673ffffffffffffffffffffffffffffffffffffffff163373ffffffffffffffffffffffffffffffffffffffff1614611477576040517f08c379a000000000000000000000000000000000000000000000000000000000815260040161146e90612c32565b60405180910390fd5b6114c48282600260009054906101000a900473ffffffffffffffffffffffffffffffffffffffff1673ffffffffffffffffffffffffffffffffffffffff166117579092919063ffffffff16565b5050565b6114d06116d0565b600073ffffffffffffffffffffffffffffffffffffffff168173ffffffffffffffffffffffffffffffffffffffff16036115425760006040517f1e4fbdf70000000000000000000000000000000000000000000000000000000081526004016115399190612391565b60405180910390fd5b61154b816119be565b50565b6060600061155a611061565b90508067ffffffffffffffff81111561157657611575612a0e565b5b6040519080825280602002602001820160405280156115a45781602001602082028036833780820191505090505b5091506000805b6007805490508110156116ca576000600782815481106115ce576115cd612a3d565b5b9060005260206000200160009054906101000a900473ffffffffffffffffffffffffffffffffffffffff16905060005b600860008373ffffffffffffffffffffffffffffffffffffffff1673ffffffffffffffffffffffffffffffffffffffff168152602001908152602001600020600201548110156116b5578186858061165590612a6c565b96508151811061166857611667612a3d565b5b602002602001019073ffffffffffffffffffffffffffffffffffffffff16908173ffffffffffffffffffffffffffffffffffffffff168152505080806116ad90612a6c565b9150506115fe565b505080806116c290612a6c565b9150506115ab565b50505090565b6116d8611f47565b73ffffffffffffffffffffffffffffffffffffffff166116f6610b32565b73ffffffffffffffffffffffffffffffffffffffff161461175557611719611f47565b6040517f118cdaa700000000000000000000000000000000000000000000000000000000815260040161174c9190612391565b60405180910390fd5b565b6117d1838473ffffffffffffffffffffffffffffffffffffffff1663a9059cbb858560405160240161178a929190612c52565b604051602081830303815290604052915060e01b6020820180517bffffffffffffffffffffffffffffffffffffffffffffffffffffffff8381831617835250505050611f4f565b505050565b6000600960008373ffffffffffffffffffffffffffffffffffffffff1673ffffffffffffffffffffffffffffffffffffffff16815260200190815260200160002060006101000a81548160ff02191690831515021790555060005b6007805490508110156119ba578173ffffffffffffffffffffffffffffffffffffffff166007828154811061186957611868612a3d565b5b9060005260206000200160009054906101000a900473ffffffffffffffffffffffffffffffffffffffff1673ffffffffffffffffffffffffffffffffffffffff16036119a757600760016007805490506118c39190612776565b815481106118d4576118d3612a3d565b5b9060005260206000200160009054906101000a900473ffffffffffffffffffffffffffffffffffffffff166007828154811061191357611912612a3d565b5b9060005260206000200160006101000a81548173ffffffffffffffffffffffffffffffffffffffff021916908373ffffffffffffffffffffffffffffffffffffffff160217905550600780548061196d5761196c612c7b565b5b6001900381819060005260206000200160006101000a81549073ffffffffffffffffffffffffffffffffffffffff021916905590556119ba565b80806119b290612a6c565b915050611831565b5050565b60008060009054906101000a900473ffffffffffffffffffffffffffffffffffffffff169050816000806101000a81548173ffffffffffffffffffffffffffffffffffffffff021916908373ffffffffffffffffffffffffffffffffffffffff1602179055508173ffffffffffffffffffffffffffffffffffffffff168173ffffffffffffffffffffffffffffffffffffffff167f8be0079c531659141344cd1fd0a4f28419497f9722a3daafe3b4186f6b6457e060405160405180910390a35050565b611afe848573ffffffffffffffffffffffffffffffffffffffff166323b872dd868686604051602401611ab793929190612caa565b604051602081830303815290604052915060e01b6020820180517bffffffffffffffffffffffffffffffffffffffffffffffffffffffff8381831617835250505050611f4f565b50505050565b6000600860008473ffffffffffffffffffffffffffffffffffffffff1673ffffffffffffffffffffffffffffffffffffffff16815260200190815260200160002060000154148015611ba05750600960008373ffffffffffffffffffffffffffffffffffffffff1673ffffffffffffffffffffffffffffffffffffffff16815260200190815260200160002060009054906101000a900460ff16155b15611c61576007829080600181540180825580915050600190039060005260206000200160009091909190916101000a81548173ffffffffffffffffffffffffffffffffffffffff021916908373ffffffffffffffffffffffffffffffffffffffff1602179055506001600960008473ffffffffffffffffffffffffffffffffffffffff1673ffffffffffffffffffffffffffffffffffffffff16815260200190815260200160002060006101000a81548160ff0219169083151502179055505b80600860008473ffffffffffffffffffffffffffffffffffffffff1673ffffffffffffffffffffffffffffffffffffffff1681526020019081526020016000206000016000828254611cb39190612ab4565b9250508190555080600a6000828254611ccc9190612ab4565b925050819055506305f5e100600860008473ffffffffffffffffffffffffffffffffffffffff1673ffffffffffffffffffffffffffffffffffffffff16815260200190815260200160002060000154611d259190612610565b600860008473ffffffffffffffffffffffffffffffffffffffff1673ffffffffffffffffffffffffffffffffffffffff16815260200190815260200160002060020181905550600860008373ffffffffffffffffffffffffffffffffffffffff1673ffffffffffffffffffffffffffffffffffffffff16815260200190815260200160002060030160009054906101000a900460ff16158015611e0e575063b2d05e00600860008473ffffffffffffffffffffffffffffffffffffffff1673ffffffffffffffffffffffffffffffffffffffff1681526020019081526020016000206000015410155b15611ef557600360009054906101000a900473ffffffffffffffffffffffffffffffffffffffff1673ffffffffffffffffffffffffffffffffffffffff16639c443d3e6040518163ffffffff1660e01b8152600401611e6c90612d2d565b600060405180830381600087803b158015611e8657600080fd5b505af1158015611e9a573d6000803e3d6000fd5b505050506301e1338042611eae9190612ab4565b600860008473ffffffffffffffffffffffffffffffffffffffff1673ffffffffffffffffffffffffffffffffffffffff168152602001908152602001600020600401819055505b8173ffffffffffffffffffffffffffffffffffffffff167f66cef183dbc45fd6ab6c6cfd4ada8f7b1780d070873ce30723107d9f644ec66082604051611f3b91906123e2565b60405180910390a25050565b600033905090565b6000611f7a828473ffffffffffffffffffffffffffffffffffffffff16611fe690919063ffffffff16565b90506000815114158015611f9f575080806020019051810190611f9d9190612d79565b155b15611fe157826040517f5274afe7000000000000000000000000000000000000000000000000000000008152600401611fd89190612391565b60405180910390fd5b505050565b6060611ff483836000611ffc565b905092915050565b60608147101561204357306040517fcd78605900000000000000000000000000000000000000000000000000000000815260040161203a9190612391565b60405180910390fd5b6000808573ffffffffffffffffffffffffffffffffffffffff16848660405161206c9190612e17565b60006040518083038185875af1925050503d80600081146120a9576040519150601f19603f3d011682016040523d82523d6000602084013e6120ae565b606091505b50915091506120be8683836120c9565b925050509392505050565b6060826120de576120d982612158565b612150565b60008251148015612106575060008473ffffffffffffffffffffffffffffffffffffffff163b145b1561214857836040517f9996b31500000000000000000000000000000000000000000000000000000000815260040161213f9190612391565b60405180910390fd5b819050612151565b5b9392505050565b60008151111561216b5780518082602001fd5b6040517f1425ea4200000000000000000000000000000000000000000000000000000000815260040160405180910390fd5b600080fd5b6000819050919050565b6121b5816121a2565b81146121c057600080fd5b50565b6000813590506121d2816121ac565b92915050565b6000602082840312156121ee576121ed61219d565b5b60006121fc848285016121c3565b91505092915050565b600073ffffffffffffffffffffffffffffffffffffffff82169050919050565b6000819050919050565b600061224a61224561224084612205565b612225565b612205565b9050919050565b600061225c8261222f565b9050919050565b600061226e82612251565b9050919050565b61227e81612263565b82525050565b60006020820190506122996000830184612275565b92915050565b60006122aa82612205565b9050919050565b6122ba8161229f565b81146122c557600080fd5b50565b6000813590506122d7816122b1565b92915050565b600080604083850312156122f4576122f361219d565b5b6000612302858286016122c8565b9250506020612313858286016122c8565b9150509250929050565b6000602082840312156123335761233261219d565b5b6000612341848285016122c8565b91505092915050565b612353816121a2565b82525050565b600060408201905061236e600083018561234a565b61237b602083018461234a565b9392505050565b61238b8161229f565b82525050565b60006020820190506123a66000830184612382565b92915050565b60008115159050919050565b6123c1816123ac565b82525050565b60006020820190506123dc60008301846123b8565b92915050565b60006020820190506123f7600083018461234a565b92915050565b600081519050919050565b600082825260208201905092915050565b6000819050602082019050919050565b6124328161229f565b82525050565b60006124448383612429565b60208301905092915050565b6000602082019050919050565b6000612468826123fd565b6124728185612408565b935061247d83612419565b8060005b838110156124ae5781516124958882612438565b97506124a083612450565b925050600181019050612481565b5085935050505092915050565b600060208201905081810360008301526124d5818461245d565b905092915050565b600060a0820190506124f2600083018861234a565b6124ff602083018761234a565b61250c604083018661234a565b61251960608301856123b8565b612526608083018461234a565b9695505050505050565b600080604083850312156125475761254661219d565b5b6000612555858286016122c8565b9250506020612566858286016121c3565b9150509250929050565b7f4e487b7100000000000000000000000000000000000000000000000000000000600052601160045260246000fd5b60006125aa826121a2565b91506125b5836121a2565b92508282026125c3816121a2565b915082820484148315176125da576125d9612570565b5b5092915050565b7f4e487b7100000000000000000000000000000000000000000000000000000000600052601260045260246000fd5b600061261b826121a2565b9150612626836121a2565b925082612636576126356125e1565b5b828204905092915050565b600082825260208201905092915050565b7f5769746864726177616c20616d6f756e74206578636565647320746865206d6160008201527f78696d756d20616c6c6f77656400000000000000000000000000000000000000602082015250565b60006126ae602d83612641565b91506126b982612652565b604082019050919050565b600060208201905081810360008301526126dd816126a1565b9050919050565b7f496e73756666696369656e7420737461626c65546f6b656e2062616c616e636560008201527f20696e20636f6e74726163740000000000000000000000000000000000000000602082015250565b6000612740602c83612641565b915061274b826126e4565b604082019050919050565b6000602082019050818103600083015261276f81612733565b9050919050565b6000612781826121a2565b915061278c836121a2565b92508282039050818111156127a4576127a3612570565b5b92915050565b7f496e73756666696369656e7420737461626c6520636f696e2062616c616e6365600082015250565b60006127e0602083612641565b91506127eb826127aa565b602082019050919050565b6000602082019050818103600083015261280f816127d3565b9050919050565b7f44414f206d656d62657273206d75737420666f72666569742044414f206d656d60008201527f6265727368697020746f2077697468647261772066756e647300000000000000602082015250565b6000612872603983612641565b915061287d82612816565b604082019050919050565b600060208201905081810360008301526128a181612865565b9050919050565b7f4f6e6c792044414f20476f7665726e616e63652063616e20616363657074207560008201527f7365727300000000000000000000000000000000000000000000000000000000602082015250565b6000612904602483612641565b915061290f826128a8565b604082019050919050565b60006020820190508181036000830152612933816128f7565b9050919050565b600081519050612949816121ac565b92915050565b6000602082840312156129655761296461219d565b5b60006129738482850161293a565b91505092915050565b7f496e73756666696369656e7420636f6e747261637420746f6b656e2062616c6160008201527f6e63650000000000000000000000000000000000000000000000000000000000602082015250565b60006129d8602383612641565b91506129e38261297c565b604082019050919050565b60006020820190508181036000830152612a07816129cb565b9050919050565b7f4e487b7100000000000000000000000000000000000000000000000000000000600052604160045260246000fd5b7f4e487b7100000000000000000000000000000000000000000000000000000000600052603260045260246000fd5b6000612a77826121a2565b91507fffffffffffffffffffffffffffffffffffffffffffffffffffffffffffffffff8203612aa957612aa8612570565b5b600182019050919050565b6000612abf826121a2565b9150612aca836121a2565b9250828201905080821115612ae257612ae1612570565b5b92915050565b7f4e6f7420612044414f206d656d62657200000000000000000000000000000000600082015250565b6000612b1e601083612641565b9150612b2982612ae8565b602082019050919050565b60006020820190508181036000830152612b4d81612b11565b9050919050565b7f44414f206c6f636b20706572696f6420686173206e6f74206578706972656400600082015250565b6000612b8a601f83612641565b9150612b9582612b54565b602082019050919050565b60006020820190508181036000830152612bb981612b7d565b9050919050565b7f4f6e6c79207072697a65446973747269627574696f6e20636f6e74726163742060008201527f63616e2063616c6c20746869732066756e6374696f6e00000000000000000000602082015250565b6000612c1c603683612641565b9150612c2782612bc0565b604082019050919050565b60006020820190508181036000830152612c4b81612c0f565b9050919050565b6000604082019050612c676000830185612382565b612c74602083018461234a565b9392505050565b7f4e487b7100000000000000000000000000000000000000000000000000000000600052603160045260246000fd5b6000606082019050612cbf6000830186612382565b612ccc6020830185612382565b612cd9604083018461234a565b949350505050565b7f4e65772044414f00000000000000000000000000000000000000000000000000600082015250565b6000612d17600783612641565b9150612d2282612ce1565b602082019050919050565b60006020820190508181036000830152612d4681612d0a565b9050919050565b612d56816123ac565b8114612d6157600080fd5b50565b600081519050612d7381612d4d565b92915050565b600060208284031215612d8f57612d8e61219d565b5b6000612d9d84828501612d64565b91505092915050565b600081519050919050565b600081905092915050565b60005b83811015612dda578082015181840152602081019050612dbf565b60008484015250505050565b6000612df182612da6565b612dfb8185612db1565b9350612e0b818560208601612dbc565b80840191505092915050565b6000612e238284612de6565b91508190509291505056fea26469706673582212202faf2f339dd7e365e9cff9011b793dc85c158b16b88d14fb4f76a9d3a286fd1f64736f6c63430008140033",
  "linkReferences": {},
  "deployedLinkReferences": {}
}