{
  "_format": "hh-sol-artifact-1",
  "contractName": "PrizeDistribution",
  "sourceName": "contracts/PrizeDistribution.sol",
  "abi": [
    {
      "inputs": [
        {
          "internalType": "uint64",
          "name": "subscriptionId",
          "type": "uint64"
        },
        {
          "internalType": "address",
          "name": "_savingsContractAddress",
          "type": "address"
        },
        {
          "internalType": "address",
          "name": "_daoGovernanceAddress",
          "type": "address"
        }
      ],
      "stateMutability": "nonpayable",
      "type": "constructor"
    },
    {
      "inputs": [
        {
          "internalType": "address",
          "name": "have",
          "type": "address"
        },
        {
          "internalType": "address",
          "name": "want",
          "type": "address"
        }
      ],
      "name": "OnlyCoordinatorCanFulfill",
      "type": "error"
    },
    {
      "anonymous": false,
      "inputs": [
        {
          "indexed": true,
          "internalType": "address",
          "name": "from",
          "type": "address"
        },
        {
          "indexed": true,
          "internalType": "address",
          "name": "to",
          "type": "address"
        }
      ],
      "name": "OwnershipTransferRequested",
      "type": "event"
    },
    {
      "anonymous": false,
      "inputs": [
        {
          "indexed": true,
          "internalType": "address",
          "name": "from",
          "type": "address"
        },
        {
          "indexed": true,
          "internalType": "address",
          "name": "to",
          "type": "address"
        }
      ],
      "name": "OwnershipTransferred",
      "type": "event"
    },
    {
      "anonymous": false,
      "inputs": [
        {
          "indexed": true,
          "internalType": "address",
          "name": "proposer",
          "type": "address"
        },
        {
          "indexed": false,
          "internalType": "uint256",
          "name": "proposerShare",
          "type": "uint256"
        },
        {
          "indexed": false,
          "internalType": "uint256",
          "name": "contractShare",
          "type": "uint256"
        },
        {
          "indexed": false,
          "internalType": "uint256",
          "name": "daoShare",
          "type": "uint256"
        },
        {
          "indexed": false,
          "internalType": "address[]",
          "name": "winners",
          "type": "address[]"
        },
        {
          "indexed": false,
          "internalType": "uint256",
          "name": "winnerShare",
          "type": "uint256"
        }
      ],
      "name": "ProfitDistributed",
      "type": "event"
    },
    {
      "anonymous": false,
      "inputs": [
        {
          "indexed": false,
          "internalType": "uint256",
          "name": "requestId",
          "type": "uint256"
        }
      ],
      "name": "RandomWordsRequested",
      "type": "event"
    },
    {
      "anonymous": false,
      "inputs": [
        {
          "indexed": false,
          "internalType": "uint256",
          "name": "requestId",
          "type": "uint256"
        },
        {
          "indexed": false,
          "internalType": "uint256[]",
          "name": "randomWords",
          "type": "uint256[]"
        }
      ],
      "name": "RequestFulfilled",
      "type": "event"
    },
    {
      "anonymous": false,
      "inputs": [
        {
          "indexed": false,
          "internalType": "uint256",
          "name": "requestId",
          "type": "uint256"
        },
        {
          "indexed": false,
          "internalType": "uint32",
          "name": "numWords",
          "type": "uint32"
        }
      ],
      "name": "RequestSent",
      "type": "event"
    },
    {
      "anonymous": false,
      "inputs": [
        {
          "indexed": false,
          "internalType": "address[]",
          "name": "winners",
          "type": "address[]"
        }
      ],
      "name": "WinnersSelected",
      "type": "event"
    },
    {
      "inputs": [],
      "name": "acceptOwnership",
      "outputs": [],
      "stateMutability": "nonpayable",
      "type": "function"
    },
    {
      "inputs": [],
      "name": "daoGovernance",
      "outputs": [
        {
          "internalType": "contract IDAOGovernance",
          "name": "",
          "type": "address"
        }
      ],
      "stateMutability": "view",
      "type": "function"
    },
    {
      "inputs": [
        {
          "internalType": "uint256",
          "name": "amount",
          "type": "uint256"
        }
      ],
      "name": "distributeProfit",
      "outputs": [],
      "stateMutability": "nonpayable",
      "type": "function"
    },
    {
      "inputs": [
        {
          "internalType": "uint256",
          "name": "_requestId",
          "type": "uint256"
        }
      ],
      "name": "getRequestStatus",
      "outputs": [
        {
          "internalType": "bool",
          "name": "fulfilled",
          "type": "bool"
        },
        {
          "internalType": "uint256",
          "name": "randomNumber1",
          "type": "uint256"
        },
        {
          "internalType": "uint256",
          "name": "randomNumber2",
          "type": "uint256"
        },
        {
          "internalType": "uint256",
          "name": "randomNumber3",
          "type": "uint256"
        },
        {
          "internalType": "uint256",
          "name": "randomNumber4",
          "type": "uint256"
        },
        {
          "internalType": "uint256",
          "name": "randomNumber5",
          "type": "uint256"
        }
      ],
      "stateMutability": "view",
      "type": "function"
    },
    {
      "inputs": [],
      "name": "getWinners",
      "outputs": [
        {
          "internalType": "address[]",
          "name": "",
          "type": "address[]"
        }
      ],
      "stateMutability": "nonpayable",
      "type": "function"
    },
    {
      "inputs": [],
      "name": "lastRequestId",
      "outputs": [
        {
          "internalType": "uint256",
          "name": "",
          "type": "uint256"
        }
      ],
      "stateMutability": "view",
      "type": "function"
    },
    {
      "inputs": [],
      "name": "owner",
      "outputs": [
        {
          "internalType": "address",
          "name": "",
          "type": "address"
        }
      ],
      "stateMutability": "view",
      "type": "function"
    },
    {
      "inputs": [
        {
          "internalType": "uint256",
          "name": "requestId",
          "type": "uint256"
        },
        {
          "internalType": "uint256[]",
          "name": "randomWords",
          "type": "uint256[]"
        }
      ],
      "name": "rawFulfillRandomWords",
      "outputs": [],
      "stateMutability": "nonpayable",
      "type": "function"
    },
    {
      "inputs": [],
      "name": "requestRandomWords",
      "outputs": [
        {
          "internalType": "uint256",
          "name": "requestId",
          "type": "uint256"
        }
      ],
      "stateMutability": "nonpayable",
      "type": "function"
    },
    {
      "inputs": [],
      "name": "savingsContract",
      "outputs": [
        {
          "internalType": "contract ISavingsContract",
          "name": "",
          "type": "address"
        }
      ],
      "stateMutability": "view",
      "type": "function"
    },
    {
      "inputs": [
        {
          "internalType": "address",
          "name": "to",
          "type": "address"
        }
      ],
      "name": "transferOwnership",
      "outputs": [],
      "stateMutability": "nonpayable",
      "type": "function"
    },
    {
      "inputs": [
        {
          "internalType": "uint256",
          "name": "",
          "type": "uint256"
        }
      ],
      "name": "winners",
      "outputs": [
        {
          "internalType": "address",
          "name": "",
          "type": "address"
        }
      ],
      "stateMutability": "view",
      "type": "function"
    }
  ],
  "bytecode": "0x60a06040527f474e34a077df58807dbe9c96d3c009b23b3c6d0cce433e59bbf5b34f823bc56c60001b600955620493e0600a60006101000a81548163ffffffff021916908363ffffffff1602179055506007600a60046101000a81548161ffff021916908361ffff1602179055506005600a60066101000a81548163ffffffff021916908363ffffffff160217905550601e600d55601e600e55601e600f55600a601055348015620000b057600080fd5b50604051620032c3380380620032c38339818101604052810190620000d6919062000548565b33806000738103b0a8a00be2ddc778e6e7eaa21791cd3646258073ffffffffffffffffffffffffffffffffffffffff1660808173ffffffffffffffffffffffffffffffffffffffff168152505050600073ffffffffffffffffffffffffffffffffffffffff168273ffffffffffffffffffffffffffffffffffffffff160362000196576040517f08c379a00000000000000000000000000000000000000000000000000000000081526004016200018d9062000605565b60405180910390fd5b816000806101000a81548173ffffffffffffffffffffffffffffffffffffffff021916908373ffffffffffffffffffffffffffffffffffffffff160217905550600073ffffffffffffffffffffffffffffffffffffffff168173ffffffffffffffffffffffffffffffffffffffff16146200021d576200021c816200036a60201b60201c565b5b505050738103b0a8a00be2ddc778e6e7eaa21791cd364625600560006101000a81548173ffffffffffffffffffffffffffffffffffffffff021916908373ffffffffffffffffffffffffffffffffffffffff16021790555082600560146101000a81548167ffffffffffffffff021916908367ffffffffffffffff16021790555081600260006101000a81548173ffffffffffffffffffffffffffffffffffffffff021916908373ffffffffffffffffffffffffffffffffffffffff16021790555080600360006101000a81548173ffffffffffffffffffffffffffffffffffffffff021916908373ffffffffffffffffffffffffffffffffffffffff16021790555033600c60006101000a81548173ffffffffffffffffffffffffffffffffffffffff021916908373ffffffffffffffffffffffffffffffffffffffff16021790555050505062000699565b3373ffffffffffffffffffffffffffffffffffffffff168173ffffffffffffffffffffffffffffffffffffffff1603620003db576040517f08c379a0000000000000000000000000000000000000000000000000000000008152600401620003d29062000677565b60405180910390fd5b80600160006101000a81548173ffffffffffffffffffffffffffffffffffffffff021916908373ffffffffffffffffffffffffffffffffffffffff1602179055508073ffffffffffffffffffffffffffffffffffffffff1660008054906101000a900473ffffffffffffffffffffffffffffffffffffffff1673ffffffffffffffffffffffffffffffffffffffff167fed8889f560326eb138920d842192f0eb3dd22b4f139c87a2c57538e05bae127860405160405180910390a350565b600080fd5b600067ffffffffffffffff82169050919050565b620004bd816200049e565b8114620004c957600080fd5b50565b600081519050620004dd81620004b2565b92915050565b600073ffffffffffffffffffffffffffffffffffffffff82169050919050565b60006200051082620004e3565b9050919050565b620005228162000503565b81146200052e57600080fd5b50565b600081519050620005428162000517565b92915050565b60008060006060848603121562000564576200056362000499565b5b60006200057486828701620004cc565b9350506020620005878682870162000531565b92505060406200059a8682870162000531565b9150509250925092565b600082825260208201905092915050565b7f43616e6e6f7420736574206f776e657220746f207a65726f0000000000000000600082015250565b6000620005ed601883620005a4565b9150620005fa82620005b5565b602082019050919050565b600060208201905081810360008301526200062081620005de565b9050919050565b7f43616e6e6f74207472616e7366657220746f2073656c66000000000000000000600082015250565b60006200065f601783620005a4565b91506200066c8262000627565b602082019050919050565b60006020820190508181036000830152620006928162000650565b9050919050565b608051612c07620006bc6000396000818161023201526102860152612c076000f3fe608060405234801561001057600080fd5b50600436106100b45760003560e01c8063d36dfac811610071578063d36dfac814610169578063d8a4676f14610185578063df15c37e146101ba578063e0c86289146101d8578063f2fde38b146101f6578063fc2a88c314610212576100b4565b80631fe543e3146100b95780633d4e5ddd146100d557806379ba5097146100f357806385a83f09146100fd5780638da5cb5b1461011b578063a2fb117514610139575b600080fd5b6100d360048036038101906100ce9190611c45565b610230565b005b6100dd6102f0565b6040516100ea9190611d20565b60405180910390f35b6100fb610316565b005b6101056104ab565b6040516101129190611d5c565b60405180910390f35b6101236104d1565b6040516101309190611d98565b60405180910390f35b610153600480360381019061014e9190611db3565b6104fa565b6040516101609190611d98565b60405180910390f35b610183600480360381019061017e9190611db3565b610539565b005b61019f600480360381019061019a9190611db3565b610d36565b6040516101b196959493929190611e0a565b60405180910390f35b6101c2610f0d565b6040516101cf9190611f29565b60405180910390f35b6101e06113b0565b6040516101ed9190611f4b565b60405180910390f35b610210600480360381019061020b9190611f92565b611647565b005b61021a61165b565b6040516102279190611f4b565b60405180910390f35b7f000000000000000000000000000000000000000000000000000000000000000073ffffffffffffffffffffffffffffffffffffffff163373ffffffffffffffffffffffffffffffffffffffff16146102e257337f00000000000000000000000000000000000000000000000000000000000000006040517f1cf993f40000000000000000000000000000000000000000000000000000000081526004016102d9929190611fbf565b60405180910390fd5b6102ec8282611661565b5050565b600360009054906101000a900473ffffffffffffffffffffffffffffffffffffffff1681565b600160009054906101000a900473ffffffffffffffffffffffffffffffffffffffff1673ffffffffffffffffffffffffffffffffffffffff163373ffffffffffffffffffffffffffffffffffffffff16146103a6576040517f08c379a000000000000000000000000000000000000000000000000000000000815260040161039d90612045565b60405180910390fd5b60008060009054906101000a900473ffffffffffffffffffffffffffffffffffffffff169050336000806101000a81548173ffffffffffffffffffffffffffffffffffffffff021916908373ffffffffffffffffffffffffffffffffffffffff1602179055506000600160006101000a81548173ffffffffffffffffffffffffffffffffffffffff021916908373ffffffffffffffffffffffffffffffffffffffff1602179055503373ffffffffffffffffffffffffffffffffffffffff168173ffffffffffffffffffffffffffffffffffffffff167f8be0079c531659141344cd1fd0a4f28419497f9722a3daafe3b4186f6b6457e060405160405180910390a350565b600260009054906101000a900473ffffffffffffffffffffffffffffffffffffffff1681565b60008060009054906101000a900473ffffffffffffffffffffffffffffffffffffffff16905090565b600b818154811061050a57600080fd5b906000526020600020016000915054906101000a900473ffffffffffffffffffffffffffffffffffffffff1681565b600c60009054906101000a900473ffffffffffffffffffffffffffffffffffffffff1673ffffffffffffffffffffffffffffffffffffffff163373ffffffffffffffffffffffffffffffffffffffff16146105c9576040517f08c379a00000000000000000000000000000000000000000000000000000000081526004016105c0906120d7565b60405180910390fd5b6000811161060c576040517f08c379a000000000000000000000000000000000000000000000000000000000815260040161060390612143565b60405180910390fd5b6000610616610f0d565b9050600581511461065c576040517f08c379a0000000000000000000000000000000000000000000000000000000008152600401610653906121af565b60405180910390fd5b6000600360009054906101000a900473ffffffffffffffffffffffffffffffffffffffff1673ffffffffffffffffffffffffffffffffffffffff16633b10244b6040518163ffffffff1660e01b8152600401602060405180830381865afa1580156106cb573d6000803e3d6000fd5b505050506040513d601f19601f820116820180604052508101906106ef91906121e4565b9050600073ffffffffffffffffffffffffffffffffffffffff168173ffffffffffffffffffffffffffffffffffffffff1603610760576040517f08c379a00000000000000000000000000000000000000000000000000000000081526004016107579061225d565b60405180910390fd5b60005b825181101561082b57600b81815481106107805761077f61227d565b5b9060005260206000200160009054906101000a900473ffffffffffffffffffffffffffffffffffffffff1673ffffffffffffffffffffffffffffffffffffffff168273ffffffffffffffffffffffffffffffffffffffff1603610818576040517f08c379a000000000000000000000000000000000000000000000000000000000815260040161080f906122f8565b60405180910390fd5b808061082390612347565b915050610763565b50600060646010548561083e919061238f565b6108489190612400565b905060006064600d548661085c919061238f565b6108669190612400565b905060006064600e548761087a919061238f565b6108849190612400565b90506000600360009054906101000a900473ffffffffffffffffffffffffffffffffffffffff1673ffffffffffffffffffffffffffffffffffffffff16638b73a46b6040518163ffffffff1660e01b8152600401602060405180830381865afa1580156108f5573d6000803e3d6000fd5b505050506040513d601f19601f820116820180604052508101906109199190612446565b826109249190612400565b905060006064600f5489610938919061238f565b6109429190612400565b90506000600b80549050826109579190612400565b9050600260009054906101000a900473ffffffffffffffffffffffffffffffffffffffff1673ffffffffffffffffffffffffffffffffffffffff1663e2dc35e088886040518363ffffffff1660e01b81526004016109b6929190612473565b600060405180830381600087803b1580156109d057600080fd5b505af11580156109e4573d6000803e3d6000fd5b50505050600260009054906101000a900473ffffffffffffffffffffffffffffffffffffffff1673ffffffffffffffffffffffffffffffffffffffff1663e2dc35e030876040518363ffffffff1660e01b8152600401610a45929190612473565b600060405180830381600087803b158015610a5f57600080fd5b505af1158015610a73573d6000803e3d6000fd5b505050506000600360009054906101000a900473ffffffffffffffffffffffffffffffffffffffff1673ffffffffffffffffffffffffffffffffffffffff1663d211bc3f6040518163ffffffff1660e01b8152600401600060405180830381865afa158015610ae6573d6000803e3d6000fd5b505050506040513d6000823e3d601f19601f82011682018060405250810190610b0f919061255f565b905060005b8151811015610bd957600260009054906101000a900473ffffffffffffffffffffffffffffffffffffffff1673ffffffffffffffffffffffffffffffffffffffff1663e2dc35e0838381518110610b6e57610b6d61227d565b5b6020026020010151876040518363ffffffff1660e01b8152600401610b94929190612473565b600060405180830381600087803b158015610bae57600080fd5b505af1158015610bc2573d6000803e3d6000fd5b505050508080610bd190612347565b915050610b14565b5060005b600b80549050811015610cca57600260009054906101000a900473ffffffffffffffffffffffffffffffffffffffff1673ffffffffffffffffffffffffffffffffffffffff1663e2dc35e0600b8381548110610c3c57610c3b61227d565b5b9060005260206000200160009054906101000a900473ffffffffffffffffffffffffffffffffffffffff16856040518363ffffffff1660e01b8152600401610c85929190612473565b600060405180830381600087803b158015610c9f57600080fd5b505af1158015610cb3573d6000803e3d6000fd5b505050508080610cc290612347565b915050610bdd565b50610cd36117c1565b8773ffffffffffffffffffffffffffffffffffffffff167fe7b0caf632f3a0dc5084d9f3fc12e61b957acea4ad57c512506311ac669043ce888887600b88604051610d22959493929190612694565b60405180910390a250505050505050505050565b6000806000806000806004600088815260200190815260200160002060000160019054906101000a900460ff16610da2576040517f08c379a0000000000000000000000000000000000000000000000000000000008152600401610d999061273a565b60405180910390fd5b6000600460008981526020019081526020016000206040518060600160405290816000820160009054906101000a900460ff161515151581526020016000820160019054906101000a900460ff1615151515815260200160018201805480602002602001604051908101604052809291908181526020018280548015610e4757602002820191906000526020600020905b815481526020019060010190808311610e33575b505050505081525050905080600001518160400151600081518110610e6f57610e6e61227d565b5b60200260200101518260400151600181518110610e8f57610e8e61227d565b5b60200260200101518360400151600281518110610eaf57610eae61227d565b5b60200260200101518460400151600381518110610ecf57610ece61227d565b5b60200260200101518560400151600481518110610eef57610eee61227d565b5b60200260200101519650965096509650965096505091939550919395565b60606000600260009054906101000a900473ffffffffffffffffffffffffffffffffffffffff1673ffffffffffffffffffffffffffffffffffffffff1663c8c59ac46040518163ffffffff1660e01b8152600401602060405180830381865afa158015610f7e573d6000803e3d6000fd5b505050506040513d601f19601f82011682018060405250810190610fa29190612446565b9050600a60069054906101000a900463ffffffff1663ffffffff16811015610fff576040517f08c379a0000000000000000000000000000000000000000000000000000000008152600401610ff6906127cc565b60405180910390fd5b6000600a60069054906101000a900463ffffffff1663ffffffff1667ffffffffffffffff81111561103357611032611b02565b5b6040519080825280602002602001820160405280156110615781602001602082028036833780820191505090505b50905060006004600060075481526020019081526020016000206001018054806020026020016040519081016040528092919081815260200182805480156110c857602002820191906000526020600020905b8154815260200190600101908083116110b4575b50505050509050600a60069054906101000a900463ffffffff1663ffffffff1681511461112a576040517f08c379a000000000000000000000000000000000000000000000000000000000815260040161112190612838565b60405180910390fd5b6000600260009054906101000a900473ffffffffffffffffffffffffffffffffffffffff1673ffffffffffffffffffffffffffffffffffffffff1663f7c4cd6d6040518163ffffffff1660e01b8152600401600060405180830381865afa158015611199573d6000803e3d6000fd5b505050506040513d6000823e3d601f19601f820116820180604052508101906111c2919061255f565b905060005b600a60069054906101000a900463ffffffff1663ffffffff168110156112d0576000858483815181106111fd576111fc61227d565b5b602002602001015161120f9190612858565b905082518110611254576040517f08c379a000000000000000000000000000000000000000000000000000000000815260040161124b906128d5565b60405180910390fd5b8281815181106112675761126661227d565b5b60200260200101518583815181106112825761128161227d565b5b602002602001019073ffffffffffffffffffffffffffffffffffffffff16908173ffffffffffffffffffffffffffffffffffffffff16815250505080806112c890612347565b9150506111c7565b5082600b90805190602001906112e792919061198d565b507f32a1b5731a757f192a06ca973715ca4dbc42c2d15323cabaa74e0a2d5dc088e4600b60405161131891906128f5565b60405180910390a1600b8054806020026020016040519081016040528092919081815260200182805480156113a257602002820191906000526020600020905b8160009054906101000a900473ffffffffffffffffffffffffffffffffffffffff1673ffffffffffffffffffffffffffffffffffffffff1681526020019060010190808311611358575b505050505094505050505090565b60006113ba6117d1565b600560009054906101000a900473ffffffffffffffffffffffffffffffffffffffff1673ffffffffffffffffffffffffffffffffffffffff16635d3b1d30600954600560149054906101000a900467ffffffffffffffff16600a60049054906101000a900461ffff16600a60009054906101000a900463ffffffff16600a60069054906101000a900463ffffffff166040518663ffffffff1660e01b815260040161146995949392919061298f565b6020604051808303816000875af1158015611488573d6000803e3d6000fd5b505050506040513d601f19601f820116820180604052508101906114ac9190612446565b90506040518060600160405280600015158152602001600115158152602001600067ffffffffffffffff8111156114e6576114e5611b02565b5b6040519080825280602002602001820160405280156115145781602001602082028036833780820191505090505b508152506004600083815260200190815260200160002060008201518160000160006101000a81548160ff02191690831515021790555060208201518160000160016101000a81548160ff0219169083151502179055506040820151816001019080519060200190611587929190611a17565b50905050600681908060018154018082558091505060019003906000526020600020016000909190919091505580600781905550426008819055507fcc58b13ad3eab50626c6a6300b1d139cd6ebb1688a7cced9461c2f7e762665ee81600a60069054906101000a900463ffffffff166040516116059291906129e2565b60405180910390a17f7fcb39adb5b831fa03838de8ac6af690f48e3339ee8300eff17b1cd8035054df8160405161163c9190611f4b565b60405180910390a190565b61164f6117d1565b61165881611861565b50565b60075481565b6004600083815260200190815260200160002060000160019054906101000a900460ff166116c4576040517f08c379a00000000000000000000000000000000000000000000000000000000081526004016116bb9061273a565b60405180910390fd5b60016004600084815260200190815260200160002060000160006101000a81548160ff02191690831515021790555060005b815181101561175857600a8282815181106117145761171361227d565b5b60200260200101516117269190612858565b8282815181106117395761173861227d565b5b602002602001018181525050808061175090612347565b9150506116f6565b5080600460008481526020019081526020016000206001019080519060200190611783929190611a17565b507ffe2e2d779dba245964d4e3ef9b994be63856fd568bf7d3ca9e224755cb1bd54d82826040516117b5929190612ac9565b60405180910390a15050565b600b60006117cf9190611a64565b565b60008054906101000a900473ffffffffffffffffffffffffffffffffffffffff1673ffffffffffffffffffffffffffffffffffffffff163373ffffffffffffffffffffffffffffffffffffffff161461185f576040517f08c379a000000000000000000000000000000000000000000000000000000000815260040161185690612b45565b60405180910390fd5b565b3373ffffffffffffffffffffffffffffffffffffffff168173ffffffffffffffffffffffffffffffffffffffff16036118cf576040517f08c379a00000000000000000000000000000000000000000000000000000000081526004016118c690612bb1565b60405180910390fd5b80600160006101000a81548173ffffffffffffffffffffffffffffffffffffffff021916908373ffffffffffffffffffffffffffffffffffffffff1602179055508073ffffffffffffffffffffffffffffffffffffffff1660008054906101000a900473ffffffffffffffffffffffffffffffffffffffff1673ffffffffffffffffffffffffffffffffffffffff167fed8889f560326eb138920d842192f0eb3dd22b4f139c87a2c57538e05bae127860405160405180910390a350565b828054828255906000526020600020908101928215611a06579160200282015b82811115611a055782518260006101000a81548173ffffffffffffffffffffffffffffffffffffffff021916908373ffffffffffffffffffffffffffffffffffffffff160217905550916020019190600101906119ad565b5b509050611a139190611a85565b5090565b828054828255906000526020600020908101928215611a53579160200282015b82811115611a52578251825591602001919060010190611a37565b5b509050611a609190611a85565b5090565b5080546000825590600052602060002090810190611a829190611a85565b50565b5b80821115611a9e576000816000905550600101611a86565b5090565b6000604051905090565b600080fd5b600080fd5b6000819050919050565b611ac981611ab6565b8114611ad457600080fd5b50565b600081359050611ae681611ac0565b92915050565b600080fd5b6000601f19601f8301169050919050565b7f4e487b7100000000000000000000000000000000000000000000000000000000600052604160045260246000fd5b611b3a82611af1565b810181811067ffffffffffffffff82111715611b5957611b58611b02565b5b80604052505050565b6000611b6c611aa2565b9050611b788282611b31565b919050565b600067ffffffffffffffff821115611b9857611b97611b02565b5b602082029050602081019050919050565b600080fd5b6000611bc1611bbc84611b7d565b611b62565b90508083825260208201905060208402830185811115611be457611be3611ba9565b5b835b81811015611c0d5780611bf98882611ad7565b845260208401935050602081019050611be6565b5050509392505050565b600082601f830112611c2c57611c2b611aec565b5b8135611c3c848260208601611bae565b91505092915050565b60008060408385031215611c5c57611c5b611aac565b5b6000611c6a85828601611ad7565b925050602083013567ffffffffffffffff811115611c8b57611c8a611ab1565b5b611c9785828601611c17565b9150509250929050565b600073ffffffffffffffffffffffffffffffffffffffff82169050919050565b6000819050919050565b6000611ce6611ce1611cdc84611ca1565b611cc1565b611ca1565b9050919050565b6000611cf882611ccb565b9050919050565b6000611d0a82611ced565b9050919050565b611d1a81611cff565b82525050565b6000602082019050611d356000830184611d11565b92915050565b6000611d4682611ced565b9050919050565b611d5681611d3b565b82525050565b6000602082019050611d716000830184611d4d565b92915050565b6000611d8282611ca1565b9050919050565b611d9281611d77565b82525050565b6000602082019050611dad6000830184611d89565b92915050565b600060208284031215611dc957611dc8611aac565b5b6000611dd784828501611ad7565b91505092915050565b60008115159050919050565b611df581611de0565b82525050565b611e0481611ab6565b82525050565b600060c082019050611e1f6000830189611dec565b611e2c6020830188611dfb565b611e396040830187611dfb565b611e466060830186611dfb565b611e536080830185611dfb565b611e6060a0830184611dfb565b979650505050505050565b600081519050919050565b600082825260208201905092915050565b6000819050602082019050919050565b611ea081611d77565b82525050565b6000611eb28383611e97565b60208301905092915050565b6000602082019050919050565b6000611ed682611e6b565b611ee08185611e76565b9350611eeb83611e87565b8060005b83811015611f1c578151611f038882611ea6565b9750611f0e83611ebe565b925050600181019050611eef565b5085935050505092915050565b60006020820190508181036000830152611f438184611ecb565b905092915050565b6000602082019050611f606000830184611dfb565b92915050565b611f6f81611d77565b8114611f7a57600080fd5b50565b600081359050611f8c81611f66565b92915050565b600060208284031215611fa857611fa7611aac565b5b6000611fb684828501611f7d565b91505092915050565b6000604082019050611fd46000830185611d89565b611fe16020830184611d89565b9392505050565b600082825260208201905092915050565b7f4d7573742062652070726f706f736564206f776e657200000000000000000000600082015250565b600061202f601683611fe8565b915061203a82611ff9565b602082019050919050565b6000602082019050818103600083015261205e81612022565b9050919050565b7f4f6e6c7920746865206465706c6f7965722063616e2063616c6c20746869732060008201527f66756e6374696f6e000000000000000000000000000000000000000000000000602082015250565b60006120c1602883611fe8565b91506120cc82612065565b604082019050919050565b600060208201905081810360008301526120f0816120b4565b9050919050565b7f496e76616c69642070726f66697420616d6f756e740000000000000000000000600082015250565b600061212d601583611fe8565b9150612138826120f7565b602082019050919050565b6000602082019050818103600083015261215c81612120565b9050919050565b7f496e76616c6964206e756d626572206f662077696e6e65727300000000000000600082015250565b6000612199601983611fe8565b91506121a482612163565b602082019050919050565b600060208201905081810360008301526121c88161218c565b9050919050565b6000815190506121de81611f66565b92915050565b6000602082840312156121fa576121f9611aac565b5b6000612208848285016121cf565b91505092915050565b7f4e6f2070726f706f73657220666f756e64000000000000000000000000000000600082015250565b6000612247601183611fe8565b915061225282612211565b602082019050919050565b600060208201905081810360008301526122768161223a565b9050919050565b7f4e487b7100000000000000000000000000000000000000000000000000000000600052603260045260246000fd5b7f50726f706f7365722063616e6e6f7420626520612077696e6e65720000000000600082015250565b60006122e2601b83611fe8565b91506122ed826122ac565b602082019050919050565b60006020820190508181036000830152612311816122d5565b9050919050565b7f4e487b7100000000000000000000000000000000000000000000000000000000600052601160045260246000fd5b600061235282611ab6565b91507fffffffffffffffffffffffffffffffffffffffffffffffffffffffffffffffff820361238457612383612318565b5b600182019050919050565b600061239a82611ab6565b91506123a583611ab6565b92508282026123b381611ab6565b915082820484148315176123ca576123c9612318565b5b5092915050565b7f4e487b7100000000000000000000000000000000000000000000000000000000600052601260045260246000fd5b600061240b82611ab6565b915061241683611ab6565b925082612426576124256123d1565b5b828204905092915050565b60008151905061244081611ac0565b92915050565b60006020828403121561245c5761245b611aac565b5b600061246a84828501612431565b91505092915050565b60006040820190506124886000830185611d89565b6124956020830184611dfb565b9392505050565b600067ffffffffffffffff8211156124b7576124b6611b02565b5b602082029050602081019050919050565b60006124db6124d68461249c565b611b62565b905080838252602082019050602084028301858111156124fe576124fd611ba9565b5b835b81811015612527578061251388826121cf565b845260208401935050602081019050612500565b5050509392505050565b600082601f83011261254657612545611aec565b5b81516125568482602086016124c8565b91505092915050565b60006020828403121561257557612574611aac565b5b600082015167ffffffffffffffff81111561259357612592611ab1565b5b61259f84828501612531565b91505092915050565b600081549050919050565b60008190508160005260206000209050919050565b60008160001c9050919050565b600073ffffffffffffffffffffffffffffffffffffffff82169050919050565b6000612608612603836125c8565b6125d5565b9050919050565b600061261b82546125f5565b9050919050565b6000600182019050919050565b600061263a826125a8565b6126448185611e76565b935061264f836125b3565b8060005b83811015612687576126648261260f565b61266e8882611ea6565b975061267983612622565b925050600181019050612653565b5085935050505092915050565b600060a0820190506126a96000830188611dfb565b6126b66020830187611dfb565b6126c36040830186611dfb565b81810360608301526126d5818561262f565b90506126e46080830184611dfb565b9695505050505050565b7f72657175657374206e6f7420666f756e64000000000000000000000000000000600082015250565b6000612724601183611fe8565b915061272f826126ee565b602082019050919050565b6000602082019050818103600083015261275381612717565b9050919050565b7f4e6f7420656e6f7567682061646472657373657320666f722073656c6563746960008201527f6f6e000000000000000000000000000000000000000000000000000000000000602082015250565b60006127b6602283611fe8565b91506127c18261275a565b604082019050919050565b600060208201905081810360008301526127e5816127a9565b9050919050565b7f52616e646f6d20776f726473206e6f7420617661696c61626c65000000000000600082015250565b6000612822601a83611fe8565b915061282d826127ec565b602082019050919050565b6000602082019050818103600083015261285181612815565b9050919050565b600061286382611ab6565b915061286e83611ab6565b92508261287e5761287d6123d1565b5b828206905092915050565b7f496e646578206f7574206f6620626f756e647300000000000000000000000000600082015250565b60006128bf601383611fe8565b91506128ca82612889565b602082019050919050565b600060208201905081810360008301526128ee816128b2565b9050919050565b6000602082019050818103600083015261290f818461262f565b905092915050565b6000819050919050565b61292a81612917565b82525050565b600067ffffffffffffffff82169050919050565b61294d81612930565b82525050565b600061ffff82169050919050565b61296a81612953565b82525050565b600063ffffffff82169050919050565b61298981612970565b82525050565b600060a0820190506129a46000830188612921565b6129b16020830187612944565b6129be6040830186612961565b6129cb6060830185612980565b6129d86080830184612980565b9695505050505050565b60006040820190506129f76000830185611dfb565b612a046020830184612980565b9392505050565b600081519050919050565b600082825260208201905092915050565b6000819050602082019050919050565b612a4081611ab6565b82525050565b6000612a528383612a37565b60208301905092915050565b6000602082019050919050565b6000612a7682612a0b565b612a808185612a16565b9350612a8b83612a27565b8060005b83811015612abc578151612aa38882612a46565b9750612aae83612a5e565b925050600181019050612a8f565b5085935050505092915050565b6000604082019050612ade6000830185611dfb565b8181036020830152612af08184612a6b565b90509392505050565b7f4f6e6c792063616c6c61626c65206279206f776e657200000000000000000000600082015250565b6000612b2f601683611fe8565b9150612b3a82612af9565b602082019050919050565b60006020820190508181036000830152612b5e81612b22565b9050919050565b7f43616e6e6f74207472616e7366657220746f2073656c66000000000000000000600082015250565b6000612b9b601783611fe8565b9150612ba682612b65565b602082019050919050565b60006020820190508181036000830152612bca81612b8e565b905091905056fea2646970667358221220bb5f8d9034f662cfb3ef76bc7e0a8b37c7c3b942d71a38a84dd5234cd77e46b464736f6c63430008140033",
  "linkReferences": {},
  "deployedLinkReferences": {}
}