{
  "_format": "hh-sol-artifact-1",
  "contractName": "RegulatoryCompliance",
  "sourceName": "contracts/RegulatoryCompliance.sol",
  "abi": [
    {
      "inputs": [
        {
          "internalType": "address",
          "name": "_complianceDatabaseAddress",
          "type": "address"
        }
      ],
      "stateMutability": "nonpayable",
      "type": "constructor"
    },
    {
      "inputs": [
        {
          "internalType": "address",
          "name": "owner",
          "type": "address"
        }
      ],
      "name": "OwnableInvalidOwner",
      "type": "error"
    },
    {
      "inputs": [
        {
          "internalType": "address",
          "name": "account",
          "type": "address"
        }
      ],
      "name": "OwnableUnauthorizedAccount",
      "type": "error"
    },
    {
      "anonymous": false,
      "inputs": [
        {
          "indexed": true,
          "internalType": "address",
          "name": "user",
          "type": "address"
        },
        {
          "indexed": false,
          "internalType": "string",
          "name": "key",
          "type": "string"
        }
      ],
      "name": "AgreementSent",
      "type": "event"
    },
    {
      "anonymous": false,
      "inputs": [
        {
          "indexed": true,
          "internalType": "address",
          "name": "user",
          "type": "address"
        },
        {
          "indexed": false,
          "internalType": "bool",
          "name": "response",
          "type": "bool"
        }
      ],
      "name": "AgreementStatus",
      "type": "event"
    },
    {
      "anonymous": false,
      "inputs": [
        {
          "indexed": true,
          "internalType": "address",
          "name": "previousOwner",
          "type": "address"
        },
        {
          "indexed": true,
          "internalType": "address",
          "name": "newOwner",
          "type": "address"
        }
      ],
      "name": "OwnershipTransferred",
      "type": "event"
    },
    {
      "inputs": [],
      "name": "acceptAgreement",
      "outputs": [],
      "stateMutability": "nonpayable",
      "type": "function"
    },
    {
      "inputs": [
        {
          "internalType": "address",
          "name": "",
          "type": "address"
        }
      ],
      "name": "agreementStatus",
      "outputs": [
        {
          "internalType": "bool",
          "name": "",
          "type": "bool"
        }
      ],
      "stateMutability": "view",
      "type": "function"
    },
    {
      "inputs": [
        {
          "internalType": "address",
          "name": "_daoGovernanceAddress",
          "type": "address"
        },
        {
          "internalType": "address",
          "name": "_savingsContractAddress",
          "type": "address"
        }
      ],
      "name": "bindAddresses",
      "outputs": [],
      "stateMutability": "nonpayable",
      "type": "function"
    },
    {
      "inputs": [],
      "name": "daoGovernance",
      "outputs": [
        {
          "internalType": "contract IDAOGovernance",
          "name": "",
          "type": "address"
        }
      ],
      "stateMutability": "view",
      "type": "function"
    },
    {
      "inputs": [],
      "name": "owner",
      "outputs": [
        {
          "internalType": "address",
          "name": "",
          "type": "address"
        }
      ],
      "stateMutability": "view",
      "type": "function"
    },
    {
      "inputs": [],
      "name": "rejectAgreement",
      "outputs": [],
      "stateMutability": "nonpayable",
      "type": "function"
    },
    {
      "inputs": [],
      "name": "renounceOwnership",
      "outputs": [],
      "stateMutability": "nonpayable",
      "type": "function"
    },
    {
      "inputs": [],
      "name": "savingsContractAddress",
      "outputs": [
        {
          "internalType": "address",
          "name": "",
          "type": "address"
        }
      ],
      "stateMutability": "view",
      "type": "function"
    },
    {
      "inputs": [
        {
          "internalType": "string",
          "name": "key",
          "type": "string"
        }
      ],
      "name": "sendAgreements",
      "outputs": [],
      "stateMutability": "nonpayable",
      "type": "function"
    },
    {
      "inputs": [
        {
          "internalType": "address",
          "name": "newOwner",
          "type": "address"
        }
      ],
      "name": "transferOwnership",
      "outputs": [],
      "stateMutability": "nonpayable",
      "type": "function"
    },
    {
      "inputs": [
        {
          "internalType": "address",
          "name": "",
          "type": "address"
        }
      ],
      "name": "userResponded",
      "outputs": [
        {
          "internalType": "bool",
          "name": "",
          "type": "bool"
        }
      ],
      "stateMutability": "view",
      "type": "function"
    }
  ],
  "bytecode": "0x60806040523480156200001157600080fd5b506040516200155138038062001551833981810160405281019062000037919062000235565b33600073ffffffffffffffffffffffffffffffffffffffff168173ffffffffffffffffffffffffffffffffffffffff1603620000ad5760006040517f1e4fbdf7000000000000000000000000000000000000000000000000000000008152600401620000a4919062000278565b60405180910390fd5b620000be816200010760201b60201c565b5080600360006101000a81548173ffffffffffffffffffffffffffffffffffffffff021916908373ffffffffffffffffffffffffffffffffffffffff1602179055505062000295565b60008060009054906101000a900473ffffffffffffffffffffffffffffffffffffffff169050816000806101000a81548173ffffffffffffffffffffffffffffffffffffffff021916908373ffffffffffffffffffffffffffffffffffffffff1602179055508173ffffffffffffffffffffffffffffffffffffffff168173ffffffffffffffffffffffffffffffffffffffff167f8be0079c531659141344cd1fd0a4f28419497f9722a3daafe3b4186f6b6457e060405160405180910390a35050565b600080fd5b600073ffffffffffffffffffffffffffffffffffffffff82169050919050565b6000620001fd82620001d0565b9050919050565b6200020f81620001f0565b81146200021b57600080fd5b50565b6000815190506200022f8162000204565b92915050565b6000602082840312156200024e576200024d620001cb565b5b60006200025e848285016200021e565b91505092915050565b6200027281620001f0565b82525050565b60006020820190506200028f600083018462000267565b92915050565b6112ac80620002a56000396000f3fe608060405234801561001057600080fd5b50600436106100a95760003560e01c80638da5cb5b116100715780638da5cb5b1461012c5780639c443d3e1461014a578063c6bd048514610166578063c79001c714610196578063dac96d4a146101b4578063f2fde38b146101be576100a9565b806310c30b65146100ae5780633d4e5ddd146100b85780634820302a146100d65780634dc6901114610106578063715018a614610122575b600080fd5b6100b66101da565b005b6100c0610443565b6040516100cd9190610cb1565b60405180910390f35b6100f060048036038101906100eb9190610d1e565b610469565b6040516100fd9190610d66565b60405180910390f35b610120600480360381019061011b9190610d81565b610489565b005b61012a610558565b005b61013461056c565b6040516101419190610dd0565b60405180910390f35b610164600480360381019061015f9190610e50565b610595565b005b610180600480360381019061017b9190610d1e565b61071d565b60405161018d9190610d66565b60405180910390f35b61019e61073d565b6040516101ab9190610dd0565b60405180910390f35b6101bc610763565b005b6101d860048036038101906101d39190610d1e565b610a59565b005b600460009054906101000a900473ffffffffffffffffffffffffffffffffffffffff1673ffffffffffffffffffffffffffffffffffffffff16636c269b49336040518263ffffffff1660e01b81526004016102359190610dd0565b602060405180830381865afa158015610252573d6000803e3d6000fd5b505050506040513d601f19601f820116820180604052508101906102769190610ec9565b6102b5576040517f08c379a00000000000000000000000000000000000000000000000000000000081526004016102ac90610f53565b60405180910390fd5b600660003373ffffffffffffffffffffffffffffffffffffffff1673ffffffffffffffffffffffffffffffffffffffff16815260200190815260200160002060009054906101000a900460ff1615610342576040517f08c379a000000000000000000000000000000000000000000000000000000000815260040161033990610fbf565b60405180910390fd5b6001600660003373ffffffffffffffffffffffffffffffffffffffff1673ffffffffffffffffffffffffffffffffffffffff16815260200190815260200160002060006101000a81548160ff0219169083151502179055506000600560003373ffffffffffffffffffffffffffffffffffffffff1673ffffffffffffffffffffffffffffffffffffffff16815260200190815260200160002060006101000a81548160ff0219169083151502179055503373ffffffffffffffffffffffffffffffffffffffff167faa8dd44ce83ea864c2133f7bb1286c77668ea86e3b513eae210a735efda6e9b360006040516104399190610d66565b60405180910390a2565b600160009054906101000a900473ffffffffffffffffffffffffffffffffffffffff1681565b60066020528060005260406000206000915054906101000a900460ff1681565b610491610adf565b81600160006101000a81548173ffffffffffffffffffffffffffffffffffffffff021916908373ffffffffffffffffffffffffffffffffffffffff16021790555080600260006101000a81548173ffffffffffffffffffffffffffffffffffffffff021916908373ffffffffffffffffffffffffffffffffffffffff16021790555080600460006101000a81548173ffffffffffffffffffffffffffffffffffffffff021916908373ffffffffffffffffffffffffffffffffffffffff1602179055505050565b610560610adf565b61056a6000610b66565b565b60008060009054906101000a900473ffffffffffffffffffffffffffffffffffffffff16905090565b600260009054906101000a900473ffffffffffffffffffffffffffffffffffffffff1673ffffffffffffffffffffffffffffffffffffffff163373ffffffffffffffffffffffffffffffffffffffff1614610625576040517f08c379a000000000000000000000000000000000000000000000000000000000815260040161061c90611051565b60405180910390fd5b600360009054906101000a900473ffffffffffffffffffffffffffffffffffffffff1673ffffffffffffffffffffffffffffffffffffffff16635b2fdcc783836040518363ffffffff1660e01b81526004016106829291906110be565b600060405180830381865afa15801561069f573d6000803e3d6000fd5b505050506040513d6000823e3d601f19601f820116820180604052508101906106c8919061122d565b503373ffffffffffffffffffffffffffffffffffffffff167ffab5c81985d2766c7d5da55ce81760a566a1d9c93f7bec7468d57badcbe1010a83836040516107119291906110be565b60405180910390a25050565b60056020528060005260406000206000915054906101000a900460ff1681565b600260009054906101000a900473ffffffffffffffffffffffffffffffffffffffff1681565b600460009054906101000a900473ffffffffffffffffffffffffffffffffffffffff1673ffffffffffffffffffffffffffffffffffffffff16636c269b49336040518263ffffffff1660e01b81526004016107be9190610dd0565b602060405180830381865afa1580156107db573d6000803e3d6000fd5b505050506040513d601f19601f820116820180604052508101906107ff9190610ec9565b61083e576040517f08c379a000000000000000000000000000000000000000000000000000000000815260040161083590610f53565b60405180910390fd5b600660003373ffffffffffffffffffffffffffffffffffffffff1673ffffffffffffffffffffffffffffffffffffffff16815260200190815260200160002060009054906101000a900460ff16156108cb576040517f08c379a00000000000000000000000000000000000000000000000000000000081526004016108c290610fbf565b60405180910390fd5b6001600660003373ffffffffffffffffffffffffffffffffffffffff1673ffffffffffffffffffffffffffffffffffffffff16815260200190815260200160002060006101000a81548160ff0219169083151502179055506001600560003373ffffffffffffffffffffffffffffffffffffffff1673ffffffffffffffffffffffffffffffffffffffff16815260200190815260200160002060006101000a81548160ff021916908315150217905550600160009054906101000a900473ffffffffffffffffffffffffffffffffffffffff1673ffffffffffffffffffffffffffffffffffffffff1663f7a829d0336040518263ffffffff1660e01b81526004016109d69190610dd0565b600060405180830381600087803b1580156109f057600080fd5b505af1158015610a04573d6000803e3d6000fd5b505050503373ffffffffffffffffffffffffffffffffffffffff167faa8dd44ce83ea864c2133f7bb1286c77668ea86e3b513eae210a735efda6e9b36001604051610a4f9190610d66565b60405180910390a2565b610a61610adf565b600073ffffffffffffffffffffffffffffffffffffffff168173ffffffffffffffffffffffffffffffffffffffff1603610ad35760006040517f1e4fbdf7000000000000000000000000000000000000000000000000000000008152600401610aca9190610dd0565b60405180910390fd5b610adc81610b66565b50565b610ae7610c2a565b73ffffffffffffffffffffffffffffffffffffffff16610b0561056c565b73ffffffffffffffffffffffffffffffffffffffff1614610b6457610b28610c2a565b6040517f118cdaa7000000000000000000000000000000000000000000000000000000008152600401610b5b9190610dd0565b60405180910390fd5b565b60008060009054906101000a900473ffffffffffffffffffffffffffffffffffffffff169050816000806101000a81548173ffffffffffffffffffffffffffffffffffffffff021916908373ffffffffffffffffffffffffffffffffffffffff1602179055508173ffffffffffffffffffffffffffffffffffffffff168173ffffffffffffffffffffffffffffffffffffffff167f8be0079c531659141344cd1fd0a4f28419497f9722a3daafe3b4186f6b6457e060405160405180910390a35050565b600033905090565b600073ffffffffffffffffffffffffffffffffffffffff82169050919050565b6000819050919050565b6000610c77610c72610c6d84610c32565b610c52565b610c32565b9050919050565b6000610c8982610c5c565b9050919050565b6000610c9b82610c7e565b9050919050565b610cab81610c90565b82525050565b6000602082019050610cc66000830184610ca2565b92915050565b6000604051905090565b600080fd5b600080fd5b6000610ceb82610c32565b9050919050565b610cfb81610ce0565b8114610d0657600080fd5b50565b600081359050610d1881610cf2565b92915050565b600060208284031215610d3457610d33610cd6565b5b6000610d4284828501610d09565b91505092915050565b60008115159050919050565b610d6081610d4b565b82525050565b6000602082019050610d7b6000830184610d57565b92915050565b60008060408385031215610d9857610d97610cd6565b5b6000610da685828601610d09565b9250506020610db785828601610d09565b9150509250929050565b610dca81610ce0565b82525050565b6000602082019050610de56000830184610dc1565b92915050565b600080fd5b600080fd5b600080fd5b60008083601f840112610e1057610e0f610deb565b5b8235905067ffffffffffffffff811115610e2d57610e2c610df0565b5b602083019150836001820283011115610e4957610e48610df5565b5b9250929050565b60008060208385031215610e6757610e66610cd6565b5b600083013567ffffffffffffffff811115610e8557610e84610cdb565b5b610e9185828601610dfa565b92509250509250929050565b610ea681610d4b565b8114610eb157600080fd5b50565b600081519050610ec381610e9d565b92915050565b600060208284031215610edf57610ede610cd6565b5b6000610eed84828501610eb4565b91505092915050565b600082825260208201905092915050565b7f596f752063616e27742063616c6c20746869732066756e6374696f6e00000000600082015250565b6000610f3d601c83610ef6565b9150610f4882610f07565b602082019050919050565b60006020820190508181036000830152610f6c81610f30565b9050919050565b7f596f7520726573706f6e64656420616c72656164790000000000000000000000600082015250565b6000610fa9601583610ef6565b9150610fb482610f73565b602082019050919050565b60006020820190508181036000830152610fd881610f9c565b9050919050565b7f4f6e6c7920736176696e677320636f6e74726163742063616e2063616c6c207460008201527f6869732066756e6374696f6e0000000000000000000000000000000000000000602082015250565b600061103b602c83610ef6565b915061104682610fdf565b604082019050919050565b6000602082019050818103600083015261106a8161102e565b9050919050565b82818337600083830152505050565b6000601f19601f8301169050919050565b600061109d8385610ef6565b93506110aa838584611071565b6110b383611080565b840190509392505050565b600060208201905081810360008301526110d9818486611091565b90509392505050565b600080fd5b7f4e487b7100000000000000000000000000000000000000000000000000000000600052604160045260246000fd5b61111f82611080565b810181811067ffffffffffffffff8211171561113e5761113d6110e7565b5b80604052505050565b6000611151610ccc565b905061115d8282611116565b919050565b600067ffffffffffffffff82111561117d5761117c6110e7565b5b61118682611080565b9050602081019050919050565b60005b838110156111b1578082015181840152602081019050611196565b60008484015250505050565b60006111d06111cb84611162565b611147565b9050828152602081018484840111156111ec576111eb6110e2565b5b6111f7848285611193565b509392505050565b600082601f83011261121457611213610deb565b5b81516112248482602086016111bd565b91505092915050565b60006020828403121561124357611242610cd6565b5b600082015167ffffffffffffffff81111561126157611260610cdb565b5b61126d848285016111ff565b9150509291505056fea264697066735822122069b08131ba5a6af5655c9fecdc9ec95255fc50099fb7d0b8fc5fd749c387003b64736f6c63430008140033",
  "linkReferences": {},
  "deployedLinkReferences": {}
}